{
  "_format": "hh-sol-artifact-1",
  "contractName": "Pool",
  "sourceName": "contracts/Pool.sol",
  "abi": [
    {
      "inputs": [
        {
          "internalType": "address",
          "name": "_factory",
          "type": "address"
        }
      ],
      "stateMutability": "nonpayable",
      "type": "constructor"
    },
    {
      "inputs": [],
      "name": "ArrayLengthMismatch",
      "type": "error"
    },
    {
      "inputs": [],
      "name": "BatchTooLarge",
      "type": "error"
    },
    {
      "inputs": [],
      "name": "ContractsCannotPurchase",
      "type": "error"
    },
    {
      "inputs": [],
      "name": "CreatorNotAllowed",
      "type": "error"
    },
    {
      "inputs": [],
      "name": "ExceedsMaxSlots",
      "type": "error"
    },
    {
      "inputs": [],
      "name": "ExceedsSlotLimit",
      "type": "error"
    },
    {
      "inputs": [],
      "name": "ExceedsWinnersCount",
      "type": "error"
    },
    {
      "inputs": [],
      "name": "IncorrectPayment",
      "type": "error"
    },
    {
      "inputs": [],
      "name": "InvalidNonPrizedPurchase",
      "type": "error"
    },
    {
      "inputs": [],
      "name": "InvalidPoolState",
      "type": "error"
    },
    {
      "inputs": [],
      "name": "InvalidPrizeAmount",
      "type": "error"
    },
    {
      "inputs": [],
      "name": "InvalidPrizeCollection",
      "type": "error"
    },
    {
      "inputs": [],
      "name": "InvalidPrizeType",
      "type": "error"
    },
    {
      "inputs": [],
      "name": "InvalidState",
      "type": "error"
    },
    {
      "inputs": [],
      "name": "InvalidWinnerAddress",
      "type": "error"
    },
    {
      "inputs": [],
      "name": "MintingNotSupported",
      "type": "error"
    },
    {
      "inputs": [],
      "name": "NoPrizesClaimedYet",
      "type": "error"
    },
    {
      "inputs": [],
      "name": "NoPrizesToClaim",
      "type": "error"
    },
    {
      "inputs": [],
      "name": "NotAWinner",
      "type": "error"
    },
    {
      "inputs": [],
      "name": "OnlyOperator",
      "type": "error"
    },
    {
      "inputs": [],
      "name": "PoolDurationElapsed",
      "type": "error"
    },
    {
      "inputs": [],
      "name": "PoolNotActive",
      "type": "error"
    },
    {
      "inputs": [],
      "name": "PrizeTransferFailed",
      "type": "error"
    },
    {
      "inputs": [],
      "name": "ProtocolAdminNotAllowed",
      "type": "error"
    },
    {
      "inputs": [],
      "name": "SocialEngagementNotConfigured",
      "type": "error"
    },
    {
      "inputs": [],
      "name": "TimestampDelayIssue",
      "type": "error"
    },
    {
      "inputs": [],
      "name": "UnauthorizedCaller",
      "type": "error"
    },
    {
      "inputs": [],
      "name": "ZeroAddress",
      "type": "error"
    },
    {
      "inputs": [],
      "name": "ZeroQuantity",
      "type": "error"
    },
    {
      "inputs": [],
      "name": "ZeroSlotFee",
      "type": "error"
    },
    {
      "anonymous": false,
      "inputs": [
        {
          "indexed": false,
          "internalType": "string",
          "name": "reason",
          "type": "string"
        }
      ],
      "name": "BatchProcessingFailed",
      "type": "event"
    },
    {
      "anonymous": false,
      "inputs": [
        {
          "indexed": false,
          "internalType": "bytes",
          "name": "lowLevelData",
          "type": "bytes"
        }
      ],
      "name": "BatchProcessingFailedBytes",
      "type": "event"
    },
    {
      "anonymous": false,
      "inputs": [
        {
          "indexed": true,
          "internalType": "address",
          "name": "winner",
          "type": "address"
        },
        {
          "indexed": false,
          "internalType": "string",
          "name": "reason",
          "type": "string"
        }
      ],
      "name": "MintingFailed",
      "type": "event"
    },
    {
      "anonymous": false,
      "inputs": [
        {
          "indexed": true,
          "internalType": "address",
          "name": "previousOwner",
          "type": "address"
        },
        {
          "indexed": true,
          "internalType": "address",
          "name": "newOwner",
          "type": "address"
        }
      ],
      "name": "OwnershipTransferred",
      "type": "event"
    },
    {
      "anonymous": false,
      "inputs": [
        {
          "indexed": false,
          "internalType": "address",
          "name": "account",
          "type": "address"
        }
      ],
      "name": "Paused",
      "type": "event"
    },
    {
      "anonymous": false,
      "inputs": [
        {
          "indexed": true,
          "internalType": "address",
          "name": "winner",
          "type": "address"
        },
        {
          "indexed": false,
          "internalType": "uint256",
          "name": "amount",
          "type": "uint256"
        }
      ],
      "name": "PrizeClaimed",
      "type": "event"
    },
    {
      "anonymous": false,
      "inputs": [
        {
          "indexed": false,
          "internalType": "uint256",
          "name": "requestId",
          "type": "uint256"
        },
        {
          "indexed": true,
          "internalType": "address",
          "name": "caller",
          "type": "address"
        }
      ],
      "name": "RandomRequested",
      "type": "event"
    },
    {
      "anonymous": false,
      "inputs": [
        {
          "indexed": true,
          "internalType": "address",
          "name": "participant",
          "type": "address"
        },
        {
          "indexed": false,
          "internalType": "uint256",
          "name": "amount",
          "type": "uint256"
        }
      ],
      "name": "RefundClaimed",
      "type": "event"
    },
    {
      "anonymous": false,
      "inputs": [
        {
          "indexed": true,
          "internalType": "uint256",
          "name": "batchNumber",
          "type": "uint256"
        },
        {
          "indexed": false,
          "internalType": "uint256",
          "name": "participantCount",
          "type": "uint256"
        },
        {
          "indexed": false,
          "internalType": "uint256",
          "name": "shuffleStartIndex",
          "type": "uint256"
        },
        {
          "indexed": false,
          "internalType": "uint256",
          "name": "batchSize",
          "type": "uint256"
        }
      ],
      "name": "SelectionStarted",
      "type": "event"
    },
    {
      "anonymous": false,
      "inputs": [
        {
          "indexed": true,
          "internalType": "address",
          "name": "participant",
          "type": "address"
        },
        {
          "indexed": false,
          "internalType": "uint256",
          "name": "quantity",
          "type": "uint256"
        }
      ],
      "name": "SlotsPurchased",
      "type": "event"
    },
    {
      "anonymous": false,
      "inputs": [
        {
          "indexed": false,
          "internalType": "address",
          "name": "account",
          "type": "address"
        }
      ],
      "name": "Unpaused",
      "type": "event"
    },
    {
      "anonymous": false,
      "inputs": [
        {
          "indexed": false,
          "internalType": "address[]",
          "name": "winners",
          "type": "address[]"
        }
      ],
      "name": "WinnersSelected",
      "type": "event"
    },
    {
      "inputs": [
        {
          "internalType": "uint256",
          "name": "batchRandomSeed",
          "type": "uint256"
        }
      ],
      "name": "_processBatchWithRandomness",
      "outputs": [],
      "stateMutability": "nonpayable",
      "type": "function"
    },
    {
      "inputs": [
        {
          "internalType": "address",
          "name": "participant",
          "type": "address"
        }
      ],
      "name": "_processRefundExternal",
      "outputs": [
        {
          "internalType": "uint256",
          "name": "",
          "type": "uint256"
        }
      ],
      "stateMutability": "nonpayable",
      "type": "function"
    },
    {
      "inputs": [],
      "name": "amountPerWinner",
      "outputs": [
        {
          "internalType": "uint256",
          "name": "",
          "type": "uint256"
        }
      ],
      "stateMutability": "view",
      "type": "function"
    },
    {
      "inputs": [],
      "name": "batchCount",
      "outputs": [
        {
          "internalType": "uint256",
          "name": "",
          "type": "uint256"
        }
      ],
      "stateMutability": "view",
      "type": "function"
    },
    {
      "inputs": [
        {
          "internalType": "address[]",
          "name": "winnerAddresses",
          "type": "address[]"
        },
        {
          "internalType": "uint256[]",
          "name": "quantities",
          "type": "uint256[]"
        }
      ],
      "name": "batchMintToWinners",
      "outputs": [
        {
          "internalType": "uint256",
          "name": "successfulMints",
          "type": "uint256"
        }
      ],
      "stateMutability": "nonpayable",
      "type": "function"
    },
    {
      "inputs": [
        {
          "internalType": "uint256",
          "name": "",
          "type": "uint256"
        }
      ],
      "name": "batchRandomSeeds",
      "outputs": [
        {
          "internalType": "uint256",
          "name": "",
          "type": "uint256"
        }
      ],
      "stateMutability": "view",
      "type": "function"
    },
    {
      "inputs": [],
      "name": "claimCreatorPoints",
      "outputs": [],
      "stateMutability": "nonpayable",
      "type": "function"
    },
    {
      "inputs": [],
      "name": "claimPrize",
      "outputs": [],
      "stateMutability": "nonpayable",
      "type": "function"
    },
    {
      "inputs": [],
      "name": "claimRefund",
      "outputs": [],
      "stateMutability": "nonpayable",
      "type": "function"
    },
    {
      "inputs": [
        {
          "internalType": "address",
          "name": "",
          "type": "address"
        }
      ],
      "name": "claimedWins",
      "outputs": [
        {
          "internalType": "uint256",
          "name": "",
          "type": "uint256"
        }
      ],
      "stateMutability": "view",
      "type": "function"
    },
    {
      "inputs": [],
      "name": "closePool",
      "outputs": [],
      "stateMutability": "nonpayable",
      "type": "function"
    },
    {
      "inputs": [],
      "name": "creationFeePercentage",
      "outputs": [
        {
          "internalType": "uint256",
          "name": "",
          "type": "uint256"
        }
      ],
      "stateMutability": "view",
      "type": "function"
    },
    {
      "inputs": [],
      "name": "creator",
      "outputs": [
        {
          "internalType": "address",
          "name": "",
          "type": "address"
        }
      ],
      "stateMutability": "view",
      "type": "function"
    },
    {
      "inputs": [],
      "name": "currentBatchSize",
      "outputs": [
        {
          "internalType": "uint256",
          "name": "",
          "type": "uint256"
        }
      ],
      "stateMutability": "view",
      "type": "function"
    },
    {
      "inputs": [],
      "name": "deletePool",
      "outputs": [],
      "stateMutability": "nonpayable",
      "type": "function"
    },
    {
      "inputs": [],
      "name": "duration",
      "outputs": [
        {
          "internalType": "uint128",
          "name": "",
          "type": "uint128"
        }
      ],
      "stateMutability": "view",
      "type": "function"
    },
    {
      "inputs": [],
      "name": "endTime",
      "outputs": [
        {
          "internalType": "uint256",
          "name": "",
          "type": "uint256"
        }
      ],
      "stateMutability": "view",
      "type": "function"
    },
    {
      "inputs": [],
      "name": "erc20PrizeAmount",
      "outputs": [
        {
          "internalType": "uint256",
          "name": "",
          "type": "uint256"
        }
      ],
      "stateMutability": "view",
      "type": "function"
    },
    {
      "inputs": [],
      "name": "erc20PrizeToken",
      "outputs": [
        {
          "internalType": "address",
          "name": "",
          "type": "address"
        }
      ],
      "stateMutability": "view",
      "type": "function"
    },
    {
      "inputs": [],
      "name": "erc721EscrowClaimed",
      "outputs": [
        {
          "internalType": "bool",
          "name": "",
          "type": "bool"
        }
      ],
      "stateMutability": "view",
      "type": "function"
    },
    {
      "inputs": [],
      "name": "getParticipantsCount",
      "outputs": [
        {
          "internalType": "uint256",
          "name": "",
          "type": "uint256"
        }
      ],
      "stateMutability": "view",
      "type": "function"
    },
    {
      "inputs": [
        {
          "internalType": "address",
          "name": "participant",
          "type": "address"
        }
      ],
      "name": "getRefundableAmount",
      "outputs": [
        {
          "internalType": "uint256",
          "name": "",
          "type": "uint256"
        }
      ],
      "stateMutability": "view",
      "type": "function"
    },
    {
      "inputs": [],
      "name": "getSlotLimit",
      "outputs": [
        {
          "internalType": "uint256",
          "name": "",
          "type": "uint256"
        }
      ],
      "stateMutability": "view",
      "type": "function"
    },
    {
      "inputs": [
        {
          "internalType": "address",
          "name": "participant",
          "type": "address"
        }
      ],
      "name": "getSlotsPurchased",
      "outputs": [
        {
          "internalType": "uint256",
          "name": "",
          "type": "uint256"
        }
      ],
      "stateMutability": "view",
      "type": "function"
    },
    {
      "inputs": [
        {
          "internalType": "address",
          "name": "",
          "type": "address"
        }
      ],
      "name": "hasClaimedFeeRefund",
      "outputs": [
        {
          "internalType": "bool",
          "name": "",
          "type": "bool"
        }
      ],
      "stateMutability": "view",
      "type": "function"
    },
    {
      "inputs": [
        {
          "internalType": "address",
          "name": "",
          "type": "address"
        }
      ],
      "name": "hasCompletedSocialEngagement",
      "outputs": [
        {
          "internalType": "bool",
          "name": "",
          "type": "bool"
        }
      ],
      "stateMutability": "view",
      "type": "function"
    },
    {
      "inputs": [],
      "name": "holderData",
      "outputs": [
        {
          "internalType": "address",
          "name": "holderTokenAddress",
          "type": "address"
        },
        {
          "internalType": "enum PrizeTypes.Standard",
          "name": "holderTokenStandard",
          "type": "uint8"
        },
        {
          "internalType": "uint256",
          "name": "minHolderTokenBalance",
          "type": "uint256"
        },
        {
          "internalType": "uint256",
          "name": "holderTokenId",
          "type": "uint256"
        }
      ],
      "stateMutability": "view",
      "type": "function"
    },
    {
      "inputs": [],
      "name": "holderTokenAddress",
      "outputs": [
        {
          "internalType": "address",
          "name": "",
          "type": "address"
        }
      ],
      "stateMutability": "view",
      "type": "function"
    },
    {
      "inputs": [],
      "name": "holderTokenId",
      "outputs": [
        {
          "internalType": "uint256",
          "name": "",
          "type": "uint256"
        }
      ],
      "stateMutability": "view",
      "type": "function"
    },
    {
      "inputs": [],
      "name": "holderTokenStandard",
      "outputs": [
        {
          "internalType": "enum PrizeTypes.Standard",
          "name": "",
          "type": "uint8"
        }
      ],
      "stateMutability": "view",
      "type": "function"
    },
    {
      "inputs": [],
      "name": "i_vrfCoordinator",
      "outputs": [
        {
          "internalType": "contract VRFCoordinatorV2PlusInterface",
          "name": "",
          "type": "address"
        }
      ],
      "stateMutability": "view",
      "type": "function"
    },
    {
      "inputs": [
        {
          "components": [
            {
              "internalType": "address",
              "name": "manager",
              "type": "address"
            },
            {
              "internalType": "address",
              "name": "revenueRecipient",
              "type": "address"
            },
            {
              "internalType": "string",
              "name": "name",
              "type": "string"
            },
            {
              "internalType": "uint256",
              "name": "slotLimit",
              "type": "uint256"
            },
            {
              "internalType": "uint256",
              "name": "maxSlotsPerAddress",
              "type": "uint256"
            },
            {
              "internalType": "uint256",
              "name": "winnersCount",
              "type": "uint256"
            },
            {
              "internalType": "bool",
              "name": "isCollabPool",
              "type": "bool"
            },
            {
              "internalType": "bool",
              "name": "usesCustomFee",
              "type": "bool"
            },
            {
              "internalType": "bool",
              "name": "isExternalCollection",
              "type": "bool"
            },
            {
              "internalType": "uint256",
              "name": "protocolFeePercentage",
              "type": "uint256"
            },
            {
              "internalType": "uint256",
              "name": "creationFeePercentage",
              "type": "uint256"
            },
            {
              "internalType": "uint256",
              "name": "globalSlotFee",
              "type": "uint256"
            }
          ],
          "internalType": "struct Pool.PoolConfig",
          "name": "_poolConfig",
          "type": "tuple"
        },
        {
          "components": [
            {
              "internalType": "enum PrizeTypes.Standard",
              "name": "standard",
              "type": "uint8"
            },
            {
              "internalType": "address",
              "name": "prizeCollection",
              "type": "address"
            },
            {
              "internalType": "uint256",
              "name": "prizeTokenId",
              "type": "uint256"
            },
            {
              "internalType": "uint256",
              "name": "amountPerWinner",
              "type": "uint256"
            },
            {
              "internalType": "address",
              "name": "erc20PrizeToken",
              "type": "address"
            },
            {
              "internalType": "uint256",
              "name": "erc20PrizeAmount",
              "type": "uint256"
            },
            {
              "internalType": "uint256",
              "name": "nativePrizeAmount",
              "type": "uint256"
            },
            {
              "internalType": "bool",
              "name": "isEscrowedPrize",
              "type": "bool"
            }
          ],
          "internalType": "struct Pool.PrizeConfig",
          "name": "_prizeConfig",
          "type": "tuple"
        },
        {
          "components": [
            {
              "internalType": "address",
              "name": "holderTokenAddress",
              "type": "address"
            },
            {
              "internalType": "enum PrizeTypes.Standard",
              "name": "holderTokenStandard",
              "type": "uint8"
            },
            {
              "internalType": "uint256",
              "name": "minHolderTokenBalance",
              "type": "uint256"
            },
            {
              "internalType": "uint256",
              "name": "holderTokenId",
              "type": "uint256"
            }
          ],
          "internalType": "struct Pool.HolderConfig",
          "name": "_holderConfig",
          "type": "tuple"
        },
        {
          "internalType": "bool",
          "name": "_socialEngagementRequired",
          "type": "bool"
        },
        {
          "internalType": "address",
          "name": "_creator",
          "type": "address"
        },
        {
          "internalType": "uint256",
          "name": "_startTime",
          "type": "uint256"
        },
        {
          "internalType": "uint256",
          "name": "_duration",
          "type": "uint256"
        },
        {
          "internalType": "uint256",
          "name": "_slotFee",
          "type": "uint256"
        },
        {
          "internalType": "bool",
          "name": "_isPrized",
          "type": "bool"
        }
      ],
      "name": "initialize",
      "outputs": [],
      "stateMutability": "payable",
      "type": "function"
    },
    {
      "inputs": [],
      "name": "isCollabPool",
      "outputs": [
        {
          "internalType": "bool",
          "name": "",
          "type": "bool"
        }
      ],
      "stateMutability": "view",
      "type": "function"
    },
    {
      "inputs": [],
      "name": "isEscrowedPrize",
      "outputs": [
        {
          "internalType": "bool",
          "name": "",
          "type": "bool"
        }
      ],
      "stateMutability": "view",
      "type": "function"
    },
    {
      "inputs": [],
      "name": "isExternalCollection",
      "outputs": [
        {
          "internalType": "bool",
          "name": "",
          "type": "bool"
        }
      ],
      "stateMutability": "view",
      "type": "function"
    },
    {
      "inputs": [],
      "name": "isPrized",
      "outputs": [
        {
          "internalType": "bool",
          "name": "",
          "type": "bool"
        }
      ],
      "stateMutability": "view",
      "type": "function"
    },
    {
      "inputs": [],
      "name": "isRefundable",
      "outputs": [
        {
          "internalType": "bool",
          "name": "",
          "type": "bool"
        }
      ],
      "stateMutability": "view",
      "type": "function"
    },
    {
      "inputs": [],
      "name": "maxSlotsPerAddress",
      "outputs": [
        {
          "internalType": "uint256",
          "name": "",
          "type": "uint256"
        }
      ],
      "stateMutability": "view",
      "type": "function"
    },
    {
      "inputs": [],
      "name": "minHolderTokenBalance",
      "outputs": [
        {
          "internalType": "uint256",
          "name": "",
          "type": "uint256"
        }
      ],
      "stateMutability": "view",
      "type": "function"
    },
    {
      "inputs": [],
      "name": "mint",
      "outputs": [],
      "stateMutability": "nonpayable",
      "type": "function"
    },
    {
      "inputs": [],
      "name": "name",
      "outputs": [
        {
          "internalType": "string",
          "name": "",
          "type": "string"
        }
      ],
      "stateMutability": "view",
      "type": "function"
    },
    {
      "inputs": [],
      "name": "nativePrizeAmount",
      "outputs": [
        {
          "internalType": "uint256",
          "name": "",
          "type": "uint256"
        }
      ],
      "stateMutability": "view",
      "type": "function"
    },
    {
      "inputs": [
        {
          "internalType": "address",
          "name": "",
          "type": "address"
        },
        {
          "internalType": "address",
          "name": "",
          "type": "address"
        },
        {
          "internalType": "uint256[]",
          "name": "",
          "type": "uint256[]"
        },
        {
          "internalType": "uint256[]",
          "name": "",
          "type": "uint256[]"
        },
        {
          "internalType": "bytes",
          "name": "",
          "type": "bytes"
        }
      ],
      "name": "onERC1155BatchReceived",
      "outputs": [
        {
          "internalType": "bytes4",
          "name": "",
          "type": "bytes4"
        }
      ],
      "stateMutability": "pure",
      "type": "function"
    },
    {
      "inputs": [
        {
          "internalType": "address",
          "name": "",
          "type": "address"
        },
        {
          "internalType": "address",
          "name": "",
          "type": "address"
        },
        {
          "internalType": "uint256",
          "name": "",
          "type": "uint256"
        },
        {
          "internalType": "uint256",
          "name": "",
          "type": "uint256"
        },
        {
          "internalType": "bytes",
          "name": "",
          "type": "bytes"
        }
      ],
      "name": "onERC1155Received",
      "outputs": [
        {
          "internalType": "bytes4",
          "name": "",
          "type": "bytes4"
        }
      ],
      "stateMutability": "pure",
      "type": "function"
    },
    {
      "inputs": [
        {
          "internalType": "address",
          "name": "",
          "type": "address"
        },
        {
          "internalType": "address",
          "name": "",
          "type": "address"
        },
        {
          "internalType": "uint256",
          "name": "",
          "type": "uint256"
        },
        {
          "internalType": "bytes",
          "name": "",
          "type": "bytes"
        }
      ],
      "name": "onERC721Received",
      "outputs": [
        {
          "internalType": "bytes4",
          "name": "",
          "type": "bytes4"
        }
      ],
      "stateMutability": "pure",
      "type": "function"
    },
    {
      "inputs": [],
      "name": "owner",
      "outputs": [
        {
          "internalType": "address",
          "name": "",
          "type": "address"
        }
      ],
      "stateMutability": "view",
      "type": "function"
    },
    {
      "inputs": [
        {
          "internalType": "uint256",
          "name": "",
          "type": "uint256"
        }
      ],
      "name": "participants",
      "outputs": [
        {
          "internalType": "address",
          "name": "",
          "type": "address"
        }
      ],
      "stateMutability": "view",
      "type": "function"
    },
    {
      "inputs": [],
      "name": "paused",
      "outputs": [
        {
          "internalType": "bool",
          "name": "",
          "type": "bool"
        }
      ],
      "stateMutability": "view",
      "type": "function"
    },
    {
      "inputs": [],
      "name": "pendingProtocolFee",
      "outputs": [
        {
          "internalType": "uint256",
          "name": "",
          "type": "uint256"
        }
      ],
      "stateMutability": "view",
      "type": "function"
    },
    {
      "inputs": [],
      "name": "poolData",
      "outputs": [
        {
          "internalType": "string",
          "name": "name",
          "type": "string"
        },
        {
          "internalType": "uint256",
          "name": "winnersCount",
          "type": "uint256"
        },
        {
          "internalType": "uint256",
          "name": "maxSlotsPerAddress",
          "type": "uint256"
        },
        {
          "internalType": "uint256",
          "name": "slotLimit",
          "type": "uint256"
        },
        {
          "internalType": "address",
          "name": "revenueRecipient",
          "type": "address"
        },
        {
          "internalType": "bool",
          "name": "isCollabPool",
          "type": "bool"
        },
        {
          "internalType": "bool",
          "name": "usesCustomFee",
          "type": "bool"
        },
        {
          "internalType": "bool",
          "name": "isExternalCollection",
          "type": "bool"
        },
        {
          "internalType": "bool",
          "name": "isRefundable",
          "type": "bool"
        },
        {
          "internalType": "bool",
          "name": "erc721EscrowClaimed",
          "type": "bool"
        },
        {
          "internalType": "bool",
          "name": "isEscrowedPrize",
          "type": "bool"
        },
        {
          "internalType": "bool",
          "name": "wasDeletedForFullRefund",
          "type": "bool"
        },
        {
          "internalType": "bool",
          "name": "protocolFeeCalculated",
          "type": "bool"
        },
        {
          "internalType": "bool",
          "name": "randomRequested",
          "type": "bool"
        },
        {
          "internalType": "bool",
          "name": "randomnessUsed",
          "type": "bool"
        },
        {
          "internalType": "bool",
          "name": "socialEngagementRequired",
          "type": "bool"
        }
      ],
      "stateMutability": "view",
      "type": "function"
    },
    {
      "inputs": [],
      "name": "poolSubscriptionId",
      "outputs": [
        {
          "internalType": "uint256",
          "name": "",
          "type": "uint256"
        }
      ],
      "stateMutability": "view",
      "type": "function"
    },
    {
      "inputs": [
        {
          "internalType": "address",
          "name": "participant",
          "type": "address"
        }
      ],
      "name": "prizeClaimed",
      "outputs": [
        {
          "internalType": "uint256",
          "name": "",
          "type": "uint256"
        }
      ],
      "stateMutability": "view",
      "type": "function"
    },
    {
      "inputs": [],
      "name": "prizeCollection",
      "outputs": [
        {
          "internalType": "address",
          "name": "",
          "type": "address"
        }
      ],
      "stateMutability": "view",
      "type": "function"
    },
    {
      "inputs": [],
      "name": "prizeData",
      "outputs": [
        {
          "internalType": "enum PrizeTypes.Standard",
          "name": "standard",
          "type": "uint8"
        },
        {
          "internalType": "address",
          "name": "prizeCollection",
          "type": "address"
        },
        {
          "internalType": "uint256",
          "name": "prizeTokenId",
          "type": "uint256"
        },
        {
          "internalType": "uint256",
          "name": "amountPerWinner",
          "type": "uint256"
        },
        {
          "internalType": "address",
          "name": "erc20PrizeToken",
          "type": "address"
        },
        {
          "internalType": "uint256",
          "name": "erc20PrizeAmount",
          "type": "uint256"
        },
        {
          "internalType": "uint256",
          "name": "nativePrizeAmount",
          "type": "uint256"
        },
        {
          "internalType": "uint256",
          "name": "prizesClaimedCount",
          "type": "uint256"
        }
      ],
      "stateMutability": "view",
      "type": "function"
    },
    {
      "inputs": [],
      "name": "prizeTokenId",
      "outputs": [
        {
          "internalType": "uint256",
          "name": "",
          "type": "uint256"
        }
      ],
      "stateMutability": "view",
      "type": "function"
    },
    {
      "inputs": [],
      "name": "prizesClaimedCount",
      "outputs": [
        {
          "internalType": "uint256",
          "name": "",
          "type": "uint256"
        }
      ],
      "stateMutability": "view",
      "type": "function"
    },
    {
      "inputs": [],
      "name": "protocolFeeCalculated",
      "outputs": [
        {
          "internalType": "bool",
          "name": "",
          "type": "bool"
        }
      ],
      "stateMutability": "view",
      "type": "function"
    },
    {
      "inputs": [],
      "name": "protocolFeePercentage",
      "outputs": [
        {
          "internalType": "uint256",
          "name": "",
          "type": "uint256"
        }
      ],
      "stateMutability": "view",
      "type": "function"
    },
    {
      "inputs": [
        {
          "internalType": "uint256",
          "name": "quantity",
          "type": "uint256"
        },
        {
          "internalType": "uint256",
          "name": "_deadline",
          "type": "uint256"
        },
        {
          "internalType": "bytes",
          "name": "_signature",
          "type": "bytes"
        },
        {
          "internalType": "uint256[]",
          "name": "_tokenIds",
          "type": "uint256[]"
        }
      ],
      "name": "purchaseSlots",
      "outputs": [],
      "stateMutability": "payable",
      "type": "function"
    },
    {
      "inputs": [],
      "name": "randomRequested",
      "outputs": [
        {
          "internalType": "bool",
          "name": "",
          "type": "bool"
        }
      ],
      "stateMutability": "view",
      "type": "function"
    },
    {
      "inputs": [],
      "name": "randomSeed",
      "outputs": [
        {
          "internalType": "uint256",
          "name": "",
          "type": "uint256"
        }
      ],
      "stateMutability": "view",
      "type": "function"
    },
    {
      "inputs": [],
      "name": "randomnessUsed",
      "outputs": [
        {
          "internalType": "bool",
          "name": "",
          "type": "bool"
        }
      ],
      "stateMutability": "view",
      "type": "function"
    },
    {
      "inputs": [
        {
          "internalType": "uint256",
          "name": "requestId",
          "type": "uint256"
        },
        {
          "internalType": "uint256[]",
          "name": "randomWords",
          "type": "uint256[]"
        }
      ],
      "name": "rawFulfillRandomWords",
      "outputs": [],
      "stateMutability": "nonpayable",
      "type": "function"
    },
    {
      "inputs": [
        {
          "internalType": "address",
          "name": "",
          "type": "address"
        }
      ],
      "name": "refundableAmount",
      "outputs": [
        {
          "internalType": "uint256",
          "name": "",
          "type": "uint256"
        }
      ],
      "stateMutability": "view",
      "type": "function"
    },
    {
      "inputs": [
        {
          "internalType": "address",
          "name": "",
          "type": "address"
        }
      ],
      "name": "refundedNonWinningSlots",
      "outputs": [
        {
          "internalType": "uint256",
          "name": "",
          "type": "uint256"
        }
      ],
      "stateMutability": "view",
      "type": "function"
    },
    {
      "inputs": [],
      "name": "renounceOwnership",
      "outputs": [],
      "stateMutability": "nonpayable",
      "type": "function"
    },
    {
      "inputs": [],
      "name": "requestRandomness",
      "outputs": [],
      "stateMutability": "nonpayable",
      "type": "function"
    },
    {
      "inputs": [],
      "name": "revenueData",
      "outputs": [
        {
          "internalType": "uint256",
          "name": "protocolFeePercentage",
          "type": "uint256"
        },
        {
          "internalType": "uint256",
          "name": "creationFeePercentage",
          "type": "uint256"
        },
        {
          "internalType": "uint256",
          "name": "totalCreatorRevenue",
          "type": "uint256"
        },
        {
          "internalType": "uint256",
          "name": "totalRefundableAmount",
          "type": "uint256"
        },
        {
          "internalType": "uint256",
          "name": "totalGlobalFeeRevenue",
          "type": "uint256"
        },
        {
          "internalType": "uint256",
          "name": "pendingProtocolFee",
          "type": "uint256"
        }
      ],
      "stateMutability": "view",
      "type": "function"
    },
    {
      "inputs": [],
      "name": "revenueRecipient",
      "outputs": [
        {
          "internalType": "address",
          "name": "",
          "type": "address"
        }
      ],
      "stateMutability": "view",
      "type": "function"
    },
    {
      "inputs": [],
      "name": "s_vrf_lastRequestId",
      "outputs": [
        {
          "internalType": "uint256",
          "name": "",
          "type": "uint256"
        }
      ],
      "stateMutability": "view",
      "type": "function"
    },
    {
      "inputs": [],
      "name": "shuffleStartIndex",
      "outputs": [
        {
          "internalType": "uint256",
          "name": "",
          "type": "uint256"
        }
      ],
      "stateMutability": "view",
      "type": "function"
    },
    {
      "inputs": [],
      "name": "slotFee",
      "outputs": [
        {
          "internalType": "uint256",
          "name": "",
          "type": "uint256"
        }
      ],
      "stateMutability": "view",
      "type": "function"
    },
    {
      "inputs": [],
      "name": "slotLimit",
      "outputs": [
        {
          "internalType": "uint256",
          "name": "",
          "type": "uint256"
        }
      ],
      "stateMutability": "view",
      "type": "function"
    },
    {
      "inputs": [
        {
          "internalType": "address",
          "name": "",
          "type": "address"
        }
      ],
      "name": "slotsPurchased",
      "outputs": [
        {
          "internalType": "uint256",
          "name": "",
          "type": "uint256"
        }
      ],
      "stateMutability": "view",
      "type": "function"
    },
    {
      "inputs": [],
      "name": "socialEngagementRequired",
      "outputs": [
        {
          "internalType": "bool",
          "name": "",
          "type": "bool"
        }
      ],
      "stateMutability": "view",
      "type": "function"
    },
    {
      "inputs": [],
      "name": "standard",
      "outputs": [
        {
          "internalType": "enum PrizeTypes.Standard",
          "name": "",
          "type": "uint8"
        }
      ],
      "stateMutability": "view",
      "type": "function"
    },
    {
      "inputs": [],
      "name": "startTime",
      "outputs": [
        {
          "internalType": "uint128",
          "name": "",
          "type": "uint128"
        }
      ],
      "stateMutability": "view",
      "type": "function"
    },
    {
      "inputs": [],
      "name": "state",
      "outputs": [
        {
          "internalType": "enum IPool.PoolState",
          "name": "",
          "type": "uint8"
        }
      ],
      "stateMutability": "view",
      "type": "function"
    },
    {
      "inputs": [
        {
          "internalType": "bytes4",
          "name": "interfaceId",
          "type": "bytes4"
        }
      ],
      "name": "supportsInterface",
      "outputs": [
        {
          "internalType": "bool",
          "name": "",
          "type": "bool"
        }
      ],
      "stateMutability": "view",
      "type": "function"
    },
    {
      "inputs": [
        {
          "internalType": "uint256",
          "name": "",
          "type": "uint256"
        }
      ],
      "name": "tokenIdClaimedBy",
      "outputs": [
        {
          "internalType": "address",
          "name": "",
          "type": "address"
        }
      ],
      "stateMutability": "view",
      "type": "function"
    },
    {
      "inputs": [],
      "name": "totalCreatorRevenue",
      "outputs": [
        {
          "internalType": "uint256",
          "name": "",
          "type": "uint256"
        }
      ],
      "stateMutability": "view",
      "type": "function"
    },
    {
      "inputs": [],
      "name": "totalGlobalFeeRevenue",
      "outputs": [
        {
          "internalType": "uint256",
          "name": "",
          "type": "uint256"
        }
      ],
      "stateMutability": "view",
      "type": "function"
    },
    {
      "inputs": [],
      "name": "totalRefundableAmount",
      "outputs": [
        {
          "internalType": "uint256",
          "name": "",
          "type": "uint256"
        }
      ],
      "stateMutability": "view",
      "type": "function"
    },
    {
      "inputs": [
        {
          "internalType": "address",
          "name": "newOwner",
          "type": "address"
        }
      ],
      "name": "transferOwnership",
      "outputs": [],
      "stateMutability": "nonpayable",
      "type": "function"
    },
    {
      "inputs": [],
      "name": "usesCustomFee",
      "outputs": [
        {
          "internalType": "bool",
          "name": "",
          "type": "bool"
        }
      ],
      "stateMutability": "view",
      "type": "function"
    },
    {
      "inputs": [],
      "name": "wasDeletedForFullRefund",
      "outputs": [
        {
          "internalType": "bool",
          "name": "",
          "type": "bool"
        }
      ],
      "stateMutability": "view",
      "type": "function"
    },
    {
      "inputs": [
        {
          "internalType": "uint256",
          "name": "",
          "type": "uint256"
        }
      ],
      "name": "winners",
      "outputs": [
        {
          "internalType": "address",
          "name": "",
          "type": "address"
        }
      ],
      "stateMutability": "view",
      "type": "function"
    },
    {
      "inputs": [],
      "name": "winnersCount",
      "outputs": [
        {
          "internalType": "uint256",
          "name": "",
          "type": "uint256"
        }
      ],
      "stateMutability": "view",
      "type": "function"
    },
    {
      "inputs": [],
      "name": "winnersSelected",
      "outputs": [
        {
          "internalType": "uint256",
          "name": "",
          "type": "uint256"
        }
      ],
      "stateMutability": "view",
      "type": "function"
    },
    {
      "inputs": [
        {
          "internalType": "address",
          "name": "",
          "type": "address"
        }
      ],
      "name": "winsPerAddress",
      "outputs": [
        {
          "internalType": "uint256",
          "name": "",
          "type": "uint256"
        }
      ],
      "stateMutability": "view",
      "type": "function"
    },
    {
      "inputs": [],
      "name": "withdrawCreatorRevenue",
      "outputs": [],
      "stateMutability": "nonpayable",
      "type": "function"
    },
    {
      "inputs": [],
      "name": "withdrawProtocolRevenue",
      "outputs": [],
      "stateMutability": "nonpayable",
      "type": "function"
    }
  ],
  "bytecode": "0x60a034620000bb57601f620060cc38819003918201601f19168301916001600160401b03831184841017620000c057808492602094604052833981010312620000bb57516001600160a01b03908181168103620000bb576000543360018060a01b0319821617600055604051923391167f8be0079c531659141344cd1fd0a4f28419497f9722a3daafe3b4186f6b6457e0600080a36001805560ff1960025416600255608052615ff59081620000d78239608051816112d10152f35b600080fd5b634e487b7160e01b600052604160045260246000fdfe608080604052600436101561001357600080fd5b600090813560e01c90816301ffc9a7146138965750806302d05d3f1461386d5780630631c5c21461384f57806306f130561461383157806306fdde03146137fd57806308521974146131565780630aa00e70146137df5780630b747d91146137c15780630b78824b146137a35780630e4fa1581461377d5780630fb5a6b41461375c5780631249c58b14613330578063128f4ba414613312578063150b7a02146132bb5780631ae25dd01461326c5780631fe543e31461318f57806325444fa4146131565780632c1fecfe146131305780633197cbb614613115578063321679fa146130f7578063327bb1ad1461100957806335c1d349146130b35780633b26314d1461308a5780634002143414612c6e57806342b72afa14612c3657806344a9098614612c1857806348a3a45014612bf25780634971381114612bd45780634e3ff46014612b955780634f7f0fc014612b565780635755248e14612b385780635a3b7e4214612b125780635c975abb14612aef5780635f369a321461220757806366805de5146121ee578063677375c3146121d0578063683d1936146121aa578063696917ba146121845780636e61a1601461215e5780636e8b38db1461213157806370740ac9146120f7578063715018a61461209d57806371840629146119ff578063740e2198146119d357806378e97925146119ac578063813e88b91461198e578063837d11281461196857806387213c35146119425780638778d82c146119195780638851bcf61461102c578063888dc1981461100e578063898b36db146110095780638bc5328514610feb5780638bfbbcbe14610fd25780638d7fe47814610fac5780638da5cb5b14610f855780638e50e50914610f6757806394f5c9dc14610f1f5780639ed5c1cc14610ef6578063a0dca61714610ecb578063a177ec0914610ea0578063a2fb117514610e44578063a67d0e6c14610e26578063ae4b82c114610dfc578063aebc455014610dcf578063af78ed0a14610db1578063b0b606c014610d7e578063b15825ae14610d58578063b5545a3c14610d29578063b5ad841214610b7d578063bc197c8114610af1578063c19d93fb14610ac2578063c2e784bd14610aa4578063c3fa0e3b14610a86578063c58fe16214610a68578063cabfaa1814610a4a578063cc7d49ec14610a24578063d0d11ae814610a06578063d17d1359146109cd578063d447e9bc14610976578063d91043f2146109af578063dc8a55c214610976578063e511a11b1461093d578063e620decf14610917578063e6f12cf7146108f9578063f23a6e61146108a2578063f2fde38b14610814578063f8413b0714610652578063fb687df414610625578063fd22b17c1461057f578063fd75a1f11461050e5763fee151ae1461041557600080fd5b3461050b578060031936011261050b57610451610430613af1565b600a54600b54600c54600d54916040519586956102008088528701906138eb565b9360208601526040850152606084015260018060a01b038116608084015260ff90818160a01c16151560a0850152818160a81c16151560c0850152818160b01c16151560e0850152818160b81c161515610100850152818160c01c161515610120850152818160c81c161515610140850152818160d01c161515610160850152818160d81c161515610180850152818160e01c1615156101a0850152818160e81c1615156101c085015260f01c1615156101e08301520390f35b80fd5b503461050b578060031936011261050b57610100600e54600f546010549060018060a01b03918260115416601254916013549360145495604051976105568960ff8316613998565b60081c16602088015260408701526060860152608085015260a084015260c083015260e0820152f35b503461050b578060031936011261050b5780546040516336b87bd760e11b815233600482015290602090829060249082906001600160a01b03165afa90811561061a5782916105ec575b50156105da576105d7615864565b80f35b6040516327e1f1e560e01b8152600490fd5b61060d915060203d8111610613575b6106058183613a6e565b810190614385565b386105c9565b503d6105fb565b6040513d84823e3d90fd5b503461050b578060031936011261050b57600e5460405160089190911c6001600160a01b03168152602090f35b503461050b578060031936011261050b5761066b613c97565b4210156107fc575b61068661067e613c97565b421015613d42565b60075460ff8160a81c1660088110156107e857600281149081156107dd575b50806107d0575b15610755576015546001600160a01b0390811661078657602754600a5411610782575b602b5415918261076e575b1633148015610759575b156107555760ff600d5460e01c1661071057610703575b6105d7614038565b61070b615a1d565b6106fb565b60405162461bcd60e51b815260206004820152601960248201527f5265717565737420616c726561647920696e20666c69676874000000000000006044820152606490fd5b5080fd5b503382526025602052604082205415156106e4565b610776613c97565b4210156106da575b8380fd5b8280fd5b600a546032810290808204603214901517156107bc576064900480156107b4575b60275410156106cf578280fd5b5060016107a7565b634e487b7160e01b84526011600452602484fd5b50602b54600a54116106ac565b6003915014386106a5565b634e487b7160e01b83526021600452602483fd5b6007805460ff60a81b1916600160a91b179055610673565b503461050b57602036600319011261050b5761082e61392b565b610836613b9d565b6001600160a01b0381161561084e576105d790613bf5565b60405162461bcd60e51b815260206004820152602660248201527f4f776e61626c653a206e6577206f776e657220697320746865207a65726f206160448201526564647265737360d01b6064820152608490fd5b503461050b5760a036600319011261050b576108bc61392b565b506108c5613941565b506084356001600160401b038111610755576108e590369060040161396b565b505060405163f23a6e6160e01b8152602090f35b503461050b578060031936011261050b576020601c54604051908152f35b503461050b578060031936011261050b57602060ff600d5460d81c166040519015158152f35b503461050b57602036600319011261050b576020906040906001600160a01b0361096561392b565b168152602283522054604051908152f35b503461050b57602036600319011261050b576020906040906001600160a01b0361099e61392b565b168152601f83522054604051908152f35b503461050b578060031936011261050b576020601954604051908152f35b503461050b57602036600319011261050b576020906040906001600160a01b036109f561392b565b168152601e83522054604051908152f35b503461050b578060031936011261050b576020601354604051908152f35b503461050b578060031936011261050b57602060ff600d5460d01c166040519015158152f35b503461050b578060031936011261050b576020602754604051908152f35b503461050b578060031936011261050b576020600b54604051908152f35b503461050b578060031936011261050b576020601d54604051908152f35b503461050b578060031936011261050b576020600454604051908152f35b503461050b578060031936011261050b5760ff60075460a81c166040519060088110156107e857602092508152f35b503461050b5760a036600319011261050b57610b0b61392b565b50610b14613941565b506001600160401b0360443581811161078257610b359036906004016139bb565b505060643581811161078257610b4f9036906004016139bb565b505060843590811161075557610b6990369060040161396b565b505060405163bc197c8160e01b8152602090f35b503461050b578060031936011261050b57610b96613cec565b600d546001600160a01b0390818116903382900361077e5760ff60075460a81c16906008821015610d1557908492916005821461077e576007821461077e5760b01c60ff1615610cf557600691925003610cba5782905b601a54801561078257828092918192610c23610c19612710610c1160195486613ccc565b04809461402b565b9284601a55615aa9565b5af1610c2d613e79565b5015610755576020602491610c40615c47565b83541660405192838092630425172560e31b82523060048301525afa90811561061a578291610c84575b50610c77575b6001805580f35b610c7f6159c5565b610c70565b90506020813d8211610cb2575b81610c9e60209383613a6e565b81010312610cad575138610c6a565b600080fd5b3d9150610c91565b60405162461bcd60e51b815260206004820152601360248201527210d85b9b9bdd081dda5d1a191c985dc81e595d606a1b6044820152606490fd5b60048114908115610d0a575b50610bed575080fd5b600691501438610d01565b634e487b7160e01b85526021600452602485fd5b503461050b578060031936011261050b57610d42613cec565b610d4b33614b01565b1561050b57610c7061568b565b503461050b578060031936011261050b57602060ff600d5460b01c166040519015158152f35b503461050b57602036600319011261050b57602090600435815260238252604060018060a01b0391205416604051908152f35b503461050b578060031936011261050b576020601a54604051908152f35b503461050b578060031936011261050b5760025460405160089190911c6001600160a01b03168152602090f35b503461050b57602036600319011261050b5760406020916004358152602683522054604051908152f35b503461050b578060031936011261050b576020600554604051908152f35b503461050b57602036600319011261050b576004356028548110156107555760286000527fe16da923a2d88192e5070f37b4571d58682c0d66212ec634d495f33de3f77ab501546040516001600160a01b039091168152602090f35b503461050b578060031936011261050b57602060ff60155460a01c16610ec96040518092613998565bf35b503461050b578060031936011261050b576007546001600160a01b0316330361050b576105d7615c47565b503461050b578060031936011261050b576011546040516001600160a01b039091168152602090f35b503461050b578060031936011261050b5760c0601854601954601a54601b54601c5491601d5493604051958652602086015260408501526060840152608083015260a0820152f35b503461050b578060031936011261050b576020601854604051908152f35b503461050b578060031936011261050b57546040516001600160a01b039091168152602090f35b503461050b578060031936011261050b57602060ff600d5460e01c166040519015158152f35b503461050b578060031936011261050b576105d7615227565b503461050b578060031936011261050b576020602b54604051908152f35b6139eb565b503461050b578060031936011261050b576020601454604051908152f35b5060031961026036820112610755576001600160401b036004351161075557610180809160043536030112610755576040519081018181106001600160401b0382111761190357604052611084600435600401613957565b8152611094602460043501613957565b6020820152604460043501356001600160401b03811161078257600435013660238201121561078257826004820135916110cd83613a8f565b926110db6040519485613a6e565b8084523660248284010111610782578060246020930183860137830101526040820152600435606481013560608301526084810135608083015260a481013560a083015261112b9060c401613aaa565b60c082015261113e60e460043501613aaa565b60e082015261115261010460043501613aaa565b6101008201526101246004350135610120820152610144600435013561014082015261016460043501356101608201526101006023193601126107555760405190816101008101106001600160401b0361010084011117611903576101008201604052600460243510156107825760243582526044356001600160a01b0381169003610cad5760443560208301526064356040830152608435606083015260a4356001600160a01b0381169003610cad5760a435608083015260c43560a083015260e43560c08301526101043515156101043503610cad576101043560e0830152608036610123190112610782576040518060808101106001600160401b036080830111176119035760808101604052610124356001600160a01b0381168103610cad578152600461014435101561077e576101443560208201526101643560408201526101843560608201526101a43515156101a43503610cad576101c4356001600160a01b0381169003610cad57610244358015158103610cad577f00000000000000000000000000000000000000000000000000000000000000006001600160a01b031633036118ff5784546001600160a01b03166118ff5782516001600160a01b031661132281613bf5565b600780546001600160a01b031981166101c4356001600160a01b03161790915560405163ec644ddd60e01b8152909160a082600481845afa9182156118b95788926118c4575b50602060249160405192838092630425172560e31b82523060048301525afa9081156118b9578891611887575b5060035560028054610100600160a81b03191660089290921b610100600160a81b0316919091179055610224356005556006805487166101e4356001600160801b0316176102043560801b6fffffffffffffffffffffffffffffffff191617905590151560a01b60ff60a01b166001600160b01b03199091166101c4356001600160a01b0316171760075560408201518051906001600160401b038211611873578190611443600954613ab7565b601f8111611801575b50602090601f831160011461178b578792611780575b50508160011b916000199060031b1c1916176009555b60a0820151600a556080820151600b556060820151600c5560208201516001600160a01b0316801561177557915b600d805460c083015160e0840151610100850151600167ff0000000000000160b81b031984166001600160a01b0389161792151560a01b60ff60a01b1692831791151560a81b60ff60a81b1691821790151560b01b60ff60b01b169081176101a435151560f01b60ff60f01b16179094558751939590949193600481101561176157600e805460208b0151610100600160a81b0360089190911b1660ff939093166001600160a81b0319909116179190911790556040880151600f5560608801516010556080880151601180546001600160a01b039283166001600160a01b031990911617905560a089015160125560c089015160135581511680611706575b5050610120810151601855610140810151601955610160015160c08701519096901561165d57505050505050610224350361050b57600d805460ff60c81b1916600160c81b1790555b60ff60075460a01c168061164e575b1561162857600a54600d805460ff60b81b1916600190921160b81b60ff60b81b1691909117905580f35b600d5460ff8160a81c161561163b575080f35b60ff60b81b1916600160b81b17600d5580f35b5060ff600d5460a81c166115fe565b60808101516001600160a01b03161561169757505050505050610224350361050b57600d805460ff60c81b1916600160c81b1790556115ef565b9091929394955060018060a01b036020820151166116bb575b5050505050506115ef565b60e060ff60c81b910151151560c81b169460018060a01b03169068ff00ffffffff00ffff60b81b161717171760ff60f01b6101a435151560f01b161717600d553880808080806116b0565b601554906020830151600481101561174d576001600160a81b03199092161760a09190911b60ff60a01b1617601555604081015160165560600151601755610160386115a6565b634e487b7160e01b8c52602160045260248cfd5b634e487b7160e01b8a52602160045260248afd5b506101c435916114a6565b015190503880611462565b925060098752600080516020615fa08339815191529087935b601f19841685106117e6576001945083601f198116106117cd575b505050811b01600955611478565b015160001960f88460031b161c191690553880806117bf565b818101518355602094850194600190930192909101906117a4565b90915060098752601f830160051c600080516020615fa0833981519152016020841061185e575b908392915b601f820160051c600080516020615fa0833981519152018110611850575061144c565b88815584935060010161182d565b50600080516020615fa0833981519152611828565b634e487b7160e01b86526041600452602486fd5b90506020813d6020116118b1575b816118a260209383613a6e565b81010312610cad575138611395565b3d9150611895565b6040513d8a823e3d90fd5b60249192506118ec60209160a03d60a0116118f8575b6118e48183613a6e565b810190613c50565b50505050929150611368565b503d6118da565b8480fd5b634e487b7160e01b600052604160045260246000fd5b503461050b578060031936011261050b576015546040516001600160a01b039091168152602090f35b503461050b578060031936011261050b57602060ff600d5460f01c166040519015158152f35b503461050b578060031936011261050b57602060ff600d5460a81c166040519015158152f35b503461050b578060031936011261050b576020601054604051908152f35b503461050b578060031936011261050b5760206001600160801b0360065416604051908152f35b503461050b57602036600319011261050b5760206119f76119f261392b565b614854565b604051908152f35b503461050b57604036600319011261050b576001600160401b039060043582811161075557611a329036906004016139bb565b91909260243590811161075557611a4d9036906004016139bb565b9390611a57613cec565b60075460ff8160a81c166008811015610d155760040361077e5785850361077e57841561077e576032851161077e576001600160a01b039081163303611f60575b600e5493818560081c16948515611f4e5760ff600d5460c81c16611ec35760ff1681805b888210611ee95750506004811015611ed55780611d1657508096815b878110611b935750505050505050611afb602092611af4614784565b809261402b565b80611b0e575b5060018055604051908152f35b611b8a7fbcd905a8eb4cc473497e2cd24cf41334ea7fad80c354380f8fff04a025b1e5f891604051907402130ba31b41031b7b6b83632ba32b2103bb4ba341605d1b86830152603582015268206661696c7572657360b81b6055820152603e8152611b7881613a53565b604051918291868352868301906138eb565b0390a138611b01565b611ba6611ba1828a89614760565b614770565b611bb1828488614760565b35883b156118ff576040516340c10f1960e01b81526001600160a01b038316600482015260248101829052858082604481838f5af19182611cfe575b5050611cc157509060019182611c01613dea565b6308c379a014611c78575b611c19575b505b01611ad8565b611c21613e79565b50600080516020615f608339815191528660405192169180611c6f816060906020815260176020820152762637bb96b632bb32b61036b4b73a34b7339032b93937b960491b60408201520190565b0390a238611c11565b611c80613e08565b80611c8c575b50611c0c565b90508590600080516020615f6083398151915260405180611cb86020948583528c8816958301906138eb565b0390a238611c86565b996001929a86611cf893168652601f60205260408620611ce2828254613cdf565b9055611cf16014918254613cdf565b9055614376565b98611c13565b611d0790613a40565b611d12578538611bed565b8580fd5b600195908603611ec3578197825b888110611d41575050505050505050611afb602092611af4614784565b611d4f611ba1828b8a614760565b611d5a828489614760565b35611d6760105482613ccc565b600f54863b15611ebf57604051630ab714fb60e11b81526001600160a01b038516600482015260248101919091526044810191909152868082606481838b5af19182611ea7575b5050611e81575090889182611dc1613dea565b6308c379a014611e38575b611dd9575b505b01611d24565b611de1613e79565b50600080516020615f608339815191528760405192169180611e2f816060906020815260176020820152762637bb96b632bb32b61036b4b73a34b7339032b93937b960491b60408201520190565b0390a238611dd1565b611e40613e08565b80611e4c575b50611dcc565b90508690600080516020615f6083398151915260405180611e786020948583528d8816958301906138eb565b0390a238611e46565b9a89929b87611ea193168752601f60205260408720611ce2828254613cdf565b99611dd3565b611eb090613a40565b611ebb578638611dae565b8680fd5b8780fd5b60405163fd34e50560e01b8152600490fd5b634e487b7160e01b82526021600452602482fd5b84611ef8611ba1848c8b614760565b16808552611f196020601e8152601f6040882054915260408720549061402b565b90156118ff5780156118ff57611f30838c89614760565b351161077e57600190611f44838c89614760565b3501910190611abc565b60405163424ca23960e01b8152600490fd5b83600e5460ff8116600481101561208957839291908061200b575060209150600460405180948193638da5cb5b60e01b835260081c165afa908115612000579082918691611fc5575b505b16330315611a9857604051635c427cd960e01b8152600490fd5b9150506020813d8211611ff8575b81611fe060209383613a6e565b810103126118ff57611ff28291613c3c565b38611fa9565b3d9150611fd3565b6040513d87823e3d90fd5b600114612019575b50611fab565b60209150600460405180948193638da5cb5b60e01b835260081c165afa90811561200057908291869161204e575b5038612013565b9150506020813d8211612081575b8161206960209383613a6e565b810103126118ff5761207b8291613c3c565b38612047565b3d915061205c565b634e487b7160e01b87526021600452602487fd5b503461050b578060031936011261050b576120b6613b9d565b600080546001600160a01b0319811682556001600160a01b03167f8be0079c531659141344cd1fd0a4f28419497f9722a3daafe3b4186f6b6457e08280a380f35b503461050b578060031936011261050b57612110613cec565b60ff60075460a81c166008811015611ed55760040361050b57610c7061439d565b503461050b57602036600319011261050b5761214b61392b565b9030330361050b5760206119f783614b01565b503461050b578060031936011261050b57602060ff600d5460c01c166040519015158152f35b503461050b578060031936011261050b57602060ff600d5460c81c166040519015158152f35b503461050b578060031936011261050b57602060ff60075460a01c166040519015158152f35b503461050b578060031936011261050b576020601b54604051908152f35b503461050b578060031936011261050b576105d7615029565b50608036600319011261050b576001600160401b036044358181116107825761223490369060040161396b565b9160643590811161077e5761224d9036906004016139bb565b929091612258613cec565b60075460ff90818160a81c166008811015612aa25715612ac7575b50333203612ab657600754818160a81c16956008871015612aa2576001809703612a90573315612a7e57600435958615612a6c576005548015612a5a57876122ba91613ccc565b3403612a48576001600160801b03600654164210612a36576122da613c97565b421015612a24576027946122ef888754613cdf565b600c5410612a1257338a526020966025885261230f8960408d2054613cdf565b600b5410612a0057858560a01c1615806129cd575b6129bb578a54604051638da5cb5b60e01b81526001600160a01b039691871691908d908b81600481875afa90811561061a57899291612983575b50163314612971578616331461296057888c8880600d5460f01c169182612949575b5050612829575b505050506015918254858582169182612478575b505050505050503386526025835260408620848154019055855b8481106124335750907ffd1903a7f9f31de6cf38a88eda98ae029aeba3b2ec48a599d7c0d900f0f335cb9291600d5460a81c16156000146124265734601c5401601c555b54600c5414612411575b6040519283523392a2805580f35b612419615a1d565b612421614038565b612403565b34601a5401601a556123f9565b825490600160401b8210156119035761247261245483898095018755613a09565b81546001600160a01b0360039290921b91821b19163390911b179055565b016123b5565b60a01c16600481101561174d578890806127255750505080156127215788906016805483811460001461257e5750501061253057858360249235935416604051928380926331a9108f60e11b82528660048301525afa90811561257357899161253e575b508233911603611ebf5787526023845260408720908154908116801580918115612534575b50156125305761251b575b50505b3880808080858161239b565b6001600160a01b03191633179055388061250c565b8880fd5b9050331438612501565b90508581813d831161256c575b6125558183613a6e565b810103126125305761256690613c3c565b386124dc565b503d61254b565b6040513d8b823e3d90fd5b90919392811160001461271d5780841061271d57908a95949392918c5b8181106126af5750508b955b6125b7575b50505050505061250f565b80548610156126aa576125cb868484614760565b358c60248b88885416604051928380926331a9108f60e11b82528760048301525afa91821561269e5791612665575b508633911603612661578c526023895260408c2080549686881691821580938115612657575b5015612653578d986126389361263e575b5050614376565b956125a7565b6001600160a01b031916331790553880612631565b8e80fd5b9050331438612620565b8c80fd5b90508a81813d8311612697575b61267c8183613a6e565b810103126126935761268d90613c3c565b386125fa565b8d80fd5b503d612672565b604051903d90823e3d90fd5b6125ac565b909192939495968101808211612709575b8281106126de57506126d190614376565b908b96959493929161259b565b6126e9828787614760565b356126f5828888614760565b35146126935761270490614376565b6126c0565b634e487b7160e01b8e52601160045260248efd5b8b80fd5b8980fd5b935093509350508781146000146127b25750601754604051627eeac760e11b8152336004820152602481019190915291829060449082905afa9081156127a757879161277a575b50601654111561250f578580fd5b90508381813d83116127a0575b6127918183613a6e565b81010312610cad57513861276c565b503d612787565b6040513d89823e3d90fd5b6002146127c1575b505061250f565b6040516370a0823160e01b815233600482015291829060249082905afa9081156127a75787916127fc575b5060165411611d125738836127ba565b90508381813d8311612822575b6128138183613a6e565b81010312610cad5751386127ec565b503d612809565b604051636b90bda960e01b815291829060049082905afa801561293e5786918d91612906575b501680156128f4578b92813b1561077e57839183918360a46040518097819682956324fa7e3f60e21b8452336004850152306024850152602435604485015260806064850152816084850152848401378181018301849052601f01601f191681010301925af1801561061a576128e0575b50503389526024865260408920805460ff19168917905538808088612387565b6128e990613a40565b6125305788386128c0565b6040516343361aaf60e01b8152600490fd5b8092508a8092503d8311612937575b61291f8183613a6e565b8101031261271d576129318691613c3c565b3861284f565b503d612915565b6040513d8e823e3d90fd5b60409192503381526024845220541615888e612380565b60405162ca6a8360e51b8152600490fd5b604051635f2a002d60e11b8152600490fd5b8092508c8092503d83116129b4575b61299c8183613a6e565b81010312612693576129ae8891613c3c565b3861235e565b503d612992565b604051631274fa9d60e31b8152600490fd5b5085600d5460a81c1680156129f6575b806123245750338b526025885260408b20541515612324565b50898914156129dd565b604051637145fa7b60e01b8152600490fd5b6040516302edeeb760e31b8152600490fd5b60405163fd2a413d60e01b8152600490fd5b604051633d8c21b360e01b8152600490fd5b60405163569e8c1160e01b8152600490fd5b60405163d2100d7360e01b8152600490fd5b60405163f4f5b73360e01b8152600490fd5b60405163d92e233d60e01b8152600490fd5b6040516338c0a90160e11b8152600490fd5b634e487b7160e01b88526021600452602488fd5b60405162c44f5760e51b8152600490fd5b6001600160801b036006541642106122735760ff60a81b1916600160a81b1760075538612273565b503461050b578060031936011261050b57602060ff600254166040519015158152f35b503461050b578060031936011261050b57602060ff600e5416610ec96040518092613998565b503461050b578060031936011261050b576020601654604051908152f35b503461050b57602036600319011261050b5760209060ff906040906001600160a01b03612b8161392b565b168152602184522054166040519015158152f35b503461050b57602036600319011261050b5760209060ff906040906001600160a01b03612bc061392b565b168152602484522054166040519015158152f35b503461050b578060031936011261050b576020600a54604051908152f35b503461050b578060031936011261050b57602060ff600d5460e81c166040519015158152f35b503461050b578060031936011261050b576020602c54604051908152f35b503461050b57602036600319011261050b576020906040906001600160a01b03612c5e61392b565b1681528280522054604051908152f35b503461050b57602080600319360112610755576004359030330361078257602d54835260268152816040842055612ca6602d54614376565b602d55602c5491602a549060275490612cbe85613dbf565b90612ccc6040519283613a6e565b858252612cd886613dbf565b8286019490601f1901368637875b878110612f8957505050855b858110612ef55750612d23600d549560ff60e01b198716600d55612d1881602a54613cdf565b602a55602b54613cdf565b9283602b55604051918583019086845251809152604083019190885b87828210612ed8575050505090807f32a1b5731a757f192a06ca973715ca4dbc42c2d15323cabaa74e0a2d5dc088e4920390a16015546001600160a01b03161580159190612ecd57808310801590612ec1575b15612dc9576007805460ff60a81b1916600160aa1b179081905560a01c60ff1680612eb4575b80612ea7575b80612e99575b612dd1575b505050505080f35b612df392612dea9280612e8e575b15612e84579061402b565b60055490613ccc565b612710612e0260185483613ccc565b0490612e0e828261402b565b92601a5490828210612e49575090612e259161402b565b601a55601d55601b5561ffff60d81b1916600160d81b17600d553880808080612dc9565b6064906040519062461bcd60e51b825260048201526014602482015273496e73756666696369656e7420726576656e756560601b6044820152fd5b50600a549061402b565b50600a548110612ddf565b5060ff8560d81c1615612dc4565b5060ff8560b81c16612dbe565b5060ff8560a81c16612db8565b50600a54831015612d92565b600a54831015612d92565b83516001600160a01b031685529384019390920191600101612d3f565b6001600160a01b03612f078284613dd6565b5116906028918254600160401b8110156119035760018101808555811015612f7357612f6e936000527fe16da923a2d88192e5070f37b4571d58682c0d66212ec634d495f33de3f77ab501906bffffffffffffffffffffffff60a01b825416179055614376565b612cf2565b634e487b7160e01b600052603260045260246000fd5b612f9c81612f97848861402b565b61402b565b6040518881019085825283604082015260408152612fb981613a53565b51902090612fc78385613cdf565b91811561307657612fe5613071949361302d9361304c930690613cdf565b612fee81613a09565b9054600391821b1c6001600160a01b0390811694918561300e888d613dd6565b5261302161301c888b613cdf565b613a09565b9054911b1c1691613a09565b90919082549060031b9160018060a01b03809116831b921b1916179055565b61305d8161302d61301c8588613cdf565b8a52601e885260408a20611cf18154614376565b612ce6565b634e487b7160e01b8c52601260045260248cfd5b503461050b578060031936011261050b57600d546040516001600160a01b039091168152602090f35b503461050b57602036600319011261050b576004359060275482101561050b5760206130de83613a09565b905460405160039290921b1c6001600160a01b03168152f35b503461050b578060031936011261050b576020601254604051908152f35b503461050b578060031936011261050b5760206119f7613c97565b503461050b578060031936011261050b57602060ff600d5460b81c166040519015158152f35b503461050b57602036600319011261050b576020906040906001600160a01b0361317e61392b565b168152602583522054604051908152f35b503461050b57604036600319011261050b576024356001600160401b038111610755576131c09036906004016139bb565b60025460081c6001600160a01b03163303613228576131de81613dbf565b916131ec6040519384613a6e565b8183526020918284019060051b820191368311611d1257905b82821061321957856105d786600435613ea9565b81358152908301908301613205565b606460405162461bcd60e51b815260206004820152602060248201527f4f6e6c792056524620436f6f7264696e61746f722063616e2066756c66696c6c6044820152fd5b503461050b578060031936011261050b576015546016546017546040516001600160a01b03841681526080939092906132af90602085019060a01c60ff16613998565b60408301526060820152f35b503461050b57608036600319011261050b576132d561392b565b506132de613941565b506064356001600160401b038111610755576132fe90369060040161396b565b5050604051630a85bd0160e11b8152602090f35b503461050b578060031936011261050b576020600354604051908152f35b503461050b578060031936011261050b57613349613cec565b600760ff815460a81c1660088110156107e8576004036107555761336b615cec565b50601554600e546001600160a01b039182161593929091600883901c168015611f4e57600d9260ff845460c81c1661374a5760ff16600481101561208957806135e15750803b15611d12576040516340c10f1960e01b81523360048201526024810183905290869081908390604490829084905af191826135cd575b505061353e575060016133f8613dea565b6308c379a0146134d5575b61345c575b50505b61341581156159ad565b613420576001805580f35b602754600a5490818111613436575b5050610c70565b600a916134429161402b565b1061344f575b388061342f565b61345761568b565b613448565b613464613e79565b50604051600080516020615f608339815191523391806134a98160609060208152601060208201526f131bddcb5b195d995b081c995d995c9d60821b60408201520190565b0390a2805460ff60d01b1916600160d01b179055805460ff60a81b1916600560a81b1790553880613408565b6134dd613e08565b806134e9575b50613403565b90508490600080516020615f608339815191526040516020815280613513339460208301906138eb565b0390a2815460ff60d01b1916600160d01b178255825460ff60a81b1916600560a81b178355386134e3565b80925061354b9150615f07565b604051908152602090600080516020615f80833981519152823392a23383526025815261357c604084205433615b66565b604051636e8b38db60e01b8152336004820152818160248187305af16135a4575b505061340b565b813d83116135c6575b6135b78183613a6e565b81010312610cad57388061359d565b503d6135ad565b6135d690613a40565b611d125785386133e7565b60010361374a5785600f5491836010540290803b1561078257604051630ab714fb60e11b8152336004820152602481019490945260448401919091528290606490829084905af19081613737575b5061353e5750600161363f613dea565b6308c379a0146136ce575b61365557505061340b565b61365d613e79565b50604051600080516020615f608339815191523391806136a28160609060208152601060208201526f131bddcb5b195d995b081c995d995c9d60821b60408201520190565b0390a2805460ff60d01b1916600160d01b179055805460ff60a81b1916600560a81b179055388061359d565b6136d6613e08565b806136e2575b5061364a565b90508490600080516020615f60833981519152604051602081528061370c339460208301906138eb565b0390a2815460ff60d01b1916600160d01b178255825460ff60a81b1916600560a81b178355386136dc565b61374390969196613a40565b943861362f565b604051631558dc5f60e31b8152600490fd5b503461050b578060031936011261050b57602060065460801c604051908152f35b503461050b578060031936011261050b57602060ff600d5460a01c166040519015158152f35b503461050b578060031936011261050b576020600f54604051908152f35b503461050b578060031936011261050b576020602954604051908152f35b503461050b578060031936011261050b576020601754604051908152f35b503461050b578060031936011261050b5761382d613819613af1565b6040519182916020835260208301906138eb565b0390f35b503461050b578060031936011261050b576020602d54604051908152f35b503461050b578060031936011261050b576020602a54604051908152f35b503461050b578060031936011261050b576007546040516001600160a01b039091168152602090f35b9050346107555760203660031901126107555760043563ffffffff60e01b81168091036107825760209250630a85bd0160e11b81149081156138da575b5015158152f35b630271189760e51b149050386138d3565b919082519283825260005b848110613917575050826000602080949584010152601f8019910116010190565b6020818301810151848301820152016138f6565b600435906001600160a01b0382168203610cad57565b602435906001600160a01b0382168203610cad57565b35906001600160a01b0382168203610cad57565b9181601f84011215610cad578235916001600160401b038311610cad5760208381860195010111610cad57565b9060048210156139a55752565b634e487b7160e01b600052602160045260246000fd5b9181601f84011215610cad578235916001600160401b038311610cad576020808501948460051b010111610cad57565b34610cad576000366003190112610cad576020600c54604051908152f35b602754811015612f735760276000527f98a476f1687bc3d60a2da2adbcba2c46958e61fa2fb4042cd7bc5816a710195b0190600090565b6001600160401b03811161190357604052565b606081019081106001600160401b0382111761190357604052565b90601f801991011681019081106001600160401b0382111761190357604052565b6001600160401b03811161190357601f01601f191660200190565b35908115158203610cad57565b90600182811c92168015613ae7575b6020831014613ad157565b634e487b7160e01b600052602260045260246000fd5b91607f1691613ac6565b6040519060008260095491613b0583613ab7565b80835292600190818116908115613b7b5750600114613b2e575b50613b2c92500383613a6e565b565b600960009081529150600080516020615fa08339815191525b848310613b605750613b2c935050810160200138613b1f565b81935090816020925483858a01015201910190918592613b47565b905060209250613b2c94915060ff191682840152151560051b82010138613b1f565b6000546001600160a01b03163303613bb157565b606460405162461bcd60e51b815260206004820152602060248201527f4f776e61626c653a2063616c6c6572206973206e6f7420746865206f776e65726044820152fd5b600080546001600160a01b039283166001600160a01b03198216811783559216907f8be0079c531659141344cd1fd0a4f28419497f9722a3daafe3b4186f6b6457e09080a3565b51906001600160a01b0382168203610cad57565b908160a0910312610cad57613c6481613c3c565b91602082015191604081015191606082015163ffffffff81168103610cad5760809092015161ffff81168103610cad5790565b6006546001600160801b0390818160801c911601818111613cb6571690565b634e487b7160e01b600052601160045260246000fd5b81810292918115918404141715613cb657565b91908201809211613cb657565b600260015414613cfd576002600155565b60405162461bcd60e51b815260206004820152601f60248201527f5265656e7472616e637947756172643a207265656e7472616e742063616c6c006044820152606490fd5b15613d4957565b60405162461bcd60e51b815260206004820152602860248201527f54696d657374616d702064656c61792069737375652c2074727920616761696e6044820152672073686f72746c7960c01b6064820152608490fd5b8115613da9570490565b634e487b7160e01b600052601260045260246000fd5b6001600160401b0381116119035760051b60200190565b8051821015612f735760209160051b010190565b60009060033d11613df757565b905060046000803e60005160e01c90565b600060443d10613e6557604051600319913d83016004833e81516001600160401b03918282113d602484011117613e6857818401948551938411613e70573d85010160208487010111613e685750613e6592910160200190613a6e565b90565b949350505050565b50949350505050565b3d15613ea4573d90613e8a82613a8f565b91613e986040519384613a6e565b82523d6000602084013e565b606090565b6004546000910361401457600d805460ff60e81b1916600160e81b178155825190929015614000576020015190303b1561050b5760405191631000850d60e21b83526004830152808260248183305af19182613ff1575b5090613fed57600190613f11613dea565b6308c379a014613f73575b50613f245750565b7fbccec8509a79ecd26780c2699a3ca2503c3a3455b361b5fcda5760593edb03c9613f50613819613e79565b0390a16007805460ff60a81b1916600160a91b179055805460ff60e01b19169055565b613f7b613e08565b9081613f88575b50613f1c565b7fbcd905a8eb4cc473497e2cd24cf41334ea7fad80c354380f8fff04a025b1e5f8919250613fc590926040519182916020835260208301906138eb565b0390a16007805460ff60a81b1916600160a91b179055815460ff60e01b191682553880613f82565b5050565b613ffa90613a40565b38613f00565b634e487b7160e01b82526032600452602482fd5b50506007805460ff60a81b1916600160a91b179055565b91908203918211613cb657565b60008054600780546001600160a01b039283169492919060a881901c60ff16600881101561434d57600114614361575b5080549060ff8260a81c16600881101561434d5760028114908115614342575b50156118ff5760275492602a54936140a0858261402b565b806140b0600a54602b549061402b565b601e81111561433d5750601e5b80602c5511614334575b50602c5493841561431a5750600495969760a0917f4ff4e84912750d469e8d0e190997710c06112023943415787c2f744eb09c0da46060602d5492604098895191825260209a8b83015289820152a2845163ec644ddd60e01b815296879182905afa9081156143105787889189978a946142e5575b5060025460081c16918551878101916001600160401b0392828110848211176142d15788528b825287519163125fa26760e31b8a84015251151560248301526024825261418882613a53565b87519260c08401908111848210176142d157918996959493918d938a5282528682019384528882019561ffff168652606082019a63ffffffff8091168c52608083016001815260a08401928352818b519d8e998a988997634d8e1c2f60e11b89528d60048a01525160248901525160448801525161ffff16606487015251166084850152511660a48301525160c4820160c0905260e48201614229916138eb565b03925af19384156142c7578694614293575b506004849055600d805460ff60e01b1916600160e01b179055805460ff60a81b1916600360a81b1790555191825291925033917fcd4a2eb17c38ad25b7c647235e9d74821d3613b50c9ec8907609b5728bc674b091a2565b9093508281813d83116142c0575b6142ab8183613a6e565b81010312611d1257519394508493923861423b565b503d6142a1565b82513d88823e3d90fd5b634e487b7160e01b8d52604160045260248dfd5b9250965050614302915060a03d81116118f8576118e48183613a6e565b97935091909196923861413c565b83513d89823e3d90fd5b60ff60a81b1916600160aa1b179092555092945050505050565b602c55386140c7565b6140bd565b600391501438614088565b634e487b7160e01b86526021600452602486fd5b60ff60a81b1916600160a91b17815538614068565b6000198114613cb65760010190565b90816020910312610cad57518015158103610cad5790565b600d5460ff60009160c81c161561374a576015546001600160a01b039190821615908115906143ca615cec565b50846011541691600e549560ff87169660081c16600a54968580614755575b1561474e57602b54945b806146495750600494858210156146365760038214614555575081156145445761453357600f54813b1561078257604080516323b872dd60e01b815230878201908152336020820152918201929092529091839183919082908490829060600103925af1801561061a57614524575b509061446d81615f07565b6040519081526020928391600080516020615f80833981519152833392a2338352602582526144a0604084205433615b66565b602460405180948193636e8b38db60e01b83523390830152305af16144fb575b50506144cb906159ad565b6144d25750565b6027548181116144e0575050565b600a916144ec9161402b565b106144f357565b613b2c61568b565b813d831161451d575b61450e8183613a6e565b81010312610cad5738806144c0565b503d614504565b61452d90613a40565b38614462565b604051631558dc5f60e31b81528490fd5b60405163424ca23960e01b81528590fd5b8492506145689150601395939554613d9f565b02918215614626578380808086335af1614580613e79565b50156146165761458f90615f07565b604051918252602091600080516020615f80833981519152833392a2338352602582526145c0604084205433615b66565b60405190636e8b38db60e01b82523390820152818160248186305af16145ed575b5050506144cb906159ad565b813d831161460f575b6146008183613a6e565b8101031261050b5780806145e1565b503d6145f6565b5060405163880a149160e01b8152fd5b50604051630193f71f60e51b8152fd5b634e487b7160e01b845260218652602484fd5b9361465d9250809395915060125402613d9f565b801561473c576040805163a9059cbb60e01b8152336004820152602481018390526020949193918590829060449082908a905af1908115614732578691614715575b5015614704576146ae90615f07565b8151908152600080516020615f80833981519152833392a2338352602582526146da8184205433615b66565b51636e8b38db60e01b8152336004820152818160248186305af16145ed575050506144cb906159ad565b825163880a149160e01b8152600490fd5b61472c9150853d8711610613576106058183613a6e565b3861469f565b84513d88823e3d90fd5b604051630193f71f60e51b8152600490fd5b87946143f3565b5087602b54106143e9565b9190811015612f735760051b0190565b356001600160a01b0381168103610cad5790565b601554600a546001600160a01b03918216151580614849575b156148445750602b545b601454146147b25750565b6007805460ff60a81b1916600360a91b179055600054604051630425172560e31b81523060048201529160209183916024918391165afa90811561483857600091614807575b506147ff57565b613b2c6159c5565b906020823d8211614830575b8161482060209383613a6e565b8101031261050b575051386147f8565b3d9150614813565b6040513d6000823e3d90fd5b6147a7565b5080602b541061479d565b600d5460ff90818160d01c16614a8d5760075490828260a81c169160088310156139a55760078314614a295760a01c831680614a1d575b80614a11575b80614a06575b6149655760a81c8216159081614946575b506148b4575050600090565b60009160018060a01b031682526025602052604082205415159081614932575b506148dc5790565b60256020526148f2604082205460055490613ccc565b611f409081810291818304149015171561491e57612710900480601c541015614919575090565b905090565b634e487b7160e01b82526011600452602482fd5b9050602160205260408220541615386148d4565b600481149150811561495a575b50386148a8565b600691501438614953565b5050509060009160018060a01b0316825260256020526040822054601e60205260408320546022602052604084205491818111806149f4575b6149a757505050565b6149b59291612f979161402b565b60055460185490612710918203948286116149e05750613e6593946149d991613ccc565b0490613ccc565b634e487b7160e01b81526011600452602490fd5b506149ff828261402b565b831061499e565b50601b541515614897565b50828160b81c16614891565b50828160a81c1661488b565b506001600160a01b03909316600090815260256020526040902054905080614a54575b505050600090565b600554614a6091613ccc565b9160a81c16614a7d5780601c541015613e6557505b388080614a4c565b80601a541015613e655750614a75565b908060075460a01c169182614af4575b505080614ad3575b614aaf5750600090565b6001600160a01b0316600090815260256020526040902054600554613e6591613ccc565b506001600160a01b0381166000908152602560205260409020541515614aa5565b60a81c1690503880614a9d565b60075460ff90818160a81c1690600882101590816139a557600492838114801561501b575b83811561500b575b8115614fe6575b5015614fdb57600d5492858460d01c16600014614c2157505050506001600160a01b0383166000818152602160205260408120549193909250908116614c035760256020526040822054908115614c19578060075460a01c169081614c0a575b5015614c0357818080614bac819460055490613ccc565b8097878352602160205260408320600160ff198254161790555af1614bcf613e79565b501561050b57507f358fe4192934d3bf28ae181feda1f4bd08ca67f5e2fad55582cce5eb67304ae96020604051848152a290565b5091505090565b9050600d5460a81c1638614b95565b505091505090565b95939495614fc657859190600703614ce6575050506001600160a01b03811660008181526021602052604081205491935091908416614c0357602560205260408220548015614c1957600554614c7691613ccc565b93600d5460a81c16600014614cc457601a54848110614c19578280868194614c9f82849661402b565b601a555b878352602160205260408320805460ff191660011790555af1614bcf613e79565b601c54848110614c19578280868194614cde82849661402b565b601c55614ca3565b60a01c1680614fba575b80614fae575b80614fa3575b15614e5b57506001600160a01b038116600081815260256020908152604080832054601e8352818420546022845282852054979850929691949290818111801590614e48575b614e3c57614d549291612f979161402b565b95600554906018549161271092830391838311614e295750614d819291614d7a91613ccc565b0487613ccc565b95601b54808811614e1e5787614d969161402b565b601b5581835260228652614dae848420918254613cdf565b90558180808089885af1614dc0613e79565b501561075557807f358fe4192934d3bf28ae181feda1f4bd08ca67f5e2fad55582cce5eb67304ae9868551898152a28152601e84528181205415614e06575b5050505090565b6025614e159452205490615b66565b38808080614dff565b505050935050505090565b634e487b7160e01b865260119052602485fd5b50505050935050505090565b50614e53828261402b565b831015614d42565b60a81c831615614e6d57505050600090565b6001600160a01b038116600081815260256020908152604080832054919590939115614f995760218652868484205416614f995760258652614eb58484205460055490613ccc565b90611f4091828102928184041490151715614f865750612710900495601c54878110614e1e5787614ee59161402b565b601c5581835260218652838320805460ff19166001179055828080808a895af1614f0d613e79565b501561078257817f358fe4192934d3bf28ae181feda1f4bd08ca67f5e2fad55582cce5eb67304ae98786518a8152a260075460a01c16158015614f74575b614f58575b505050505090565b614f6a94602591835252205490615b66565b3880808080614f50565b50808252601e85528282205415614f4b565b634e487b7160e01b845260119052602483fd5b5050935050505090565b50601b541515614cfc565b50838160b81c16614cf6565b50838160a81c16614cf0565b602185634e487b7160e01b6000525260246000fd5b505050505050600090565b9050614ff6576007811483614b35565b602184634e487b7160e01b6000525260246000fd5b9050614ff6576005811483614b2e565b506000925060068114614b26565b600780549060ff90818360a81c1660088110156139a557818114610cad5761504f613c97565b4210610cad576015546001600160a01b0394908516159160018103615203575050156151bb57602754600a541115610cad57805460ff60a81b1916600760a81b1781555b81815460a81c169060088210156139a5576150b081849314613d42565b6150b8615a66565b6150c061543c565b5460a01c16806151ab575b80615181575b6150d9575050565b80600d5460c81c16613fed57600e5490811660048110156139a55761513c5750600e5460081c16803b15610cad5760008091602460405180948193636382ff5160e11b83523060048401525af18015614838576151335750565b613b2c90613a40565b60081c16600f5490803b15610cad57604051631d8efab160e21b815230600482015260248101929092526000908290604490829084905af18015614838576151335750565b5080600e541660048110156139a55780159081156151a0575b506150d1565b60019150143861519a565b5081600e5460081c1615156150cb565b600a54603281029080820460321490151715613cb6576064900480156151fb575b6027541015610cad57805460ff60a81b1916600760a81b178155615093565b5060016151dc565b90915015615212575b50615093565b60ff60a81b1916600760a81b1781553861520c565b6011546001600160a01b03908116610cad57601354610cad57615248613c97565b421015610cad57600090808254163314801561542f575b156107555760075460ff90818160a81c166008811015610d15578015908115615424575b501561077e57818160a01c168080916153fa575b806153eb575b6118ff571561077e57600d805460ff60d01b1916600160d01b17905560ff60a81b1916600560a81b176007556152d1615a66565b6152d961543c565b8060075460a01c16806153db575b806153b1575b6152f657505050565b80600d5460c81c166153ac57600e549081166004811015615398576153515750600e5460081c16803b1561075557818091602460405180958193636382ff5160e11b83523060048401525af190811561269e57506151335750565b60081c16600f54813b1561078257604051631d8efab160e21b81523060048201526024810191909152919081908390604490829084905af190811561269e57506151335750565b634e487b7160e01b84526021600452602484fd5b505050565b5080600e541660048110156153985780159081156153d0575b506152ed565b6001915014386153ca565b5081600e5460081c1615156152e7565b5082600d5460a81c161561529d565b5082600e5416600481101561434d578015908115615419575b50615297565b600191501438615413565b600191501438615283565b508060075416331461525f565b60075460ff8160a01c168015613fed578061567c575b6154595750565b6011546001600160a01b03919082161561554d57508060115416604051916370a0823160e01b83523060048401526020928381602481865afa90811561483857600091615520575b50806154ae575b50505050565b60075460405163a9059cbb60e01b815292166001600160a01b0316600483015260248201529082908290816000816044810103925af191821561483857600092615503575b505015610cad57388080806154a8565b6155199250803d10610613576106058183613a6e565b38806154f3565b908482813d8311615546575b6155368183613a6e565b8101031261050b575051386154a1565b503d61552c565b600e5460ff811660048110156139a5576003810361559257505050479081615573575050565b6000808080948194600754165af1615589613e79565b501561050b5750565b1561559c57505050565b829060081c16600f54906040516331a9108f60e11b8152826004820152602081602481855afa90811561483857600091615643575b50841630146155e05750505050565b803b15610cad576040516323b872dd60e01b8152306004820152939092166001600160a01b03166024840152604483015260009082908183816064810103925af1801561483857615634575b8080806154a8565b61563d90613a40565b3861562c565b906020823d8211615674575b8161565c60209383613a6e565b8101031261050b575061566e90613c3c565b386155d1565b3d915061564f565b5060ff600d5460c81c16615452565b600060018060a01b0381541660ff60075460a01c1680615855575b80615846575b8061583b575b615793575b60ff600d5460a81c16156156c9575050565b600854806156db575050506001600855565b600181036156f5575050506156ee615864565b6002600855565b600281036157795750602060249160405192838092630425172560e31b82523060048301525afa91821561269e578092615745575b5050615738575b6003600855565b6157406159c5565b615731565b9091506020823d8211615771575b8161576060209383613a6e565b8101031261050b575051388061572a565b3d9150615753565b90506003915003613b2c5761578c615c47565b6004600855565b81601d5461582b575b1580615821575b156156b757604051630425172560e31b8152306004820152602081602481855afa9081156158165783916157e5575b50156156b7576157e06159c5565b6156b7565b90506020813d821161580e575b816157ff60209383613a6e565b810103126107825751386157d2565b3d91506157f2565b6040513d85823e3d90fd5b50601d54156157a3565b50615834615864565b600161579c565b50601b5415156156b2565b5060ff600d5460b81c166156ac565b5060ff600d5460a81c166156a6565b6000600d5460ff90818160d81c16806159a2575b615938575b818160a81c16158061592d575b6158a2575b5050806158995750565b613b2c90615aa9565b60b01c8116156158fc5760075460a81c1660088110156139a557600603610cad575b601c546107d091828202928284041482151715613cb6576158ed6127106158f59404809361402b565b601c55613cdf565b388061588f565b60075460a81c1660088110156139a55760048114908115615922575b506158c457600080fd5b600691501438615918565b50601c54151561588a565b91818360b01c1660001461596e578160075460a81c166008811015611ed55760060361050b57505b601d54916000601d5561587d565b8160075460a81c166008811015611ed55760048114908115615997575b501561050b5750615960565b60069150143861598b565b50601d541515615878565b15613b2c57602b5460275403613b2c57613b2c61568b565b600060018060a01b03815416600354801561078257813b1561078257604051633d40f28f60e01b81523060048201526024810191909152919081908390818381604481015b03925af190811561269e57506151335750565b600060018060a01b03815416600354801561078257813b156107825760405163032a136160e11b8152306004820152602481019190915291908190839081838160448101615a0a565b600060018060a01b03815416600354813b1561078257604051630221a1c360e51b8152306004820152602481019190915291908190839081838160448101615a0a565b6000805460405163524d530b60e01b81529192906001600160a01b03906020908490600490829085165afa928315615b5b578493615b20575b508216156107825782918291604051906020820191635e5bc1c560e11b835281602482015260248152615b1481613a53565b51925af1615589613e79565b9092506020813d8211615b53575b81615b3b60209383613a6e565b8101031261077e57615b4c90613c3c565b9138615ae2565b3d9150615b2e565b6040513d86823e3d90fd5b60008054604051633527d9bd60e21b815292949391926001600160a01b03916020908290600490829086165afa908115615b5b578491615c0e575b501680615bb0575b5050509050565b803b1561078257604051637505fc8960e01b81523060048201526001600160a01b0395909516602486015260448501919091529192918290606490829084905af1615bff575b80808392615ba9565b615c0890613a40565b38615bf6565b90506020813d8211615c3f575b81615c2860209383613a6e565b8101031261077e57615c3990613c3c565b38615ba1565b3d9150615c1b565b60008054604051633527d9bd60e21b81526001600160a01b03916020908290600490829086165afa908115615816578391615cb3575b501680615c88575050565b803b15610755578190602460405180948193630377bc0960e11b83523060048401525af16151335750565b90506020813d8211615ce4575b81615ccd60209383613a6e565b8101031261078257615cde90613c3c565b38615c7d565b3d9150615cc0565b6000338152602091601e8352604080832054928315615ef657338152601f85528181205494858503958514615ee55760155485939291906001600160a01b0381169081615d41575b5050601f90338352522055565b60ff91929394955060a01c1660048110156153985786949392919080615ddf57508394509060249181939451928380926370a0823160e01b82523360048301525afa908115615dd5578391615da8575b50601654116107555790601f8593925b9038615d34565b90508181813d8311615dce575b615dbf8183613a6e565b81010312610782575138615d91565b503d615db5565b84513d85823e3d90fd5b60018103615e6557506017548451627eeac760e11b81523360048201526024810191909152939450919290918290829060449082905afa908115615dd5578391615e38575b50601654116107555790601f859392615da1565b90508181813d8311615e5e575b615e4f8183613a6e565b81010312610782575138615e24565b503d615e45565b600214615e76575b50601f90615da1565b8394509060249181939451928380926370a0823160e01b82523360048301525afa908115615dd5578391615eb8575b5060165411610755579084929138615e6d565b90508181813d8311615ede575b615ecf8183613a6e565b81010312610782575138615ea5565b503d615ec5565b8251630ccaf35d60e41b8152600490fd5b81516358cd4fc160e11b8152600490fd5b601554600a54906001600160a01b0316151580615f54575b15615f4e5750602b54905b601454018060145514615f3957565b6007805460ff60a81b1916600360a91b179055565b90615f2a565b5080602b5410615f1f56fe18381720d6efb26847068a65e3be979f1243520b7db6b16331969a7acdb200d595681e512bc0fe659e195e06c283eada494316f3d801213e48e7101af92bf7706e1540171b6c0c960b71a7020d9f60077f6af931a8bbf590da0223dacf75c7afa2646970667358221220acbfc0ec43da76c200383dc35314da5170d7132c93282a88f4c24a13e1e21daa64736f6c63430008130033",
  "linkReferences": {},
  "deployedLinkReferences": {}
}