{
  "_format": "hh-sol-artifact-1",
  "contractName": "Pool",
  "sourceName": "contracts/Pool.sol",
  "abi": [
    {
      "inputs": [
        {
          "internalType": "address",
          "name": "_factory",
          "type": "address"
        }
      ],
      "stateMutability": "nonpayable",
      "type": "constructor"
    },
    {
      "inputs": [],
      "name": "InvalidState",
      "type": "error"
    },
    {
      "inputs": [],
      "name": "OnlyOperator",
      "type": "error"
    },
    {
      "anonymous": false,
      "inputs": [
        {
          "indexed": false,
          "internalType": "string",
          "name": "reason",
          "type": "string"
        }
      ],
      "name": "ActivationCleanupFailed",
      "type": "event"
    },
    {
      "anonymous": false,
      "inputs": [
        {
          "indexed": false,
          "internalType": "string",
          "name": "reason",
          "type": "string"
        }
      ],
      "name": "BatchProcessingFailed",
      "type": "event"
    },
    {
      "anonymous": false,
      "inputs": [
        {
          "indexed": false,
          "internalType": "bytes",
          "name": "lowLevelData",
          "type": "bytes"
        }
      ],
      "name": "BatchProcessingFailedBytes",
      "type": "event"
    },
    {
      "anonymous": false,
      "inputs": [],
      "name": "FullRefundEnabledForDeletion",
      "type": "event"
    },
    {
      "anonymous": false,
      "inputs": [
        {
          "indexed": true,
          "internalType": "address",
          "name": "participant",
          "type": "address"
        },
        {
          "indexed": false,
          "internalType": "uint256",
          "name": "amount",
          "type": "uint256"
        }
      ],
      "name": "FullRefundForDeletion",
      "type": "event"
    },
    {
      "anonymous": false,
      "inputs": [
        {
          "indexed": true,
          "internalType": "address",
          "name": "previousOwner",
          "type": "address"
        },
        {
          "indexed": true,
          "internalType": "address",
          "name": "newOwner",
          "type": "address"
        }
      ],
      "name": "OwnershipTransferred",
      "type": "event"
    },
    {
      "anonymous": false,
      "inputs": [
        {
          "indexed": false,
          "internalType": "address",
          "name": "account",
          "type": "address"
        }
      ],
      "name": "Paused",
      "type": "event"
    },
    {
      "anonymous": false,
      "inputs": [],
      "name": "PoolActivated",
      "type": "event"
    },
    {
      "anonymous": false,
      "inputs": [
        {
          "indexed": false,
          "internalType": "string",
          "name": "reason",
          "type": "string"
        }
      ],
      "name": "PoolActivationFailed",
      "type": "event"
    },
    {
      "anonymous": false,
      "inputs": [],
      "name": "PoolDeleted",
      "type": "event"
    },
    {
      "anonymous": false,
      "inputs": [],
      "name": "PoolEnded",
      "type": "event"
    },
    {
      "anonymous": false,
      "inputs": [],
      "name": "PoolUnengaged",
      "type": "event"
    },
    {
      "anonymous": false,
      "inputs": [
        {
          "indexed": true,
          "internalType": "address",
          "name": "winner",
          "type": "address"
        },
        {
          "indexed": false,
          "internalType": "uint256",
          "name": "tokenId",
          "type": "uint256"
        }
      ],
      "name": "PrizeClaimed",
      "type": "event"
    },
    {
      "anonymous": false,
      "inputs": [
        {
          "indexed": false,
          "internalType": "uint256",
          "name": "requestId",
          "type": "uint256"
        }
      ],
      "name": "RandomRequested",
      "type": "event"
    },
    {
      "anonymous": false,
      "inputs": [
        {
          "indexed": true,
          "internalType": "address",
          "name": "participant",
          "type": "address"
        },
        {
          "indexed": false,
          "internalType": "uint256",
          "name": "amount",
          "type": "uint256"
        }
      ],
      "name": "RefundClaimed",
      "type": "event"
    },
    {
      "anonymous": false,
      "inputs": [
        {
          "indexed": true,
          "internalType": "address",
          "name": "recipient",
          "type": "address"
        },
        {
          "indexed": false,
          "internalType": "uint256",
          "name": "amount",
          "type": "uint256"
        }
      ],
      "name": "RevenueWithdrawn",
      "type": "event"
    },
    {
      "anonymous": false,
      "inputs": [
        {
          "indexed": true,
          "internalType": "address",
          "name": "participant",
          "type": "address"
        },
        {
          "indexed": false,
          "internalType": "uint256",
          "name": "quantity",
          "type": "uint256"
        }
      ],
      "name": "SlotsPurchased",
      "type": "event"
    },
    {
      "anonymous": false,
      "inputs": [
        {
          "indexed": false,
          "internalType": "address",
          "name": "account",
          "type": "address"
        }
      ],
      "name": "Unpaused",
      "type": "event"
    },
    {
      "anonymous": false,
      "inputs": [
        {
          "indexed": false,
          "internalType": "string",
          "name": "reason",
          "type": "string"
        }
      ],
      "name": "VRFRequestFailed",
      "type": "event"
    },
    {
      "anonymous": false,
      "inputs": [
        {
          "indexed": false,
          "internalType": "bytes",
          "name": "lowLevelData",
          "type": "bytes"
        }
      ],
      "name": "VRFRequestFailedBytes",
      "type": "event"
    },
    {
      "anonymous": false,
      "inputs": [
        {
          "indexed": false,
          "internalType": "address[]",
          "name": "winners",
          "type": "address[]"
        }
      ],
      "name": "WinnersSelected",
      "type": "event"
    },
    {
      "inputs": [
        {
          "internalType": "uint256",
          "name": "batchRandomSeed",
          "type": "uint256"
        }
      ],
      "name": "_processBatchWithRandomness",
      "outputs": [],
      "stateMutability": "nonpayable",
      "type": "function"
    },
    {
      "inputs": [],
      "name": "activate",
      "outputs": [],
      "stateMutability": "nonpayable",
      "type": "function"
    },
    {
      "inputs": [],
      "name": "amountPerWinner",
      "outputs": [
        {
          "internalType": "uint256",
          "name": "",
          "type": "uint256"
        }
      ],
      "stateMutability": "view",
      "type": "function"
    },
    {
      "inputs": [],
      "name": "claimPrize",
      "outputs": [],
      "stateMutability": "nonpayable",
      "type": "function"
    },
    {
      "inputs": [],
      "name": "claimRefund",
      "outputs": [],
      "stateMutability": "nonpayable",
      "type": "function"
    },
    {
      "inputs": [
        {
          "internalType": "address",
          "name": "",
          "type": "address"
        }
      ],
      "name": "claimedWins",
      "outputs": [
        {
          "internalType": "uint256",
          "name": "",
          "type": "uint256"
        }
      ],
      "stateMutability": "view",
      "type": "function"
    },
    {
      "inputs": [],
      "name": "creationFeePercentage",
      "outputs": [
        {
          "internalType": "uint256",
          "name": "",
          "type": "uint256"
        }
      ],
      "stateMutability": "view",
      "type": "function"
    },
    {
      "inputs": [],
      "name": "creator",
      "outputs": [
        {
          "internalType": "address",
          "name": "",
          "type": "address"
        }
      ],
      "stateMutability": "view",
      "type": "function"
    },
    {
      "inputs": [],
      "name": "currentBatchSize",
      "outputs": [
        {
          "internalType": "uint256",
          "name": "",
          "type": "uint256"
        }
      ],
      "stateMutability": "view",
      "type": "function"
    },
    {
      "inputs": [],
      "name": "deletePool",
      "outputs": [],
      "stateMutability": "nonpayable",
      "type": "function"
    },
    {
      "inputs": [],
      "name": "duration",
      "outputs": [
        {
          "internalType": "uint256",
          "name": "",
          "type": "uint256"
        }
      ],
      "stateMutability": "view",
      "type": "function"
    },
    {
      "inputs": [],
      "name": "endPool",
      "outputs": [],
      "stateMutability": "nonpayable",
      "type": "function"
    },
    {
      "inputs": [],
      "name": "endTime",
      "outputs": [
        {
          "internalType": "uint256",
          "name": "",
          "type": "uint256"
        }
      ],
      "stateMutability": "view",
      "type": "function"
    },
    {
      "inputs": [],
      "name": "erc20PrizeAmount",
      "outputs": [
        {
          "internalType": "uint256",
          "name": "",
          "type": "uint256"
        }
      ],
      "stateMutability": "view",
      "type": "function"
    },
    {
      "inputs": [],
      "name": "erc20PrizeToken",
      "outputs": [
        {
          "internalType": "address",
          "name": "",
          "type": "address"
        }
      ],
      "stateMutability": "view",
      "type": "function"
    },
    {
      "inputs": [],
      "name": "erc721EscrowClaimed",
      "outputs": [
        {
          "internalType": "bool",
          "name": "",
          "type": "bool"
        }
      ],
      "stateMutability": "view",
      "type": "function"
    },
    {
      "inputs": [],
      "name": "getActualPoolDuration",
      "outputs": [
        {
          "internalType": "uint256",
          "name": "",
          "type": "uint256"
        }
      ],
      "stateMutability": "view",
      "type": "function"
    },
    {
      "inputs": [],
      "name": "getParticipantsCount",
      "outputs": [
        {
          "internalType": "uint256",
          "name": "",
          "type": "uint256"
        }
      ],
      "stateMutability": "view",
      "type": "function"
    },
    {
      "inputs": [
        {
          "internalType": "address",
          "name": "participant",
          "type": "address"
        }
      ],
      "name": "getRefundableAmount",
      "outputs": [
        {
          "internalType": "uint256",
          "name": "",
          "type": "uint256"
        }
      ],
      "stateMutability": "view",
      "type": "function"
    },
    {
      "inputs": [],
      "name": "getSlotLimit",
      "outputs": [
        {
          "internalType": "uint256",
          "name": "",
          "type": "uint256"
        }
      ],
      "stateMutability": "view",
      "type": "function"
    },
    {
      "inputs": [
        {
          "internalType": "address",
          "name": "participant",
          "type": "address"
        }
      ],
      "name": "getSlotsPurchased",
      "outputs": [
        {
          "internalType": "uint256",
          "name": "",
          "type": "uint256"
        }
      ],
      "stateMutability": "view",
      "type": "function"
    },
    {
      "inputs": [],
      "name": "getUniqueParticipantsCount",
      "outputs": [
        {
          "internalType": "uint256",
          "name": "",
          "type": "uint256"
        }
      ],
      "stateMutability": "view",
      "type": "function"
    },
    {
      "inputs": [],
      "name": "globalFeeProtocolRevenue",
      "outputs": [
        {
          "internalType": "uint256",
          "name": "",
          "type": "uint256"
        }
      ],
      "stateMutability": "view",
      "type": "function"
    },
    {
      "inputs": [],
      "name": "globalFeeRefundablePool",
      "outputs": [
        {
          "internalType": "uint256",
          "name": "",
          "type": "uint256"
        }
      ],
      "stateMutability": "view",
      "type": "function"
    },
    {
      "inputs": [
        {
          "internalType": "address",
          "name": "",
          "type": "address"
        }
      ],
      "name": "hasClaimedGlobalFeeRefund",
      "outputs": [
        {
          "internalType": "bool",
          "name": "",
          "type": "bool"
        }
      ],
      "stateMutability": "view",
      "type": "function"
    },
    {
      "inputs": [
        {
          "internalType": "address",
          "name": "",
          "type": "address"
        }
      ],
      "name": "hasCompletedSocialEngagement",
      "outputs": [
        {
          "internalType": "bool",
          "name": "",
          "type": "bool"
        }
      ],
      "stateMutability": "view",
      "type": "function"
    },
    {
      "inputs": [],
      "name": "holderTokenAddress",
      "outputs": [
        {
          "internalType": "address",
          "name": "",
          "type": "address"
        }
      ],
      "stateMutability": "view",
      "type": "function"
    },
    {
      "inputs": [],
      "name": "holderTokenId",
      "outputs": [
        {
          "internalType": "uint256",
          "name": "",
          "type": "uint256"
        }
      ],
      "stateMutability": "view",
      "type": "function"
    },
    {
      "inputs": [],
      "name": "holderTokenStandard",
      "outputs": [
        {
          "internalType": "enum PrizeTypes.Standard",
          "name": "",
          "type": "uint8"
        }
      ],
      "stateMutability": "view",
      "type": "function"
    },
    {
      "inputs": [],
      "name": "i_vrfCoordinator",
      "outputs": [
        {
          "internalType": "contract VRFCoordinatorV2PlusInterface",
          "name": "",
          "type": "address"
        }
      ],
      "stateMutability": "view",
      "type": "function"
    },
    {
      "inputs": [
        {
          "internalType": "address",
          "name": "_manager",
          "type": "address"
        },
        {
          "internalType": "string",
          "name": "_name",
          "type": "string"
        },
        {
          "internalType": "bool",
          "name": "_isPrized",
          "type": "bool"
        },
        {
          "internalType": "uint256",
          "name": "_startTime",
          "type": "uint256"
        },
        {
          "internalType": "uint256",
          "name": "_duration",
          "type": "uint256"
        },
        {
          "internalType": "uint256",
          "name": "_winnersCount",
          "type": "uint256"
        },
        {
          "internalType": "bool",
          "name": "_isEscrowedPrize",
          "type": "bool"
        },
        {
          "internalType": "address",
          "name": "_prizeCollection",
          "type": "address"
        },
        {
          "internalType": "address",
          "name": "_creator",
          "type": "address"
        },
        {
          "internalType": "uint256",
          "name": "_slotLimit",
          "type": "uint256"
        },
        {
          "internalType": "uint256",
          "name": "_slotFee",
          "type": "uint256"
        },
        {
          "internalType": "uint256",
          "name": "_maxSlotsPerParticipant",
          "type": "uint256"
        },
        {
          "internalType": "enum PrizeTypes.Standard",
          "name": "_standard",
          "type": "uint8"
        },
        {
          "internalType": "uint256",
          "name": "_prizeTokenId",
          "type": "uint256"
        },
        {
          "internalType": "uint256",
          "name": "_amountPerWinner",
          "type": "uint256"
        },
        {
          "internalType": "address",
          "name": "_erc20PrizeToken",
          "type": "address"
        },
        {
          "internalType": "uint256",
          "name": "_erc20PrizeAmount",
          "type": "uint256"
        },
        {
          "internalType": "uint256",
          "name": "_nativePrizeAmount",
          "type": "uint256"
        },
        {
          "internalType": "bool",
          "name": "_usesCustomFee",
          "type": "bool"
        },
        {
          "internalType": "address",
          "name": "_holderTokenAddress",
          "type": "address"
        },
        {
          "internalType": "enum PrizeTypes.Standard",
          "name": "_holderTokenStandard",
          "type": "uint8"
        },
        {
          "internalType": "uint256",
          "name": "_minHolderTokenBalance",
          "type": "uint256"
        },
        {
          "internalType": "uint256",
          "name": "_holderTokenId",
          "type": "uint256"
        },
        {
          "internalType": "address",
          "name": "_revenueRecipient",
          "type": "address"
        },
        {
          "internalType": "bool",
          "name": "_socialEngagementRequired",
          "type": "bool"
        },
        {
          "internalType": "bool",
          "name": "_isCollabPool",
          "type": "bool"
        }
      ],
      "name": "initialize",
      "outputs": [],
      "stateMutability": "payable",
      "type": "function"
    },
    {
      "inputs": [],
      "name": "isCollabPool",
      "outputs": [
        {
          "internalType": "bool",
          "name": "",
          "type": "bool"
        }
      ],
      "stateMutability": "view",
      "type": "function"
    },
    {
      "inputs": [],
      "name": "isEscrowedPrize",
      "outputs": [
        {
          "internalType": "bool",
          "name": "",
          "type": "bool"
        }
      ],
      "stateMutability": "view",
      "type": "function"
    },
    {
      "inputs": [],
      "name": "isPrized",
      "outputs": [
        {
          "internalType": "bool",
          "name": "",
          "type": "bool"
        }
      ],
      "stateMutability": "view",
      "type": "function"
    },
    {
      "inputs": [],
      "name": "isRefundable",
      "outputs": [
        {
          "internalType": "bool",
          "name": "",
          "type": "bool"
        }
      ],
      "stateMutability": "view",
      "type": "function"
    },
    {
      "inputs": [
        {
          "internalType": "address",
          "name": "",
          "type": "address"
        }
      ],
      "name": "isUniqueParticipant",
      "outputs": [
        {
          "internalType": "bool",
          "name": "",
          "type": "bool"
        }
      ],
      "stateMutability": "view",
      "type": "function"
    },
    {
      "inputs": [
        {
          "internalType": "address",
          "name": "",
          "type": "address"
        }
      ],
      "name": "lastPurchaseBlock",
      "outputs": [
        {
          "internalType": "uint256",
          "name": "",
          "type": "uint256"
        }
      ],
      "stateMutability": "view",
      "type": "function"
    },
    {
      "inputs": [],
      "name": "maxSlotsPerParticipant",
      "outputs": [
        {
          "internalType": "uint256",
          "name": "",
          "type": "uint256"
        }
      ],
      "stateMutability": "view",
      "type": "function"
    },
    {
      "inputs": [],
      "name": "minHolderTokenBalance",
      "outputs": [
        {
          "internalType": "uint256",
          "name": "",
          "type": "uint256"
        }
      ],
      "stateMutability": "view",
      "type": "function"
    },
    {
      "inputs": [
        {
          "internalType": "address",
          "name": "winner",
          "type": "address"
        }
      ],
      "name": "mintToWinner",
      "outputs": [],
      "stateMutability": "nonpayable",
      "type": "function"
    },
    {
      "inputs": [],
      "name": "name",
      "outputs": [
        {
          "internalType": "string",
          "name": "",
          "type": "string"
        }
      ],
      "stateMutability": "view",
      "type": "function"
    },
    {
      "inputs": [],
      "name": "nativePrizeAmount",
      "outputs": [
        {
          "internalType": "uint256",
          "name": "",
          "type": "uint256"
        }
      ],
      "stateMutability": "view",
      "type": "function"
    },
    {
      "inputs": [
        {
          "internalType": "address",
          "name": "",
          "type": "address"
        },
        {
          "internalType": "address",
          "name": "",
          "type": "address"
        },
        {
          "internalType": "uint256[]",
          "name": "",
          "type": "uint256[]"
        },
        {
          "internalType": "uint256[]",
          "name": "",
          "type": "uint256[]"
        },
        {
          "internalType": "bytes",
          "name": "",
          "type": "bytes"
        }
      ],
      "name": "onERC1155BatchReceived",
      "outputs": [
        {
          "internalType": "bytes4",
          "name": "",
          "type": "bytes4"
        }
      ],
      "stateMutability": "pure",
      "type": "function"
    },
    {
      "inputs": [
        {
          "internalType": "address",
          "name": "",
          "type": "address"
        },
        {
          "internalType": "address",
          "name": "",
          "type": "address"
        },
        {
          "internalType": "uint256",
          "name": "",
          "type": "uint256"
        },
        {
          "internalType": "uint256",
          "name": "",
          "type": "uint256"
        },
        {
          "internalType": "bytes",
          "name": "",
          "type": "bytes"
        }
      ],
      "name": "onERC1155Received",
      "outputs": [
        {
          "internalType": "bytes4",
          "name": "",
          "type": "bytes4"
        }
      ],
      "stateMutability": "pure",
      "type": "function"
    },
    {
      "inputs": [
        {
          "internalType": "address",
          "name": "",
          "type": "address"
        },
        {
          "internalType": "address",
          "name": "",
          "type": "address"
        },
        {
          "internalType": "uint256",
          "name": "",
          "type": "uint256"
        },
        {
          "internalType": "bytes",
          "name": "",
          "type": "bytes"
        }
      ],
      "name": "onERC721Received",
      "outputs": [
        {
          "internalType": "bytes4",
          "name": "",
          "type": "bytes4"
        }
      ],
      "stateMutability": "pure",
      "type": "function"
    },
    {
      "inputs": [],
      "name": "owner",
      "outputs": [
        {
          "internalType": "address",
          "name": "",
          "type": "address"
        }
      ],
      "stateMutability": "view",
      "type": "function"
    },
    {
      "inputs": [
        {
          "internalType": "uint256",
          "name": "",
          "type": "uint256"
        }
      ],
      "name": "participants",
      "outputs": [
        {
          "internalType": "address",
          "name": "",
          "type": "address"
        }
      ],
      "stateMutability": "view",
      "type": "function"
    },
    {
      "inputs": [],
      "name": "paused",
      "outputs": [
        {
          "internalType": "bool",
          "name": "",
          "type": "bool"
        }
      ],
      "stateMutability": "view",
      "type": "function"
    },
    {
      "inputs": [],
      "name": "pendingProtocolFee",
      "outputs": [
        {
          "internalType": "uint256",
          "name": "",
          "type": "uint256"
        }
      ],
      "stateMutability": "view",
      "type": "function"
    },
    {
      "inputs": [
        {
          "internalType": "address",
          "name": "participant",
          "type": "address"
        }
      ],
      "name": "prizeClaimed",
      "outputs": [
        {
          "internalType": "uint256",
          "name": "",
          "type": "uint256"
        }
      ],
      "stateMutability": "view",
      "type": "function"
    },
    {
      "inputs": [],
      "name": "prizeCollection",
      "outputs": [
        {
          "internalType": "address",
          "name": "",
          "type": "address"
        }
      ],
      "stateMutability": "view",
      "type": "function"
    },
    {
      "inputs": [],
      "name": "prizeTokenId",
      "outputs": [
        {
          "internalType": "uint256",
          "name": "",
          "type": "uint256"
        }
      ],
      "stateMutability": "view",
      "type": "function"
    },
    {
      "inputs": [],
      "name": "prizesClaimedCount",
      "outputs": [
        {
          "internalType": "uint256",
          "name": "",
          "type": "uint256"
        }
      ],
      "stateMutability": "view",
      "type": "function"
    },
    {
      "inputs": [],
      "name": "protocolFeePercentage",
      "outputs": [
        {
          "internalType": "uint256",
          "name": "",
          "type": "uint256"
        }
      ],
      "stateMutability": "view",
      "type": "function"
    },
    {
      "inputs": [],
      "name": "protocolFeeTaken",
      "outputs": [
        {
          "internalType": "bool",
          "name": "",
          "type": "bool"
        }
      ],
      "stateMutability": "view",
      "type": "function"
    },
    {
      "inputs": [
        {
          "internalType": "uint256",
          "name": "quantity",
          "type": "uint256"
        },
        {
          "internalType": "uint256",
          "name": "_nonce",
          "type": "uint256"
        },
        {
          "internalType": "uint256",
          "name": "_deadline",
          "type": "uint256"
        },
        {
          "internalType": "bytes",
          "name": "_signature",
          "type": "bytes"
        }
      ],
      "name": "purchaseSlots",
      "outputs": [],
      "stateMutability": "payable",
      "type": "function"
    },
    {
      "inputs": [
        {
          "internalType": "address",
          "name": "",
          "type": "address"
        },
        {
          "internalType": "uint256",
          "name": "",
          "type": "uint256"
        }
      ],
      "name": "purchaseTimestamps",
      "outputs": [
        {
          "internalType": "uint256",
          "name": "",
          "type": "uint256"
        }
      ],
      "stateMutability": "view",
      "type": "function"
    },
    {
      "inputs": [],
      "name": "randomRequested",
      "outputs": [
        {
          "internalType": "bool",
          "name": "",
          "type": "bool"
        }
      ],
      "stateMutability": "view",
      "type": "function"
    },
    {
      "inputs": [],
      "name": "randomSeed",
      "outputs": [
        {
          "internalType": "uint256",
          "name": "",
          "type": "uint256"
        }
      ],
      "stateMutability": "view",
      "type": "function"
    },
    {
      "inputs": [],
      "name": "randomnessUsed",
      "outputs": [
        {
          "internalType": "bool",
          "name": "",
          "type": "bool"
        }
      ],
      "stateMutability": "view",
      "type": "function"
    },
    {
      "inputs": [
        {
          "internalType": "uint256",
          "name": "requestId",
          "type": "uint256"
        },
        {
          "internalType": "uint256[]",
          "name": "randomWords",
          "type": "uint256[]"
        }
      ],
      "name": "rawFulfillRandomWords",
      "outputs": [],
      "stateMutability": "nonpayable",
      "type": "function"
    },
    {
      "inputs": [
        {
          "internalType": "address",
          "name": "",
          "type": "address"
        }
      ],
      "name": "refundableAmount",
      "outputs": [
        {
          "internalType": "uint256",
          "name": "",
          "type": "uint256"
        }
      ],
      "stateMutability": "view",
      "type": "function"
    },
    {
      "inputs": [
        {
          "internalType": "address",
          "name": "",
          "type": "address"
        }
      ],
      "name": "refundedNonWinningSlots",
      "outputs": [
        {
          "internalType": "uint256",
          "name": "",
          "type": "uint256"
        }
      ],
      "stateMutability": "view",
      "type": "function"
    },
    {
      "inputs": [],
      "name": "removeFromVRFSubscription",
      "outputs": [],
      "stateMutability": "nonpayable",
      "type": "function"
    },
    {
      "inputs": [],
      "name": "renounceOwnership",
      "outputs": [],
      "stateMutability": "nonpayable",
      "type": "function"
    },
    {
      "inputs": [],
      "name": "requestRandomWords",
      "outputs": [],
      "stateMutability": "nonpayable",
      "type": "function"
    },
    {
      "inputs": [],
      "name": "revenueRecipient",
      "outputs": [
        {
          "internalType": "address",
          "name": "",
          "type": "address"
        }
      ],
      "stateMutability": "view",
      "type": "function"
    },
    {
      "inputs": [],
      "name": "s_vrf_callbackGasLimit",
      "outputs": [
        {
          "internalType": "uint32",
          "name": "",
          "type": "uint32"
        }
      ],
      "stateMutability": "view",
      "type": "function"
    },
    {
      "inputs": [],
      "name": "s_vrf_keyHash",
      "outputs": [
        {
          "internalType": "bytes32",
          "name": "",
          "type": "bytes32"
        }
      ],
      "stateMutability": "view",
      "type": "function"
    },
    {
      "inputs": [],
      "name": "s_vrf_lastRequestId",
      "outputs": [
        {
          "internalType": "uint256",
          "name": "",
          "type": "uint256"
        }
      ],
      "stateMutability": "view",
      "type": "function"
    },
    {
      "inputs": [],
      "name": "s_vrf_requestConfirmations",
      "outputs": [
        {
          "internalType": "uint16",
          "name": "",
          "type": "uint16"
        }
      ],
      "stateMutability": "view",
      "type": "function"
    },
    {
      "inputs": [],
      "name": "s_vrf_subscriptionId",
      "outputs": [
        {
          "internalType": "uint256",
          "name": "",
          "type": "uint256"
        }
      ],
      "stateMutability": "view",
      "type": "function"
    },
    {
      "inputs": [],
      "name": "shuffleStartIndex",
      "outputs": [
        {
          "internalType": "uint256",
          "name": "",
          "type": "uint256"
        }
      ],
      "stateMutability": "view",
      "type": "function"
    },
    {
      "inputs": [],
      "name": "slotFee",
      "outputs": [
        {
          "internalType": "uint256",
          "name": "",
          "type": "uint256"
        }
      ],
      "stateMutability": "view",
      "type": "function"
    },
    {
      "inputs": [],
      "name": "slotLimit",
      "outputs": [
        {
          "internalType": "uint256",
          "name": "",
          "type": "uint256"
        }
      ],
      "stateMutability": "view",
      "type": "function"
    },
    {
      "inputs": [
        {
          "internalType": "address",
          "name": "",
          "type": "address"
        }
      ],
      "name": "slotsPurchased",
      "outputs": [
        {
          "internalType": "uint256",
          "name": "",
          "type": "uint256"
        }
      ],
      "stateMutability": "view",
      "type": "function"
    },
    {
      "inputs": [],
      "name": "socialEngagementRequired",
      "outputs": [
        {
          "internalType": "bool",
          "name": "",
          "type": "bool"
        }
      ],
      "stateMutability": "view",
      "type": "function"
    },
    {
      "inputs": [],
      "name": "standard",
      "outputs": [
        {
          "internalType": "enum PrizeTypes.Standard",
          "name": "",
          "type": "uint8"
        }
      ],
      "stateMutability": "view",
      "type": "function"
    },
    {
      "inputs": [],
      "name": "startTime",
      "outputs": [
        {
          "internalType": "uint256",
          "name": "",
          "type": "uint256"
        }
      ],
      "stateMutability": "view",
      "type": "function"
    },
    {
      "inputs": [],
      "name": "state",
      "outputs": [
        {
          "internalType": "enum IPool.PoolState",
          "name": "",
          "type": "uint8"
        }
      ],
      "stateMutability": "view",
      "type": "function"
    },
    {
      "inputs": [
        {
          "internalType": "bytes4",
          "name": "interfaceId",
          "type": "bytes4"
        }
      ],
      "name": "supportsInterface",
      "outputs": [
        {
          "internalType": "bool",
          "name": "",
          "type": "bool"
        }
      ],
      "stateMutability": "view",
      "type": "function"
    },
    {
      "inputs": [],
      "name": "totalCreatorRevenue",
      "outputs": [
        {
          "internalType": "uint256",
          "name": "",
          "type": "uint256"
        }
      ],
      "stateMutability": "view",
      "type": "function"
    },
    {
      "inputs": [],
      "name": "totalGlobalFeeRevenue",
      "outputs": [
        {
          "internalType": "uint256",
          "name": "",
          "type": "uint256"
        }
      ],
      "stateMutability": "view",
      "type": "function"
    },
    {
      "inputs": [],
      "name": "totalRefundableAmount",
      "outputs": [
        {
          "internalType": "uint256",
          "name": "",
          "type": "uint256"
        }
      ],
      "stateMutability": "view",
      "type": "function"
    },
    {
      "inputs": [
        {
          "internalType": "address",
          "name": "newOwner",
          "type": "address"
        }
      ],
      "name": "transferOwnership",
      "outputs": [],
      "stateMutability": "nonpayable",
      "type": "function"
    },
    {
      "inputs": [
        {
          "internalType": "uint256",
          "name": "",
          "type": "uint256"
        }
      ],
      "name": "uniqueParticipants",
      "outputs": [
        {
          "internalType": "address",
          "name": "",
          "type": "address"
        }
      ],
      "stateMutability": "view",
      "type": "function"
    },
    {
      "inputs": [],
      "name": "usesCustomFee",
      "outputs": [
        {
          "internalType": "bool",
          "name": "",
          "type": "bool"
        }
      ],
      "stateMutability": "view",
      "type": "function"
    },
    {
      "inputs": [],
      "name": "wasDeletedForFullRefund",
      "outputs": [
        {
          "internalType": "bool",
          "name": "",
          "type": "bool"
        }
      ],
      "stateMutability": "view",
      "type": "function"
    },
    {
      "inputs": [
        {
          "internalType": "uint256",
          "name": "",
          "type": "uint256"
        }
      ],
      "name": "winners",
      "outputs": [
        {
          "internalType": "address",
          "name": "",
          "type": "address"
        }
      ],
      "stateMutability": "view",
      "type": "function"
    },
    {
      "inputs": [],
      "name": "winnersCount",
      "outputs": [
        {
          "internalType": "uint256",
          "name": "",
          "type": "uint256"
        }
      ],
      "stateMutability": "view",
      "type": "function"
    },
    {
      "inputs": [],
      "name": "winnersSelected",
      "outputs": [
        {
          "internalType": "uint256",
          "name": "",
          "type": "uint256"
        }
      ],
      "stateMutability": "view",
      "type": "function"
    },
    {
      "inputs": [
        {
          "internalType": "address",
          "name": "",
          "type": "address"
        }
      ],
      "name": "winsPerAddress",
      "outputs": [
        {
          "internalType": "uint256",
          "name": "",
          "type": "uint256"
        }
      ],
      "stateMutability": "view",
      "type": "function"
    },
    {
      "inputs": [],
      "name": "withdrawCreatorRevenue",
      "outputs": [],
      "stateMutability": "nonpayable",
      "type": "function"
    },
    {
      "inputs": [],
      "name": "withdrawEscrowedPrize",
      "outputs": [],
      "stateMutability": "nonpayable",
      "type": "function"
    },
    {
      "inputs": [],
      "name": "withdrawProtocolRevenue",
      "outputs": [],
      "stateMutability": "nonpayable",
      "type": "function"
    }
  ],
  "bytecode": "0x60a034620000bb57601f62005c8a38819003918201601f19168301916001600160401b03831184841017620000c057808492602094604052833981010312620000bb57516001600160a01b03908181168103620000bb576000543360018060a01b0319821617600055604051923391167f8be0079c531659141344cd1fd0a4f28419497f9722a3daafe3b4186f6b6457e0600080a36001805560ff1960025416600255608052615bb39081620000d7823960805181611f2d0152f35b600080fd5b634e487b7160e01b600052604160045260246000fdfe608080604052600436101561001357600080fd5b600090813560e01c90816301ffc9a71461462a5750806302d05d3f146146015780630631c5c2146145e357806306fdde031461451057806308521974146142185780630aa00e70146144f25780630b747d91146144d45780630b78824b146144b65780630e4fa158146144905780630f15f4c0146144015780630fb5a6b4146143e35780631185321d146143a4578063150b7a021461434d5780631c4edfe11461432f5780631fe543e31461425157806325444fa414614218578063262f5cf114613d8f5780632bc61fa0146135ab5780632c1fecfe146135885780632d42cf7d146134c95780633197cbb6146134ab578063321679fa1461348d578063327bb1ad146133f457806335c1d349146133b05780633b26314d146133875780634002143414612fa257806342b72afa14612f69578063431bfe3314612f135780634457dba414612ef157806344a9098614612ed357806348a3a45014612ead5780634971381114612e8f5780634e3ff46014612e505780635755248e14612e325780635a17167714612df35780635a3b7e4214612dcd5780635c975abb14612daa5780635d7dd42314612d8c578063677375c314612d6e578063683d193614612d48578063696917ba14612d255780636e61a16014612d0257806370740ac914612894578063715018a61461283a5780637260432314611df957806373ebf86a14611ddb578063740e219814611db757806378e9792514611d99578063813e88b914611d7b578063837d112814611d5857806386cbf53a14611d1f57806387213c3514611cfc5780638778d82c14611cd3578063888dc19814611cb5578063898b36db14611c975780638bc5328514611c795780638bfbbcbe146119605780638d7fe4781461193d5780638da5cb5b146119165780638e50e509146118f857806391f37ad41461180a5780639dd62cfc146117e65780639ed5c1cc146117bd578063a177ec0914611790578063a2fb117514611732578063a67d0e6c14611714578063a9532a53146115f0578063aebc4550146115c3578063af17425d14611103578063af78ed0a146110e5578063b5545a3c14610b93578063b5ad8412146109ff578063bc197c811461096f578063c19d93fb1461092c578063c2e784bd1461090e578063c3fa0e3b146108f0578063c913d4ed146108d2578063cabfaa18146108b4578063cc7d49ec14610891578063ce38448814610873578063d0d11ae814610855578063d17d13591461081c578063d447e9bc14610781578063d91043f2146107fe578063dbb832bd146107d8578063dc52834e146107ba578063dc8a55c214610781578063e0c8628914610768578063e511a11b1461072f578063e63f413e146106d3578063e6f12cf7146106b5578063f23a6e611461065a578063f2fde38b146105cc578063fb687df41461059f5763fd22b17c1461043657600080fd5b3461059c578060031936011261059c5780546040516336b87bd760e11b815233600482015290602090829060249082906001600160a01b03165afa908115610591578291610563575b50156105515760ff601c5460101c16600981101561053d5760046104a3911461547f565b8060ff60305460081c1680610532575b610525575b60325480610512575b5080156104d4576104d190615a72565b80f35b60405162461bcd60e51b81526020600482015260166024820152752737903932bb32b73ab2903a37903a3930b739b332b960511b6044820152606490fd5b61051b91614932565b81603255386104c1565b50603954816039556104b8565b5060395415156104b3565b634e487b7160e01b82526021600452602482fd5b6040516327e1f1e560e01b8152600490fd5b610584915060203d811161058a575b61057c8183614702565b810190614997565b3861047f565b503d610572565b6040513d84823e3d90fd5b80fd5b503461059c578060031936011261059c5760105460405160089190911c6001600160a01b03168152602090f35b503461059c57602036600319011261059c576105e6614763565b6105ee61487f565b6001600160a01b03811615610606576104d1906148d7565b60405162461bcd60e51b815260206004820152602660248201527f4f776e61626c653a206e6577206f776e657220697320746865207a65726f206160448201526564647265737360d01b6064820152608490fd5b503461059c5760a036600319011261059c57610674614763565b5061067d614779565b506084356001600160401b0381116106b15761069d90369060040161478f565b505060405163f23a6e6160e01b8152602090f35b5080fd5b503461059c578060031936011261059c576020603154604051908152f35b503461059c57602036600319011261059c57600435601e548110156106b157601e6000527f50bb669a95c7b50b7e8a6f09454034b2b14cf2b85c730dca9a539ca82cb6e35001546040516001600160a01b039091168152602090f35b503461059c57602036600319011261059c576020906040906001600160a01b03610757614763565b168152603883522054604051908152f35b503461059c578060031936011261059c576104d1614ddb565b503461059c57602036600319011261059c576020906040906001600160a01b036107a9614763565b168152601983522054604051908152f35b503461059c578060031936011261059c576020601254604051908152f35b503461059c578060031936011261059c57602060ff60305460081c166040519015158152f35b503461059c578060031936011261059c576020602b54604051908152f35b503461059c57602036600319011261059c576020906040906001600160a01b03610844614763565b168152601883522054604051908152f35b503461059c578060031936011261059c576020603754604051908152f35b503461059c578060031936011261059c576020603354604051908152f35b503461059c578060031936011261059c57602060ff603054166040519015158152f35b503461059c578060031936011261059c576020601d54604051908152f35b503461059c578060031936011261059c576020600454604051908152f35b503461059c578060031936011261059c576020603954604051908152f35b503461059c578060031936011261059c576020600654604051908152f35b503461059c578060031936011261059c5760ff601c5460101c1660405190600981101561095b57602092508152f35b634e487b7160e01b83526021600452602483fd5b503461059c5760a036600319011261059c57610989614763565b50610992614779565b506001600160401b036044358181116109fb576109b39036906004016147bc565b50506064358181116109fb576109cd9036906004016147bc565b50506084359081116106b1576109e790369060040161478f565b505060405163bc197c8160e01b8152602090f35b8280fd5b503461059c578060031936011261059c57610a186154fc565b6029546001600160a01b039081163303610b425760ff601c5460101c16600981101561095b57600581146109fb57600881146109fb57806004610a649214908115610b37575b5061547f565b602e549081156109fb57610a95610a8b612710610a83602b548661544c565b048094614d0f565b9284602e55615a72565b828080808585602954165af1610aa9614dab565b5015610ae65760207f86a5cc8fe9af9ae68fb50f62885307a7755a30cbd290131644377f0bd94a7181916029541692604051908152a26001805580f35b60405162461bcd60e51b8152602060048201526024808201527f5472616e7366657220746f20726576656e756520726563697069656e742066616044820152631a5b195960e21b6064820152608490fd5b600791501438610a5e565b60405162461bcd60e51b815260206004820152602360248201527f4f6e6c7920726576656e756520726563697069656e742063616e20776974686460448201526272617760e81b6064820152608490fd5b503461059c578060031936011261059c57610bac6154fc565b60ff80601c5460101c166009811015806110b4576004821480156110d8575b8181156110c8575b81156110a4575b501561105f57603054831615610ce857505033825260216020526040822054156106b1578060155460081c169081610cdc575b5015610c87573381526021602052610c2c6040822054600f549061544c565b3382526021602052816040812055610c538280808085335af1610c4d614dab565b5061558e565b6040519081527f358fe4192934d3bf28ae181feda1f4bd08ca67f5e2fad55582cce5eb67304ae960203392a25b6001805580f35b60405162461bcd60e51b815260206004820152602760248201527f526566756e6473206e6f7420706f737369626c6520666f72207468697320706f6044820152666f6c207479706560c81b6064820152608490fd5b90506010541638610c0d565b61095b57600803610d94573382526021602052604082205480156109fb57600f54610d129161544c565b9060105416600014610d8857602e548181106109fb5781610d3291614d0f565b602e555b3382526021602052816040812055610d578280808085335af1610c4d614dab565b6040519081527f358fe4192934d3bf28ae181feda1f4bd08ca67f5e2fad55582cce5eb67304ae960203392a2610c80565b80471015610d36575080fd5b8060155460081c1680611054575b80611049575b8061103e575b15610e955750338152602160205260408120546018602052604082205490603860205260408320549082811180610e83575b15610e6b57610df792610df291614d0f565b614d0f565b600f54602a549061271091820390828211610e6f57610e219291610e1a9161544c565b048261544c565b90602f54808311610e6b5782610e3691614d0f565b602f553383526038602052610e5060408420918254614932565b9055610d578280808085335af1610e65614dab565b50615552565b8380fd5b634e487b7160e01b85526011600452602485fd5b50610e8e8382614d0f565b8210610de0565b806010541615610ea6575b50610c80565b338252602090602182526040832054156110045733835260348252604083205416610fc75733825260218152610ee36040832054600f549061544c565b611f4090818102918183041490151715610fb357612710900490603354828110610f6e5790610f33837f358fe4192934d3bf28ae181feda1f4bd08ca67f5e2fad55582cce5eb67304ae993614d0f565b6033553384526034815260408420600160ff19825416179055610f5f8480808087335af1610e65614dab565b6040519283523392a238610ea0565b60405162461bcd60e51b815260048101839052601860248201527f496e73756666696369656e7420726566756e6420706f6f6c00000000000000006044820152606490fd5b634e487b7160e01b83526011600452602483fd5b6064906040519062461bcd60e51b8252600482015260166024820152751499599d5b9908185b1c9958591e4818db185a5b595960521b6044820152fd5b60405162461bcd60e51b8152600481018390526012602482015271139bc81cdb1bdd1cc81c1d5c98da185cd95960721b6044820152606490fd5b50602f541515610dae565b5080602c5416610da8565b508060105416610da2565b60405162461bcd60e51b815260206004820152601e60248201527f506f6f6c206e6f7420696e206120726566756e6461626c6520737461746500006044820152606490fd5b90506110b4576008821481610bda565b634e487b7160e01b84526021600452602484fd5b90506110b4576005821481610bd3565b5050600060078214610bcb565b503461059c578060031936011261059c576020602e54604051908152f35b503461059c578060031936011261059c5761111c6154fc565b6011546001600160a01b03908116611135338214614955565b60ff601c5460101c1660098110156110b45780600861115d92149081156115b8575b506154c0565b6035548216156112cd57508060355416604051906370a0823160e01b82523060048301526020928383602481855afa9283156112c257859361128e575b5082156112565760115460405163a9059cbb60e01b815291166001600160a01b031660048201526024810192909252829082908186816044810103925af190811561124b57839161122e575b50156111f457506001805580f35b6064906040519062461bcd60e51b825260048201526013602482015272151bdad95b881c99599d5b990819985a5b1959606a1b6044820152fd5b6112459150823d841161058a5761057c8183614702565b386111e6565b6040513d85823e3d90fd5b60405162461bcd60e51b815260048101859052601060248201526f4e6f20546f6b656e2062616c616e636560801b6044820152606490fd5b9092508381813d83116112bb575b6112a68183614702565b810103126112b65751913861119a565b600080fd5b503d61129c565b6040513d87823e3d90fd5b919060ff6015541692600484101561095b57836003849514600014611387575047925050811561134b57828080938193601154165af161130b614dab565b50610c805760405162461bcd60e51b8152602060048201526013602482015272141c9a5e99481c99599d5b990819985a5b1959606a1b6044820152606490fd5b60405162461bcd60e51b8152602060048201526014602482015273496e73756666696369656e742062616c616e636560601b6044820152606490fd5b806114915750508060105460081c16601654916040516331a9108f60e11b8152836004820152602081602481865afa80156112c2578590611457575b6113d191508216301461585b565b6011541690604051906113e3826146e7565b848252803b15611453576114299385809460405196879586948593635c46a7ef60e11b855230600486015260248501526044840152608060648401526084830190614723565b03925af180156105915761143f575b5050610c80565b611448906146b9565b61059c578038611438565b8480fd5b506020813d8211611489575b8161147060209383614702565b81010312611453576114846113d19161491e565b6113c3565b3d9150611463565b9192509060010361157d57601054601654604051627eeac760e11b8152306004820152602481018290528594919392909160089190911c16602082604481845afa9182156112c2578592611547575b506114ec82151561585b565b604051936114f9856146e7565b858552813b156115435785809461142960405197889687958694637921219560e11b865230600487015260248601526044850152606484015260a0608484015260a4830190614723565b8580fd5b945090506020843d8211611575575b8161156360209383614702565b810103126112b65784935190386114e0565b3d9150611556565b60405162461bcd60e51b81526020600482015260136024820152724e6f20657363726f7761626c65207072697a6560681b6044820152606490fd5b600591501438611157565b503461059c578060031936011261059c5760025460405160089190911c6001600160a01b03168152602090f35b503461059c578060031936011261059c5760ff601c5460101c166009811015908161095b5760048114918215611706575b82156116f5575b82156116e4575b82156116d3575b50501561168f57805481906001600160a01b0316803b1561168c57818091602460405180948193633aaa814760e01b83523060048401525af180156105915761167c5750f35b611685906146b9565b61059c5780f35b50fd5b606460405162461bcd60e51b815260206004820152602060248201527f506f6f6c206d75737420626520696e2061207465726d696e616c2073746174656044820152fd5b90915061053d576006143880611636565b80925061095b57600781149161162f565b80925061095b576005811491611628565b506008811491506000611621565b503461059c578060031936011261059c576020600f54604051908152f35b503461059c57602036600319011261059c576004356020548110156106b157602060008190527fc97bfaf2f8ee708c303a06d134f5ecd8389ae0432af62dc132a24118292866bb909101546040516001600160a01b03919091168152f35b503461059c578060031936011261059c576117b960ff603a5460a01c166040519182918261483b565b0390f35b503461059c578060031936011261059c576035546040516001600160a01b039091168152602090f35b503461059c578060031936011261059c57602063ffffffff60055416604051908152f35b503461059c578060031936011261059c57600c5480156118bc57600d548015611882578181106118485760209161184091614d0f565b604051908152f35b60405162461bcd60e51b8152602060048201526012602482015271496e76616c69642074696d657374616d707360701b6044820152606490fd5b60405162461bcd60e51b8152602060048201526012602482015271141bdbdb081b9bdd081e595d08195b99195960721b6044820152606490fd5b60405162461bcd60e51b8152602060048201526014602482015273141bdbdb081b995d995c881858dd1a5d985d195960621b6044820152606490fd5b503461059c578060031936011261059c576020602a54604051908152f35b503461059c578060031936011261059c57546040516001600160a01b039091168152602090f35b503461059c578060031936011261059c57602060ff602554166040519015158152f35b503461059c578060031936011261059c576035546001600160a01b03908116611c2857603754611be357600a54421015611bad57806119ac918354163314908115611b9f575b50614955565b601c5460ff8160101c16600981101561095b578015908115611b94575b5015611b435760155460ff8160081c1680918192611b19575b5080611b0c575b611aa15715611a5c576030805460ff1916600117905562ff000019166205000017601c5542600d557fe465c22b8ec96fc194d9a0791b76171272fb36c68a84e2c807ed610cb9c7b9b18180a17f9331b2a38c658c57a39ea19b2709d928c28a12cc8fbb838d12b85148550f937d8180a180f35b60405162461bcd60e51b815260206004820152601e60248201527f43616e6e6f742064656c657465206e6f6e2d7072697a656420706f6f6c7300006044820152606490fd5b60405162461bcd60e51b815260206004820152603760248201527f43616e6e6f742064656c657465204e46542d7072697a656420706f6f6c73207460448201527f6861742075736520676c6f62616c20736c6f74206665650000000000000000006064820152608490fd5b5060ff60105416156119e9565b60ff91501660048110156110b4578015908115611b38575b50386119e2565b600191501438611b31565b60405162461bcd60e51b8152602060048201526024808201527f506f6f6c2063616e6e6f742062652064656c65746564206174207468697320736044820152637461676560e01b6064820152608490fd5b6001915014386119c9565b9050601154163314386119a6565b60405162461bcd60e51b815260206004820152600e60248201526d141bdbdb081a185cc8195b99195960921b6044820152606490fd5b60405162461bcd60e51b815260206004820152601b60248201527f5468697320706f6f6c2063616e6e6f742062652064656c6574656400000000006044820152606490fd5b60405162461bcd60e51b8152602060048201526024808201527f45524332302d7072697a656420706f6f6c732063616e6e6f742062652064656c604482015263195d195960e21b6064820152608490fd5b503461059c578060031936011261059c576020602754604051908152f35b503461059c578060031936011261059c576020601354604051908152f35b503461059c578060031936011261059c576020601b54604051908152f35b503461059c578060031936011261059c57603a546040516001600160a01b039091168152602090f35b503461059c578060031936011261059c57602060ff603d54166040519015158152f35b503461059c57602036600319011261059c576020906040906001600160a01b03611d47614763565b168152602383522054604051908152f35b503461059c578060031936011261059c57602060ff601054166040519015158152f35b503461059c578060031936011261059c576020601754604051908152f35b503461059c578060031936011261059c576020600954604051908152f35b503461059c57602036600319011261059c576020611840611dd6614763565b6155d3565b503461059c578060031936011261059c576020603254604051908152f35b5061034036600319011261059c57611e0f614763565b6024356001600160401b0381116109fb57366023820112156109fb5782816004013591611e3b83614864565b92611e496040519485614702565b80845236602482840101116109fb578060246020930183860137830101526044359081151582036112b65760c4359182151583036112b65760e4356001600160a01b03811690036112b657610104356001600160a01b03811690036112b6576004610184351015611453576101e435906001600160a01b03821682036112b65761024435151561024435036112b65761026435926001600160a01b03841684036112b6576004610284351015612836576102e4356001600160a01b03811690036112b65761030435151561030435036112b65761032435151561032435036112b6577f00000000000000000000000000000000000000000000000000000000000000006001600160a01b031633036127f15786546001600160a01b03166127b657611f73866148d7565b601180546001600160a01b031916610104356001600160a01b039081169190911790915560405163ec644ddd60e01b81529060a090829060049082908b165afa80156127ab5788898a918b948c94612730575b5060028054610100600160a81b03191660089290921b610100600160a81b03169190911781556003919091556004919091556005805463ffffffff191663ffffffff909416939093179092556007805461ffff191661ffff929092169190911790557faab832161f023fac0f19869173ce63c0c5d001b2412c024abec5fd23d2db7aa0805460ff1990811660019081179092557f6d6f7e09d15411eb5d93654c4d5b4118c15e91549b4170eb9fd7ae44b429bf6780548216831790557f9e7d8c12299fe84a4e48c43405a4a78edadb9e1289982370cf175fc2bff44b9d80548216831790557fdc36fec35a2501c8b4e767d58bd2219174118088195ece6777a251ab5e958ed780548216831790557f29d6919535b16627db93e4ac2f5a27a63ce6a726efa33ac4d45b1ed2af93ae1680548216831790557f2a07c1cd4e743f5e0394111c67416a8536f1d29187de751a499310cf9bb5cef880548216831790557f41dce8944fed325c62f3da0a6ab340296da48b87a12d1403b33d49eb1122928b80548216831790557f3e07719df0c71d0e09d9d0b34d50cda665391ded7cc8548dbb989150652aaeee80548216831790557feb574253857beecf99fac78f5847c9df86b7c24e3e41e11dba3f4faee663b5f980548216831790557f803f18fcf2d3a5d5ec6fb386295093388f0c52dfeb4dbdbb3d47275c98e6251280548216831790556000929092527f3f1c07aec4ba487306d5d4faaa1d9deb5d8db1e41c6130041b740cb07487a5976020527f2866595265363cdf5500c25566105dc30e2d0b5f42944ad8f5652a1d9c51e02c80549092161790558051906001600160401b03821161271c57819061223b60085461467f565b601f81116126a9575b50602090601f8311600114612633578992612628575b50508160011b916000199060031b1c1916176008555b612287606435806009556084359081600b55614932565b600a5560a435600e556015805461ff00191691151560081b61ff001691909117905561014435600f556101643560125560408051631a35245160e31b815290816004816001600160a01b0389165afa801561261d57869187916125e4575b50602b55602a5560108054610100600160a81b031916610100600160a81b0360e43560081b16811790915561012435601355916001600160a01b0381166125a3575b506102e4356001600160a01b03161561259a576102e4355b602980546001600160a01b03199081166001600160a01b0393841617909155603580549091169183169190911790556102043560365561022435603781905515612484575050604051636f6f8c5d60e01b81529160209150829060049082906001600160a01b03165afa908115610591578291612452575b50610144350361059c57600360ff196015541617601555600160ff19601c541617601c555b60ff60155460081c1680612446575b15612437576001600e541160ff8019602c5416911617602c555b60ff19603d541660ff6103043515151617603d55601c5461ff0061032435151560081b169062ffff00191617601c5580f35b60ff19602c5416602c55612405565b5060ff601054166123eb565b90506020813d60201161247c575b8161246d60209383614702565b810103126112b65751386123b7565b3d9150612460565b6001600160a01b031615612520575050604051636f6f8c5d60e01b815290602090829060049082906001600160a01b03165afa9081156105915782916124ee575b50610144350361059c57600260ff196015541617601555600160ff19601c541617601c556123dc565b90506020813d602011612518575b8161250960209383614702565b810103126112b65751386124c5565b3d91506124fc565b90915060e4356001600160a01b03161561257e575060ff8019601c54169115151617601c5560ff196010541660ff610244351515161760105560ff196015541660ff6101843516176015556101a4356016556101c4356017556123dc565b905060ff19601c5416601c5560105580601655806017556123dc565b6101043561233f565b603a80546001600160a81b0319166001600160a01b03909216919091176102843560a01b60ff60a01b161790556102a435603b556102c435603c5538612327565b9150506040813d604011612615575b8161260060409383614702565b810103126115435760208151910151386122e5565b3d91506125f3565b6040513d88823e3d90fd5b01519050388061225a565b925060088952600080516020615b5e8339815191529089935b601f198416851061268e576001945083601f19811610612675575b505050811b01600855612270565b015160001960f88460031b161c19169055388080612667565b8181015183556020948501946001909301929091019061264c565b90915060088952601f830160051c600080516020615b5e8339815191520160208410612707575b908392915b601f820160051c600080516020615b5e8339815191520181106126f85750612244565b600081558493506001016126d5565b50600080516020615b5e8339815191526126d0565b634e487b7160e01b88526041600452602488fd5b94505050505060a0813d82116127a3575b8161274e60a09383614702565b8101031261279f5761275f8161491e565b60208201519060408301519260608101519063ffffffff8216820361279b57608001519061ffff8216820361279b57939092909161ffff611fc6565b8b80fd5b8780fd5b3d9150612741565b6040513d8a823e3d90fd5b60405162461bcd60e51b8152602060048201526013602482015272105b1c9958591e481a5b9a5d1a585b1a5e9959606a1b6044820152606490fd5b60405162461bcd60e51b815260206004820152601b60248201527f4f6e6c7920666163746f72792063616e20696e697469616c697a6500000000006044820152606490fd5b8680fd5b503461059c578060031936011261059c5761285361487f565b600080546001600160a01b0319811682556001600160a01b03167f8be0079c531659141344cd1fd0a4f28419497f9722a3daafe3b4186f6b6457e08280a380f35b503461059c578060031936011261059c576128ad6154fc565b601c549060ff601092831c16600981101561053d5760046128ce91146154c0565b338152602060188152604082205492601982526040832054906128f2851515615820565b84821015610e6b57603a546001600160a01b0392612917918416612cf4575b86614d0f565b9485156114535733855260198452604085205561293685601b54614932565b601b55603554821615612a2d57508293612958603694939454600e549061545f565b8015610e6b5761297161299b928694603554169261544c565b60405163a9059cbb60e01b8152336004820152602481019190915293849283919082906044820190565b03925af190811561124b578391612a10575b50156129dd57505b601b54600e54146129c7576001805580f35b6207000062ff000019601c541617601c55610c80565b6064906040519062461bcd60e51b82526004820152600c60248201526b10db185a5b4819985a5b195960a21b6044820152fd5b612a279150823d841161058a5761057c8183614702565b386129ad565b9060ff601554166004811015612ce05760038103612ac057505050908092612a5a603754600e549061545f565b80156109fb5782612a6d8193829361544c565b335af1612a78614dab565b5015612a8457506129b5565b6064906040519062461bcd60e51b825260048201526015602482015274141c9a5e99481d1c985b9cd9995c8819985a5b1959605a1b6044820152fd5b9082819394505460081c1690811561145357601c5460ff81861c166009811015612ccc576004036115435760ff1615612bef57505060ff601554169360048510156110b457839415600014612b7f5750906001600e5403612b7b575460081c16601654813b15612b7b578291606483926040519485938492632142170760e11b845230600485015233602485015260448401525af1801561059157612b67575b50506129b5565b612b70906146b9565b61059c578038612b60565b5050fd5b612b8b9060175461544c565b915460081c169060165490823b15612bea5760c48492836040519586948593637921219560e11b85523060048601523360248601526044850152606484015260a060848401528160a48401525af1801561059157612b675750506129b5565b505050fd5b90818596949215600014612c445750505460081c16803b15612b7b576040516340c10f1960e01b8152336004820152602481019290925282908290604490829084905af1801561059157612b675750506129b5565b90939250600191501480612c5c575b505050506129b5565b15612b7b57612c6d9060175461544c565b60165490823b15612bea57604051630ab714fb60e11b8152336004820152602481019290925260448201529082908290606490829084905af1801561059157612cb8575b8080612c53565b612cc1906146b9565b61059c578038612cb1565b634e487b7160e01b87526021600452602487fd5b634e487b7160e01b85526021600452602485fd5b612cfd336158e9565b612911565b503461059c578060031936011261059c57602060ff601a54166040519015158152f35b503461059c578060031936011261059c57602060ff601c54166040519015158152f35b503461059c578060031936011261059c57602060ff60155460081c166040519015158152f35b503461059c578060031936011261059c576020602f54604051908152f35b503461059c578060031936011261059c576020600354604051908152f35b503461059c578060031936011261059c57602060ff600254166040519015158152f35b503461059c578060031936011261059c576117b960ff601554166040519182918261483b565b503461059c57602036600319011261059c5760209060ff906040906001600160a01b03612e1e614763565b168152601f84522054166040519015158152f35b503461059c578060031936011261059c576020603b54604051908152f35b503461059c57602036600319011261059c5760209060ff906040906001600160a01b03612e7b614763565b168152603e84522054166040519015158152f35b503461059c578060031936011261059c576020600e54604051908152f35b503461059c578060031936011261059c57602060ff60255460081c166040519015158152f35b503461059c578060031936011261059c576020602854604051908152f35b503461059c578060031936011261059c57602061ffff60075416604051908152f35b503461059c57604036600319011261059c57612f2d614763565b6001600160a01b031681526014602052604081208054602435929083101561059c576020612f5b8484614823565b90546040519160031b1c8152f35b503461059c57602036600319011261059c576020906040906001600160a01b03612f91614763565b168152602d83522054604051908152f35b503461059c576020908160031936011261059c57600435913033036133525781602893845491612fea612fd48461528c565b93612fe26040519586614702565b80855261528c565b83850190601f190136823785915b875483101561314857601d5460269161301785610df285548095614d0f565b6040518981019088825287604082015260408152613034816146cc565b519020906130428785614932565b918115613134579389938896929387969487950661305f91614932565b91613069836147ec565b919092600160a01b60019003809454600394851b1c1661308b819a829a6152a3565b526130959061543d565b9a61309f91614932565b6130a8906147ec565b9054911b1c16906130b8906147ec565b6130d9929082549060031b9160018060a01b03809116831b921b1916179055565b54906130e491614932565b6130ed906147ec565b61310e929082549060031b9160018060a01b03809116831b921b1916179055565b8752601886526040872080546131239061543d565b905561312e9061543d565b91612ff8565b634e487b7160e01b8c52601260045260248cfd5b85858892835b8181106132a357508061316661317192602654614932565b602655602754614932565b9182602755604051918183019082845251809152604083019591855b8281106132865786867f32a1b5731a757f192a06ca973715ca4dbc42c2d15323cabaa74e0a2d5dc088e4878b0388a16025805460ff19169055600e54908111613201576204000062ff000019601c541617601c5560ff60155460081c168061327a575b8061326e575b8061325e575b613205575b5080f35b61321461321d91601d54614d0f565b600f549061544c565b61271061322c602a548361544c565b0461324361323a8284614d0f565b92602e54614d0f565b602e55603955602f5561010061ff0019603054161760305580f35b5060ff60305460081c16156131fc565b5060ff602c54166131f6565b5060ff601054166131f0565b83516001600160a01b03168852968101969281019260010161318d565b9192916001600160a01b036132b882866152a3565b511690835491600160401b83101561333c57600183018086558310156133265761331e92856000527fc97bfaf2f8ee708c303a06d134f5ecd8389ae0432af62dc132a24118292866bb01906bffffffffffffffffffffffff60a01b82541617905561543d565b92919261314e565b634e487b7160e01b600052603260045260246000fd5b634e487b7160e01b600052604160045260246000fd5b6064906040519062461bcd60e51b82526004820152600e60248201526d13db9b1e481cd95b198b58d85b1b60921b6044820152fd5b503461059c578060031936011261059c576029546040516001600160a01b039091168152602090f35b503461059c57602036600319011261059c5760043590601d5482101561059c5760206133db836147ec565b905460405160039290921b1c6001600160a01b03168152f35b503461059c578060031936011261059c5760018060a01b03906020828254169260105460081c161515602460405180958193635aa35d2560e11b835260048301525afa908115613481579061344f575b602090604051908152f35b506020813d8211613479575b8161346860209383614702565b810103126112b65760209051613444565b3d915061345b565b604051903d90823e3d90fd5b503461059c578060031936011261059c576020603654604051908152f35b503461059c578060031936011261059c576020600a54604051908152f35b503461059c578060031936011261059c5760ff601c5460101c16600981101561053d5760016134f891146154c0565b600a54421061354c57601d54600e5410613544576208000062ff000019601c541617601c557f456598f31410bd74ce9e62f22e18454c4264af94fd5752d17b3cebce37d73cdd8180a180f35b6104d1615a32565b60405162461bcd60e51b8152602060048201526014602482015273506f6f6c206973207374696c6c2061637469766560601b6044820152606490fd5b503461059c578060031936011261059c57602060ff602c54166040519015158152f35b50608036600319011261059c57606460043581356001600160401b038111610e6b576135db90369060040161478f565b906135e46154fc565b60ff80601c5460101c16946009861015612ccc5761360560018097146154c0565b333203613d4d573387526020936023855260408820544314613cfd573388526023855243604089205582601c5460101c166009811015613ce9578703613cb4578754604051638da5cb5b60e01b81526001600160a01b03918216959192919087816004818a5afa8015613b2a5784918c91613c7c575b50163314613c385782601154163314613bf4573315613b35578715613bb957600f548015613b1f57600a54421015613b7d57338b52602188526136c28960408d2054614932565b60125410613b3957886136d49161544c565b3403613b3557601d956136e8898854614932565b60135410613b1f5785603d54166139bb575b505050603a54166139ad575b8160155460081c1615613944575b50338652602183526040862061372b858254614932565b9055855b8481106138aa5750338652601f83526040862085815483811615613847575b50505060105416801560001461380a57506107d08034029034820414341517156137f657906137cd6127107ffd1903a7f9f31de6cf38a88eda98ae029aeba3b2ec48a599d7c0d900f0f335cb9493046137c26137aa8234614d0f565b916137b734603154614932565b603155603254614932565b603255603354614932565b6033555b54601354146137e9575b6040519283523392a2805580f35b6137f1615a32565b6137db565b634e487b7160e01b86526011600452602486fd5b907ffd1903a7f9f31de6cf38a88eda98ae029aeba3b2ec48a599d7c0d900f0f335cb9291156137d15761383f34602e54614932565b602e556137d1565b60ff1916179055601e54600160401b81101561333c5785810180601e5581101561332657601e6000527f50bb669a95c7b50b7e8a6f09454034b2b14cf2b85c730dca9a539ca82cb6e3500180546001600160a01b0319163317905538858161374e565b8254600160401b908181101561333c576138cb81896138e9930187556147ec565b81546001600160a01b0360039290921b91821b19163390911b179055565b33885260148552604088208054918210156139305781613911918961392b9594018155614823565b81549060031b9042821b91600019901b191617905561543d565b61372f565b634e487b7160e01b89526041600452602489fd5b81601054166128365785850361396b57503386526021835260408620546115435738613714565b60405162461bcd60e51b815260048101859052602481018590527f4e6f6e2d7072697a65643a204f6e6c79203120656e74727920616c6c6f7765646044820152fd5b6139b6336158e9565b613706565b338b52603e8852878660408d205416156139d6575b506136fa565b604051636b90bda960e01b815291829060049082905afa8015613b2a5784918c91613aee575b5016908115613aac57908a9291813b15610e6b57839183918360c460405180978196829563cffc18eb60e01b845233600485015230602485015260243560448501528d6044359085015260a060848501528160a4850152848401378181018301849052601f01601f191681010301925af1801561059157613a98575b5050338852603e855260408820805460ff191688179055388080876139d0565b613aa1906146b9565b61279f578738613a78565b84886040519062461bcd60e51b825280600483015260248201527f536f6369616c20656e676167656d656e74206e6f7420636f6e666967757265646044820152fd5b809250898092503d8311613b23575b613b078183614702565b81010312613b1f57613b19849161491e565b386139fc565b8a80fd5b503d613afd565b6040513d8d823e3d90fd5b8980fd5b60405162461bcd60e51b815260048101899052601d60248201527f45786365656473206d6178696d756d20736c6f747320616c6c6f77656400000060448201528590fd5b60405162461bcd60e51b8152600481018990526015602482015274141bdbdb08191d5c985d1a5bdb88195b185c1cd959605a1b60448201528590fd5b60405162461bcd60e51b815260048101889052601460248201527305175616e74697479206d757374206265203e20360641b60448201528490fd5b60405162461bcd60e51b815260048101889052601860248201527f506f6f6c2063726561746f72206e6f7420616c6c6f776564000000000000000060448201528490fd5b60405162461bcd60e51b815260048101889052601a60248201527f50726f746f636f6c2061646d696e206e6f7420616c6c6f77656400000000000060448201528490fd5b809250898092503d8311613cad575b613c958183614702565b81010312613b1f57613ca7849161491e565b3861367b565b503d613c8b565b5060405162461bcd60e51b815260048101859052600f60248201526e506f6f6c206e6f742061637469766560881b6044820152fd5b634e487b7160e01b89526021600452602489fd5b60405162461bcd60e51b815260048101869052602360248201527f4f6e6c79206f6e652070757263686173652070657220626c6f636b20616c6c6f6044820152621dd95960ea1b81840152608490fd5b60405162461bcd60e51b815260206004820152601f60248201527f436f6e7472616374732063616e6e6f7420707572636861736520736c6f7473006044820152fd5b503461059c576020806003193601126106b157613daa614763565b613db26154fc565b601c5460ff8160101c166009811015612ce0576004036141e25760081c60ff168381614104575b60018060a01b0391826011541633149083821561409b575b613e0493831561407a575b505050614955565b8060105460081c16918215611453578181169182865260188552613e2d60408720541515615820565b82865260188552613e4b604087205460198752604088205490614d0f565b93841561283657613e5e85601b54614932565b600e54106128365760ff6015541660048110156140665780613f4157505090859160105460081c16803b156109fb576040516340c10f1960e01b81526001600160a01b039290921660048301526024820185905282908290604490829084905af1801561059157613f2d575b505082816019927f95681e512bc0fe659e195e06c283eada494316f3d801213e48e7101af92bf770613f1a96604051898152a25b85525260408320613f10828254614932565b9055601b54614932565b80601b55600e54146129c7576001805580f35b613f36906146b9565b610e6b578338613eca565b9396959390915060010361400b57613f5b8460175461544c565b9160165490823b1561283657604051630ab714fb60e11b81526001600160a01b039190911660048201526024810191909152604481019290925284908290606490829084905af1801561400057613fe8575b508084613f1a94957f95681e512bc0fe659e195e06c283eada494316f3d801213e48e7101af92bf770601994601654604051908152a2613efe565b90613f1a93613ff86019936146b9565b935090613fad565b6040513d86823e3d90fd5b60405162461bcd60e51b815260048101849052602d60248201527f4d696e74696e67206e6f7420737570706f7274656420666f722074686973207060448201526c1c9a5e99481cdd185b99185c99609a1b6064820152608490fd5b634e487b7160e01b88526021600452602488fd5b919250908261408e575b5050388381613dfc565b9091501633148238614084565b87546040516336b87bd760e11b8152336004820152949350879185916024918391165afa9283156140f957613e0493859189916140dc575b50929350613df1565b6140f39150883d8a1161058a5761057c8183614702565b386140d3565b6040513d89823e3d90fd5b60ff6015541660048110156141ce578061418b575050601054604051638da5cb5b60e01b81529084908290600490829060081c6001600160a01b03165afa9081156112c2578591614156575b50613dd9565b90508381813d8311614184575b61416d8183614702565b810103126114535761417e9061491e565b38614150565b503d614163565b600103613dd95750601054604051638da5cb5b60e01b81529084908290600490829060081c6001600160a01b03165afa9081156112c25785916141565750613dd9565b634e487b7160e01b86526021600452602486fd5b60405162461bcd60e51b815260048101849052600e60248201526d139bc81dda5b9b995c9cc81e595d60921b6044820152606490fd5b503461059c57602036600319011261059c576020906040906001600160a01b03614240614763565b168152602183522054604051908152f35b503461059c57604036600319011261059c576024356001600160401b0381116106b1576142829036906004016147bc565b60025460081c6001600160a01b031633036142ea576142a08161528c565b916142ae6040519384614702565b8183526020918284019060051b82019136831161154357905b8282106142db57856104d1866004356152b7565b813581529083019083016142c7565b60405162461bcd60e51b815260206004820181905260248201527f4f6e6c792056524620436f6f7264696e61746f722063616e2066756c66696c6c6044820152606490fd5b503461059c578060031936011261059c576020601e54604051908152f35b503461059c57608036600319011261059c57614367614763565b50614370614779565b506064356001600160401b0381116106b15761439090369060040161478f565b5050604051630a85bd0160e11b8152602090f35b503461059c57602036600319011261059c5760209060ff906040906001600160a01b036143cf614763565b168152603484522054166040519015158152f35b503461059c578060031936011261059c576020600b54604051908152f35b503461059c578060031936011261059c5760ff601c5460101c16600981101561053d5781526022602052604081206001825260205260ff6040822054161561444b576104d16149af565b60405162461bcd60e51b815260206004820152601860248201527f496e76616c6964207374617465207472616e736974696f6e00000000000000006044820152606490fd5b503461059c578060031936011261059c57602060ff601c5460081c166040519015158152f35b503461059c578060031936011261059c576020601654604051908152f35b503461059c578060031936011261059c576020602454604051908152f35b503461059c578060031936011261059c576020603c54604051908152f35b503461059c578060031936011261059c5760405190806008546145328161467f565b808552916001918083169081156145b95750600114614570575b6117b98561455c81870382614702565b604051918291602083526020830190614723565b925060088352600080516020615b5e8339815191525b8284106145a157505050810160200161455c826117b961454c565b80546020858701810191909152909301928101614586565b8695506117b99693506020925061455c94915060ff191682840152151560051b820101929361454c565b503461059c578060031936011261059c576020602654604051908152f35b503461059c578060031936011261059c576011546040516001600160a01b039091168152602090f35b9050346106b15760203660031901126106b15760043563ffffffff60e01b81168091036109fb5760209250630a85bd0160e11b811490811561466e575b5015158152f35b630271189760e51b14905038614667565b90600182811c921680156146af575b602083101461469957565b634e487b7160e01b600052602260045260246000fd5b91607f169161468e565b6001600160401b03811161333c57604052565b606081019081106001600160401b0382111761333c57604052565b602081019081106001600160401b0382111761333c57604052565b90601f801991011681019081106001600160401b0382111761333c57604052565b919082519283825260005b84811061474f575050826000602080949584010152601f8019910116010190565b60208183018101518483018201520161472e565b600435906001600160a01b03821682036112b657565b602435906001600160a01b03821682036112b657565b9181601f840112156112b6578235916001600160401b0383116112b657602083818601950101116112b657565b9181601f840112156112b6578235916001600160401b0383116112b6576020808501948460051b0101116112b657565b601d5481101561332657601d6000527f6d4407e7be21f808e6509aa9fa9143369579dd7d760fe20a2c09680fc146134f0190600090565b80548210156133265760005260206000200190600090565b91906020830192600482101561484e5752565b634e487b7160e01b600052602160045260246000fd5b6001600160401b03811161333c57601f01601f191660200190565b6000546001600160a01b0316330361489357565b606460405162461bcd60e51b815260206004820152602060248201527f4f776e61626c653a2063616c6c6572206973206e6f7420746865206f776e65726044820152fd5b600080546001600160a01b039283166001600160a01b03198216811783559216907f8be0079c531659141344cd1fd0a4f28419497f9722a3daafe3b4186f6b6457e09080a3565b51906001600160a01b03821682036112b657565b9190820180921161493f57565b634e487b7160e01b600052601160045260246000fd5b1561495c57565b60405162461bcd60e51b81526020600482015260136024820152722ab730baba3437b934bd32b21031b0b63632b960691b6044820152606490fd5b908160209103126112b6575180151581036112b65790565b601c805460ff8160101c16600981101561484e57614cd357600a54421015614c9f57506009544210614c6c5760155460ff8160081c1680614c60575b80614c49575b614a31575b50805462ff000019166201000017905542600c557f3d31b97eef590df350bb2cdbc390034c613c9f23ea6ae1906682628c85248b53600080a1565b60ff16600490818110159182614c3457811580928115614c25575b50614a59575b50506149f6565b60105460081c6001600160a01b0316918215614be157600093614bce5715614b80576020919250602460405180948193630863f25160e11b835230908301525afa908115614b7457600091614b56575b505b15614ab857388080614a52565b614b517f66738724510b349c2774a316c666ba20977ea037a3e694bc1a8742dc1fe694a49160405190614aea826146cc565b603182527f506f6f6c20636f6e7472616374206e6f74206578656d70742066726f6d20726f6020830152701e585b1d1e48195b999bdc98d95b595b9d607a1b60408301526206000062ff000019825416179055604051918291602083526020830190614723565b0390a1565b614b6e915060203d811161058a5761057c8183614702565b38614aa9565b6040513d6000823e3d90fd5b602090602460405180948193630863f25160e11b835230908301525afa9182156134815791614bb0575b50614aab565b614bc8915060203d811161058a5761057c8183614702565b38614baa565b634e487b7160e01b845260218252602484fd5b60405162461bcd60e51b8152602081840152601860248201527f5072697a6520636f6c6c656374696f6e206e6f742073657400000000000000006044820152606490fd5b93505060016000931438614a4c565b602190634e487b7160e01b6000525260246000fd5b5060105460081c6001600160a01b031615156149f1565b5060ff825416156149eb565b60405162461bcd60e51b815260206004820152600b60248201526a139bdd081cdd185c9d195960aa1b6044820152606490fd5b62ff00001916620800001790557f456598f31410bd74ce9e62f22e18454c4264af94fd5752d17b3cebce37d73cdd600080a1565b60405162461bcd60e51b81526020600482015260146024820152734e6f7420696e2070656e64696e6720737461746560601b6044820152606490fd5b9190820391821161493f57565b60009060033d11614d2957565b905060046000803e60005160e01c90565b600060443d10614d9757604051600319913d83016004833e81516001600160401b03918282113d602484011117614d9a57818401948551938411614da2573d85010160208487010111614d9a5750614d9792910160200190614702565b90565b949350505050565b50949350505050565b3d15614dd6573d90614dbc82614864565b91614dca6040519384614702565b82523d6000602084013e565b606090565b601c805460ff8160101c16600981101561484e5760028114908115615281575b501561522d5760018060a01b03906000828154169160409283519485926336b87bd760e11b8452836004933385830152602098899160249788915afa908115615223578691615206575b5080156151f9575b80156151e6575b156151895760ff6025541661514757601d54801561154357602654614e7891614d0f565b80614e88600e5460275490614d0f565b6019811115615142575060195b8060285511615139575b5060285415615123575060025460081c1681549160035461ffff9081600754169163ffffffff928360055416928a51978c8901986001600160401b03998181108b82111761511157908e979695949392918e528c81528d519763125fa26760e31b908901525115158b8801528a8752614f17876146cc565b8c519960c08b019081118b82101761511157948e9a9998959487948f948f99948e9b9887528d528a8d01908152858d0191825260608d0193845260808d01958d6001885260a001988952519e8f9d8e9c8d9b634d8e1c2f60e11b8d528c015251908a01525160448901525116606487015251166084850152511660a48301525160c4820160c0905260e48201614fac91614723565b03925af18291816150e2575b506150965750600190614fc9614d1c565b6308c379a01461502f575b50614fde57505050565b7fab4c58d5f7fcd2f6f276017059fe707292278a4b150b6402c89eb3899a7494ec9161501b61500b614dab565b9251928284938452830190614723565b0390a1805462ff0000191662020000179055565b615037614d3a565b9081615044575b50614fd4565b83518581529092507f1bc0b7451d1b26a4c7bfd7b118b2756c98249ac5f3d51e76be5f33aab548990291819061507d9087830190614723565b0390a1835462ff0000191662020000178455388061503e565b60068190556025805460ff19166001179055845462ff00001916620300001790945550519182527ff81446731d23d202ea16cf590daf64c6087251171612b2adde6acbef4b37580291a1565b9091508481813d831161510a575b6150fa8183614702565b810103126109fb57519038614fb8565b503d6150f0565b634e487b7160e01b8d52604189528b8dfd5b62ff000019166204000017909655505050505050565b60285538614e9f565b614e95565b855162461bcd60e51b81528084018890526019818601527f5265717565737420616c726561647920696e20666c69676874000000000000006044820152606490fd5b855162461bcd60e51b81528084018890526032818601527f43616c6c6572206973206e6f7420616e206f70657261746f722c2063726561746044820152711bdc8b081bdc881c185c9d1a58da5c185b9d60721b6064820152608490fd5b5033855260218752858520541515614e54565b5081601154163314614e4d565b61521d9150883d8a1161058a5761057c8183614702565b38614e45565b87513d88823e3d90fd5b60405162461bcd60e51b815260206004820152602660248201527f506f6f6c206d75737420626520696e20456e646564206f722044726177696e6760448201526520737461746560d01b6064820152608490fd5b600391501438614dfb565b6001600160401b03811161333c5760051b60200190565b80518210156133265760209160051b010190565b6002546000919060081c6001600160a01b031633036142ea57600654036154285760259161010061ff0019845416178355805115615414576020015190303b1561059c5760405191631000850d60e21b83526004830152808260248183305af19182615405575b50906154015760019061532f614d1c565b6308c379a01461538c575b506153425750565b7fbccec8509a79ecd26780c2699a3ca2503c3a3455b361b5fcda5760593edb03c961536e61455c614dab565b0390a1601c805462ff0000191662020000179055805460ff19169055565b615394614d3a565b90816153a1575b5061533a565b7fbcd905a8eb4cc473497e2cd24cf41334ea7fad80c354380f8fff04a025b1e5f89192506153de9092604051918291602083526020830190614723565b0390a1601c805462ff0000191662020000179055815460ff19168255388061539b565b5050565b61540e906146b9565b3861531e565b634e487b7160e01b82526032600452602482fd5b50506202000062ff000019601c541617601c55565b600019811461493f5760010190565b8181029291811591840414171561493f57565b8115615469570490565b634e487b7160e01b600052601260045260246000fd5b1561548657565b60405162461bcd60e51b8152602060048201526012602482015271141bdbdb081b9bdd0818dbdb5c1b195d195960721b6044820152606490fd5b156154c757565b60405162461bcd60e51b815260206004820152600d60248201526c496e76616c696420737461746560981b6044820152606490fd5b60026001541461550d576002600155565b60405162461bcd60e51b815260206004820152601f60248201527f5265656e7472616e637947756172643a207265656e7472616e742063616c6c006044820152606490fd5b1561555957565b60405162461bcd60e51b815260206004820152600d60248201526c1499599d5b990819985a5b1959609a1b6044820152606490fd5b1561559557565b60405162461bcd60e51b81526020600482015260166024820152751499599d5b99081d1c985b9cd9995c8819985a5b195960521b6044820152606490fd5b60ff80603054166157af5780601c5460101c16600981101561484e576008811461577e578160155460081c1680615773575b80615768575b8061575d575b6156d15781601054161590816156b2575b5061562e575050600090565b60009160018060a01b03168252602160205260408220541515908161569e575b506156565790565b602160205261566c6040822054600f549061544c565b90611f409182810292818404149015171561568a5750612710900490565b634e487b7160e01b81526011600452602490fd5b90506034602052604082205416153861564e565b60048114915081156156c6575b5038615622565b6007915014386156bf565b50509060009160018060a01b03168252602160205260408220546018602052604083205460386020526040842054918181118061574b575b61571257505050565b6157209291610df291614d0f565b600f54602a54906127109182039482861161568a5750614d9793946157449161544c565b049061544c565b506157568282614d0f565b8310615709565b50602f541515615611565b5081602c541661560b565b508160105416615605565b50506001600160a01b0316600090815260216020526040902054806157a35750600090565b600f54614d979161544c565b8060155460081c169081615814575b50806157f3575b6157cf5750600090565b6001600160a01b0316600090815260216020526040902054600f54614d979161544c565b506001600160a01b03811660009081526021602052604090205415156157c5565b905060105416386157be565b1561582757565b60405162461bcd60e51b815260206004820152600c60248201526b2737ba1030903bb4b73732b960a11b6044820152606490fd5b1561586257565b60405162461bcd60e51b815260206004820152601760248201527f5072697a6520616c72656164792077697468647261776e0000000000000000006044820152606490fd5b156158ae57565b60405162461bcd60e51b815260206004820152601360248201527214995c5d5a5c995b595b9d081b9bdd081b595d606a1b6044820152606490fd5b603a5460ff8160a01c16600481101561484e578061597f57506040516370a0823160e01b81526001600160a01b0392831660048201529160209183916024918391165afa8015614b745760009061594c575b61594a9150603b5411156158a7565b565b6020823d8211615977575b8161596460209383614702565b8101031261059c575061594a905161593b565b3d9150615957565b600181036159e05750603c54604051627eeac760e11b81526001600160a01b0390931660048401526024830152602090829081806044810103916001600160a01b03165afa8015614b745760009061594c5761594a9150603b5411156158a7565b6002146159eb575050565b6040516370a0823160e01b81526001600160a01b0392831660048201529160209183916024918391165afa8015614b745760009061594c5761594a9150603b5411156158a7565b6202000062ff000019601c541617601c5542600a5542600d557fba56b904ffec191559c3639e6019beb8a654605dbf6ba72f33361432a97c2bea600080a1565b6000805460405163524d530b60e01b815260209390916001600160a01b039085908490600490829085165afa928315614000578493615b26575b508216156109fb579082916040519085820191635e5bc1c560e11b835281602482015260248152615adc816146cc565b51925af1615ae8614dab565b5015615af15750565b6064906040519062461bcd60e51b82526004820152600e60248201526d11195c1bdcda5d0819985a5b195960921b6044820152fd5b9092508481813d8311615b56575b615b3e8183614702565b81010312610e6b57615b4f9061491e565b9138615aac565b503d615b3456fef3f7a9fe364faab93b216da50a3214154f22a0a2b415b23a84c8169e8b636ee3a26469706673582212203b60e96901a06ef0cb6a3cdf3a3ceffcd3005a24c13653d632e092d0fca5dfa364736f6c63430008130033",
  "linkReferences": {},
  "deployedLinkReferences": {}
}