{
  "_format": "hh-sol-artifact-1",
  "contractName": "ProtocolManager",
  "sourceName": "contracts/ProtocolManager.sol",
  "abi": [
    {
      "inputs": [
        {
          "internalType": "address",
          "name": "_vrfCoordinator",
          "type": "address"
        },
        {
          "internalType": "bytes32",
          "name": "_keyHash",
          "type": "bytes32"
        },
        {
          "internalType": "address",
          "name": "_linkToken",
          "type": "address"
        },
        {
          "internalType": "uint32",
          "name": "_callbackGasLimit",
          "type": "uint32"
        },
        {
          "internalType": "uint16",
          "name": "_requestConfirmations",
          "type": "uint16"
        }
      ],
      "stateMutability": "nonpayable",
      "type": "constructor"
    },
    {
      "anonymous": false,
      "inputs": [
        {
          "indexed": false,
          "internalType": "bool",
          "name": "status",
          "type": "bool"
        }
      ],
      "name": "AllowExistingCollectionsToggled",
      "type": "event"
    },
    {
      "anonymous": false,
      "inputs": [
        {
          "indexed": true,
          "internalType": "address",
          "name": "collection",
          "type": "address"
        },
        {
          "indexed": false,
          "internalType": "bool",
          "name": "isWhitelisted",
          "type": "bool"
        }
      ],
      "name": "CollectionWhitelistUpdated",
      "type": "event"
    },
    {
      "anonymous": false,
      "inputs": [
        {
          "indexed": false,
          "internalType": "string",
          "name": "contractType",
          "type": "string"
        },
        {
          "indexed": false,
          "internalType": "address",
          "name": "newAddress",
          "type": "address"
        }
      ],
      "name": "ContractReplaced",
      "type": "event"
    },
    {
      "anonymous": false,
      "inputs": [
        {
          "indexed": false,
          "internalType": "uint256",
          "name": "newPercentage",
          "type": "uint256"
        }
      ],
      "name": "CreationFeePercentageUpdated",
      "type": "event"
    },
    {
      "anonymous": false,
      "inputs": [
        {
          "indexed": false,
          "internalType": "bool",
          "name": "enabled",
          "type": "bool"
        }
      ],
      "name": "CreatorTokenFeeToggled",
      "type": "event"
    },
    {
      "anonymous": false,
      "inputs": [
        {
          "indexed": false,
          "internalType": "uint256",
          "name": "feeAmount",
          "type": "uint256"
        },
        {
          "indexed": false,
          "internalType": "uint256",
          "name": "burnRatio",
          "type": "uint256"
        },
        {
          "indexed": false,
          "internalType": "uint256",
          "name": "revenueRatio",
          "type": "uint256"
        }
      ],
      "name": "CreatorTokenFeeUpdated",
      "type": "event"
    },
    {
      "anonymous": false,
      "inputs": [
        {
          "indexed": false,
          "internalType": "bool",
          "name": "enabled",
          "type": "bool"
        }
      ],
      "name": "CreatorTokenGatedToggled",
      "type": "event"
    },
    {
      "anonymous": false,
      "inputs": [
        {
          "indexed": false,
          "internalType": "uint256",
          "name": "min",
          "type": "uint256"
        },
        {
          "indexed": false,
          "internalType": "uint256",
          "name": "max",
          "type": "uint256"
        }
      ],
      "name": "DurationLimitsUpdated",
      "type": "event"
    },
    {
      "anonymous": false,
      "inputs": [
        {
          "indexed": true,
          "internalType": "address",
          "name": "token",
          "type": "address"
        },
        {
          "indexed": false,
          "internalType": "bool",
          "name": "whitelisted",
          "type": "bool"
        }
      ],
      "name": "ERC20PrizeWhitelisted",
      "type": "event"
    },
    {
      "anonymous": false,
      "inputs": [
        {
          "indexed": true,
          "internalType": "address",
          "name": "collection",
          "type": "address"
        }
      ],
      "name": "ExternalCollectionAdded",
      "type": "event"
    },
    {
      "anonymous": false,
      "inputs": [
        {
          "indexed": false,
          "internalType": "uint256",
          "name": "newFee",
          "type": "uint256"
        }
      ],
      "name": "GlobalSlotFeeUpdated",
      "type": "event"
    },
    {
      "anonymous": false,
      "inputs": [
        {
          "indexed": true,
          "internalType": "address",
          "name": "collection",
          "type": "address"
        }
      ],
      "name": "InternalCollectionAdded",
      "type": "event"
    },
    {
      "anonymous": false,
      "inputs": [
        {
          "indexed": false,
          "internalType": "address",
          "name": "newLinkToken",
          "type": "address"
        }
      ],
      "name": "LinkTokenUpdated",
      "type": "event"
    },
    {
      "anonymous": false,
      "inputs": [
        {
          "indexed": false,
          "internalType": "uint256",
          "name": "newLimit",
          "type": "uint256"
        }
      ],
      "name": "MaxSlotsPerParticipantUpdated",
      "type": "event"
    },
    {
      "anonymous": false,
      "inputs": [
        {
          "indexed": false,
          "internalType": "uint256",
          "name": "newMin",
          "type": "uint256"
        }
      ],
      "name": "MinSlotLimitNonPrizedUpdated",
      "type": "event"
    },
    {
      "anonymous": false,
      "inputs": [
        {
          "indexed": true,
          "internalType": "address",
          "name": "erc721Implementation",
          "type": "address"
        },
        {
          "indexed": true,
          "internalType": "address",
          "name": "erc1155Implementation",
          "type": "address"
        }
      ],
      "name": "NFTFactoryImplementationsUpdated",
      "type": "event"
    },
    {
      "anonymous": false,
      "inputs": [
        {
          "indexed": false,
          "internalType": "address",
          "name": "operator",
          "type": "address"
        },
        {
          "indexed": false,
          "internalType": "bool",
          "name": "status",
          "type": "bool"
        }
      ],
      "name": "OperatorUpdated",
      "type": "event"
    },
    {
      "anonymous": false,
      "inputs": [
        {
          "indexed": true,
          "internalType": "address",
          "name": "previousOwner",
          "type": "address"
        },
        {
          "indexed": true,
          "internalType": "address",
          "name": "newOwner",
          "type": "address"
        }
      ],
      "name": "OwnershipTransferred",
      "type": "event"
    },
    {
      "anonymous": false,
      "inputs": [
        {
          "indexed": false,
          "internalType": "bool",
          "name": "paused",
          "type": "bool"
        }
      ],
      "name": "PoolCreationPaused",
      "type": "event"
    },
    {
      "anonymous": false,
      "inputs": [
        {
          "indexed": true,
          "internalType": "address",
          "name": "poolImplementation",
          "type": "address"
        }
      ],
      "name": "PoolDeployerImplementationUpdated",
      "type": "event"
    },
    {
      "anonymous": false,
      "inputs": [
        {
          "indexed": true,
          "internalType": "address",
          "name": "pool",
          "type": "address"
        }
      ],
      "name": "PoolRegistered",
      "type": "event"
    },
    {
      "anonymous": false,
      "inputs": [
        {
          "indexed": false,
          "internalType": "bool",
          "name": "status",
          "type": "bool"
        }
      ],
      "name": "PrizedPoolsToggled",
      "type": "event"
    },
    {
      "anonymous": false,
      "inputs": [
        {
          "indexed": false,
          "internalType": "uint256",
          "name": "newPercentage",
          "type": "uint256"
        }
      ],
      "name": "ProtocolFeeUpdated",
      "type": "event"
    },
    {
      "anonymous": false,
      "inputs": [
        {
          "indexed": false,
          "internalType": "address",
          "name": "newAddress",
          "type": "address"
        }
      ],
      "name": "RevenueManagerUpdated",
      "type": "event"
    },
    {
      "anonymous": false,
      "inputs": [
        {
          "indexed": false,
          "internalType": "uint256",
          "name": "minSlotLimit",
          "type": "uint256"
        },
        {
          "indexed": false,
          "internalType": "uint256",
          "name": "maxSlotLimit",
          "type": "uint256"
        }
      ],
      "name": "SlotLimitsUpdated",
      "type": "event"
    },
    {
      "anonymous": false,
      "inputs": [
        {
          "indexed": true,
          "internalType": "uint256",
          "name": "subscriptionId",
          "type": "uint256"
        }
      ],
      "name": "SubscriptionCreated",
      "type": "event"
    },
    {
      "anonymous": false,
      "inputs": [
        {
          "indexed": false,
          "internalType": "uint96",
          "name": "amount",
          "type": "uint96"
        }
      ],
      "name": "SubscriptionFunded",
      "type": "event"
    },
    {
      "anonymous": false,
      "inputs": [
        {
          "indexed": true,
          "internalType": "uint256",
          "name": "subscriptionId",
          "type": "uint256"
        },
        {
          "indexed": false,
          "internalType": "uint96",
          "name": "amount",
          "type": "uint96"
        }
      ],
      "name": "SubscriptionFundedWithDetails",
      "type": "event"
    },
    {
      "anonymous": false,
      "inputs": [
        {
          "indexed": true,
          "internalType": "address",
          "name": "consumer",
          "type": "address"
        }
      ],
      "name": "VRFConsumerAdded",
      "type": "event"
    },
    {
      "anonymous": false,
      "inputs": [
        {
          "indexed": true,
          "internalType": "address",
          "name": "consumer",
          "type": "address"
        },
        {
          "indexed": true,
          "internalType": "uint256",
          "name": "subscriptionId",
          "type": "uint256"
        }
      ],
      "name": "VRFConsumerAddedToSubscription",
      "type": "event"
    },
    {
      "anonymous": false,
      "inputs": [
        {
          "indexed": true,
          "internalType": "address",
          "name": "consumer",
          "type": "address"
        }
      ],
      "name": "VRFConsumerRemoved",
      "type": "event"
    },
    {
      "anonymous": false,
      "inputs": [
        {
          "indexed": true,
          "internalType": "address",
          "name": "consumer",
          "type": "address"
        },
        {
          "indexed": true,
          "internalType": "uint256",
          "name": "subscriptionId",
          "type": "uint256"
        }
      ],
      "name": "VRFConsumerRemovedFromSubscription",
      "type": "event"
    },
    {
      "anonymous": false,
      "inputs": [],
      "name": "VRFParamsUpdated",
      "type": "event"
    },
    {
      "anonymous": false,
      "inputs": [
        {
          "indexed": true,
          "internalType": "uint256",
          "name": "subscriptionId",
          "type": "uint256"
        },
        {
          "indexed": false,
          "internalType": "uint256",
          "name": "index",
          "type": "uint256"
        }
      ],
      "name": "VRFSubscriptionAdded",
      "type": "event"
    },
    {
      "anonymous": false,
      "inputs": [],
      "name": "VRFSubscriptionCancelled",
      "type": "event"
    },
    {
      "anonymous": false,
      "inputs": [
        {
          "indexed": true,
          "internalType": "uint256",
          "name": "subscriptionId",
          "type": "uint256"
        }
      ],
      "name": "VRFSubscriptionRemoved",
      "type": "event"
    },
    {
      "inputs": [
        {
          "internalType": "uint256",
          "name": "subscriptionId",
          "type": "uint256"
        }
      ],
      "name": "acceptVRFOwnership",
      "outputs": [],
      "stateMutability": "nonpayable",
      "type": "function"
    },
    {
      "inputs": [],
      "name": "activeSubscriptionCount",
      "outputs": [
        {
          "internalType": "uint256",
          "name": "",
          "type": "uint256"
        }
      ],
      "stateMutability": "view",
      "type": "function"
    },
    {
      "inputs": [
        {
          "internalType": "address",
          "name": "token",
          "type": "address"
        }
      ],
      "name": "addERC20Prize",
      "outputs": [],
      "stateMutability": "nonpayable",
      "type": "function"
    },
    {
      "inputs": [
        {
          "internalType": "address",
          "name": "_collection",
          "type": "address"
        }
      ],
      "name": "addExternalCollection",
      "outputs": [],
      "stateMutability": "nonpayable",
      "type": "function"
    },
    {
      "inputs": [
        {
          "internalType": "address",
          "name": "_collection",
          "type": "address"
        }
      ],
      "name": "addInternalCollection",
      "outputs": [],
      "stateMutability": "nonpayable",
      "type": "function"
    },
    {
      "inputs": [
        {
          "internalType": "address",
          "name": "consumer",
          "type": "address"
        },
        {
          "internalType": "uint256",
          "name": "subscriptionId",
          "type": "uint256"
        }
      ],
      "name": "addVRFConsumer",
      "outputs": [],
      "stateMutability": "nonpayable",
      "type": "function"
    },
    {
      "inputs": [
        {
          "internalType": "uint256",
          "name": "subscriptionId",
          "type": "uint256"
        }
      ],
      "name": "addVRFSubscription",
      "outputs": [],
      "stateMutability": "nonpayable",
      "type": "function"
    },
    {
      "inputs": [
        {
          "internalType": "uint256",
          "name": "",
          "type": "uint256"
        }
      ],
      "name": "allPools",
      "outputs": [
        {
          "internalType": "address",
          "name": "",
          "type": "address"
        }
      ],
      "stateMutability": "view",
      "type": "function"
    },
    {
      "inputs": [],
      "name": "allowExistingCollections",
      "outputs": [
        {
          "internalType": "bool",
          "name": "",
          "type": "bool"
        }
      ],
      "stateMutability": "view",
      "type": "function"
    },
    {
      "inputs": [
        {
          "internalType": "address",
          "name": "",
          "type": "address"
        }
      ],
      "name": "approvedCollections",
      "outputs": [
        {
          "internalType": "bool",
          "name": "",
          "type": "bool"
        }
      ],
      "stateMutability": "view",
      "type": "function"
    },
    {
      "inputs": [],
      "name": "callbackGasLimit",
      "outputs": [
        {
          "internalType": "uint32",
          "name": "",
          "type": "uint32"
        }
      ],
      "stateMutability": "view",
      "type": "function"
    },
    {
      "inputs": [],
      "name": "cancelVRFSubscription",
      "outputs": [],
      "stateMutability": "nonpayable",
      "type": "function"
    },
    {
      "inputs": [
        {
          "internalType": "bytes32",
          "name": "",
          "type": "bytes32"
        }
      ],
      "name": "collectionNameTaken",
      "outputs": [
        {
          "internalType": "bool",
          "name": "",
          "type": "bool"
        }
      ],
      "stateMutability": "view",
      "type": "function"
    },
    {
      "inputs": [],
      "name": "createVRFSubscription",
      "outputs": [],
      "stateMutability": "nonpayable",
      "type": "function"
    },
    {
      "inputs": [],
      "name": "creationFeePercentage",
      "outputs": [
        {
          "internalType": "uint256",
          "name": "",
          "type": "uint256"
        }
      ],
      "stateMutability": "view",
      "type": "function"
    },
    {
      "inputs": [],
      "name": "creationPaused",
      "outputs": [
        {
          "internalType": "bool",
          "name": "",
          "type": "bool"
        }
      ],
      "stateMutability": "view",
      "type": "function"
    },
    {
      "inputs": [
        {
          "internalType": "address",
          "name": "",
          "type": "address"
        },
        {
          "internalType": "uint256",
          "name": "",
          "type": "uint256"
        }
      ],
      "name": "creatorPools",
      "outputs": [
        {
          "internalType": "address",
          "name": "",
          "type": "address"
        }
      ],
      "stateMutability": "view",
      "type": "function"
    },
    {
      "inputs": [],
      "name": "creatorToken",
      "outputs": [
        {
          "internalType": "address",
          "name": "",
          "type": "address"
        }
      ],
      "stateMutability": "view",
      "type": "function"
    },
    {
      "inputs": [],
      "name": "creatorTokenFeeAmount",
      "outputs": [
        {
          "internalType": "uint256",
          "name": "",
          "type": "uint256"
        }
      ],
      "stateMutability": "view",
      "type": "function"
    },
    {
      "inputs": [
        {
          "internalType": "address",
          "name": "",
          "type": "address"
        }
      ],
      "name": "erc20PrizeWhitelist",
      "outputs": [
        {
          "internalType": "bool",
          "name": "",
          "type": "bool"
        }
      ],
      "stateMutability": "view",
      "type": "function"
    },
    {
      "inputs": [
        {
          "internalType": "uint96",
          "name": "amountPerSubscription",
          "type": "uint96"
        }
      ],
      "name": "fundAllSubscriptionsWithNative",
      "outputs": [],
      "stateMutability": "payable",
      "type": "function"
    },
    {
      "inputs": [
        {
          "internalType": "uint96",
          "name": "amount",
          "type": "uint96"
        }
      ],
      "name": "fundVRFSubscriptionWithLink",
      "outputs": [],
      "stateMutability": "nonpayable",
      "type": "function"
    },
    {
      "inputs": [
        {
          "internalType": "uint256",
          "name": "subscriptionId",
          "type": "uint256"
        },
        {
          "internalType": "uint96",
          "name": "amount",
          "type": "uint96"
        }
      ],
      "name": "fundVRFSubscriptionWithLinkById",
      "outputs": [],
      "stateMutability": "nonpayable",
      "type": "function"
    },
    {
      "inputs": [
        {
          "internalType": "uint96",
          "name": "amount",
          "type": "uint96"
        }
      ],
      "name": "fundVRFSubscriptionWithNative",
      "outputs": [],
      "stateMutability": "payable",
      "type": "function"
    },
    {
      "inputs": [
        {
          "internalType": "uint256",
          "name": "subscriptionId",
          "type": "uint256"
        },
        {
          "internalType": "uint96",
          "name": "amount",
          "type": "uint96"
        }
      ],
      "name": "fundVRFSubscriptionWithNativeById",
      "outputs": [],
      "stateMutability": "payable",
      "type": "function"
    },
    {
      "inputs": [],
      "name": "getAllPools",
      "outputs": [
        {
          "internalType": "address[]",
          "name": "",
          "type": "address[]"
        }
      ],
      "stateMutability": "view",
      "type": "function"
    },
    {
      "inputs": [],
      "name": "getAllSlotLimits",
      "outputs": [
        {
          "internalType": "uint256",
          "name": "minPrized",
          "type": "uint256"
        },
        {
          "internalType": "uint256",
          "name": "minNonPrized",
          "type": "uint256"
        },
        {
          "internalType": "uint256",
          "name": "max",
          "type": "uint256"
        }
      ],
      "stateMutability": "view",
      "type": "function"
    },
    {
      "inputs": [],
      "name": "getAllSubscriptions",
      "outputs": [
        {
          "internalType": "uint256[]",
          "name": "ids",
          "type": "uint256[]"
        },
        {
          "internalType": "bool[]",
          "name": "active",
          "type": "bool[]"
        },
        {
          "internalType": "uint256[]",
          "name": "consumerCounts",
          "type": "uint256[]"
        }
      ],
      "stateMutability": "view",
      "type": "function"
    },
    {
      "inputs": [],
      "name": "getCreationFeePercentage",
      "outputs": [
        {
          "internalType": "uint256",
          "name": "",
          "type": "uint256"
        }
      ],
      "stateMutability": "view",
      "type": "function"
    },
    {
      "inputs": [],
      "name": "getDurationLimits",
      "outputs": [
        {
          "internalType": "uint256",
          "name": "",
          "type": "uint256"
        },
        {
          "internalType": "uint256",
          "name": "",
          "type": "uint256"
        }
      ],
      "stateMutability": "view",
      "type": "function"
    },
    {
      "inputs": [],
      "name": "getMaxSlotsPerParticipant",
      "outputs": [
        {
          "internalType": "uint256",
          "name": "",
          "type": "uint256"
        }
      ],
      "stateMutability": "view",
      "type": "function"
    },
    {
      "inputs": [
        {
          "internalType": "bool",
          "name": "isPrized",
          "type": "bool"
        }
      ],
      "name": "getMinSlotLimit",
      "outputs": [
        {
          "internalType": "uint256",
          "name": "",
          "type": "uint256"
        }
      ],
      "stateMutability": "view",
      "type": "function"
    },
    {
      "inputs": [],
      "name": "getNextVRFSubscription",
      "outputs": [
        {
          "internalType": "uint256",
          "name": "",
          "type": "uint256"
        }
      ],
      "stateMutability": "nonpayable",
      "type": "function"
    },
    {
      "inputs": [],
      "name": "getPoolConfig",
      "outputs": [
        {
          "internalType": "uint256",
          "name": "",
          "type": "uint256"
        },
        {
          "internalType": "uint256",
          "name": "",
          "type": "uint256"
        },
        {
          "internalType": "uint256",
          "name": "",
          "type": "uint256"
        }
      ],
      "stateMutability": "view",
      "type": "function"
    },
    {
      "inputs": [
        {
          "internalType": "address",
          "name": "pool",
          "type": "address"
        }
      ],
      "name": "getPoolCreator",
      "outputs": [
        {
          "internalType": "address",
          "name": "",
          "type": "address"
        }
      ],
      "stateMutability": "view",
      "type": "function"
    },
    {
      "inputs": [
        {
          "internalType": "address",
          "name": "pool",
          "type": "address"
        }
      ],
      "name": "getPoolSubscription",
      "outputs": [
        {
          "internalType": "uint256",
          "name": "",
          "type": "uint256"
        }
      ],
      "stateMutability": "view",
      "type": "function"
    },
    {
      "inputs": [
        {
          "internalType": "address",
          "name": "creator",
          "type": "address"
        }
      ],
      "name": "getPoolsByCreator",
      "outputs": [
        {
          "internalType": "address[]",
          "name": "",
          "type": "address[]"
        }
      ],
      "stateMutability": "view",
      "type": "function"
    },
    {
      "inputs": [],
      "name": "getRevenueManager",
      "outputs": [
        {
          "internalType": "address",
          "name": "",
          "type": "address"
        }
      ],
      "stateMutability": "view",
      "type": "function"
    },
    {
      "inputs": [],
      "name": "getRevenueParameters",
      "outputs": [
        {
          "internalType": "uint256",
          "name": "_protocolFee",
          "type": "uint256"
        },
        {
          "internalType": "uint256",
          "name": "_creationFeePercentage",
          "type": "uint256"
        }
      ],
      "stateMutability": "view",
      "type": "function"
    },
    {
      "inputs": [],
      "name": "getSlotFee",
      "outputs": [
        {
          "internalType": "uint256",
          "name": "",
          "type": "uint256"
        }
      ],
      "stateMutability": "view",
      "type": "function"
    },
    {
      "inputs": [],
      "name": "getSlotLimits",
      "outputs": [
        {
          "internalType": "uint256",
          "name": "",
          "type": "uint256"
        },
        {
          "internalType": "uint256",
          "name": "",
          "type": "uint256"
        }
      ],
      "stateMutability": "view",
      "type": "function"
    },
    {
      "inputs": [],
      "name": "getSubscriptionId",
      "outputs": [
        {
          "internalType": "uint256",
          "name": "",
          "type": "uint256"
        }
      ],
      "stateMutability": "view",
      "type": "function"
    },
    {
      "inputs": [],
      "name": "getVRFParams",
      "outputs": [
        {
          "internalType": "address",
          "name": "",
          "type": "address"
        },
        {
          "internalType": "uint256",
          "name": "",
          "type": "uint256"
        },
        {
          "internalType": "bytes32",
          "name": "",
          "type": "bytes32"
        },
        {
          "internalType": "uint32",
          "name": "",
          "type": "uint32"
        },
        {
          "internalType": "uint16",
          "name": "",
          "type": "uint16"
        }
      ],
      "stateMutability": "view",
      "type": "function"
    },
    {
      "inputs": [],
      "name": "getVrfConsumerCount",
      "outputs": [
        {
          "internalType": "uint256",
          "name": "",
          "type": "uint256"
        }
      ],
      "stateMutability": "view",
      "type": "function"
    },
    {
      "inputs": [],
      "name": "globalSlotFee",
      "outputs": [
        {
          "internalType": "uint256",
          "name": "",
          "type": "uint256"
        }
      ],
      "stateMutability": "view",
      "type": "function"
    },
    {
      "inputs": [
        {
          "internalType": "uint256",
          "name": "",
          "type": "uint256"
        }
      ],
      "name": "isActiveSubscription",
      "outputs": [
        {
          "internalType": "bool",
          "name": "",
          "type": "bool"
        }
      ],
      "stateMutability": "view",
      "type": "function"
    },
    {
      "inputs": [
        {
          "internalType": "address",
          "name": "_collection",
          "type": "address"
        }
      ],
      "name": "isCollectionApproved",
      "outputs": [
        {
          "internalType": "bool",
          "name": "",
          "type": "bool"
        }
      ],
      "stateMutability": "view",
      "type": "function"
    },
    {
      "inputs": [
        {
          "internalType": "string",
          "name": "name",
          "type": "string"
        }
      ],
      "name": "isCollectionNameTaken",
      "outputs": [
        {
          "internalType": "bool",
          "name": "",
          "type": "bool"
        }
      ],
      "stateMutability": "view",
      "type": "function"
    },
    {
      "inputs": [],
      "name": "isCreationPaused",
      "outputs": [
        {
          "internalType": "bool",
          "name": "",
          "type": "bool"
        }
      ],
      "stateMutability": "view",
      "type": "function"
    },
    {
      "inputs": [],
      "name": "isCreatorTokenFeeEnabled",
      "outputs": [
        {
          "internalType": "bool",
          "name": "",
          "type": "bool"
        }
      ],
      "stateMutability": "view",
      "type": "function"
    },
    {
      "inputs": [],
      "name": "isCreatorTokenGated",
      "outputs": [
        {
          "internalType": "bool",
          "name": "",
          "type": "bool"
        }
      ],
      "stateMutability": "view",
      "type": "function"
    },
    {
      "inputs": [
        {
          "internalType": "address",
          "name": "token",
          "type": "address"
        }
      ],
      "name": "isERC20PrizeWhitelisted",
      "outputs": [
        {
          "internalType": "bool",
          "name": "",
          "type": "bool"
        }
      ],
      "stateMutability": "view",
      "type": "function"
    },
    {
      "inputs": [
        {
          "internalType": "address",
          "name": "",
          "type": "address"
        }
      ],
      "name": "isInternalCollection",
      "outputs": [
        {
          "internalType": "bool",
          "name": "",
          "type": "bool"
        }
      ],
      "stateMutability": "view",
      "type": "function"
    },
    {
      "inputs": [
        {
          "internalType": "address",
          "name": "operator",
          "type": "address"
        }
      ],
      "name": "isOperator",
      "outputs": [
        {
          "internalType": "bool",
          "name": "",
          "type": "bool"
        }
      ],
      "stateMutability": "view",
      "type": "function"
    },
    {
      "inputs": [
        {
          "internalType": "address",
          "name": "_address",
          "type": "address"
        }
      ],
      "name": "isPoolContract",
      "outputs": [
        {
          "internalType": "bool",
          "name": "",
          "type": "bool"
        }
      ],
      "stateMutability": "view",
      "type": "function"
    },
    {
      "inputs": [
        {
          "internalType": "string",
          "name": "name",
          "type": "string"
        }
      ],
      "name": "isPoolNameTaken",
      "outputs": [
        {
          "internalType": "bool",
          "name": "",
          "type": "bool"
        }
      ],
      "stateMutability": "view",
      "type": "function"
    },
    {
      "inputs": [
        {
          "internalType": "address",
          "name": "",
          "type": "address"
        }
      ],
      "name": "isVRFConsumer",
      "outputs": [
        {
          "internalType": "bool",
          "name": "",
          "type": "bool"
        }
      ],
      "stateMutability": "view",
      "type": "function"
    },
    {
      "inputs": [],
      "name": "keyHash",
      "outputs": [
        {
          "internalType": "bytes32",
          "name": "",
          "type": "bytes32"
        }
      ],
      "stateMutability": "view",
      "type": "function"
    },
    {
      "inputs": [],
      "name": "linkToken",
      "outputs": [
        {
          "internalType": "contract ILinkTransferAndCall",
          "name": "",
          "type": "address"
        }
      ],
      "stateMutability": "view",
      "type": "function"
    },
    {
      "inputs": [],
      "name": "maxPoolDuration",
      "outputs": [
        {
          "internalType": "uint256",
          "name": "",
          "type": "uint256"
        }
      ],
      "stateMutability": "view",
      "type": "function"
    },
    {
      "inputs": [],
      "name": "maxSlotLimit",
      "outputs": [
        {
          "internalType": "uint256",
          "name": "",
          "type": "uint256"
        }
      ],
      "stateMutability": "view",
      "type": "function"
    },
    {
      "inputs": [],
      "name": "maxSlotsPerParticipant",
      "outputs": [
        {
          "internalType": "uint256",
          "name": "",
          "type": "uint256"
        }
      ],
      "stateMutability": "view",
      "type": "function"
    },
    {
      "inputs": [],
      "name": "minCreatorTokenBalance",
      "outputs": [
        {
          "internalType": "uint256",
          "name": "",
          "type": "uint256"
        }
      ],
      "stateMutability": "view",
      "type": "function"
    },
    {
      "inputs": [],
      "name": "minPoolDuration",
      "outputs": [
        {
          "internalType": "uint256",
          "name": "",
          "type": "uint256"
        }
      ],
      "stateMutability": "view",
      "type": "function"
    },
    {
      "inputs": [],
      "name": "minSlotLimit",
      "outputs": [
        {
          "internalType": "uint256",
          "name": "",
          "type": "uint256"
        }
      ],
      "stateMutability": "view",
      "type": "function"
    },
    {
      "inputs": [],
      "name": "minSlotLimitNonPrized",
      "outputs": [
        {
          "internalType": "uint256",
          "name": "",
          "type": "uint256"
        }
      ],
      "stateMutability": "view",
      "type": "function"
    },
    {
      "inputs": [],
      "name": "nftFactory",
      "outputs": [
        {
          "internalType": "address",
          "name": "",
          "type": "address"
        }
      ],
      "stateMutability": "view",
      "type": "function"
    },
    {
      "inputs": [
        {
          "internalType": "address",
          "name": "",
          "type": "address"
        }
      ],
      "name": "operators",
      "outputs": [
        {
          "internalType": "bool",
          "name": "",
          "type": "bool"
        }
      ],
      "stateMutability": "view",
      "type": "function"
    },
    {
      "inputs": [],
      "name": "owner",
      "outputs": [
        {
          "internalType": "address",
          "name": "",
          "type": "address"
        }
      ],
      "stateMutability": "view",
      "type": "function"
    },
    {
      "inputs": [
        {
          "internalType": "bool",
          "name": "pause",
          "type": "bool"
        }
      ],
      "name": "pausePoolCreation",
      "outputs": [],
      "stateMutability": "nonpayable",
      "type": "function"
    },
    {
      "inputs": [
        {
          "internalType": "address",
          "name": "",
          "type": "address"
        }
      ],
      "name": "poolCreationTimestamps",
      "outputs": [
        {
          "internalType": "uint256",
          "name": "",
          "type": "uint256"
        }
      ],
      "stateMutability": "view",
      "type": "function"
    },
    {
      "inputs": [
        {
          "internalType": "address",
          "name": "",
          "type": "address"
        }
      ],
      "name": "poolCreators",
      "outputs": [
        {
          "internalType": "address",
          "name": "",
          "type": "address"
        }
      ],
      "stateMutability": "view",
      "type": "function"
    },
    {
      "inputs": [],
      "name": "poolDeployer",
      "outputs": [
        {
          "internalType": "address",
          "name": "",
          "type": "address"
        }
      ],
      "stateMutability": "view",
      "type": "function"
    },
    {
      "inputs": [
        {
          "internalType": "bytes32",
          "name": "",
          "type": "bytes32"
        }
      ],
      "name": "poolNameTaken",
      "outputs": [
        {
          "internalType": "bool",
          "name": "",
          "type": "bool"
        }
      ],
      "stateMutability": "view",
      "type": "function"
    },
    {
      "inputs": [
        {
          "internalType": "address",
          "name": "",
          "type": "address"
        }
      ],
      "name": "poolToSubscriptionId",
      "outputs": [
        {
          "internalType": "uint256",
          "name": "",
          "type": "uint256"
        }
      ],
      "stateMutability": "view",
      "type": "function"
    },
    {
      "inputs": [
        {
          "internalType": "address",
          "name": "pool",
          "type": "address"
        },
        {
          "internalType": "uint256",
          "name": "subscriptionId",
          "type": "uint256"
        }
      ],
      "name": "preAssignSubscription",
      "outputs": [],
      "stateMutability": "nonpayable",
      "type": "function"
    },
    {
      "inputs": [],
      "name": "prizedPoolsEnabled",
      "outputs": [
        {
          "internalType": "bool",
          "name": "",
          "type": "bool"
        }
      ],
      "stateMutability": "view",
      "type": "function"
    },
    {
      "inputs": [],
      "name": "protocolFeePercentage",
      "outputs": [
        {
          "internalType": "uint256",
          "name": "",
          "type": "uint256"
        }
      ],
      "stateMutability": "view",
      "type": "function"
    },
    {
      "inputs": [
        {
          "internalType": "string",
          "name": "name",
          "type": "string"
        }
      ],
      "name": "registerCollectionName",
      "outputs": [],
      "stateMutability": "nonpayable",
      "type": "function"
    },
    {
      "inputs": [
        {
          "internalType": "address",
          "name": "pool",
          "type": "address"
        }
      ],
      "name": "registerPool",
      "outputs": [],
      "stateMutability": "nonpayable",
      "type": "function"
    },
    {
      "inputs": [
        {
          "internalType": "string",
          "name": "name",
          "type": "string"
        }
      ],
      "name": "registerPoolName",
      "outputs": [],
      "stateMutability": "nonpayable",
      "type": "function"
    },
    {
      "inputs": [
        {
          "internalType": "address",
          "name": "_collection",
          "type": "address"
        }
      ],
      "name": "removeApprovedCollection",
      "outputs": [],
      "stateMutability": "nonpayable",
      "type": "function"
    },
    {
      "inputs": [
        {
          "internalType": "address",
          "name": "token",
          "type": "address"
        }
      ],
      "name": "removeERC20Prize",
      "outputs": [],
      "stateMutability": "nonpayable",
      "type": "function"
    },
    {
      "inputs": [
        {
          "internalType": "address",
          "name": "consumer",
          "type": "address"
        }
      ],
      "name": "removeVRFConsumer",
      "outputs": [],
      "stateMutability": "nonpayable",
      "type": "function"
    },
    {
      "inputs": [
        {
          "internalType": "uint256",
          "name": "subscriptionId",
          "type": "uint256"
        }
      ],
      "name": "removeVRFSubscription",
      "outputs": [],
      "stateMutability": "nonpayable",
      "type": "function"
    },
    {
      "inputs": [],
      "name": "renounceOwnership",
      "outputs": [],
      "stateMutability": "nonpayable",
      "type": "function"
    },
    {
      "inputs": [
        {
          "internalType": "string",
          "name": "contractType",
          "type": "string"
        },
        {
          "internalType": "address",
          "name": "newAddress",
          "type": "address"
        }
      ],
      "name": "replaceContract",
      "outputs": [],
      "stateMutability": "nonpayable",
      "type": "function"
    },
    {
      "inputs": [],
      "name": "requestConfirmations",
      "outputs": [
        {
          "internalType": "uint16",
          "name": "",
          "type": "uint16"
        }
      ],
      "stateMutability": "view",
      "type": "function"
    },
    {
      "inputs": [],
      "name": "revenueManager",
      "outputs": [
        {
          "internalType": "address",
          "name": "",
          "type": "address"
        }
      ],
      "stateMutability": "view",
      "type": "function"
    },
    {
      "inputs": [
        {
          "internalType": "uint256",
          "name": "_percentage",
          "type": "uint256"
        }
      ],
      "name": "setCreationFeePercentage",
      "outputs": [],
      "stateMutability": "nonpayable",
      "type": "function"
    },
    {
      "inputs": [
        {
          "internalType": "address",
          "name": "_token",
          "type": "address"
        },
        {
          "internalType": "uint256",
          "name": "_minBalance",
          "type": "uint256"
        }
      ],
      "name": "setCreatorToken",
      "outputs": [],
      "stateMutability": "nonpayable",
      "type": "function"
    },
    {
      "inputs": [
        {
          "internalType": "uint256",
          "name": "_min",
          "type": "uint256"
        },
        {
          "internalType": "uint256",
          "name": "_max",
          "type": "uint256"
        }
      ],
      "name": "setDurationLimits",
      "outputs": [],
      "stateMutability": "nonpayable",
      "type": "function"
    },
    {
      "inputs": [
        {
          "internalType": "uint256",
          "name": "_fee",
          "type": "uint256"
        }
      ],
      "name": "setGlobalSlotFee",
      "outputs": [],
      "stateMutability": "nonpayable",
      "type": "function"
    },
    {
      "inputs": [
        {
          "internalType": "address",
          "name": "_linkToken",
          "type": "address"
        }
      ],
      "name": "setLinkToken",
      "outputs": [],
      "stateMutability": "nonpayable",
      "type": "function"
    },
    {
      "inputs": [
        {
          "internalType": "uint256",
          "name": "_maxSlots",
          "type": "uint256"
        }
      ],
      "name": "setMaxSlotsPerParticipant",
      "outputs": [],
      "stateMutability": "nonpayable",
      "type": "function"
    },
    {
      "inputs": [
        {
          "internalType": "uint256",
          "name": "_min",
          "type": "uint256"
        }
      ],
      "name": "setMinSlotLimitNonPrized",
      "outputs": [],
      "stateMutability": "nonpayable",
      "type": "function"
    },
    {
      "inputs": [
        {
          "internalType": "address",
          "name": "_nftFactory",
          "type": "address"
        }
      ],
      "name": "setNFTFactory",
      "outputs": [],
      "stateMutability": "nonpayable",
      "type": "function"
    },
    {
      "inputs": [
        {
          "internalType": "address",
          "name": "operator",
          "type": "address"
        },
        {
          "internalType": "bool",
          "name": "status",
          "type": "bool"
        }
      ],
      "name": "setOperator",
      "outputs": [],
      "stateMutability": "nonpayable",
      "type": "function"
    },
    {
      "inputs": [
        {
          "internalType": "address",
          "name": "pool",
          "type": "address"
        },
        {
          "internalType": "uint256",
          "name": "timestamp",
          "type": "uint256"
        }
      ],
      "name": "setPoolCreationTimestamp",
      "outputs": [],
      "stateMutability": "nonpayable",
      "type": "function"
    },
    {
      "inputs": [
        {
          "internalType": "address",
          "name": "pool",
          "type": "address"
        },
        {
          "internalType": "address",
          "name": "creator",
          "type": "address"
        }
      ],
      "name": "setPoolCreator",
      "outputs": [],
      "stateMutability": "nonpayable",
      "type": "function"
    },
    {
      "inputs": [
        {
          "internalType": "address",
          "name": "_poolDeployer",
          "type": "address"
        }
      ],
      "name": "setPoolDeployer",
      "outputs": [],
      "stateMutability": "nonpayable",
      "type": "function"
    },
    {
      "inputs": [
        {
          "internalType": "uint256",
          "name": "_percentage",
          "type": "uint256"
        }
      ],
      "name": "setProtocolFee",
      "outputs": [],
      "stateMutability": "nonpayable",
      "type": "function"
    },
    {
      "inputs": [
        {
          "internalType": "address",
          "name": "_revenueManager",
          "type": "address"
        }
      ],
      "name": "setRevenueManager",
      "outputs": [],
      "stateMutability": "nonpayable",
      "type": "function"
    },
    {
      "inputs": [
        {
          "internalType": "uint256",
          "name": "_min",
          "type": "uint256"
        },
        {
          "internalType": "uint256",
          "name": "_max",
          "type": "uint256"
        }
      ],
      "name": "setSlotLimits",
      "outputs": [],
      "stateMutability": "nonpayable",
      "type": "function"
    },
    {
      "inputs": [
        {
          "internalType": "uint256",
          "name": "_fee",
          "type": "uint256"
        }
      ],
      "name": "setSocialEngagementFee",
      "outputs": [],
      "stateMutability": "nonpayable",
      "type": "function"
    },
    {
      "inputs": [
        {
          "internalType": "address",
          "name": "_manager",
          "type": "address"
        }
      ],
      "name": "setSocialEngagementManager",
      "outputs": [],
      "stateMutability": "nonpayable",
      "type": "function"
    },
    {
      "inputs": [
        {
          "internalType": "address",
          "name": "_coordinator",
          "type": "address"
        },
        {
          "internalType": "bytes32",
          "name": "_keyHash",
          "type": "bytes32"
        },
        {
          "internalType": "uint32",
          "name": "_gasLimit",
          "type": "uint32"
        }
      ],
      "name": "setVRFParams",
      "outputs": [],
      "stateMutability": "nonpayable",
      "type": "function"
    },
    {
      "inputs": [
        {
          "internalType": "uint256",
          "name": "_subscriptionId",
          "type": "uint256"
        }
      ],
      "name": "setVRFSubscriptionId",
      "outputs": [],
      "stateMutability": "nonpayable",
      "type": "function"
    },
    {
      "inputs": [],
      "name": "socialEngagementFee",
      "outputs": [
        {
          "internalType": "uint256",
          "name": "",
          "type": "uint256"
        }
      ],
      "stateMutability": "view",
      "type": "function"
    },
    {
      "inputs": [],
      "name": "socialEngagementManager",
      "outputs": [
        {
          "internalType": "address",
          "name": "",
          "type": "address"
        }
      ],
      "stateMutability": "view",
      "type": "function"
    },
    {
      "inputs": [
        {
          "internalType": "uint256",
          "name": "",
          "type": "uint256"
        }
      ],
      "name": "subscriptionConsumerCount",
      "outputs": [
        {
          "internalType": "uint256",
          "name": "",
          "type": "uint256"
        }
      ],
      "stateMutability": "view",
      "type": "function"
    },
    {
      "inputs": [
        {
          "internalType": "bool",
          "name": "_status",
          "type": "bool"
        }
      ],
      "name": "toggleAllowExistingCollections",
      "outputs": [],
      "stateMutability": "nonpayable",
      "type": "function"
    },
    {
      "inputs": [
        {
          "internalType": "bool",
          "name": "_enabled",
          "type": "bool"
        }
      ],
      "name": "toggleCreatorTokenFee",
      "outputs": [],
      "stateMutability": "nonpayable",
      "type": "function"
    },
    {
      "inputs": [
        {
          "internalType": "bool",
          "name": "_enabled",
          "type": "bool"
        }
      ],
      "name": "toggleCreatorTokenGated",
      "outputs": [],
      "stateMutability": "nonpayable",
      "type": "function"
    },
    {
      "inputs": [
        {
          "internalType": "bool",
          "name": "_status",
          "type": "bool"
        }
      ],
      "name": "togglePrizedPools",
      "outputs": [],
      "stateMutability": "nonpayable",
      "type": "function"
    },
    {
      "inputs": [
        {
          "internalType": "address",
          "name": "newOwner",
          "type": "address"
        }
      ],
      "name": "transferOwnership",
      "outputs": [],
      "stateMutability": "nonpayable",
      "type": "function"
    },
    {
      "inputs": [
        {
          "internalType": "address",
          "name": "_erc721Implementation",
          "type": "address"
        },
        {
          "internalType": "address",
          "name": "_erc1155Implementation",
          "type": "address"
        }
      ],
      "name": "updateNFTFactoryImplementations",
      "outputs": [],
      "stateMutability": "nonpayable",
      "type": "function"
    },
    {
      "inputs": [
        {
          "internalType": "address",
          "name": "_poolImplementation",
          "type": "address"
        }
      ],
      "name": "updatePoolDeployerImplementation",
      "outputs": [],
      "stateMutability": "nonpayable",
      "type": "function"
    },
    {
      "inputs": [],
      "name": "vrfConsumerCount",
      "outputs": [
        {
          "internalType": "uint256",
          "name": "",
          "type": "uint256"
        }
      ],
      "stateMutability": "view",
      "type": "function"
    },
    {
      "inputs": [],
      "name": "vrfCoordinator",
      "outputs": [
        {
          "internalType": "contract VRFCoordinatorV2PlusInterface",
          "name": "",
          "type": "address"
        }
      ],
      "stateMutability": "view",
      "type": "function"
    },
    {
      "inputs": [],
      "name": "vrfSubscriptionId",
      "outputs": [
        {
          "internalType": "uint256",
          "name": "",
          "type": "uint256"
        }
      ],
      "stateMutability": "view",
      "type": "function"
    },
    {
      "inputs": [
        {
          "internalType": "uint256",
          "name": "",
          "type": "uint256"
        }
      ],
      "name": "vrfSubscriptionIds",
      "outputs": [
        {
          "internalType": "uint256",
          "name": "",
          "type": "uint256"
        }
      ],
      "stateMutability": "view",
      "type": "function"
    }
  ],
  "bytecode": "0x60808060405234620001d75760a081620041978038038091620000238285620001dc565b833981010312620001d757620000398162000216565b60209081830151926200004f6040820162000216565b60608201519163ffffffff8316809303620001d757608001519261ffff84168403620001d757600485926000809881549460018060a01b03199733898816178455604051988997889660018060a01b0391823391167f8be0079c531659141344cd1fd0a4f28419497f9722a3daafe3b4186f6b6457e08980a38189549560646015556064601655612710601755610e1060185562278d006019556509184e72a000601a556064601c551695868460015416176001556003551690600c541617600c5565ffff0000000060ff199a8b60275416602755891b169165ffffffffffff19161717845563288688f960e21b83525af1928315620001cc57849362000192575b505081600255601454166014557f6a2b70dde6ae0193f84b6a9eeb3b0ebdc3a35e99d9167b88c570158dd09cb0f76040519280a2613f6b90816200022c8239f35b9080929350813d8311620001c4575b620001ad8183620001dc565b81010312620001c0575190388062000151565b8280fd5b503d620001a1565b6040513d86823e3d90fd5b600080fd5b601f909101601f19168101906001600160401b038211908210176200020057604052565b634e487b7160e01b600052604160045260246000fd5b51906001600160a01b0382168203620001d75756fe6040608081526004908136101561001557600080fd5b600091823560e01c908163026cf601146138205781630402a28a1461380157816304199eeb146137a5578163065426c2146135d85781630c272871146135b95781630cfd049e146134cb5781630dd87a50146134a35781630e3f753a146133b85781630f6e86731461337f5781630fc1bb8d14611d575781630fee72c1146131f957816313e7c9d81461214757816316accbeb146131bb5781631a74b3f31461317d5781631aa3e95d146130f15781631ca3e58314611cec5781631f7dde6e146130cd5781632128b92814610dca57816324f74697146130a957816325bc4294146130005781632a3eea3814610e025781632ba207fe14612f1a5781632e4a33cb14612eab5781633119049a14612e825781633329b33114612d3957816334314da314612cc6578163346f2d8d14612c15578163359123f914612b8d5781633aaa81471461287b578382633dc7aad4146127d157508163414e56ca146117b357816341d1de9714612776578163472c175b14612730578163483a5f14146127035781634a2e22d3146126455781634c0e35b1146126265781634ef7d225146125f3578163524d530b146125ca5781635557005d14612340578163558a729714612544578163565e3eff1461252557816356eb00a11461240757816357970e93146123de57816359c810c1146123bf5781635e7b8eea1461239a57816361728f391461237b57816363e3625814612340578163685f9b3f1461229957816369298b6c146121ae5781636b90bda9146121855781636d70f7ae146121475781636f10934e146120b95781636f116a6a1461208c5781636f6f8c5d14611aaa578163715018a61461203257816372c76f9714611f9457816374b4040314611f33578163773b8e9014611ee5578163785a782714611e72578163787dce3d14611e165781637bf046a914611df2578163802bb2f014611d9557816381b6ab8214611d5757816383eb35c714611d0b57816388c2d32014611cec578382638d0cbf6a14611c79575081638da5cb5b14611c515781638e50e50914611c325781639c24ea4014611bc35781639c2dcafb14611ba45781639d0f5ef114611b7f5781639df9897714611b335781639e55378e14611ac9578163a2b3273214611aaa578163a3e56fa814611a81578163a563738214611a54578163aafc51c314611a1b578163abd90846146118ea578163ada5c132146118cc578163b0d9658014611899578163b0fb162f14611875578163b16abdd414611856578163b546ba4a1461181d578163b5e1a3c014610e21578163bacb927e146117f9578163bbbfd288146117d7578163bd12dd64146117b3578163be831919146116d5578163c1fa933814611666578163c84728ef146115ed578163c91f0cfc146115b0578163c94e9d6614611546578163cb2d93ce146114bc578163cb8288e31461148f578163cc039dd11461143d578163cfb9e28e14611419578163d1a92288146113f4578163d333aed3146111f9578163d5a6d60c1461112c578163d63843cd14611103578163d7c7752414610ed1578163d88ff1f414610e40578163d91043f214610e21578163dc52834e14610e02578163dd6eba7e14610dca578163de3d9fb714610ac2578163de529d8414610d69578163dedf14b014610b86578163e48f37da14610be3578163e720c00514610bc4578163ec07fb7414610b86578163ec644ddd14610b19578163ec66705f14610ae1578163ed647d2114610ac2578163f112bd9914610a61578163f25949f914610913578163f2fde38b1461084b578163f45d809a1461074657838263f726272c1461067b57508163f9819d8e1461061f578163fd62120e14610592575063ff3cd61e1461056757600080fd5b3461058e578160031936011261058e57601b5490516001600160a01b039091168152602090f35b5080fd5b83903461058e57606036600319011261058e576105ad613886565b6044359063ffffffff821680920361061b576105c76139f8565b60018060a01b03166001600160601b0360a01b600154161760015560243560035563ffffffff198254161790557f4c6a50dab5e2b4bdf345de73b06a62ca5c45dde34eecef3c38eb568564f6547c8180a180f35b8380fd5b50503461058e578060031936011261058e57610639613886565b6001600160a01b039081168352600960205281832080546024359490851015610678575060209361066991613968565b92905490519260031b1c168152f35b80fd5b809184346107425782600319360112610742576106966139f8565b60015460025484549093916001600160a01b039182169116803b1561073e578351622b825560e61b81529283019485526001600160a01b03909116602085015290928491849182908490829060400103925af19081156107355750610721575b506002557fad9127d67531701fd4222369e46413ad989a276f8ae432b7a2bb01a147a1be9e8180a180f35b61072a90613a8e565b6106785780826106f6565b513d84823e3d90fd5b8580fd5b5050fd5b905034610847578160031936011261084757610760613886565b906024359261076d6139f8565b6001600160a01b038316156108045783156107af57505060298054610100600160a81b03191660089290921b610100600160a81b0316919091179055602a5580f35b906020608492519162461bcd60e51b8352820152602960248201527f4d696e696d756d2062616c616e6365206d7573742062652067726561746572206044820152687468616e207a65726f60b81b6064820152fd5b906020606492519162461bcd60e51b8352820152601c60248201527f546f6b656e20616464726573732063616e6e6f74206265207a65726f000000006044820152fd5b8280fd5b90503461084757602036600319011261084757610866613886565b9061086f6139f8565b6001600160a01b039182169283156108c1575050600054826001600160601b0360a01b821617600055167f8be0079c531659141344cd1fd0a4f28419497f9722a3daafe3b4186f6b6457e0600080a380f35b906020608492519162461bcd60e51b8352820152602660248201527f4f776e61626c653a206e6577206f776e657220697320746865207a65726f206160448201526564647265737360d01b6064820152fd5b9190503461084757806003193601126108475781359167ffffffffffffffff831161061b576109686060917f1592f515c298c578903964a58733180fe97bdf05860fc70a7e21b61e8cc2d1b1943691016138ed565b8093918161097461389c565b9161097d6139f8565b7f4b35529e56b244d05ef40bce36fd9c95cd911003461d7436e70939aa537dd07d6109a9368484613be7565b6020815191012014600014610a0957602180546001600160a01b0319166001600160a01b0385161790555b84519685889687528601528585013782820184018790526001600160a01b03166020830152601f01601f19168101030190a180f35b7fd826c10e37a7770f02c01ddf03373f8c12e6ec73eac52b5d0ff825017dc682ef610a35368484613be7565b60208151910120036109d457602280546001600160a01b0319166001600160a01b0385161790556109d4565b50503461058e57602036600319011261058e5760207f3387d2b55c2294aa390fd99c3e1429775aa0e41d3da9f40db18bb3668d2e7c3391610aa06138b2565b610aa86139f8565b15159060ff19601d541660ff831617601d5551908152a180f35b50503461058e578160031936011261058e576020906002549051908152f35b50503461058e57602036600319011261058e5760209181906001600160a01b03610b09613886565b168152600a845220549051908152f35b9050346108475782600319360112610847573383526012602052918190205460a09261ffff918015610b7c57905b600180861b0360015416936003549154928151958652602086015284015263ffffffff8116606084015260201c166080820152f35b5060025490610b47565b50503461058e57602036600319011261058e5760209160ff9082906001600160a01b03610bb1613886565b1681526007855220541690519015158152f35b50503461058e578160031936011261058e576020906018549051908152f35b90506020928360031936011261067857610bfb6138d7565b92610c046139f8565b6001600160601b03841691600e54808402908482041484151715610d56573403610d1357805b600d54811015610d0f57610c3d8161391b565b90549060031b1c8083526010885260ff8484205416610c66575b50610c6190613c7a565b610c2a565b6001546001600160a01b0316803b1561061b578451634cf94d8760e01b81528088018381526001600160601b038a1660208201529091859183919082908a90829060400103925af18015610d0557908491610cf1575b505090610c61917f24761a552e7853f2c57abfbcc0b0e9698da9811db99b96034c7b7fefb067860a898651888152a290610c57565b610cfa90613a8e565b610847578238610cbc565b85513d86823e3d90fd5b5080f35b815162461bcd60e51b8152808501879052601a60248201527f496e636f727265637420746f74616c2045544820616d6f756e740000000000006044820152606490fd5b634e487b7160e01b825260118552602482fd5b50503461058e57602036600319011261058e5760207fc1b0062e5904bb8dbc6e93e0ebc6731f91951eee1f6c06f5622015082430796f91610da86138b2565b610db06139f8565b15159060ff196014541660ff83161760145551908152a180f35b50503461058e57602036600319011261058e5760209181906001600160a01b03610df2613886565b1681526012845220549051908152f35b50503461058e578160031936011261058e57602090601c549051908152f35b50503461058e578160031936011261058e57602090601f549051908152f35b8284346106785780600319360112610678578151918291601354808552602080950194601383527f66de8ffda797e3de9c05e8fc57b3bf0ec28a930d40b0d285d93c06501cf6a09092905b828210610eb157610ead8686610ea3828b0383613ad4565b51918291826139b4565b0390f35b83546001600160a01b031687529586019560019384019390910190610e8b565b8391503461058e576020908160031936011261084757610eef6138d7565b90610ef86139f8565b600c5485516323b872dd60e01b8152338382019081523060208201526001600160601b03851660408201526001600160a01b03928691839185169082908a90829060600103925af19081156110f95786916110dc575b5015611073578381610f9892600c54169060015416908588600254938b519486860152858552610f7d85613ab8565b8b51630200057560e51b8152968795869485938b8501613d07565b03925af190811561106957859161103c575b5015610fe557506001600160601b037f0148caca16863fb5a77543489023e89a5d3360fe9229a1e6f9d553b800aa916993945191168152a180f35b845162461bcd60e51b8152908101839052602b60248201527f4c494e4b207472616e73666572416e6443616c6c20746f20636f6f7264696e6160448201526a3a37b9103330b4b632b21760a91b6064820152608490fd5b61105c9150843d8611611062575b6110548183613ad4565b810190613cef565b86610faa565b503d61104a565b86513d87823e3d90fd5b855162461bcd60e51b8152808301859052603e60248201527f4c494e4b207472616e7366657246726f6d206661696c65642e2044696420796f60448201527f7520617070726f7665207468652050726f746f636f6c4d616e616765723f00006064820152608490fd5b6110f39150853d8711611062576110548183613ad4565b87610f4e565b87513d88823e3d90fd5b50503461058e578160031936011261058e5760225490516001600160a01b039091168152602090f35b919050346108475760208060031936011261061b5782359261114c6139f8565b8385526010825261116260ff8487205416613c2e565b83855260118252828520546111b8575060109083855252822060ff19815416905561118e600e54613c9f565b600e557fc0d777cb9485c91def1a14a6e7787be4cc14b102d3475a0435ef9639c9c560998280a280f35b915162461bcd60e51b815291820181905260248201527f537562736372697074696f6e207374696c6c2068617320636f6e73756d6572736044820152606490fd5b9050346108475781600319360112610847578035916112166138c1565b9061121f6139f8565b8385526020926010845261123860ff8388205416613c2e565b600c5482516323b872dd60e01b8152338382019081523060208201526001600160601b03861660408201526001600160a01b03928791839185169082908c90829060600103925af19081156113ea5788916113cd575b501561138b5784816112d592600c5416906001541690868a8751938b868601528585526112ba85613ab8565b8851630200057560e51b8152968795869485938b8501613d07565b03925af1908115611381578791611364575b50156113235750906001600160601b037f24761a552e7853f2c57abfbcc0b0e9698da9811db99b96034c7b7fefb067860a93925191168152a280f35b83606492519162461bcd60e51b8352820152601b60248201527f4c494e4b207472616e73666572416e6443616c6c206661696c656400000000006044820152fd5b61137b9150853d8711611062576110548183613ad4565b386112e7565b83513d89823e3d90fd5b5083606492519162461bcd60e51b8352820152601860248201527f4c494e4b207472616e7366657246726f6d206661696c656400000000000000006044820152fd5b6113e49150863d8811611062576110548183613ad4565b3861128e565b84513d8a823e3d90fd5b82843461067857806003193601126106785750601e54601f5482519182526020820152f35b50503461058e578160031936011261058e5760209060ff6014541690519015158152f35b90503461084757602036600319011261084757803567ffffffffffffffff811161061b5760209361147d61147760ff9486943691016138ed565b90613af6565b81526024855220541690519015158152f35b905034610847576020366003190112610847578160209360ff923581526024855220541690519015158152f35b50503461058e57602036600319011261058e5760807f1592f515c298c578903964a58733180fe97bdf05860fc70a7e21b61e8cc2d1b1916114fb613886565b6115036139f8565b60018060a01b0316806001600160601b0360a01b6022541617602255600a825192808452830152694e4654466163746f727960b01b60608301526020820152a180f35b50503461058e57602036600319011261058e577f8e05385e03cf3487b0262a001148028e2b715d493381299784826bc072d3f1876020611584613886565b61158c6139f8565b6001600160a01b031680855260288252838520805460ff191690559251848152a280f35b50503461058e57602036600319011261058e576020916001600160a01b03908290826115da613886565b1681526008855220541615159051908152f35b50503461058e5760209081600319360112610847576001600160a01b039283611614613886565b16815260098352818120938251908194808754938481520196845280842093915b83831061164d57610ead8787610ea3828c0383613ad4565b8454811688529681019660019485019490920191611635565b905034610847576020366003190112610847578035916116846139f8565b821561169257505060025580f35b906020606492519162461bcd60e51b8352820152601e60248201527f537562736372697074696f6e2049442063616e6e6f74206265207a65726f00006044820152fd5b919050602036600319011261084757826116ed6138d7565b6116f56139f8565b6001600160601b0381169361170b853414613cac565b60015460025492906001600160a01b0316803b156117af578551634cf94d8760e01b81529283019384526001600160601b03909116602084015290918391839182908890829060400103925af180156117a557611791575b507f0148caca16863fb5a77543489023e89a5d3360fe9229a1e6f9d553b800aa91696020848451908152a180f35b61179a90613a8e565b610847578238611763565b83513d84823e3d90fd5b8480fd5b50503461058e578160031936011261058e5760209060ff601d541690519015158152f35b83903461058e57602036600319011261058e576117f26139f8565b3560205580f35b50503461058e578160031936011261058e5760209060ff602b541690519015158152f35b50503461058e57602036600319011261058e5760209161183b6138b2565b15905061184d57601554905b51908152f35b60165490611847565b50503461058e578160031936011261058e57602090600e549051908152f35b8284346106785780600319360112610678575061ffff60209254915191831c168152f35b82843461067857806003193601126106785750601554601754601c54925191825260208201526040810191909152606090f35b50503461058e578160031936011261058e5760209081549051908152f35b9190503461084757602036600319011261084757611906613886565b60215490926001600160a01b03929091831633036119cc575060135490600160401b8210156119b75760018201806013558210156119a2575060136000527f66de8ffda797e3de9c05e8fc57b3bf0ec28a930d40b0d285d93c06501cf6a09001911690816001600160601b0360a01b8254161790557f9cc152f4650ca2829a210a21551537f4cc4d48c2611ec06974f835e911921b908280a280f35b603290634e487b7160e01b6000525260246000fd5b604190634e487b7160e01b6000525260246000fd5b906020608492519162461bcd60e51b83528201526024808201527f4f6e6c7920506f6f6c4465706c6f7965722063616e20726567697374657220706044820152636f6f6c7360e01b6064820152fd5b905034610847576020366003190112610847573591600d548310156106785750611a4660209261391b565b91905490519160031b1c8152f35b905034610847576020366003190112610847578160209360ff923581526025855220541690519015158152f35b50503461058e578160031936011261058e5760015490516001600160a01b039091168152602090f35b50503461058e578160031936011261058e57602090601a549051908152f35b50503461058e57602036600319011261058e577f40808e0b8abe11003e2600976ec5b2ce8528b142740576d0a00d80c2d37df8f26020611b07613886565b611b0f6139f8565b6001600160a01b031680855260078252838520805460ff191690559251848152a280f35b833461067857602036600319011261067857611b4d613886565b611b556139f8565b6001600160a01b0316611b69811515613a50565b6001600160601b0360a01b602354161760235580f35b8284346106785780600319360112610678575060155460175482519182526020820152f35b50503461058e578160031936011261058e576020906019549051908152f35b50503461058e57602036600319011261058e5760207fe2d763f65bbed04f8954b0f0a3af42f687469bdd154132ba533accf0f0291a2b91611c02613886565b611c0a6139f8565b600c80546001600160a01b0319166001600160a01b039290921691821790559051908152a180f35b50503461058e578160031936011261058e57602090601e549051908152f35b50503461058e578160031936011261058e57905490516001600160a01b039091168152602090f35b8091843461074257602036600319011261074257611c956139f8565b6001546001600160a01b031691823b15611ce7578392602484928451958693849263b2a7cac560e01b84528035908401525af19081156107355750611cd75750f35b611ce090613a8e565b6106785780f35b505050fd5b50503461058e578160031936011261058e57602090600b549051908152f35b90503461084757602036600319011261084757803567ffffffffffffffff811161061b57602093611d4561147760ff9486943691016138ed565b81526025855220541690519015158152f35b50503461058e57602036600319011261058e5760209160ff9082906001600160a01b03611d82613886565b1681526028855220541690519015158152f35b50503461058e578060031936011261058e57611daf613886565b60215460243592916001600160a01b0391611dcd9083163314613b21565b8385526010602052611de460ff8487205416613c2e565b168352601260205282205580f35b50503461058e578160031936011261058e5760209060ff6027541690519015158152f35b905034610847576020366003190112610847577fd10d75876659a287a59a6ccfa2e3fff42f84d94b542837acd30bc184d562de40916020913590611e586139f8565b611e66612710831115613ba6565b81601e5551908152a180f35b9050346108475760203660031901126108475780359067ffffffffffffffff821161061b57611ea3913691016138ed565b611eb860018060a01b03602154163314613b21565b80611ec1578380f35b611eca91613af6565b825260256020528120805460ff191660011790553880808380f35b905034610847576020366003190112610847577f81b14762c94592dd09a55cccc0bd4ee552bbc23f54115e475f4af6ad92ec6b1b916020913590611f276139f8565b81601a5551908152a180f35b50503461058e57602036600319011261058e5760207f264b7be983e0a8040850b7692062142e84c1d518c32ed584b0c7c55a5c4906d591611f726138b2565b611f7a6139f8565b15159060ff196027541660ff83161760275551908152a180f35b91905034610847578060031936011261084757611faf613886565b91611fb861389c565b9160018060a01b038094611fd182602154163314613b21565b1692838652600860205284828720911690816001600160601b0360a01b825416179055855260096020528420805491600160401b8310156119b757509061201d91600182018155613968565b909283549160031b92831b921b191617905580f35b833461067857806003193601126106785761204b6139f8565b600080546001600160a01b0319811682556001600160a01b03167f8be0079c531659141344cd1fd0a4f28419497f9722a3daafe3b4186f6b6457e08280a380f35b905034610847576020366003190112610847578160209360ff923581526010855220541690519015158152f35b91905034610847576020366003190112610847578135916120d86139f8565b82156121105750816020917f9c84a9f70e768195c39390d1116ced0dc727c5e18b8d1d35def06c413d69153c93601c5551908152a180f35b6020606492519162461bcd60e51b835282015260126024820152714d757374206265206174206c65617374203160701b6044820152fd5b50503461058e57602036600319011261058e5760209160ff9082906001600160a01b03612172613886565b1681526026855220541690519015158152f35b50503461058e578160031936011261058e5760235490516001600160a01b039091168152602090f35b905034610847576020366003190112610847576121c96138b2565b90816121d36139f8565b612218575b507fd51f4da6908aaf82430091852ae91fca16288cc00688962b02a4c925e7e5e5e29160209115159060ff196029541660ff83161760295551908152a180f35b60ff602b5416156121d85760a490602084519162461bcd60e51b8352820152604460248201527f43616e6e6f7420656e61626c652063726561746f7220746f6b656e206761746960448201527f6e67207768696c652063726561746f7220746f6b656e206665652069732061636064820152637469766560e01b6084820152fd5b91905034610847576020366003190112610847578135916122b86139f8565b6122c3831515613b61565b60175483116122fe5750816020917f291daec6a47f71c520266280decf6541de28bfc533f4fcb9008ef998e80d6b439360165551908152a180f35b6020606492519162461bcd60e51b8352820152601760248201527f43616e6e6f7420657863656564206d6178206c696d69740000000000000000006044820152fd5b50503461058e57602036600319011261058e576020916001600160a01b039082908261236a613886565b168152600885522054169051908152f35b50503461058e578160031936011261058e576020906003549051908152f35b8284346106785780600319360112610678575060185460195482519182526020820152f35b50503461058e578160031936011261058e576020906016549051908152f35b50503461058e578160031936011261058e57600c5490516001600160a01b039091168152602090f35b50503461058e578160031936011261058e57600d5461242581613eef565b9161242f82613ed7565b9361243c82519586613ad4565b82855261244883613ed7565b60208087019691601f190136883761245f85613eef565b94835b8181106124c157505080612480855197606089526060890190613980565b928784038289015251928381520196925b8281106124ab57868803858801528680610ead8a89613980565b8351151588529681019692810192600101612491565b806124d261251c929694959661391b565b90549060031b1c806124e4838c613f21565b528085526010865260ff88862054166124fd8389613f21565b901515905284526011855286842054612516828a613f21565b52613c7a565b93929193612462565b50503461058e578160031936011261058e576020906015549051908152f35b50503461058e578060031936011261058e5761255e613886565b906024358015158091036125c5577f966c160e1c4dbc7df8d69af4ace01e9297c3cf016397b7914971f2fbfa32672d926125966139f8565b60018060a01b031690818552602660205282852060ff1981541660ff831617905582519182526020820152a180f35b600080fd5b50503461058e578160031936011261058e57601b5490516001600160a01b039091168152602090f35b82843461067857806003193601126106785750601554601654601754925191825260208201526040810191909152606090f35b50503461058e578160031936011261058e57602090602a549051908152f35b90503461084757602036600319011261084757612660613886565b6022546001600160a01b039290831633036126cd57507f40808e0b8abe11003e2600976ec5b2ce8528b142740576d0a00d80c2d37df8f29160209116928385526007825280852060ff1990600182825416179055600683526001828720918254161790555160018152a280f35b606490602085519162461bcd60e51b8352820152601060248201526f4f6e6c79204e465420666163746f727960801b6044820152fd5b50503461058e578160031936011261058e57602954905160089190911c6001600160a01b03168152602090f35b50503461058e578060031936011261058e5761274a613886565b6021546001600160a01b0391906127649083163314613b21565b168252600a6020526024359082205580f35b90503461084757602036600319011261084757356013548110156108475760136000527f66de8ffda797e3de9c05e8fc57b3bf0ec28a930d40b0d285d93c06501cf6a090015490516001600160a01b03909116815260209150f35b91503461058e578160031936011261058e576020906127ee6139f8565b600154845163288688f960e21b8152938492918391906001600160a01b03165af19182156107355750829161284a575b50806002557f6a2b70dde6ae0193f84b6a9eeb3b0ebdc3a35e99d9167b88c570158dd09cb0f78280a280f35b90506020813d8211612873575b8161286460209383613ad4565b8101031261058e57513861281e565b3d9150612857565b91905034610847576020908160031936011261061b57612899613886565b6001600160a01b0381811680875260058552838720549192909160ff1615612b59578187526012855283872054928315612b1657845163c19d93fb60e01b815286818981875afa899181612ada575b5061292857855162461bcd60e51b81528089018890526015602482015274125b9d985b1a59081c1bdbdb0818dbdb9d1c9858dd605a1b6044820152606490fd5b6009819893949796959810159081612aa857838114918215612acc575b8215612abb575b8215612a97575b8215612a73575b505015612a3057908792916001541691823b1561061b57845163cb63179760e01b81529182018881526001600160a01b0390911660208201529091839183919082908490829060400103925af180156117a557612a1c575b5060009284601292526005815282872060ff198154169055858752601181528287206129de8154613c9f565b9055848752528420556129f2600b54613c9f565b600b557f46d7f264cf963b550773f629b4cd2668e69e465b630a862303300db477104e9e8380a380f35b612a2590613a8e565b6117af5784386129b2565b835162461bcd60e51b8152808301869052601e60248201527f506f6f6c206d75737420626520696e207465726d696e616c20737461746500006044820152606490fd5b909150612a8457600614388061295a565b634e487b7160e01b895260218352602489fd5b809250612aa8576007811491612953565b634e487b7160e01b8a526021845260248afd5b809250612aa857600581149161294c565b506008811491506000612945565b9091508781813d8311612b0f575b612af28183613ad4565b81010312612b0b57516009811015612b0b5790386128e8565b8980fd5b503d612ae8565b845162461bcd60e51b8152808801879052601860248201527f4e6f20737562736372697074696f6e2061737369676e656400000000000000006044820152606490fd5b835162461bcd60e51b8152808701869052600e60248201526d2737ba10309031b7b739bab6b2b960911b6044820152606490fd5b50503461058e57602036600319011261058e577f40808e0b8abe11003e2600976ec5b2ce8528b142740576d0a00d80c2d37df8f26020612bcb613886565b612bd36139f8565b6001600160a01b031692612be8841515613a50565b8385526007825280852060ff1990600182825416179055600683528186209081541690555160018152a280f35b9190503461084757602036600319011261084757612c31613886565b612c396139f8565b6001600160a01b0316918215612c8c575060207f8e05385e03cf3487b0262a001148028e2b715d493381299784826bc072d3f1879183855260288252808520600160ff198254161790555160018152a280f35b6020606492519162461bcd60e51b83528201526015602482015274496e76616c696420746f6b656e206164647265737360581b6044820152fd5b9050346108475760203660031901126108475780359067ffffffffffffffff821161061b57612cf7913691016138ed565b612d0c60018060a01b03602154163314613b21565b80612d15578380f35b612d1e91613af6565b825260246020528120805460ff191660011790553880808380f35b91905034610847578060031936011261084757612d54613886565b91612d5d61389c565b91612d666139f8565b6001600160a01b03938416928315612e3f578416938415612dfc57908592916022541691823b1561061b5784604485928385519687948593630d76b84160e21b85528401528a60248401525af19081156107355750612de8575b50807f055d29287d43159ed5b46366888181c01552bd982dcbd9380ade3dc5a1069f4491a380f35b612df190613a8e565b610847578238612dc0565b815162461bcd60e51b8152602081850152601e60248201527f496e76616c6964204552433131353520696d706c656d656e746174696f6e00006044820152606490fd5b815162461bcd60e51b8152602081850152601d60248201527f496e76616c69642045524337323120696d706c656d656e746174696f6e0000006044820152606490fd5b50503461058e578160031936011261058e5760215490516001600160a01b039091168152602090f35b50503461058e57602036600319011261058e5760207ffd76f8ed4d910bcb9cc812e605a5c8b31f7b84ab658feb2d9bf60de6f7adf07291612eea613886565b612ef26139f8565b601b80546001600160a01b0319166001600160a01b039290921691821790559051908152a180f35b9050816003193601126108475780359183612f336138c1565b612f3b6139f8565b8482526010602052612f5260ff8484205416613c2e565b6001600160601b03811693612f68853414613cac565b6001546001600160a01b031691823b1561061b578451634cf94d8760e01b81529182018781526001600160601b0390911660208201529091839183919082908890829060400103925af180156117a557612fec575b50507f24761a552e7853f2c57abfbcc0b0e9698da9811db99b96034c7b7fefb067860a9160209151908152a280f35b612ff590613a8e565b61061b578338612fbd565b83833461058e5761301036613870565b936130196139f8565b613024821515613b61565b8185111561306657507faae06c8bb7d45661a4b277b7040cb05af4d0e488b1310072e5d30e9f9fcb8dfe9293816015558060175582519182526020820152a180f35b606490602084519162461bcd60e51b8352820152601c60248201527f4d6178206d7573742062652067726561746572207468616e206d696e000000006044820152fd5b8284346106785780600319360112610678575063ffffffff60209254169051908152f35b50503461058e578160031936011261058e5760209060ff6029541690519015158152f35b50503461058e57602036600319011261058e5760807f1592f515c298c578903964a58733180fe97bdf05860fc70a7e21b61e8cc2d1b191613130613886565b6131386139f8565b60018060a01b0316806001600160601b0360a01b6021541617602155600c8251928084528301526b2837b7b62232b83637bcb2b960a11b60608301526020820152a180f35b50503461058e57602036600319011261058e5760209160ff9082906001600160a01b036131a8613886565b1681526006855220541690519015158152f35b50503461058e57602036600319011261058e5760209160ff9082906001600160a01b036131e6613886565b1681526005855220541690519015158152f35b83833461058e57602080600319360112610847578335916132186139f8565b821561333c578284526010825260ff81852054166132f957600d54600160401b8110156132e65780600161324f9201600d5561391b565b919080549260031b600019938487831b921b191617905583855260108352808520600160ff19825416179055613286600e54613c7a565b600e55600d5491600183146132dd575b82019182116132ca57519081527fb2615094a1e63e6d2b94b964165480ab14d38fc7bb17dc29b281e00209d08d5c9190a280f35b634e487b7160e01b855260118652602485fd5b84600255613296565b634e487b7160e01b855260418652602485fd5b5162461bcd60e51b815280850191909152601a60248201527f537562736372697074696f6e20616c72656164792061646465640000000000006044820152606490fd5b5162461bcd60e51b815280850191909152601760248201527f496e76616c696420737562736372697074696f6e2049440000000000000000006044820152606490fd5b50503461058e578160031936011261058e576020906133a960018060a01b03602154163314613b21565b6133b1613d6e565b9051908152f35b905034610847576020366003190112610847576133d36138b2565b90816133dd6139f8565b613422575b507fbdf23e00552699ae5a512ee5aa85d84b038a9ed4d266ef34f1e887de46896d8d9160209115159060ff19602b541660ff831617602b5551908152a180f35b60ff60295416156133e25760a490602084519162461bcd60e51b8352820152604460248201527f43616e6e6f7420656e61626c652063726561746f7220746f6b656e206665652060448201527f7768696c652063726561746f7220746f6b656e20676174696e672069732061636064820152637469766560e01b6084820152fd5b9050346108475760203660031901126108475760209282913581526011845220549051908152f35b905034610847576020366003190112610847576134e6613886565b916134ef6139f8565b6001600160a01b0392831692831561357657908492916021541691823b1561061b578460248592838551968794859363065bc36f60e01b85528401525af19081156107355750613562575b50807f4b841241ca1157d14ee4f0de82ff8f53fe31591f97ca699ca65ffaf45ea07ab591a280f35b61356b90613a8e565b61058e57813861353a565b815162461bcd60e51b8152602081850152601b60248201527f496e76616c696420506f6f6c20696d706c656d656e746174696f6e00000000006044820152606490fd5b50503461058e578160031936011261058e57602090602c549051908152f35b919050346108475780600319360112610847576135f3613886565b906024359260018060a01b039061360f82602154163314613b21565b818416938487526020926005845260ff858920541661376d578688526010845261363e60ff868a205416613c2e565b86885260118452606485892054101561372a5790879160015416803b15610847578551632fb1302360e21b81529384018881526001600160a01b039092166020830152839182908490829060400103925af1801561372057613708575b50906012849284875260058152828720600160ff19825416179055838752601181528287206136ca8154613c7a565b9055848752528420556136de600b54613c7a565b600b557f8b4d66174491b3a6145331b676769c46f933c290811400f713f6dd7e0f7ada9f8380a380f35b84929195613717601292613a8e565b9591925061369b565b83513d88823e3d90fd5b845162461bcd60e51b8152808401859052601860248201527f537562736372697074696f6e20617420636170616369747900000000000000006044820152606490fd5b845162461bcd60e51b8152808401859052601260248201527120b63932b0b23c90309031b7b739bab6b2b960711b6044820152606490fd5b905034610847576020366003190112610847577facd3908fc55d712582462490cee05d9057e65c26303b042525311532c62d20df9160209135906137e76139f8565b6137f5612710831115613ba6565b81601f5551908152a180f35b50503461058e578160031936011261058e576020906017549051908152f35b50503461058e577f060e9bb7b24700e1f67f61d02209b1fb7e61dcb50699bd88a5004e8649f3e4ec9061385236613870565b61385a6139f8565b816018558060195582519182526020820152a180f35b60409060031901126125c5576004359060243590565b600435906001600160a01b03821682036125c557565b602435906001600160a01b03821682036125c557565b6004359081151582036125c557565b602435906001600160601b03821682036125c557565b600435906001600160601b03821682036125c557565b9181601f840112156125c55782359167ffffffffffffffff83116125c557602083818601950101116125c557565b600d5481101561395257600d6000527fd7b6990105719101dabeb77144f2a3385c8033acd3af97e9423a695e81ad1eb50190600090565b634e487b7160e01b600052603260045260246000fd5b80548210156139525760005260206000200190600090565b90815180825260208080930193019160005b8281106139a0575050505090565b835185529381019392810192600101613992565b6020908160408183019282815285518094520193019160005b8281106139db575050505090565b83516001600160a01b0316855293810193928101926001016139cd565b6000546001600160a01b03163303613a0c57565b606460405162461bcd60e51b815260206004820152602060248201527f4f776e61626c653a2063616c6c6572206973206e6f7420746865206f776e65726044820152fd5b15613a5757565b60405162461bcd60e51b815260206004820152600f60248201526e496e76616c6964206164647265737360881b6044820152606490fd5b67ffffffffffffffff8111613aa257604052565b634e487b7160e01b600052604160045260246000fd5b6040810190811067ffffffffffffffff821117613aa257604052565b90601f8019910116810190811067ffffffffffffffff821117613aa257604052565b90613b1b60206040518381948383019687378101600083820152038084520182613ad4565b51902090565b15613b2857565b60405162461bcd60e51b815260206004820152601160248201527027b7363c902837b7b62232b83637bcb2b960791b6044820152606490fd5b15613b6857565b60405162461bcd60e51b81526020600482015260166024820152754d696e206d757374206265206174206c65617374203160501b6044820152606490fd5b15613bad57565b60405162461bcd60e51b815260206004820152601260248201527143616e6e6f7420657863656564203130302560701b6044820152606490fd5b92919267ffffffffffffffff8211613aa25760405191613c11601f8201601f191660200184613ad4565b8294818452818301116125c5578281602093846000960137010152565b15613c3557565b60405162461bcd60e51b815260206004820152601760248201527f537562736372697074696f6e206e6f74206163746976650000000000000000006044820152606490fd5b6000198114613c895760010190565b634e487b7160e01b600052601160045260246000fd5b8015613c89576000190190565b15613cb357565b60405162461bcd60e51b8152602060048201526014602482015273125b98dbdc9c9958dd0811551208185b5bdd5b9d60621b6044820152606490fd5b908160209103126125c5575180151581036125c55790565b9193929060018060a01b031682526001600160601b0360209416848301526060604083015280519081606084015260005b828110613d5a57505060809293506000838284010152601f8019910116010190565b818101860151848201608001528501613d38565b600090600e5415613e9257600f9081549083905b600d5480831015613e87578454613d988161391b565b90549060031b1c808852602060108152604060ff818b2054169182613e74575b5050613e69575060018101809111613e55578115613e41578491613de0910693848755613c7a565b921480613e38575b15613d825750505050505b60405162461bcd60e51b815260206004820152601d60248201527f416c6c20737562736372697074696f6e732061742063617061636974790000006044820152606490fd5b50811515613de8565b634e487b7160e01b87526012600452602487fd5b634e487b7160e01b87526011600452602487fd5b955050509350505090565b6064925060119052892054103880613db8565b505050505050613df3565b60405162461bcd60e51b815260206004820152601760248201527f4e6f2061637469766520737562736372697074696f6e730000000000000000006044820152606490fd5b67ffffffffffffffff8111613aa25760051b60200190565b90613ef982613ed7565b613f066040519182613ad4565b8281528092613f17601f1991613ed7565b0190602036910137565b80518210156139525760209160051b01019056fea26469706673582212204adbb930aba998be07146e0acd45dadba0a54b7af88760e0038470c8b9fb799964736f6c63430008130033",
  "linkReferences": {},
  "deployedLinkReferences": {}
}