{
  "_format": "hh-sol-artifact-1",
  "contractName": "PoolDeployer",
  "sourceName": "contracts/PoolDeployer.sol",
  "abi": [
    {
      "inputs": [
        {
          "internalType": "address",
          "name": "_poolImplementation",
          "type": "address"
        },
        {
          "internalType": "address",
          "name": "_manager",
          "type": "address"
        }
      ],
      "stateMutability": "nonpayable",
      "type": "constructor"
    },
    {
      "inputs": [],
      "name": "ApprovedSlotFeeMismatch",
      "type": "error"
    },
    {
      "inputs": [],
      "name": "AvailableSupplyInsufficient",
      "type": "error"
    },
    {
      "inputs": [],
      "name": "CollectioNameTaken",
      "type": "error"
    },
    {
      "inputs": [],
      "name": "CollectionNameTaken",
      "type": "error"
    },
    {
      "inputs": [],
      "name": "ContractsNotAllowed",
      "type": "error"
    },
    {
      "inputs": [],
      "name": "DescriptionTooLong",
      "type": "error"
    },
    {
      "inputs": [],
      "name": "ExceedsApprovedWinnerLimit",
      "type": "error"
    },
    {
      "inputs": [],
      "name": "IncompatiblePrizeContract",
      "type": "error"
    },
    {
      "inputs": [],
      "name": "InsufficientGatingTokenBalance",
      "type": "error"
    },
    {
      "inputs": [],
      "name": "InsufficientNativeBalance",
      "type": "error"
    },
    {
      "inputs": [],
      "name": "InsufficientPrizeAmountForEscrow",
      "type": "error"
    },
    {
      "inputs": [],
      "name": "InvalidDiscordLink",
      "type": "error"
    },
    {
      "inputs": [],
      "name": "InvalidMaxSlotsPerAddress",
      "type": "error"
    },
    {
      "inputs": [],
      "name": "InvalidParameter",
      "type": "error"
    },
    {
      "inputs": [],
      "name": "InvalidPrizeAmount",
      "type": "error"
    },
    {
      "inputs": [],
      "name": "InvalidPrizeType",
      "type": "error"
    },
    {
      "inputs": [],
      "name": "InvalidSlotFee",
      "type": "error"
    },
    {
      "inputs": [],
      "name": "InvalidSlotLimitConfig",
      "type": "error"
    },
    {
      "inputs": [],
      "name": "InvalidStartTime",
      "type": "error"
    },
    {
      "inputs": [],
      "name": "InvalidTelegramLink",
      "type": "error"
    },
    {
      "inputs": [],
      "name": "InvalidTokenGatingContract",
      "type": "error"
    },
    {
      "inputs": [],
      "name": "InvalidTwitterLink",
      "type": "error"
    },
    {
      "inputs": [],
      "name": "InvalidWinnerConfig",
      "type": "error"
    },
    {
      "inputs": [],
      "name": "NotOwnerOfTokenID",
      "type": "error"
    },
    {
      "inputs": [],
      "name": "PoolCreationPaused",
      "type": "error"
    },
    {
      "inputs": [],
      "name": "PoolNameTaken",
      "type": "error"
    },
    {
      "inputs": [],
      "name": "RefundFailed",
      "type": "error"
    },
    {
      "inputs": [],
      "name": "SocialEngagementFeeTransferFailed",
      "type": "error"
    },
    {
      "inputs": [],
      "name": "SocialEngagementParametersNotConfigured",
      "type": "error"
    },
    {
      "inputs": [],
      "name": "Unauthorized",
      "type": "error"
    },
    {
      "anonymous": false,
      "inputs": [
        {
          "indexed": false,
          "internalType": "address",
          "name": "revenueManager",
          "type": "address"
        },
        {
          "indexed": false,
          "internalType": "address",
          "name": "socialEngagementManager",
          "type": "address"
        }
      ],
      "name": "ContractAddressesUpdated",
      "type": "event"
    },
    {
      "anonymous": false,
      "inputs": [
        {
          "indexed": false,
          "internalType": "bool",
          "name": "paused",
          "type": "bool"
        }
      ],
      "name": "CreationPausedUpdated",
      "type": "event"
    },
    {
      "anonymous": false,
      "inputs": [
        {
          "indexed": false,
          "internalType": "uint256",
          "name": "min",
          "type": "uint256"
        },
        {
          "indexed": false,
          "internalType": "uint256",
          "name": "max",
          "type": "uint256"
        }
      ],
      "name": "DurationLimitsUpdated",
      "type": "event"
    },
    {
      "anonymous": false,
      "inputs": [
        {
          "indexed": false,
          "internalType": "uint256",
          "name": "slotFee",
          "type": "uint256"
        },
        {
          "indexed": false,
          "internalType": "uint256",
          "name": "protocolFee",
          "type": "uint256"
        },
        {
          "indexed": false,
          "internalType": "uint256",
          "name": "creationFee",
          "type": "uint256"
        },
        {
          "indexed": false,
          "internalType": "uint256",
          "name": "socialFee",
          "type": "uint256"
        }
      ],
      "name": "FeeConfigUpdated",
      "type": "event"
    },
    {
      "anonymous": false,
      "inputs": [
        {
          "indexed": false,
          "internalType": "bool",
          "name": "enabled",
          "type": "bool"
        },
        {
          "indexed": false,
          "internalType": "address",
          "name": "token",
          "type": "address"
        },
        {
          "indexed": false,
          "internalType": "uint256",
          "name": "minBalance",
          "type": "uint256"
        }
      ],
      "name": "GatingTokenConfigUpdated",
      "type": "event"
    },
    {
      "anonymous": false,
      "inputs": [
        {
          "indexed": true,
          "internalType": "address",
          "name": "previousOwner",
          "type": "address"
        },
        {
          "indexed": true,
          "internalType": "address",
          "name": "newOwner",
          "type": "address"
        }
      ],
      "name": "OwnershipTransferred",
      "type": "event"
    },
    {
      "anonymous": false,
      "inputs": [
        {
          "indexed": true,
          "internalType": "address",
          "name": "pool",
          "type": "address"
        },
        {
          "indexed": true,
          "internalType": "address",
          "name": "creator",
          "type": "address"
        }
      ],
      "name": "PoolCreated",
      "type": "event"
    },
    {
      "anonymous": false,
      "inputs": [
        {
          "indexed": true,
          "internalType": "address",
          "name": "poolImplementation",
          "type": "address"
        }
      ],
      "name": "PoolImplementationUpdated",
      "type": "event"
    },
    {
      "anonymous": false,
      "inputs": [
        {
          "indexed": true,
          "internalType": "address",
          "name": "pool",
          "type": "address"
        },
        {
          "indexed": false,
          "internalType": "string",
          "name": "description",
          "type": "string"
        },
        {
          "indexed": false,
          "internalType": "string",
          "name": "twitterLink",
          "type": "string"
        },
        {
          "indexed": false,
          "internalType": "string",
          "name": "discordLink",
          "type": "string"
        },
        {
          "indexed": false,
          "internalType": "string",
          "name": "telegramLink",
          "type": "string"
        }
      ],
      "name": "PoolMetadataSet",
      "type": "event"
    },
    {
      "anonymous": false,
      "inputs": [
        {
          "indexed": false,
          "internalType": "uint256",
          "name": "minPrized",
          "type": "uint256"
        },
        {
          "indexed": false,
          "internalType": "uint256",
          "name": "minNonPrized",
          "type": "uint256"
        },
        {
          "indexed": false,
          "internalType": "uint256",
          "name": "max",
          "type": "uint256"
        }
      ],
      "name": "SlotLimitsUpdated",
      "type": "event"
    },
    {
      "inputs": [
        {
          "components": [
            {
              "internalType": "string",
              "name": "name",
              "type": "string"
            },
            {
              "internalType": "uint256",
              "name": "startTime",
              "type": "uint256"
            },
            {
              "internalType": "uint256",
              "name": "duration",
              "type": "uint256"
            },
            {
              "internalType": "uint256",
              "name": "slotLimit",
              "type": "uint256"
            },
            {
              "internalType": "uint256",
              "name": "winnersCount",
              "type": "uint256"
            },
            {
              "internalType": "uint256",
              "name": "maxSlotsPerAddress",
              "type": "uint256"
            },
            {
              "internalType": "bool",
              "name": "isPrized",
              "type": "bool"
            },
            {
              "internalType": "uint256",
              "name": "customSlotFee",
              "type": "uint256"
            },
            {
              "internalType": "bool",
              "name": "erc721Drop",
              "type": "bool"
            },
            {
              "internalType": "bool",
              "name": "erc1155Drop",
              "type": "bool"
            },
            {
              "internalType": "address",
              "name": "prizeCollection",
              "type": "address"
            },
            {
              "internalType": "enum PrizeTypes.Standard",
              "name": "standard",
              "type": "uint8"
            },
            {
              "internalType": "uint256",
              "name": "prizeTokenId",
              "type": "uint256"
            },
            {
              "internalType": "uint256",
              "name": "amountPerWinner",
              "type": "uint256"
            },
            {
              "internalType": "address",
              "name": "creator",
              "type": "address"
            },
            {
              "internalType": "address",
              "name": "erc20PrizeToken",
              "type": "address"
            },
            {
              "internalType": "uint256",
              "name": "erc20PrizeAmount",
              "type": "uint256"
            },
            {
              "internalType": "uint256",
              "name": "nativePrizeAmount",
              "type": "uint256"
            },
            {
              "internalType": "address",
              "name": "holderTokenAddress",
              "type": "address"
            },
            {
              "internalType": "enum PrizeTypes.Standard",
              "name": "holderTokenStandard",
              "type": "uint8"
            },
            {
              "internalType": "uint256",
              "name": "minHolderTokenBalance",
              "type": "uint256"
            },
            {
              "internalType": "uint256",
              "name": "holderTokenBalance",
              "type": "uint256"
            },
            {
              "internalType": "uint256",
              "name": "holderTokenId",
              "type": "uint256"
            },
            {
              "internalType": "bool",
              "name": "socialEngagementRequired",
              "type": "bool"
            },
            {
              "internalType": "string",
              "name": "socialTaskDescription",
              "type": "string"
            },
            {
              "internalType": "string",
              "name": "description",
              "type": "string"
            },
            {
              "internalType": "string",
              "name": "twitterLink",
              "type": "string"
            },
            {
              "internalType": "string",
              "name": "discordLink",
              "type": "string"
            },
            {
              "internalType": "string",
              "name": "telegramLink",
              "type": "string"
            }
          ],
          "internalType": "struct PoolDeployer.PoolParams",
          "name": "p",
          "type": "tuple"
        }
      ],
      "name": "createPool",
      "outputs": [
        {
          "internalType": "address",
          "name": "",
          "type": "address"
        }
      ],
      "stateMutability": "payable",
      "type": "function"
    },
    {
      "inputs": [],
      "name": "creationFeePercentage",
      "outputs": [
        {
          "internalType": "uint256",
          "name": "",
          "type": "uint256"
        }
      ],
      "stateMutability": "view",
      "type": "function"
    },
    {
      "inputs": [],
      "name": "creationPaused",
      "outputs": [
        {
          "internalType": "bool",
          "name": "",
          "type": "bool"
        }
      ],
      "stateMutability": "view",
      "type": "function"
    },
    {
      "inputs": [],
      "name": "gatingToken",
      "outputs": [
        {
          "internalType": "address",
          "name": "",
          "type": "address"
        }
      ],
      "stateMutability": "view",
      "type": "function"
    },
    {
      "inputs": [
        {
          "internalType": "bool",
          "name": "isPrized",
          "type": "bool"
        }
      ],
      "name": "getMinSlotLimit",
      "outputs": [
        {
          "internalType": "uint256",
          "name": "",
          "type": "uint256"
        }
      ],
      "stateMutability": "view",
      "type": "function"
    },
    {
      "inputs": [
        {
          "internalType": "address",
          "name": "pool",
          "type": "address"
        }
      ],
      "name": "getPoolCreationTimestamp",
      "outputs": [
        {
          "internalType": "uint256",
          "name": "",
          "type": "uint256"
        }
      ],
      "stateMutability": "view",
      "type": "function"
    },
    {
      "inputs": [],
      "name": "globalSlotFee",
      "outputs": [
        {
          "internalType": "uint256",
          "name": "",
          "type": "uint256"
        }
      ],
      "stateMutability": "view",
      "type": "function"
    },
    {
      "inputs": [],
      "name": "isGated",
      "outputs": [
        {
          "internalType": "bool",
          "name": "",
          "type": "bool"
        }
      ],
      "stateMutability": "view",
      "type": "function"
    },
    {
      "inputs": [],
      "name": "maxPoolDuration",
      "outputs": [
        {
          "internalType": "uint256",
          "name": "",
          "type": "uint256"
        }
      ],
      "stateMutability": "view",
      "type": "function"
    },
    {
      "inputs": [],
      "name": "maxSlotLimit",
      "outputs": [
        {
          "internalType": "uint256",
          "name": "",
          "type": "uint256"
        }
      ],
      "stateMutability": "view",
      "type": "function"
    },
    {
      "inputs": [],
      "name": "minGatingTokenBalance",
      "outputs": [
        {
          "internalType": "uint256",
          "name": "",
          "type": "uint256"
        }
      ],
      "stateMutability": "view",
      "type": "function"
    },
    {
      "inputs": [],
      "name": "minPoolDuration",
      "outputs": [
        {
          "internalType": "uint256",
          "name": "",
          "type": "uint256"
        }
      ],
      "stateMutability": "view",
      "type": "function"
    },
    {
      "inputs": [],
      "name": "minSlotLimit",
      "outputs": [
        {
          "internalType": "uint256",
          "name": "",
          "type": "uint256"
        }
      ],
      "stateMutability": "view",
      "type": "function"
    },
    {
      "inputs": [],
      "name": "minSlotLimitNonPrized",
      "outputs": [
        {
          "internalType": "uint256",
          "name": "",
          "type": "uint256"
        }
      ],
      "stateMutability": "view",
      "type": "function"
    },
    {
      "inputs": [
        {
          "internalType": "address",
          "name": "",
          "type": "address"
        },
        {
          "internalType": "address",
          "name": "",
          "type": "address"
        },
        {
          "internalType": "uint256[]",
          "name": "",
          "type": "uint256[]"
        },
        {
          "internalType": "uint256[]",
          "name": "",
          "type": "uint256[]"
        },
        {
          "internalType": "bytes",
          "name": "",
          "type": "bytes"
        }
      ],
      "name": "onERC1155BatchReceived",
      "outputs": [
        {
          "internalType": "bytes4",
          "name": "",
          "type": "bytes4"
        }
      ],
      "stateMutability": "pure",
      "type": "function"
    },
    {
      "inputs": [
        {
          "internalType": "address",
          "name": "",
          "type": "address"
        },
        {
          "internalType": "address",
          "name": "",
          "type": "address"
        },
        {
          "internalType": "uint256",
          "name": "",
          "type": "uint256"
        },
        {
          "internalType": "uint256",
          "name": "",
          "type": "uint256"
        },
        {
          "internalType": "bytes",
          "name": "",
          "type": "bytes"
        }
      ],
      "name": "onERC1155Received",
      "outputs": [
        {
          "internalType": "bytes4",
          "name": "",
          "type": "bytes4"
        }
      ],
      "stateMutability": "pure",
      "type": "function"
    },
    {
      "inputs": [
        {
          "internalType": "address",
          "name": "",
          "type": "address"
        },
        {
          "internalType": "address",
          "name": "",
          "type": "address"
        },
        {
          "internalType": "uint256",
          "name": "",
          "type": "uint256"
        },
        {
          "internalType": "bytes",
          "name": "",
          "type": "bytes"
        }
      ],
      "name": "onERC721Received",
      "outputs": [
        {
          "internalType": "bytes4",
          "name": "",
          "type": "bytes4"
        }
      ],
      "stateMutability": "pure",
      "type": "function"
    },
    {
      "inputs": [],
      "name": "owner",
      "outputs": [
        {
          "internalType": "address",
          "name": "",
          "type": "address"
        }
      ],
      "stateMutability": "view",
      "type": "function"
    },
    {
      "inputs": [
        {
          "internalType": "address",
          "name": "",
          "type": "address"
        }
      ],
      "name": "poolCreationTimestamps",
      "outputs": [
        {
          "internalType": "uint256",
          "name": "",
          "type": "uint256"
        }
      ],
      "stateMutability": "view",
      "type": "function"
    },
    {
      "inputs": [],
      "name": "poolImplementation",
      "outputs": [
        {
          "internalType": "address",
          "name": "",
          "type": "address"
        }
      ],
      "stateMutability": "view",
      "type": "function"
    },
    {
      "inputs": [],
      "name": "protocolFeePercentage",
      "outputs": [
        {
          "internalType": "uint256",
          "name": "",
          "type": "uint256"
        }
      ],
      "stateMutability": "view",
      "type": "function"
    },
    {
      "inputs": [],
      "name": "protocolManager",
      "outputs": [
        {
          "internalType": "address",
          "name": "",
          "type": "address"
        }
      ],
      "stateMutability": "view",
      "type": "function"
    },
    {
      "inputs": [],
      "name": "renounceOwnership",
      "outputs": [],
      "stateMutability": "nonpayable",
      "type": "function"
    },
    {
      "inputs": [],
      "name": "revenueManager",
      "outputs": [
        {
          "internalType": "address",
          "name": "",
          "type": "address"
        }
      ],
      "stateMutability": "view",
      "type": "function"
    },
    {
      "inputs": [
        {
          "internalType": "address",
          "name": "_revenueManager",
          "type": "address"
        },
        {
          "internalType": "address",
          "name": "_socialEngagementManager",
          "type": "address"
        }
      ],
      "name": "setContractAddresses",
      "outputs": [],
      "stateMutability": "nonpayable",
      "type": "function"
    },
    {
      "inputs": [
        {
          "internalType": "bool",
          "name": "_paused",
          "type": "bool"
        }
      ],
      "name": "setCreationPaused",
      "outputs": [],
      "stateMutability": "nonpayable",
      "type": "function"
    },
    {
      "inputs": [
        {
          "internalType": "uint256",
          "name": "_min",
          "type": "uint256"
        },
        {
          "internalType": "uint256",
          "name": "_max",
          "type": "uint256"
        }
      ],
      "name": "setDurationLimits",
      "outputs": [],
      "stateMutability": "nonpayable",
      "type": "function"
    },
    {
      "inputs": [
        {
          "internalType": "uint256",
          "name": "_slotFee",
          "type": "uint256"
        },
        {
          "internalType": "uint256",
          "name": "_protocolFee",
          "type": "uint256"
        },
        {
          "internalType": "uint256",
          "name": "_creationFee",
          "type": "uint256"
        },
        {
          "internalType": "uint256",
          "name": "_socialFee",
          "type": "uint256"
        }
      ],
      "name": "setFeeConfig",
      "outputs": [],
      "stateMutability": "nonpayable",
      "type": "function"
    },
    {
      "inputs": [
        {
          "internalType": "bool",
          "name": "_enabled",
          "type": "bool"
        }
      ],
      "name": "setGating",
      "outputs": [],
      "stateMutability": "nonpayable",
      "type": "function"
    },
    {
      "inputs": [
        {
          "internalType": "address",
          "name": "_token",
          "type": "address"
        },
        {
          "internalType": "uint256",
          "name": "_minBalance",
          "type": "uint256"
        }
      ],
      "name": "setGatingToken",
      "outputs": [],
      "stateMutability": "nonpayable",
      "type": "function"
    },
    {
      "inputs": [
        {
          "internalType": "uint256",
          "name": "_minPrized",
          "type": "uint256"
        },
        {
          "internalType": "uint256",
          "name": "_minNonPrized",
          "type": "uint256"
        },
        {
          "internalType": "uint256",
          "name": "_max",
          "type": "uint256"
        }
      ],
      "name": "setSlotLimits",
      "outputs": [],
      "stateMutability": "nonpayable",
      "type": "function"
    },
    {
      "inputs": [],
      "name": "socialEngagementFee",
      "outputs": [
        {
          "internalType": "uint256",
          "name": "",
          "type": "uint256"
        }
      ],
      "stateMutability": "view",
      "type": "function"
    },
    {
      "inputs": [],
      "name": "socialEngagementManager",
      "outputs": [
        {
          "internalType": "address",
          "name": "",
          "type": "address"
        }
      ],
      "stateMutability": "view",
      "type": "function"
    },
    {
      "inputs": [
        {
          "internalType": "bytes4",
          "name": "interfaceId",
          "type": "bytes4"
        }
      ],
      "name": "supportsInterface",
      "outputs": [
        {
          "internalType": "bool",
          "name": "",
          "type": "bool"
        }
      ],
      "stateMutability": "view",
      "type": "function"
    },
    {
      "inputs": [
        {
          "internalType": "address",
          "name": "newOwner",
          "type": "address"
        }
      ],
      "name": "transferOwnership",
      "outputs": [],
      "stateMutability": "nonpayable",
      "type": "function"
    },
    {
      "inputs": [],
      "name": "transferOwnershipToManager",
      "outputs": [],
      "stateMutability": "nonpayable",
      "type": "function"
    },
    {
      "inputs": [
        {
          "internalType": "address",
          "name": "_poolImplementation",
          "type": "address"
        }
      ],
      "name": "updatePoolImplementation",
      "outputs": [],
      "stateMutability": "nonpayable",
      "type": "function"
    }
  ],
  "bytecode": "0x608034620000d057601f6200360a38819003918201601f19168301916001600160401b03831184841017620000d5578084926040948552833981010312620000d0576200005a60206200005283620000eb565b9201620000eb565b60008054336001600160a01b0319808316821784556040519590946001600160a01b03949093859391908416907f8be0079c531659141344cd1fd0a4f28419497f9722a3daafe3b4186f6b6457e09080a36001805516836002541617600255169060035416176003556135099081620001018239f35b600080fd5b634e487b7160e01b600052604160045260246000fd5b51906001600160a01b0382168203620000d05756fe608080604052600436101561001357600080fd5b600090813560e01c90816301ffc9a714612e3957508063026cf60114612d9b5780630402a28a14612d7d578063065bc36f14612cce578063150b7a0214612c775780631e7278ad14612c4e578063431ba460146102ed578063565e3eff14612c3057806359c810c114612c125780636b90bda914612be9578063715018a614612b8f57806376dc3c3114612afa5780637b5b7878146109865780637c93fbf71461083c5780638da5cb5b146108155780638e50e509146107f75780639c2dcafb146107d9578063a21d131c14610775578063a2b3273214610757578063a9dd230514610715578063ab4b6692146106ec578063ada5c132146106ce578063b546ba4a1461069c578063bc197c811461060c578063bd12dd64146105e9578063bd1bd38714610555578063cd931e40146104bf578063cefa779914610496578063d91043f214610478578063dbd5ef6d1461036a578063e4741da414610344578063e720c00514610326578063ec66705f146102ed578063f23a6e6114610292578063f2fde38b14610201578063f9d90986146101e35763ff3cd61e146101b857600080fd5b346101e057806003193601126101e057600d546040516001600160a01b039091168152602090f35b80fd5b50346101e057806003193601126101e0576020601054604051908152f35b50346101e05760203660031901126101e05761021b612e8e565b610223612f17565b6001600160a01b0381161561023e5761023b90612f6f565b80f35b60405162461bcd60e51b815260206004820152602660248201527f4f776e61626c653a206e6577206f776e657220697320746865207a65726f206160448201526564647265737360d01b6064820152608490fd5b50346101e05760a03660031901126101e0576102ac612e8e565b506102b5612ea4565b506084356001600160401b0381116102e9576102d5903690600401612eba565b505060405163f23a6e6160e01b8152602090f35b5080fd5b50346101e05760203660031901126101e0576020906040906001600160a01b03610315612e8e565b168152601283522054604051908152f35b50346101e057806003193601126101e0576020600754604051908152f35b50346101e057806003193601126101e057602060ff600e5460a01c166040519015158152f35b50346101e05760803660031901126101e057604435602435600435606435610390612f17565b6127108084116104335784116103ee577f58ee77c9f5b50426dc036dff11919df1099b3ca39cf4823cecb182e34465a2f7936080938360095580600a5581600b5582600c55604051938452602084015260408301526060820152a180f35b60405162461bcd60e51b815260206004820152601f60248201527f4372656174696f6e206665652063616e6e6f74206578636565642031303025006044820152606490fd5b60405162461bcd60e51b815260206004820152601f60248201527f50726f746f636f6c206665652063616e6e6f74206578636565642031303025006044820152606490fd5b50346101e057806003193601126101e0576020600b54604051908152f35b50346101e057806003193601126101e0576002546040516001600160a01b039091168152602090f35b50346101e05760403660031901126101e0577fb74ce24e1b912d339e2e92f0ab4cc7567a0b11bb3874d76b9d6e675ffbd6e3ec6104fa612e8e565b610502612ea4565b9061050b612f17565b600d80546001600160a01b039283166001600160a01b03199182168117909255600e8054949093169316831790915560408051918252602082019290925290819081015b0390a180f35b50346101e05760403660031901126101e0577f237fbe5cd573051d8d3fae25c11141b3cfe5ac4498a663e8046b11a9679c3df2610590612e8e565b60243561059b612f17565b600f80546001600160a01b0319166001600160a01b039390931692831790556010819055600e546040805160a09290921c60ff1615158252602082019390935291820152806060810161054f565b50346101e057806003193601126101e057602060ff601154166040519015158152f35b50346101e05760a03660031901126101e057610626612e8e565b5061062f612ea4565b506001600160401b0360443581811161069857610650903690600401612ee7565b50506064358181116106985761066a903690600401612ee7565b50506084359081116102e957610684903690600401612eba565b505060405163bc197c8160e01b8152602090f35b8280fd5b50346101e05760203660031901126101e0576004359081151582036101e05760206106c683612fb6565b604051908152f35b50346101e057806003193601126101e0576020600c54604051908152f35b50346101e057806003193601126101e0576003546040516001600160a01b039091168152602090f35b50346101e057806003193601126101e05780546001600160a01b0390811633036107465761023b9060035416612f6f565b6040516282b42960e81b8152600490fd5b50346101e057806003193601126101e0576020600954604051908152f35b50346101e05760203660031901126101e0576004358015158091036102e95760207f6f8f11770f6ccb42a077311d0f112148142e18b97a88d8f993d66dd4e0ec9521916107c0612f17565b60ff196011541660ff821617601155604051908152a180f35b50346101e057806003193601126101e0576020600854604051908152f35b50346101e057806003193601126101e0576020600a54604051908152f35b50346101e057806003193601126101e057546040516001600160a01b039091168152602090f35b50346101e05760603660031901126101e05760443560243560043561085f612f17565b801561094857811561090357808311806108fa575b156108be577feb78458964f69dce3bc3e472dc9c3abca68f6735dae4c8dc5d5742c92e59d1fc9260609282600455806005558160065560405192835260208301526040820152a180f35b60405162461bcd60e51b81526020600482015260146024820152734d6178206d75737420657863656564206d696e7360601b6044820152606490fd5b50818311610874565b60405162461bcd60e51b815260206004820152601a60248201527f4d696e206e6f6e2d7072697a6564206d757374206265203e20300000000000006044820152606490fd5b60405162461bcd60e51b815260206004820152601660248201527504d696e207072697a6564206d757374206265203e20360541b6044820152606490fd5b506003196020368201126102e9576001600160401b03600435116102e9576103a090600435360301126101e057600260015414612ab5576002600155333203612aa45760ff600e5460a01c166129dc575b806109e76102e460043501612ffb565b612926575b60095481928015158061291d575b610a0860c460043501612ffb565b806128ff575b6128e7575b8434106128d557612803575b5060ff601154166127f1574260246004350135106127df57610a4d610a4860c460043501612ffb565b612fb6565b60646004350135106127cd5760065460646004350135116127cd576084600435013515611f1a57606460043501356084600435013511611f1a5760043560840135606481810291820490036127b957601e60646004350135818102929181840414901517156127a55711611f1a5760075460446004350135101580612793575b1561275b576001600160a01b03610ae960043561024401613053565b16612726575b610afd60c460043501612ffb565b6126d3575b60e460043501351515928383610b1c60c460043501612ffb565b1561266157851561265b5760e460043501355b915b821561185e57610b466101c460043501613053565b60a8610bac610b59600480350180613067565b92908360405194859260208401976bffffffffffffffffffffffff199060601b1688524260348501524360548501523260601b607485015260888401378101346088820152036088810184520182612fda565b519020600254608881901c62ffffff16763d602d80600a3d3981f3363d3d373d3d3d363d7300000017885260781b6effffffffffffffffffffffffffffff19166e5af43d82803e903d91602b57fd5bf3176020526037600988f56001600160a01b03811695861561261657610c2661014460043501613053565b9888928991610c3a6102e460043501612ffb565b61256a575b610c4d60c460043501612ffb565b61160d575b50888a52601260205260408a204290556003546001600160a01b0316610c7d6004356101c401613053565b91813b15611609576040516335b380b960e21b81526001600160a01b039182166004820152921660248301528a908290604490829084905af1801561148d57908a916115f5575b5050610cd56101c460043501613053565b90610ce561010460043501612ffb565b80156115e0575b806115c0575b6114cd575b508894610d0961010460043501612ffb565b80156114b8575b80611498575b6113f6575b60046101648135013510156113cd5760043561016401356003036113ef576102246004350135955b6003546001600160a01b031695610d5e600480350180613067565b9390600a5494600b54966040519a8b6001600160401b036101808281810110920111176113d1576101808c016040528b526001600160a01b031660208b0152610da681613008565b91610db46040519384612fda565b81835236828201116113eb578f91806020928386013783010152604089015260646004350135606089015260a4600435013560808901526084600435013560a0890152151560c0880152151560e08701521515610100860152610120850152610140840152610160830152610e2e6101e460043501613053565b60405198896101008101106001600160401b036101008c0111176113d1576101008a01604052610e6561016460043501358b6131a6565b6001600160a01b0390811660208b015260043561018481013560408c01526101a481013560608c0152911660808a015261020481013560a08a015261022481013560c08a015290151560e0890152610ec09061024401613053565b9260046102648135013510156113e757604051938460808101106001600160401b036080870111176113d157608085016040526001600160a01b03168452610f126004356102640135602086016131a6565b60043561028481013560408601526102c48101356060860152610f38906102e401612ffb565b90610f486101c460043501613053565b610f5660c460043501612ffb565b92883b156113cd5760408051634428de7b60e11b8152610260600482015286516001600160a01b03908116610264830152602088015116610284820152908601516101806102a483015280516103e48301819052909c919890969091908c5b8881106113b6575095899895899795610404958f9d9c9788968f9c9660e0906101608f946060958d8c8e010152858101516102c48d015260808101516102e48d015260a08101516103048d015260c081015115156103248d01528381015115156103448d015261010081015115156103648d01526101208101516103848d01526101408101516103a48d015201516103c48b015261105760248b0182516131c8565b6020818101516001600160a01b0390811660448d0152604083015160648d01528583015160848d01526080830151811660a48d015260a083015160c48d015260c083015160e48d0152929091015115156101048b015282519091166101248a01528101516110ca906101448a01906131c8565b6040810151610164890152015161018487015215156101a48601526001600160a01b03166101c485015260043560248101356101e4860152604401356102048501526102248401521515610244830152601f01601f19168101030191885af19081156113ab578391611397575b5050803403611359575b506001600160a01b03905061115b6004356101c401613053565b16817f4f2ce4e40f623ca765fc0167a25cb7842ceaafb8d82d3dec26ca0d0e0d2d48966040519480a36103246004350161119a81600435600401613067565b939050610344600435016111b381600435600401613067565b95905061036460043501956111cd87600435600401613067565b91905061038460043501946111e786600435600401613067565b9480915015801590611350575b8015611347575b801561133e575b611216575b60208960018055604051908152f35b6103e81061132f575060c81061131d5760c81061130b5760c8106112f9576112896112e96112976020976112db7f4e2fb815c48f38871c1a97680d69ecfc7db86ce1f02e00f1f438d6bdbb92b3a0966112a56112cd61127b8c9b600435600401613067565b989099600435600401613067565b969095600435600401613067565b929093600435600401613067565b9590966112bf6040519b8c9b60808d5260808d0191613099565b918a830360208c0152613099565b918783036040890152613099565b918483036060860152613099565b0390a28280808080808080611207565b60405163621c786f60e01b8152600490fd5b60405163f94023a960e01b8152600490fd5b604051637a59f6af60e11b8152600490fd5b630d7cfc5960e41b8152600490fd5b50841515611202565b508315156111fb565b508215156111f4565b81808092340361136e6101c460043501613053565b5af1611378613023565b5015611385578183611141565b604051633c31275160e21b8152600490fd5b6113a090612fc7565b6102e9578185611137565b6040513d85823e3d90fd5b8e81016020908101518c8301610404015201610fb5565b8980fd5b634e487b7160e01b600052604160045260246000fd5b8680fd5b8f80fd5b8995610d43565b6003549095506001600160a01b0316602061141660043561014401613053565b604051631a74b3f360e01b81526001600160a01b03909116600482015291829060249082905afa90811561148d578a91611453575b501594610d1b565b90506020813d602011611485575b8161146e60209383612fda565b810103126113cd5761147f906130d9565b3861144b565b3d9150611461565b6040513d8c823e3d90fd5b506001600160a01b036114b060043561014401613053565b161515610d16565b506114c861012460043501612ffb565b610d10565b6001600160a01b03811615611515575b6114ec6101c460043501613053565b6001600160a01b03828116911614158061150e575b15610cf757905038610cf7565b5084611501565b5060046101648135013510156115bc5760043561016401356115a257600460206001600160a01b0361154b833561014401613053565b1660405192838092638da5cb5b60e01b82525afa90811561148d578a91611573575b506114dd565b611595915060203d60201161159b575b61158d8183612fda565b8101906130ba565b3861156d565b503d611583565b600460206001600160a01b0361154b833561014401613053565b8880fd5b506001600160a01b036115d860043561014401613053565b161515610cf2565b506115f061012460043501612ffb565b610cec565b6115fe90612fc7565b6115bc578838610cc4565b8b80fd5b909360046101648135013510156117ac57600435610164013560020361188257506001600160a01b0361164560043561014401613053565b166117fc5761020460043501351561187057611677611671608460043501356102046004350135613128565b15613148565b61185e5760a460043501351561180e5761022460043501356117fc576001928960206117046001600160a01b036116b36004356101e401613053565b166116c36101c460043501613053565b6040516323b872dd60e01b81526001600160a01b03909116600480830191909152306024830152356102040135604482015293849283919082906064820190565b03925af180156117b8576117c3575b506001600160a01b0361172b6004356101e401613053565b60405163a9059cbb60e01b81526001600160a01b038416600480830191909152356102040135602482015291602091839116818e816044810103925af180156117b85761177b575b505b38610c52565b6020813d6020116117b0575b8161179460209383612fda565b810103126117ac576117a5906130d9565b5038611773565b8a80fd5b3d9150611787565b6040513d8d823e3d90fd5b6020813d6020116117f4575b816117dc60209383612fda565b810103126117ac576117ed906130d9565b5038611713565b3d91506117cf565b604051631558dc5f60e31b8152600490fd5b60405162461bcd60e51b815260206004820152602260248201527f4d617820736c6f747320706572207061727469636970616e7420726571756972604482015261195960f21b6064820152608490fd5b604051633c8e6e6960e11b8152600490fd5b604051630193f71f60e51b8152600490fd5b600435610164013560030361190e57506001600160a01b036118a96004356101e401613053565b166117fc576001600160a01b036118c560043561014401613053565b166117fc576118e4611671608460043501356102246004350135613128565b61185e5760a46004350135156118fc57600192611775565b6040516313b558f960e01b8152600490fd5b9060043561016401356120265760016101a4600435013511611870576001600160a01b0361194160043561014401613053565b16151580612010575b15611b225750506001608460043501351161187057602460206001600160a01b0361197a60043561014401613053565b16604051928380926331a9108f60e11b8252610184600435013560048301525afa90811561148d578a91611b03575b506001600160a01b036119c16004356101c401613053565b166001600160a01b0390911603611af1576001926001600160a01b036119ec60043561014401613053565b166119fc6101c460043501613053565b813b1561160957604051632142170760e11b81526001600160a01b039091166004808301919091523060248301523561018401356044820152908b9082908183816064810103925af180156117b857908b91611add575b506001600160a01b039050611a6d60043561014401613053565b16803b156117ac57604051632142170760e11b8152306004808301919091526001600160a01b03841660248301523561018401356044820152908b908290606490829084905af180156117b857908b91611ac9575b5050611775565b611ad290612fc7565b6113cd578938611ac2565b611ae690612fc7565b6113cd578938611a53565b604051632d346a9760e01b8152600490fd5b611b1c915060203d60201161159b5761158d8183612fda565b386119a9565b9093906001600160a01b03611b3c60043561014401613053565b16151580611ffb575b611b50575b50611775565b965093506001600160a01b039050611b6d60043561014401613053565b6040516301ffc9a760e01b81526380ac58cd60e01b6004820152911690602081602481855afa90811561148d578a91611fc1575b5015611f75576040516301ffc9a760e01b8152637c97ded960e11b600482015290602090829060249082905afa908115611f0f578991611f87575b5015611f7557600460206001600160a01b03611bfc833561014401613053565b1660405192838092633f6615ab60e11b82525afa908115611f0f578991611f3e575b506084600435013511611f2c5760016084600435013514611f1a5761016460043501356117fc57600460206001600160a01b03611c5f833561014401613053565b1660405192838092638da5cb5b60e01b82525afa908115611f0f578991611ef0575b5080611c926101c460043501613053565b6001600160a01b03908116911603611d39578515611d335760e460043501355b95935b6001600160a01b03611ccc60043561014401613053565b16803b156117ac576040516227675f60e01b81526001600160a01b03831660048083019190915235608401356024820152908b908290604490829084905af180156117b857908b91611d1f575b50611b4a565b611d2890612fc7565b6113cd578938611d19565b81611cb2565b9294926001600160a01b03611d5360043561014401613053565b1660c0611d656101c460043501613053565b6040516317f6397960e01b81526001600160a01b03909116600482015291829060249082905afa90811561148d578a918b928c928d92611eb7575b501561074657611daf9161311b565b6084600435013511611ea557611dca61010460043501612ffb565b611e9c575b80611e82575081958994611e70575b6001600160a01b03611df560043561014401613053565b16611e056101c460043501613053565b813b15611609576040516334ea162f60e11b81526001600160a01b0390911660048083019190915235608401356024820152908b9082908183816044810103925af180156117b857908b91611e5c575b5050611cb5565b611e6590612fc7565b6113cd578938611e55565b60405163805596b160e01b8152600490fd5b809196945060e4600435013503611e705794600193611dde565b60019550611dcf565b604051630161dc7d60e21b8152600490fd5b92505050611edc915060c03d8111611ee9575b611ed48183612fda565b8101906130e6565b9294919350389050611da0565b503d611eca565b611f09915060203d60201161159b5761158d8183612fda565b38611c81565b6040513d8b823e3d90fd5b60405163c827d5c360e01b8152600490fd5b604051632fb7debb60e11b8152600490fd5b90506020813d602011611f6d575b81611f5960209383612fda565b81010312611f68575138611c1e565b600080fd5b3d9150611f4c565b6040516359071b0760e11b8152600490fd5b90506020813d602011611fb9575b81611fa260209383612fda565b810103126115bc57611fb3906130d9565b38611bdc565b3d9150611f95565b90506020813d602011611ff3575b81611fdc60209383612fda565b810103126113cd57611fed906130d9565b38611ba1565b3d9150611fcf565b5061200b61010460043501612ffb565b611b45565b5061202061010460043501612ffb565b1561194a565b909390600435610164013560010361252c576101a46004350135156124e7576001600160a01b0361205c60043561014401613053565b161515806124d2575b61206f5750611775565b965093506001600160a01b03905061208c60043561014401613053565b6040516301ffc9a760e01b8152636cdb3d1360e11b6004820152911690602081602481855afa90811561148d578a91612498575b5015611f75576040516301ffc9a760e01b81526315ba79c360e11b600482015290602090829060249082905afa908115611f0f57899161245e575b5015611f755760016084600435013514611f1a5760043560848101356101a49091013580820291909104900361244857602460206001600160a01b0361214660043561014401613053565b1660405192838092633570cb2960e21b8252610184600435013560048301525afa908115611f0f578991612416575b506101a46004350135608460043501350211611f2c57600460206001600160a01b036121a5833561014401613053565b1660405192838092638da5cb5b60e01b82525afa908115611f0f5789916123f7575b50806121d86101c460043501613053565b6001600160a01b0390811691160361227457851561226e5760e460043501355b95935b6001600160a01b0361221260043561014401613053565b16803b156117ac578a809160648c60405194859384926309de21c160e41b84526004840152610184600435013560248401526101a46004350135608460043501350260448401525af180156117b857908b91611d1f5750611b4a565b816121f8565b9294926001600160a01b0361228e60043561014401613053565b1660c06122a06101c460043501613053565b6040516317f6397960e01b81526001600160a01b03909116600482015291829060249082905afa90811561148d578a918b928c928d926123ce575b5015610746576122ea9161311b565b6084600435013511611ea55761230561012460043501612ffb565b6123c5575b806123ab575081958994611e70575b6001600160a01b0361233060043561014401613053565b166123406101c460043501613053565b813b15611609576040516334ea162f60e11b81526001600160a01b0390911660048083019190915235608401356024820152908b9082908183816044810103925af180156117b857908b91612397575b50506121fb565b6123a090612fc7565b6113cd578938612390565b809196945060e4600435013503611e705794600193612319565b6001955061230a565b925050506123ea915060c03d8111611ee957611ed48183612fda565b92949193503890506122db565b612410915060203d60201161159b5761158d8183612fda565b386121c7565b90506020813d602011612440575b8161243160209383612fda565b81010312611f68575138612175565b3d9150612424565b634e487b7160e01b600052601160045260246000fd5b90506020813d602011612490575b8161247960209383612fda565b810103126115bc5761248a906130d9565b386120fb565b3d915061246c565b90506020813d6020116124ca575b816124b360209383612fda565b810103126113cd576124c4906130d9565b386120c0565b3d91506124a6565b506124e261012460043501612ffb565b612065565b60405162461bcd60e51b815260206004820152601d60248201527f416d6f756e74207065722077696e6e6572206d757374206265203e20300000006044820152606490fd5b60405162461bcd60e51b8152602060048201526016602482015275556e737570706f72746564207072697a65207479706560501b6044820152606490fd5b600e546001600160a01b031680156126045761259161030460043501600435600401613067565b8291923b1561260057918d916125cd93838f604051968795869485936386aec17960e01b85526004850152604060248501526044840191613099565b03925af180156125f5576125e2575b50610c3f565b6125ee909b919b612fc7565b99386125dc565b6040513d8e823e3d90fd5b8d80fd5b6040516369ecf6c760e11b8152600490fd5b60405162461bcd60e51b815260206004820152601760248201527f455243313136373a2063726561746532206661696c65640000000000000000006044820152606490fd5b83610b2f565b839150848661185e57600160a46004350135116126c1576001600160a01b0361268f60043561014401613053565b166126c1576126a361010460043501612ffb565b6126c15761018460043501356126c1576101a4600435013515610b31575b604051630309cb8760e51b8152600490fd5b6064600435013580800460011490151715612712576103e8606460043501350460a460043501351115610b02576040516313b558f960e01b8152600490fd5b634e487b7160e01b82526011600452602482fd5b61273561024460043501613053565b600461026481350135101561069857612756906102646004350135906131d5565b610aef565b60405162461bcd60e51b815260206004820152601060248201526f24b73b30b634b210323ab930ba34b7b760811b6044820152606490fd5b50600854604460043501351115610acd565b634e487b7160e01b84526011600452602484fd5b634e487b7160e01b83526011600452602483fd5b60405163ac255ca760e01b8152600490fd5b604051632ca4094f60e21b8152600490fd5b6040516316247b3f60e11b8152600490fd5b600d546001600160a01b031690811561289057604051906020820191635e5bc1c560e11b835281602482015260248152606081018181106001600160401b0382111761287c5760405251859384939192905af161285e613023565b501561286a5738610a1f565b604051635b5b44c760e01b8152600490fd5b634e487b7160e01b87526041600452602487fd5b60405162461bcd60e51b815260206004820152601760248201527f526576656e7565206d616e61676572206e6f74207365740000000000000000006044820152606490fd5b60405163dbc3a71f60e01b8152600490fd5b93610224600435013581018091116127a55793610a13565b506101646004350135600481101561291957600314610a0e565b8480fd5b935080936109fa565b600c54600f549092506001600160a01b031680612944575b506109ec565b6020602491604051928380926370a0823160e01b82523360048301525afa9081156129d157829161299f575b50601054908160021b91808304600414901517156127b9571015612995575b3861293e565b9060011c9061298f565b90506020813d6020116129c9575b816129ba60209383612fda565b810103126102e9575138612970565b3d91506129ad565b6040513d84823e3d90fd5b600f546001600160a01b03168015612a68576020602491604051928380926370a0823160e01b82523360048301525afa9081156129d1578291612a36575b5060105411156109d757604051633991498960e11b8152600490fd5b90506020813d602011612a60575b81612a5160209383612fda565b810103126102e9575138612a1a565b3d9150612a44565b60405162461bcd60e51b815260206004820152601460248201527311d85d1a5b99c81d1bdad95b881b9bdd081cd95d60621b6044820152606490fd5b604051628b531560e01b8152600490fd5b60405162461bcd60e51b815260206004820152601f60248201527f5265656e7472616e637947756172643a207265656e7472616e742063616c6c006044820152606490fd5b50346101e05760203660031901126101e05760043580151590818103610698577f237fbe5cd573051d8d3fae25c11141b3cfe5ac4498a663e8046b11a9679c3df291612b44612f17565b600e805460ff60a01b191660a09290921b60ff60a01b16919091179055600f546010546040805193151584526001600160a01b0392909216602084015290820152806060810161054f565b50346101e057806003193601126101e057612ba8612f17565b80546001600160a01b03198116825581906001600160a01b03167f8be0079c531659141344cd1fd0a4f28419497f9722a3daafe3b4186f6b6457e08280a380f35b50346101e057806003193601126101e057600e546040516001600160a01b039091168152602090f35b50346101e057806003193601126101e0576020600554604051908152f35b50346101e057806003193601126101e0576020600454604051908152f35b50346101e057806003193601126101e057600f546040516001600160a01b039091168152602090f35b50346101e05760803660031901126101e057612c91612e8e565b50612c9a612ea4565b506064356001600160401b0381116102e957612cba903690600401612eba565b5050604051630a85bd0160e11b8152602090f35b50346101e05760203660031901126101e057612ce8612e8e565b612cf0612f17565b6001600160a01b03168015612d3857600280546001600160a01b031916821790557f1eed81ce21a92b04ae795cb172e51fb0f8c7f90ec3cd2dc2b4c6395d8d39456f8280a280f35b60405162461bcd60e51b815260206004820152601b60248201527f496e76616c696420506f6f6c20696d706c656d656e746174696f6e00000000006044820152606490fd5b50346101e057806003193601126101e0576020600654604051908152f35b50346101e05760403660031901126101e057600435602435612dbb612f17565b81811115612dfe57816040917f060e9bb7b24700e1f67f61d02209b1fb7e61dcb50699bd88a5004e8649f3e4ec936007558060085582519182526020820152a180f35b60405162461bcd60e51b815260206004820152601360248201527226b0bc1036bab9ba1032bc31b2b2b21036b4b760691b6044820152606490fd5b9050346102e95760203660031901126102e95760043563ffffffff60e01b81168091036106985760209250630a85bd0160e11b8114908115612e7d575b5015158152f35b630271189760e51b14905038612e76565b600435906001600160a01b0382168203611f6857565b602435906001600160a01b0382168203611f6857565b9181601f84011215611f68578235916001600160401b038311611f685760208381860195010111611f6857565b9181601f84011215611f68578235916001600160401b038311611f68576020808501948460051b010111611f6857565b6000546001600160a01b03163303612f2b57565b606460405162461bcd60e51b815260206004820152602060248201527f4f776e61626c653a2063616c6c6572206973206e6f7420746865206f776e65726044820152fd5b600080546001600160a01b039283166001600160a01b03198216811783559216907f8be0079c531659141344cd1fd0a4f28419497f9722a3daafe3b4186f6b6457e09080a3565b15612fc15760045490565b60055490565b6001600160401b0381116113d157604052565b90601f801991011681019081106001600160401b038211176113d157604052565b358015158103611f685790565b6001600160401b0381116113d157601f01601f191660200190565b3d1561304e573d9061303482613008565b916130426040519384612fda565b82523d6000602084013e565b606090565b356001600160a01b0381168103611f685790565b903590601e1981360301821215611f6857018035906001600160401b038211611f6857602001918136038313611f6857565b908060209392818452848401376000828201840152601f01601f1916010190565b90816020910312611f6857516001600160a01b0381168103611f685790565b51908115158203611f6857565b91908260c0910312611f68576130fb826130d9565b9160208101519160408201519160608101519160a0608083015192015190565b9190820391821161244857565b8115613132570690565b634e487b7160e01b600052601260045260246000fd5b1561314f57565b60405162461bcd60e51b815260206004820152602960248201527f5072697a6520616d6f756e74206d75737420626520646976697369626c652062604482015268792077696e6e65727360b81b6064820152608490fd5b60048210156131b25752565b634e487b7160e01b600052602160045260246000fd5b9060048210156131b25752565b9091906001600160a01b0381169081156134c1573b156134c157600492838110156134ac57600281036132c857506040516318160ddd60e01b81526020908180828781875afa918261329f575b50506132395760405163137f48d760e31b81528490fd5b80602492604051938480926370a0823160e01b825230898301525afa9182613276575b5050613272575060405163137f48d760e31b8152fd5b9050565b813d8311613298575b6132898183612fda565b81010312611f6857388061325c565b503d61327f565b813d83116132c1575b6132b28183612fda565b81010312611f68578138613222565b503d6132a8565b919291806133e3575060409081516301ffc9a760e01b80825280858301526020918281602481875afa600091816133ac575b5061330f57845163137f48d760e31b81528690fd5b1561339c578190602485518095819382526380ac58cd60e01b898301525afa918291600093613363575b505061334d57505163137f48d760e31b8152fd5b15613356575050565b5163137f48d760e31b8152fd5b8181949293943d8311613395575b61337b8183612fda565b810103126101e0575061338d906130d9565b903880613339565b503d613371565b5050505163137f48d760e31b8152fd5b90918482813d83116133dc575b6133c38183612fda565b810103126101e057506133d5906130d9565b90386132fa565b503d6133b9565b60010361349c5760409081516301ffc9a760e01b80825280858301526020918281602481875afa60009181613465575b5061342857845163137f48d760e31b81528690fd5b1561339c57819060248551809581938252636cdb3d1360e11b898301525afa91829160009361336357505061334d57505163137f48d760e31b8152fd5b90918482813d8311613495575b61347c8183612fda565b810103126101e0575061348e906130d9565b9038613413565b503d613472565b5060405163137f48d760e31b8152fd5b602184634e487b7160e01b6000525260246000fd5b60405163137f48d760e31b8152600490fdfea26469706673582212207e91d636352f2426d94e05fb8cd47929754affd232fbecdac7184c9f65fa9d1264736f6c63430008130033",
  "linkReferences": {},
  "deployedLinkReferences": {}
}