{
  "_format": "hh-sol-artifact-1",
  "contractName": "PoolDeployer",
  "sourceName": "contracts/PoolDeployer.sol",
  "abi": [
    {
      "inputs": [
        {
          "internalType": "address",
          "name": "_poolImplementation",
          "type": "address"
        },
        {
          "internalType": "address",
          "name": "_manager",
          "type": "address"
        }
      ],
      "stateMutability": "nonpayable",
      "type": "constructor"
    },
    {
      "inputs": [],
      "name": "ApprovedSlotFeeMismatch",
      "type": "error"
    },
    {
      "inputs": [],
      "name": "AvailableSupplyInsufficient",
      "type": "error"
    },
    {
      "inputs": [],
      "name": "DescriptionTooLong",
      "type": "error"
    },
    {
      "inputs": [],
      "name": "ExceedsApprovedWinnerLimit",
      "type": "error"
    },
    {
      "inputs": [],
      "name": "IncompatiblePrizeContract",
      "type": "error"
    },
    {
      "inputs": [],
      "name": "InsufficientGatingTokenBalance",
      "type": "error"
    },
    {
      "inputs": [],
      "name": "InsufficientNativeBalance",
      "type": "error"
    },
    {
      "inputs": [],
      "name": "InsufficientPrizeAmountForEscrow",
      "type": "error"
    },
    {
      "inputs": [],
      "name": "InvalidDiscordLink",
      "type": "error"
    },
    {
      "inputs": [],
      "name": "InvalidMaxSlotsPerAddress",
      "type": "error"
    },
    {
      "inputs": [],
      "name": "InvalidParameter",
      "type": "error"
    },
    {
      "inputs": [],
      "name": "InvalidPrizeAmount",
      "type": "error"
    },
    {
      "inputs": [],
      "name": "InvalidPrizeType",
      "type": "error"
    },
    {
      "inputs": [],
      "name": "InvalidSlotFee",
      "type": "error"
    },
    {
      "inputs": [],
      "name": "InvalidSlotLimitConfig",
      "type": "error"
    },
    {
      "inputs": [],
      "name": "InvalidStartTime",
      "type": "error"
    },
    {
      "inputs": [],
      "name": "InvalidTelegramLink",
      "type": "error"
    },
    {
      "inputs": [],
      "name": "InvalidTokenGatingContract",
      "type": "error"
    },
    {
      "inputs": [],
      "name": "InvalidTwitterLink",
      "type": "error"
    },
    {
      "inputs": [],
      "name": "InvalidWinnerConfig",
      "type": "error"
    },
    {
      "inputs": [],
      "name": "NotOwnerOfTokenID",
      "type": "error"
    },
    {
      "inputs": [],
      "name": "PoolCreationPaused",
      "type": "error"
    },
    {
      "inputs": [],
      "name": "PoolNameTaken",
      "type": "error"
    },
    {
      "inputs": [],
      "name": "RefundFailed",
      "type": "error"
    },
    {
      "inputs": [],
      "name": "SocialEngagementFeeTransferFailed",
      "type": "error"
    },
    {
      "inputs": [],
      "name": "SocialEngagementParametersNotConfigured",
      "type": "error"
    },
    {
      "inputs": [],
      "name": "Unauthorized",
      "type": "error"
    },
    {
      "anonymous": false,
      "inputs": [
        {
          "indexed": false,
          "internalType": "address",
          "name": "revenueManager",
          "type": "address"
        },
        {
          "indexed": false,
          "internalType": "address",
          "name": "socialEngagementManager",
          "type": "address"
        }
      ],
      "name": "ContractAddressesUpdated",
      "type": "event"
    },
    {
      "anonymous": false,
      "inputs": [
        {
          "indexed": false,
          "internalType": "bool",
          "name": "paused",
          "type": "bool"
        }
      ],
      "name": "CreationPauseUpdated",
      "type": "event"
    },
    {
      "anonymous": false,
      "inputs": [
        {
          "indexed": false,
          "internalType": "uint256",
          "name": "min",
          "type": "uint256"
        },
        {
          "indexed": false,
          "internalType": "uint256",
          "name": "max",
          "type": "uint256"
        }
      ],
      "name": "DurationLimitsUpdated",
      "type": "event"
    },
    {
      "anonymous": false,
      "inputs": [
        {
          "indexed": false,
          "internalType": "uint256",
          "name": "slotFee",
          "type": "uint256"
        },
        {
          "indexed": false,
          "internalType": "uint256",
          "name": "protocolFee",
          "type": "uint256"
        },
        {
          "indexed": false,
          "internalType": "uint256",
          "name": "creationFee",
          "type": "uint256"
        },
        {
          "indexed": false,
          "internalType": "uint256",
          "name": "socialFee",
          "type": "uint256"
        }
      ],
      "name": "FeeConfigUpdated",
      "type": "event"
    },
    {
      "anonymous": false,
      "inputs": [
        {
          "indexed": false,
          "internalType": "bool",
          "name": "enabled",
          "type": "bool"
        },
        {
          "indexed": false,
          "internalType": "address",
          "name": "token",
          "type": "address"
        },
        {
          "indexed": false,
          "internalType": "uint256",
          "name": "minBalance",
          "type": "uint256"
        }
      ],
      "name": "GatingTokenConfigUpdated",
      "type": "event"
    },
    {
      "anonymous": false,
      "inputs": [
        {
          "indexed": true,
          "internalType": "address",
          "name": "previousOwner",
          "type": "address"
        },
        {
          "indexed": true,
          "internalType": "address",
          "name": "newOwner",
          "type": "address"
        }
      ],
      "name": "OwnershipTransferStarted",
      "type": "event"
    },
    {
      "anonymous": false,
      "inputs": [
        {
          "indexed": true,
          "internalType": "address",
          "name": "previousOwner",
          "type": "address"
        },
        {
          "indexed": true,
          "internalType": "address",
          "name": "newOwner",
          "type": "address"
        }
      ],
      "name": "OwnershipTransferred",
      "type": "event"
    },
    {
      "anonymous": false,
      "inputs": [
        {
          "indexed": true,
          "internalType": "address",
          "name": "pool",
          "type": "address"
        },
        {
          "indexed": true,
          "internalType": "address",
          "name": "creator",
          "type": "address"
        },
        {
          "indexed": false,
          "internalType": "uint256",
          "name": "timestamp",
          "type": "uint256"
        }
      ],
      "name": "PoolCreated",
      "type": "event"
    },
    {
      "anonymous": false,
      "inputs": [
        {
          "indexed": true,
          "internalType": "address",
          "name": "poolImplementation",
          "type": "address"
        }
      ],
      "name": "PoolImplementationUpdated",
      "type": "event"
    },
    {
      "anonymous": false,
      "inputs": [
        {
          "indexed": true,
          "internalType": "address",
          "name": "pool",
          "type": "address"
        },
        {
          "indexed": false,
          "internalType": "string",
          "name": "description",
          "type": "string"
        },
        {
          "indexed": false,
          "internalType": "string",
          "name": "twitterLink",
          "type": "string"
        },
        {
          "indexed": false,
          "internalType": "string",
          "name": "discordLink",
          "type": "string"
        },
        {
          "indexed": false,
          "internalType": "string",
          "name": "telegramLink",
          "type": "string"
        }
      ],
      "name": "PoolMetadataSet",
      "type": "event"
    },
    {
      "anonymous": false,
      "inputs": [
        {
          "indexed": false,
          "internalType": "uint256",
          "name": "minPrized",
          "type": "uint256"
        },
        {
          "indexed": false,
          "internalType": "uint256",
          "name": "minNonPrized",
          "type": "uint256"
        },
        {
          "indexed": false,
          "internalType": "uint256",
          "name": "max",
          "type": "uint256"
        }
      ],
      "name": "SlotLimitsUpdated",
      "type": "event"
    },
    {
      "anonymous": false,
      "inputs": [
        {
          "indexed": true,
          "internalType": "bool",
          "name": "isPaused",
          "type": "bool"
        }
      ],
      "name": "TaskAssignmentsToggled",
      "type": "event"
    },
    {
      "inputs": [],
      "name": "acceptOwnership",
      "outputs": [],
      "stateMutability": "nonpayable",
      "type": "function"
    },
    {
      "inputs": [
        {
          "components": [
            {
              "internalType": "string",
              "name": "name",
              "type": "string"
            },
            {
              "internalType": "uint256",
              "name": "startTime",
              "type": "uint256"
            },
            {
              "internalType": "uint256",
              "name": "duration",
              "type": "uint256"
            },
            {
              "internalType": "uint256",
              "name": "slotLimit",
              "type": "uint256"
            },
            {
              "internalType": "uint256",
              "name": "winnersCount",
              "type": "uint256"
            },
            {
              "internalType": "uint256",
              "name": "maxSlotsPerAddress",
              "type": "uint256"
            },
            {
              "internalType": "bool",
              "name": "isPrized",
              "type": "bool"
            },
            {
              "internalType": "uint256",
              "name": "customSlotFee",
              "type": "uint256"
            },
            {
              "internalType": "bool",
              "name": "erc721Drop",
              "type": "bool"
            },
            {
              "internalType": "bool",
              "name": "erc1155Drop",
              "type": "bool"
            },
            {
              "internalType": "address",
              "name": "prizeCollection",
              "type": "address"
            },
            {
              "internalType": "enum PrizeTypes.Standard",
              "name": "standard",
              "type": "uint8"
            },
            {
              "internalType": "uint256",
              "name": "prizeTokenId",
              "type": "uint256"
            },
            {
              "internalType": "uint256",
              "name": "amountPerWinner",
              "type": "uint256"
            },
            {
              "internalType": "address",
              "name": "creator",
              "type": "address"
            },
            {
              "internalType": "address",
              "name": "erc20PrizeToken",
              "type": "address"
            },
            {
              "internalType": "uint256",
              "name": "erc20PrizeAmount",
              "type": "uint256"
            },
            {
              "internalType": "uint256",
              "name": "nativePrizeAmount",
              "type": "uint256"
            },
            {
              "internalType": "address",
              "name": "holderTokenAddress",
              "type": "address"
            },
            {
              "internalType": "enum PrizeTypes.Standard",
              "name": "holderTokenStandard",
              "type": "uint8"
            },
            {
              "internalType": "uint256",
              "name": "minHolderTokenBalance",
              "type": "uint256"
            },
            {
              "internalType": "uint256",
              "name": "holderTokenBalance",
              "type": "uint256"
            },
            {
              "internalType": "uint256",
              "name": "holderTokenId",
              "type": "uint256"
            },
            {
              "internalType": "bool",
              "name": "socialEngagementRequired",
              "type": "bool"
            },
            {
              "internalType": "uint256",
              "name": "socialTaskCount",
              "type": "uint256"
            },
            {
              "internalType": "string",
              "name": "socialTaskDescription",
              "type": "string"
            },
            {
              "internalType": "string",
              "name": "description",
              "type": "string"
            },
            {
              "internalType": "string",
              "name": "twitterLink",
              "type": "string"
            },
            {
              "internalType": "string",
              "name": "discordLink",
              "type": "string"
            },
            {
              "internalType": "string",
              "name": "telegramLink",
              "type": "string"
            },
            {
              "internalType": "bool",
              "name": "isPotPrize",
              "type": "bool"
            }
          ],
          "internalType": "struct PoolDeployer.PoolParams",
          "name": "p",
          "type": "tuple"
        }
      ],
      "name": "createPool",
      "outputs": [
        {
          "internalType": "address",
          "name": "",
          "type": "address"
        }
      ],
      "stateMutability": "payable",
      "type": "function"
    },
    {
      "inputs": [],
      "name": "creationFeePercentage",
      "outputs": [
        {
          "internalType": "uint256",
          "name": "",
          "type": "uint256"
        }
      ],
      "stateMutability": "view",
      "type": "function"
    },
    {
      "inputs": [],
      "name": "creationPaused",
      "outputs": [
        {
          "internalType": "bool",
          "name": "",
          "type": "bool"
        }
      ],
      "stateMutability": "view",
      "type": "function"
    },
    {
      "inputs": [],
      "name": "gatingToken",
      "outputs": [
        {
          "internalType": "address",
          "name": "",
          "type": "address"
        }
      ],
      "stateMutability": "view",
      "type": "function"
    },
    {
      "inputs": [
        {
          "internalType": "bool",
          "name": "isPrized",
          "type": "bool"
        }
      ],
      "name": "getMinSlotLimit",
      "outputs": [
        {
          "internalType": "uint256",
          "name": "",
          "type": "uint256"
        }
      ],
      "stateMutability": "view",
      "type": "function"
    },
    {
      "inputs": [
        {
          "internalType": "address",
          "name": "pool",
          "type": "address"
        }
      ],
      "name": "getPoolCreationTimestamp",
      "outputs": [
        {
          "internalType": "uint256",
          "name": "",
          "type": "uint256"
        }
      ],
      "stateMutability": "view",
      "type": "function"
    },
    {
      "inputs": [],
      "name": "globalSlotFee",
      "outputs": [
        {
          "internalType": "uint256",
          "name": "",
          "type": "uint256"
        }
      ],
      "stateMutability": "view",
      "type": "function"
    },
    {
      "inputs": [],
      "name": "isGated",
      "outputs": [
        {
          "internalType": "bool",
          "name": "",
          "type": "bool"
        }
      ],
      "stateMutability": "view",
      "type": "function"
    },
    {
      "inputs": [],
      "name": "maxPoolDuration",
      "outputs": [
        {
          "internalType": "uint256",
          "name": "",
          "type": "uint256"
        }
      ],
      "stateMutability": "view",
      "type": "function"
    },
    {
      "inputs": [],
      "name": "maxSlotLimit",
      "outputs": [
        {
          "internalType": "uint256",
          "name": "",
          "type": "uint256"
        }
      ],
      "stateMutability": "view",
      "type": "function"
    },
    {
      "inputs": [],
      "name": "minGatingTokenBalance",
      "outputs": [
        {
          "internalType": "uint256",
          "name": "",
          "type": "uint256"
        }
      ],
      "stateMutability": "view",
      "type": "function"
    },
    {
      "inputs": [],
      "name": "minPoolDuration",
      "outputs": [
        {
          "internalType": "uint256",
          "name": "",
          "type": "uint256"
        }
      ],
      "stateMutability": "view",
      "type": "function"
    },
    {
      "inputs": [],
      "name": "minSlotLimit",
      "outputs": [
        {
          "internalType": "uint256",
          "name": "",
          "type": "uint256"
        }
      ],
      "stateMutability": "view",
      "type": "function"
    },
    {
      "inputs": [],
      "name": "minSlotLimitNonPrized",
      "outputs": [
        {
          "internalType": "uint256",
          "name": "",
          "type": "uint256"
        }
      ],
      "stateMutability": "view",
      "type": "function"
    },
    {
      "inputs": [
        {
          "internalType": "address",
          "name": "",
          "type": "address"
        },
        {
          "internalType": "address",
          "name": "",
          "type": "address"
        },
        {
          "internalType": "uint256[]",
          "name": "",
          "type": "uint256[]"
        },
        {
          "internalType": "uint256[]",
          "name": "",
          "type": "uint256[]"
        },
        {
          "internalType": "bytes",
          "name": "",
          "type": "bytes"
        }
      ],
      "name": "onERC1155BatchReceived",
      "outputs": [
        {
          "internalType": "bytes4",
          "name": "",
          "type": "bytes4"
        }
      ],
      "stateMutability": "pure",
      "type": "function"
    },
    {
      "inputs": [
        {
          "internalType": "address",
          "name": "",
          "type": "address"
        },
        {
          "internalType": "address",
          "name": "",
          "type": "address"
        },
        {
          "internalType": "uint256",
          "name": "",
          "type": "uint256"
        },
        {
          "internalType": "uint256",
          "name": "",
          "type": "uint256"
        },
        {
          "internalType": "bytes",
          "name": "",
          "type": "bytes"
        }
      ],
      "name": "onERC1155Received",
      "outputs": [
        {
          "internalType": "bytes4",
          "name": "",
          "type": "bytes4"
        }
      ],
      "stateMutability": "pure",
      "type": "function"
    },
    {
      "inputs": [
        {
          "internalType": "address",
          "name": "",
          "type": "address"
        },
        {
          "internalType": "address",
          "name": "",
          "type": "address"
        },
        {
          "internalType": "uint256",
          "name": "",
          "type": "uint256"
        },
        {
          "internalType": "bytes",
          "name": "",
          "type": "bytes"
        }
      ],
      "name": "onERC721Received",
      "outputs": [
        {
          "internalType": "bytes4",
          "name": "",
          "type": "bytes4"
        }
      ],
      "stateMutability": "pure",
      "type": "function"
    },
    {
      "inputs": [],
      "name": "owner",
      "outputs": [
        {
          "internalType": "address",
          "name": "",
          "type": "address"
        }
      ],
      "stateMutability": "view",
      "type": "function"
    },
    {
      "inputs": [],
      "name": "pendingOwner",
      "outputs": [
        {
          "internalType": "address",
          "name": "",
          "type": "address"
        }
      ],
      "stateMutability": "view",
      "type": "function"
    },
    {
      "inputs": [
        {
          "internalType": "address",
          "name": "",
          "type": "address"
        }
      ],
      "name": "poolCreationTimestamps",
      "outputs": [
        {
          "internalType": "uint256",
          "name": "",
          "type": "uint256"
        }
      ],
      "stateMutability": "view",
      "type": "function"
    },
    {
      "inputs": [],
      "name": "poolImplementation",
      "outputs": [
        {
          "internalType": "address",
          "name": "",
          "type": "address"
        }
      ],
      "stateMutability": "view",
      "type": "function"
    },
    {
      "inputs": [],
      "name": "protocolFeePercentage",
      "outputs": [
        {
          "internalType": "uint256",
          "name": "",
          "type": "uint256"
        }
      ],
      "stateMutability": "view",
      "type": "function"
    },
    {
      "inputs": [],
      "name": "protocolManager",
      "outputs": [
        {
          "internalType": "address",
          "name": "",
          "type": "address"
        }
      ],
      "stateMutability": "view",
      "type": "function"
    },
    {
      "inputs": [],
      "name": "renounceOwnership",
      "outputs": [],
      "stateMutability": "nonpayable",
      "type": "function"
    },
    {
      "inputs": [],
      "name": "revenueManager",
      "outputs": [
        {
          "internalType": "address",
          "name": "",
          "type": "address"
        }
      ],
      "stateMutability": "view",
      "type": "function"
    },
    {
      "inputs": [
        {
          "internalType": "address",
          "name": "_revenueManager",
          "type": "address"
        },
        {
          "internalType": "address",
          "name": "_socialEngagementManager",
          "type": "address"
        }
      ],
      "name": "setContractAddresses",
      "outputs": [],
      "stateMutability": "nonpayable",
      "type": "function"
    },
    {
      "inputs": [
        {
          "internalType": "bool",
          "name": "_paused",
          "type": "bool"
        }
      ],
      "name": "setCreationPaused",
      "outputs": [],
      "stateMutability": "nonpayable",
      "type": "function"
    },
    {
      "inputs": [
        {
          "internalType": "uint256",
          "name": "_min",
          "type": "uint256"
        },
        {
          "internalType": "uint256",
          "name": "_max",
          "type": "uint256"
        }
      ],
      "name": "setDurationLimits",
      "outputs": [],
      "stateMutability": "nonpayable",
      "type": "function"
    },
    {
      "inputs": [
        {
          "internalType": "uint256",
          "name": "_slotFee",
          "type": "uint256"
        },
        {
          "internalType": "uint256",
          "name": "_protocolFee",
          "type": "uint256"
        },
        {
          "internalType": "uint256",
          "name": "_creationFee",
          "type": "uint256"
        },
        {
          "internalType": "uint256",
          "name": "_socialFee",
          "type": "uint256"
        }
      ],
      "name": "setFeeConfig",
      "outputs": [],
      "stateMutability": "nonpayable",
      "type": "function"
    },
    {
      "inputs": [
        {
          "internalType": "bool",
          "name": "_enabled",
          "type": "bool"
        }
      ],
      "name": "setGating",
      "outputs": [],
      "stateMutability": "nonpayable",
      "type": "function"
    },
    {
      "inputs": [
        {
          "internalType": "address",
          "name": "_token",
          "type": "address"
        },
        {
          "internalType": "uint256",
          "name": "_minBalance",
          "type": "uint256"
        }
      ],
      "name": "setGatingToken",
      "outputs": [],
      "stateMutability": "nonpayable",
      "type": "function"
    },
    {
      "inputs": [
        {
          "internalType": "uint256",
          "name": "_minPrized",
          "type": "uint256"
        },
        {
          "internalType": "uint256",
          "name": "_minNonPrized",
          "type": "uint256"
        },
        {
          "internalType": "uint256",
          "name": "_max",
          "type": "uint256"
        }
      ],
      "name": "setSlotLimits",
      "outputs": [],
      "stateMutability": "nonpayable",
      "type": "function"
    },
    {
      "inputs": [],
      "name": "socialEngagementFee",
      "outputs": [
        {
          "internalType": "uint256",
          "name": "",
          "type": "uint256"
        }
      ],
      "stateMutability": "view",
      "type": "function"
    },
    {
      "inputs": [],
      "name": "socialEngagementManager",
      "outputs": [
        {
          "internalType": "address",
          "name": "",
          "type": "address"
        }
      ],
      "stateMutability": "view",
      "type": "function"
    },
    {
      "inputs": [
        {
          "internalType": "bytes4",
          "name": "interfaceId",
          "type": "bytes4"
        }
      ],
      "name": "supportsInterface",
      "outputs": [
        {
          "internalType": "bool",
          "name": "",
          "type": "bool"
        }
      ],
      "stateMutability": "view",
      "type": "function"
    },
    {
      "inputs": [],
      "name": "toggleSocialTaskAssignments",
      "outputs": [],
      "stateMutability": "nonpayable",
      "type": "function"
    },
    {
      "inputs": [
        {
          "internalType": "address",
          "name": "newOwner",
          "type": "address"
        }
      ],
      "name": "transferOwnership",
      "outputs": [],
      "stateMutability": "nonpayable",
      "type": "function"
    },
    {
      "inputs": [
        {
          "internalType": "address",
          "name": "_poolImplementation",
          "type": "address"
        }
      ],
      "name": "updatePoolImplementation",
      "outputs": [],
      "stateMutability": "nonpayable",
      "type": "function"
    }
  ],
  "bytecode": "0x608034620000d557601f62003add38819003918201601f19168301916001600160401b03831184841017620000da578084926040948552833981010312620000d5576200005a60206200005283620000f0565b9201620000f0565b9060018060a01b03199081600154166001556000549233838516176000556040519360018060a01b03928391823391167f8be0079c531659141344cd1fd0a4f28419497f9722a3daafe3b4186f6b6457e0600080a360016002551683600c541617600c551690600d541617600d556139d79081620001068239f35b600080fd5b634e487b7160e01b600052604160045260246000fd5b51906001600160a01b0382168203620000d55756fe60a080604052600436101561001357600080fd5b600060805260003560e01c90816301ffc9a71461316257508063026cf601146130c25780630402a28a146130a2578063065bc36f14612ff05780630e952fe414612ef6578063150b7a0214612ea05780631e7278ad14612e75578063431ba460146102ea578063565e3eff14612e5557806359c810c114612e355780636b5ea00314610b7d5780636b90bda914610b52578063715018a614610ae757806376dc3c3114610a5357806379ba5097146109855780637c93fbf7146108395780638da5cb5b146108105780638e50e509146107f05780639c2dcafb146107d0578063a21d131c1461076a578063a2b327321461074a578063ab4b66921461071f578063ada5c132146106ff578063b546ba4a146106cf578063bc197c8114610644578063bd12dd641461061f578063bd1bd3871461058c578063cd931e40146104f4578063cefa7799146104c9578063d91043f2146104a9578063dbd5ef6d14610399578063e30c39781461036e578063e4741da414610346578063e720c00514610326578063ec66705f146102ea578063f23a6e6114610294578063f2fde38b14610225578063f9d90986146102055763ff3cd61e146101d157600080fd5b346101ff57608051806003193601126101fc57600e546040516001600160a01b039091168152602090f35b80fd5b60805180fd5b346101ff57608051806003193601126101fc576020601154604051908152f35b346101ff5760203660031901126101ff5761023e6131b5565b61024661323e565b600180546001600160a01b0319166001600160a01b0392831690811790915560805180549092167f38d16b8cac22d99fc7c124b9cd0de2d3fa1faef420bfe791d8c362d765e227008380a380f35b346101ff5760a03660031901126101ff576102ad6131b5565b506102b66131cb565b506084356001600160401b0381116101ff576102d69036906004016131e1565b505060405163f23a6e6160e01b8152602090f35b346101ff5760203660031901126101ff576001600160a01b0361030b6131b5565b16608051526013602052602060406080512054604051908152f35b346101ff57608051806003193601126101fc576020600654604051908152f35b346101ff57608051806003193601126101fc57602060ff600f5460a01c166040519015158152f35b346101ff57608051806003193601126101fc576001546040516001600160a01b039091168152602090f35b346101ff5760803660031901126101ff576044356024356004356064356103be61323e565b61271080841161046457841161041f577f58ee77c9f5b50426dc036dff11919df1099b3ca39cf4823cecb182e34465a2f793608093836008558060095581600a5582600b55604051938452602084015260408301526060820152a160805180f35b60405162461bcd60e51b815260206004820152601f60248201527f4372656174696f6e206665652063616e6e6f74206578636565642031303025006044820152606490fd5b60405162461bcd60e51b815260206004820152601f60248201527f50726f746f636f6c206665652063616e6e6f74206578636565642031303025006044820152606490fd5b346101ff57608051806003193601126101fc576020600a54604051908152f35b346101ff57608051806003193601126101fc57600c546040516001600160a01b039091168152602090f35b346101ff5760403660031901126101ff577fb74ce24e1b912d339e2e92f0ab4cc7567a0b11bb3874d76b9d6e675ffbd6e3ec61052e6131b5565b6105366131cb565b9061053f61323e565b600e80546001600160a01b039283166001600160a01b03199182168117909255600f8054949093169316831790915560408051918252602082019290925290819081015b0390a160805180f35b346101ff5760403660031901126101ff577f237fbe5cd573051d8d3fae25c11141b3cfe5ac4498a663e8046b11a9679c3df26105c66131b5565b6024356105d161323e565b601080546001600160a01b0319166001600160a01b039390931692831790556011819055600f546040805160a09290921c60ff16151582526020820193909352918201528060608101610583565b346101ff57608051806003193601126101fc57602060ff601254166040519015158152f35b346101ff5760a03660031901126101ff5761065d6131b5565b506106666131cb565b506001600160401b036044358181116101ff5761068790369060040161320e565b50506064358181116101ff576106a190369060040161320e565b50506084359081116101ff576106bb9036906004016131e1565b505060405163bc197c8160e01b8152602090f35b346101ff5760203660031901126101ff5760043580151581036101ff576106f76020916132d7565b604051908152f35b346101ff57608051806003193601126101fc576020600b54604051908152f35b346101ff57608051806003193601126101fc57600d546040516001600160a01b039091168152602090f35b346101ff57608051806003193601126101fc576020600854604051908152f35b346101ff5760203660031901126101ff576004358015158091036101ff5760207fae839565b74a95bdf72da1e1fd680e746316fe6293600baec220c8ceab210f58916107b461323e565b60ff196012541660ff821617601255604051908152a160805180f35b346101ff57608051806003193601126101fc576020600754604051908152f35b346101ff57608051806003193601126101fc576020600954604051908152f35b346101ff57608051806003193601126101fc57546040516001600160a01b039091168152602090f35b346101ff5760603660031901126101ff5760443560243560043561085b61323e565b801561094757811561090257808311806108f9575b156108bd577feb78458964f69dce3bc3e472dc9c3abca68f6735dae4c8dc5d5742c92e59d1fc9260609282600355806004558160055560405192835260208301526040820152a160805180f35b60405162461bcd60e51b81526020600482015260146024820152734d6178206d75737420657863656564206d696e7360601b6044820152606490fd5b50818311610870565b60405162461bcd60e51b815260206004820152601a60248201527f4d696e206e6f6e2d7072697a6564206d757374206265203e20300000000000006044820152606490fd5b60405162461bcd60e51b815260206004820152601660248201527504d696e207072697a6564206d757374206265203e20360541b6044820152606490fd5b346101ff57608051806003193601126101fc576001546001600160a01b0333818316036109fc576bffffffffffffffffffffffff60a01b8092166001556000549133908316176000553391167f8be0079c531659141344cd1fd0a4f28419497f9722a3daafe3b4186f6b6457e0600080a360805180f35b60405162461bcd60e51b815260206004820152602960248201527f4f776e61626c6532537465703a2063616c6c6572206973206e6f7420746865206044820152683732bb9037bbb732b960b91b6064820152608490fd5b346101ff5760203660031901126101ff57600435801515908181036101ff577f237fbe5cd573051d8d3fae25c11141b3cfe5ac4498a663e8046b11a9679c3df291610a9c61323e565b600f805460ff60a01b191660a09290921b60ff60a01b169190911790556010546011546040805193151584526001600160a01b03929092166020840152908201528060608101610583565b346101ff57608051806003193601126101fc57610b0261323e565b600180546001600160a01b0319908116909155600080549182168155906001600160a01b03167f8be0079c531659141344cd1fd0a4f28419497f9722a3daafe3b4186f6b6457e08280a360805180f35b346101ff57608051806003193601126101fc57600f546040516001600160a01b039091168152602090f35b6003196020368201126101ff576001600160401b03600435116101ff576103e090600435360301126101ff576002805414612df0576002805560ff600f5460a01c16612d26575b608051601054819081906001600160a01b031680151580612d1b575b612ca9575b50610bf56102e4600435016132e8565b612c3e575b60085490608051928381612c35575b610c1760c4600435016132e8565b9081612c19575b50612beb575b833410612bd95780612b13575b5060ff60125416612b0157426024600435013510612aef57610c5f610c5a60c4600435016132e8565b6132d7565b6064600435013510612add576005546064600435013511612add57608460043501351561211f5760646004350135608460043501351161211f576004356084013560648181029182049003612a1457601e6064600435013581810292918184041490151715612a14571161211f5760065460446004350135101580612acb575b15612a93576001600160a01b03610cfb60043561024401613353565b16612a2c575b610d0f60c4600435016132e8565b6129d5575b60805160043560e48101351515959086908390610d339060c4016132e8565b156129645750801561295e5760e460043501355b945b8515611a5557610d5e6101c460043501613353565b60a8610dc4610d71600480350180613367565b92908360405194859260208401976bffffffffffffffffffffffff199060601b1688524260348501524360548501523260601b6074850152608884013781013460888201520360888101845201826132a9565b5190206e5af43d82803e903d91602b57fd5bf3600c54763d602d80600a3d3981f3363d3d373d3d3d363d7300000062ffffff8260881c1617608051526effffffffffffffffffffffffffffff199060781b161760205260376009608051f5976001600160a01b0389161561291957610e4161014460043501613353565b94608051938490610e576102e4600435016132e8565b612870575b610e6b6103c4600435016132e8565b612766575b610e7e60c4600435016132e8565b80612750575b61187c575b50608080516001600160a01b038d81169091526013602052905160408120429055600d54909116610ebf6004356101c401613353565b91813b156101fc5750610f06918d9160405180809581946335b380b960e21b8352608051966004840190602090939293604083019460018060a01b03809216845216910152565b0391608051905af1801561166857611867575b50610f296101c460043501613353565b90610f39610104600435016132e8565b8015611852575b80611832575b611776575b5060805197610f5f610104600435016132e8565b8015611761575b80611741575b6116a8575b60046101648135013510156101ff5760805160043561016401356003036116a257506102246004350135965b15908161169a575b5080611693575b8061168b575b600d546001600160a01b031698610fcd600480350180613367565b95909460095495600a5497610fe76103c4600435016132e8565b966040519e8f6001600160401b036101c0828181011092011117611675578f916020916101c08401604052835260018060a01b031691015261102881613308565b9161103660405193846132a9565b81835236828201116101ff57819060208401376020608051918301015260408d01526064600435013560608d015260a4600435013560808d01526084600435013560a08d0152151560c08c0152151560e08b015215156101008a0152151561012089015215156101408801526101608701526101808601526101a08501526110c36101e460043501613353565b60405193846101008101106001600160401b03610100870111176116755761010085016040526110fa610164600435013586613499565b6001600160a01b03908116602086015260043561018481013560408701526101a481013560608701529116608085015261020481013560a085015261022481013560c085015290151560e08401526111559061024401613353565b9360046102648135013510156101ff57604051948560808101106001600160401b0360808801111761167557608086016040526001600160a01b031685526111a7600435610264013560208701613499565b60043561028481013560408701526102c481013560608701526111cd906102e4016132e8565b906111dd6101c460043501613353565b6111eb60c4600435016132e8565b926001600160a01b038a163b156101ff57604080516387dc972760e01b8152610260600482015288516001600160a01b0390811661026483015260208a015116610284820152908801516101c06102a4830152909889979091611253906104248a01906134bb565b9860608101516102c48a015260808101516102e48a015260a08101516103048a015260c081015115156103248a015260e081015115156103448a015261010081015115156103648a015261012081015115156103848a015261014081015115156103a48a01526101608101516103c48a01526101808101516103e48a01526101a00151610404890152602488018151906112ec916134fb565b6020818101516001600160a01b0390811660448b0152604083015160648b0152606083015160848b01526080830151811660a48b015260a083015160c48b015260c083015160e48b015260e09092015115156101048a01528251909116610124890152810151611361906101448901906134fb565b60408101516101648801526060015161018487015215156101a48601526001600160a01b039081166101c486015260043560248101356101e4870152604401356102048601526102248501919091529015156102448401526080519383900391839188165af1801561166857611653575b50803403611613575b506001600160a01b036113f36004356101c401613353565b166040514281527ff8a0462f666b427ea753848be7e91f9ce413975906f6f39950be296ca9a4d524602060018060a01b03851692a3610344600435019061143f82600435600401613367565b9050610364600435019061145882600435600401613367565b929050610384600435019161147283600435600401613367565b90506103a4600435019461148b86600435600401613367565b938091501580159061160a575b8015611601575b80156115f8575b6114c4575b60016002556040516001600160a01b0389168152602090f35b6103e8106115e65760c8106115d45760c8106115c25760c8106115b0576115356115a17f4e2fb815c48f38871c1a97680d69ecfc7db86ce1f02e00f1f438d6bdbb92b3a0936115866115439661155161157861152760209c600435600401613367565b979098600435600401613367565b9a9095600435600401613367565b929093600435600401613367565b95909a61156b6040519a8b9a60808c5260808c0191613399565b918983038f8b0152613399565b918683036040880152613399565b83810360608501526001600160a01b03881696909190613399565b0390a2828080808080806114ab565b60405163621c786f60e01b8152600490fd5b60405163f94023a960e01b8152600490fd5b604051637a59f6af60e11b8152600490fd5b604051630d7cfc5960e41b8152600490fd5b508315156114a6565b5082151561149f565b50811515611498565b60805180808093340361162b6101c460043501613353565b5af1611635613323565b501561164157816113db565b604051633c31275160e21b8152600490fd5b61165c90613296565b60805180156113d25780fd5b6040513d608051823e3d90fd5b634e487b7160e01b600052604160045260246000fd5b508415610fb2565b5082610fac565b90508c610fa5565b96610f9d565b600d549098506001600160a01b031660206116c860043561014401613353565b604051631a74b3f360e01b81526001600160a01b03909116600482015291829060249082905afa9081156116685760805191611707575b501597610f71565b90506020813d602011611739575b81611722602093836132a9565b810103126101ff57611733906132ca565b8c6116ff565b3d9150611715565b506001600160a01b0361175960043561014401613353565b161515610f6c565b50611771610124600435016132e8565b610f66565b6001600160a01b038116156117be575b6117956101c460043501613353565b6001600160a01b0382811691161415806117b7575b15610f4b5790508b610f4b565b50836117aa565b50600460206001600160a01b036117d9833561014401613353565b1660405192838092638da5cb5b60e01b82525afa9081156116685760805191611803575b50611786565b611825915060203d60201161182b575b61181d81836132a9565b8101906133ba565b8c6117fd565b503d611813565b506001600160a01b0361184a60043561014401613353565b161515610f46565b50611862610124600435016132e8565b610f40565b61187090613296565b6080518015610f195780fd5b909460046101648135013510156101ff576004356101640135600203611a7957506001600160a01b036118b460043561014401613353565b166119f357610204600435013515611a67576118e66118e060846004350135610204600435013561341b565b1561343b565b611a555760a4600435013515611a055761022460043501356119f3576001936119ed6119e18c61198f6004356101e4016001600160a01b0361192782613353565b169061199461197b61193e6101c460043501613353565b6040516323b872dd60e01b60208201526001600160a01b039091166024820152306044820152600435610204013560648201529081906084820190565b039361198f601f19958681018452836132a9565b613508565b6001600160a01b03906119a690613353565b60405163a9059cbb60e01b60208201526001600160a01b03909516602486015260043561020401356044860152939493169284906064820190565b039081018452836132a9565b8b610e89565b604051631558dc5f60e31b8152600490fd5b60405162461bcd60e51b815260206004820152602260248201527f4d617820736c6f747320706572207061727469636970616e7420726571756972604482015261195960f21b6064820152608490fd5b604051633c8e6e6960e11b8152600490fd5b604051630193f71f60e51b8152600490fd5b6004356101640135600303611b0557506001600160a01b03611aa06004356101e401613353565b166119f3576001600160a01b03611abc60043561014401613353565b166119f357611adb6118e060846004350135610224600435013561341b565b611a555760a4600435013515611af3576001936119ed565b6040516313b558f960e01b8152600490fd5b90600435610164013561222b5760016101a4600435013511611a67576001600160a01b03611b3860043561014401613353565b16151580612215575b15611d1f57505060016084600435013511611a6757602460206001600160a01b03611b7160043561014401613353565b16604051928380926331a9108f60e11b8252610184600435013560048301525afa9081156116685760805191611d00575b506001600160a01b03611bba6004356101c401613353565b166001600160a01b0390911603611cee576001936001600160a01b03611be560043561014401613353565b16611bf56101c460043501613353565b813b156101ff57604051632142170760e11b81526080516001600160a01b0390921660048083019190915230602483015235610184013560448201529182908180606481010391608051905af1801561166857611cd9575b506001600160a01b03611c6560043561014401613353565b16803b156101ff57604051632142170760e11b8152608051306004808401919091526001600160a01b038f1660248401523561018401356044830152909182908180606481010391608051905af1801561166857611cc4575b506119ed565b611ccd90613296565b6080518015611cbe5780fd5b611ce290613296565b6080518015611c4d5780fd5b604051632d346a9760e01b8152600490fd5b611d19915060203d60201161182b5761181d81836132a9565b8b611ba2565b9094906001600160a01b03611d3960043561014401613353565b16151580612200575b611d4c57506119ed565b98509091506001600160a01b039050611d6a60043561014401613353565b6040516301ffc9a760e01b81526380ac58cd60e01b6004820152911690602081602481855afa90811561166857608051916121c6575b501561217a576040516301ffc9a760e01b8152637c97ded960e11b600482015290602090829060249082905afa908115611668576080519161218c575b501561217a57600460206001600160a01b03611dfd833561014401613353565b1660405192838092633f6615ab60e11b82525afa9081156116685760805191612143575b506084600435013511612131576001608460043501351461211f5761016460043501356119f35760049060206001600160a01b03611e63843561014401613353565b1660405193848092638da5cb5b60e01b82525afa91821561166857608051926120fe575b5081611e986101c460043501613353565b6001600160a01b03908116911603611f32578715611f2c5760e460043501355b97915b6001600160a01b03611ed260043561014401613353565b16803b156101ff576040516227675f60e01b81526080516001600160a01b038e1660048084019190915235608401356024830152909182908180604481010391608051905af180156116685715611cbe57611ccd90613296565b82611eb8565b9096906001600160a01b03611f4c60043561014401613353565b1660c0611f5e6101c460043501613353565b6040516317f6397960e01b81526001600160a01b03909116600482015291829060249082905afa908115611668576080519182809281926120c5575b50156120b457611fa99161340e565b60846004350135116120a257611fc4610104600435016132e8565b612099575b8061207f575082976080519261206d575b6001600160a01b03611ff160043561014401613353565b166120016101c460043501613353565b813b156101ff576040516334ea162f60e11b81526080516001600160a01b03909216600480830191909152356084013560248201529182908180604481010391608051905af1801561166857612058575b50611ebb565b61206190613296565b60805180156120525780fd5b60405163805596b160e01b8152600490fd5b809198925060e460043501350361206d5796600191611fda565b60019150611fc9565b604051630161dc7d60e21b8152600490fd5b6040516282b42960e81b8152600490fd5b925050506120ea915060c03d81116120f7575b6120e281836132a9565b8101906133d9565b92949193508f9050611f9a565b503d6120d8565b61211891925060203d60201161182b5761181d81836132a9565b908a611e87565b60405163c827d5c360e01b8152600490fd5b604051632fb7debb60e11b8152600490fd5b90506020813d602011612172575b8161215e602093836132a9565b8101031261216d57518a611e21565b600080fd5b3d9150612151565b6040516359071b0760e11b8152600490fd5b90506020813d6020116121be575b816121a7602093836132a9565b810103126101ff576121b8906132ca565b8a611ddd565b3d915061219a565b90506020813d6020116121f8575b816121e1602093836132a9565b810103126101ff576121f2906132ca565b8b611da0565b3d91506121d4565b50612210610104600435016132e8565b611d42565b50612225610104600435016132e8565b15611b41565b9094906004356101640135600103612712576101a46004350135156126cd576001600160a01b0361226160043561014401613353565b161515806126b8575b61227457506119ed565b98509091506001600160a01b03905061229260043561014401613353565b6040516301ffc9a760e01b8152636cdb3d1360e11b6004820152911690602081602481855afa908115611668576080519161267e575b501561217a576040516301ffc9a760e01b81526315ba79c360e11b600482015290602090829060249082905afa9081156116685760805191612644575b501561217a576001608460043501351461211f576123306101a46004350135608460043501356132f5565b90602460206001600160a01b0361234c60043561014401613353565b1660405192838092633570cb2960e21b8252610184600435013560048301525afa80156116685783916080519161260f575b501061213157600460206001600160a01b0361239e833561014401613353565b1660405192838092638da5cb5b60e01b82525afa90811561166857608051916125f0575b50806123d36101c460043501613353565b6001600160a01b039081169116036124685788156124625760e460043501355b98925b6001600160a01b0361240d60043561014401613353565b16803b156101ff57604051916309de21c160e41b83528d60018060a01b031660048401526101846004350135602484015260448301528160648160805180945af180156116685715611cbe57611ccd90613296565b836123f3565b9197916001600160a01b0361248260043561014401613353565b1660c06124946101c460043501613353565b6040516317f6397960e01b81526001600160a01b03909116600482015291829060249082905afa908115611668576080519182809281926125c6575b50156120b4576124df9161340e565b60846004350135116120a2576124fa610124600435016132e8565b6125bd575b806125a3575083986080519361206d575b6001600160a01b0361252760043561014401613353565b166125376101c460043501613353565b813b156101ff576040516334ea162f60e11b81526080516001600160a01b03909216600480830191909152356084013560248201529182908180604481010391608051905af180156116685761258e575b506123f6565b61259790613296565b60805180156125885780fd5b809199935060e460043501350361206d5797600192612510565b600192506124ff565b925050506125e2915060c03d81116120f7576120e281836132a9565b93505092909291908f6124d0565b612609915060203d60201161182b5761181d81836132a9565b8b6123c2565b9150506020813d60201161263c575b8161262b602093836132a9565b8101031261216d578290518c61237e565b3d915061261e565b90506020813d602011612676575b8161265f602093836132a9565b810103126101ff57612670906132ca565b8a612305565b3d9150612652565b90506020813d6020116126b0575b81612699602093836132a9565b810103126101ff576126aa906132ca565b8b6122c8565b3d915061268c565b506126c8610124600435016132e8565b61226a565b60405162461bcd60e51b815260206004820152601d60248201527f416d6f756e74207065722077696e6e6572206d757374206265203e20300000006044820152606490fd5b60405162461bcd60e51b8152602060048201526016602482015275556e737570706f72746564207072697a65207479706560501b6044820152606490fd5b506127606103c4600435016132e8565b15610e84565b61277460c4600435016132e8565b1561282b5760e46004350135156127dc576001600160a01b0361279c60043561014401613353565b166119f3576001600160a01b036127b86004356101e401613353565b166119f357610224600435013515610e7057604051631558dc5f60e31b8152600490fd5b60405162461bcd60e51b815260206004820152602160248201527f506f7420706f6f6c73207265717569726520637573746f6d20736c6f742066656044820152606560f81b6064820152608490fd5b60405162461bcd60e51b815260206004820152601860248201527f506f7420706f6f6c73206d757374206265207072697a656400000000000000006044820152606490fd5b600f546001600160a01b031680156129075761289761032460043501600435600401613367565b90823b156101ff576128d9928f6040518095819482936386aec17960e01b845260018060a01b0316600484015260406024840152608051966044840191613399565b0391608051905af18015611668576128f2575b50610e5c565b6128fb90613296565b60805180156128ec5780fd5b6040516369ecf6c760e11b8152600490fd5b60405162461bcd60e51b815260206004820152601760248201527f455243313136373a2063726561746532206661696c65640000000000000000006044820152606490fd5b84610d47565b96508481611a5557600160a46004350135116129c3576001600160a01b0361299160043561014401613353565b166129c3576129a5610104600435016132e8565b6129c35761018460043501356129c3576101a4600435013515610d49575b604051630309cb8760e51b8152600490fd5b6064600435013580800460011490151715612a14576103e8606460043501350460a460043501351115610d14576040516313b558f960e01b8152600490fd5b634e487b7160e01b6080515260116004526024608051fd5b612a3b61024460043501613353565b60046102648135013510156101ff57612a5c906102646004350135906136a3565b61026460043501351580612a82575b15610d0157604051630309cb8760e51b8152600490fd5b50600a610284600435013511612a6b565b60405162461bcd60e51b815260206004820152601060248201526f24b73b30b634b210323ab930ba34b7b760811b6044820152606490fd5b50600754604460043501351115610cdf565b60405163ac255ca760e01b8152600490fd5b604051632ca4094f60e21b8152600490fd5b6040516316247b3f60e11b8152600490fd5b600e546001600160a01b0316908115612b9457604051635e5bc1c560e11b6020820152816024820152602481528060608101106001600160401b036060830111176116755760608101604052608051928392602083519301915af1612b76613323565b5015612b825784610c31565b604051635b5b44c760e01b8152600490fd5b60405162461bcd60e51b815260206004820152601760248201527f526576656e7565206d616e61676572206e6f74207365740000000000000000006044820152606490fd5b60405163dbc3a71f60e01b8152600490fd5b9261022460043501358101809111612c035792610c24565b634e487b7160e01b600052601160045260246000fd5b60048035610164013592508210156101fc575060031486610c1e565b93508093610c09565b905061030460043501358015612c6e57612c5b8291600b546132f5565b9115610bfa57915060011c600191610bfa565b60405162461bcd60e51b815260206004820152601360248201527215185cdac818dbdd5b9d081c995c5d5a5c9959606a1b6044820152606490fd5b6040516370a0823160e01b81523360048201529150602090829060249082905afa9081156116685760805191612ce9575b5060115460021b111583610be5565b90506020813d602011612d13575b81612d04602093836132a9565b8101031261216d575183612cda565b3d9150612cf7565b506011541515610be0565b6010546001600160a01b03168015612db4576020602491604051928380926370a0823160e01b82523360048301525afa9081156116685760805191612d82575b506011541115610bc457604051633991498960e11b8152600490fd5b90506020813d602011612dac575b81612d9d602093836132a9565b8101031261216d575181612d66565b3d9150612d90565b60405162461bcd60e51b815260206004820152601460248201527311d85d1a5b99c81d1bdad95b881b9bdd081cd95d60621b6044820152606490fd5b60405162461bcd60e51b815260206004820152601f60248201527f5265656e7472616e637947756172643a207265656e7472616e742063616c6c006044820152606490fd5b346101ff57608051806003193601126101fc576020600454604051908152f35b346101ff57608051806003193601126101fc576020600354604051908152f35b346101ff57608051806003193601126101fc576010546040516001600160a01b039091168152602090f35b346101ff5760803660031901126101ff57612eb96131b5565b50612ec26131cb565b506064356001600160401b0381116101ff57612ee29036906004016131e1565b5050604051630a85bd0160e11b8152602090f35b346101ff57608051806003193601126101fc57612f1161323e565b600f546001600160a01b0390811690813b156101ff57604051916373107a2960e01b83528260048160805180945af190811561166857600492602092612fe1575b50600f5416604051928380926370adb5ed60e11b82525afa9081156116685760805191612fa8575b506080519015157fd76f76e022b9f64762d47f484b911f9dbde1a11ec016cc9d813b9b6ee4c5a9ee8280a280f35b90506020813d8211612fd9575b81612fc2602093836132a9565b810103126101ff57612fd3906132ca565b81612f7a565b3d9150612fb5565b612fea90613296565b83612f52565b346101ff5760203660031901126101ff576130096131b5565b61301161323e565b6001600160a01b0316801561305d57600c80546001600160a01b03191682179055608051907f1eed81ce21a92b04ae795cb172e51fb0f8c7f90ec3cd2dc2b4c6395d8d39456f8280a280f35b60405162461bcd60e51b815260206004820152601b60248201527f496e76616c696420506f6f6c20696d706c656d656e746174696f6e00000000006044820152606490fd5b346101ff57608051806003193601126101fc576020600554604051908152f35b346101ff5760403660031901126101ff576004356024356130e161323e565b8181111561312757816040917f060e9bb7b24700e1f67f61d02209b1fb7e61dcb50699bd88a5004e8649f3e4ec936006558060075582519182526020820152a160805180f35b60405162461bcd60e51b815260206004820152601360248201527226b0bc1036bab9ba1032bc31b2b2b21036b4b760691b6044820152606490fd5b3461216d57602036600319011261216d576004359063ffffffff60e01b821680920361216d57602091630a85bd0160e11b81149081156131a4575b5015158152f35b630271189760e51b1490508361319d565b600435906001600160a01b038216820361216d57565b602435906001600160a01b038216820361216d57565b9181601f8401121561216d578235916001600160401b03831161216d576020838186019501011161216d57565b9181601f8401121561216d578235916001600160401b03831161216d576020808501948460051b01011161216d57565b6000546001600160a01b0316330361325257565b606460405162461bcd60e51b815260206004820152602060248201527f4f776e61626c653a2063616c6c6572206973206e6f7420746865206f776e65726044820152fd5b6001600160401b03811161167557604052565b90601f801991011681019081106001600160401b0382111761167557604052565b5190811515820361216d57565b156132e25760035490565b60045490565b35801515810361216d5790565b81810292918115918404141715612c0357565b6001600160401b03811161167557601f01601f191660200190565b3d1561334e573d9061333482613308565b9161334260405193846132a9565b82523d6000602084013e565b606090565b356001600160a01b038116810361216d5790565b903590601e198136030182121561216d57018035906001600160401b03821161216d5760200191813603831361216d57565b908060209392818452848401376000828201840152601f01601f1916010190565b9081602091031261216d57516001600160a01b038116810361216d5790565b91908260c091031261216d576133ee826132ca565b9160208101519160408201519160608101519160a0608083015192015190565b91908203918211612c0357565b8115613425570690565b634e487b7160e01b600052601260045260246000fd5b1561344257565b60405162461bcd60e51b815260206004820152602960248201527f5072697a6520616d6f756e74206d75737420626520646976697369626c652062604482015268792077696e6e65727360b81b6064820152608490fd5b60048210156134a55752565b634e487b7160e01b600052602160045260246000fd5b919082519283825260005b8481106134e7575050826000602080949584010152601f8019910116010190565b6020818301810151848301820152016134c6565b9060048210156134a55752565b60408051908101916001600160a01b03166001600160401b0383118284101761167557613577926040526000806020958685527f5361666545524332303a206c6f772d6c6576656c2063616c6c206661696c656487860152868151910182855af1613571613323565b91613606565b80518281159182156135e7575b50509050156135905750565b6084906040519062461bcd60e51b82526004820152602a60248201527f5361666545524332303a204552433230206f7065726174696f6e20646964206e6044820152691bdd081cdd58d8d9595960b21b6064820152fd5b838092935001031261216d57816135fe91016132ca565b808238613584565b91929015613668575081511561361a575090565b3b156136235790565b60405162461bcd60e51b815260206004820152601d60248201527f416464726573733a2063616c6c20746f206e6f6e2d636f6e74726163740000006044820152606490fd5b82519091501561367b5750805190602001fd5b60405162461bcd60e51b81526020600482015290819061369f9060248301906134bb565b0390fd5b9091906001600160a01b03811690811561398f573b1561398f576004928381101561397a576002810361379657506040516318160ddd60e01b81526020908180828781875afa918261376d575b50506137075760405163137f48d760e31b81528490fd5b80602492604051938480926370a0823160e01b825230898301525afa9182613744575b5050613740575060405163137f48d760e31b8152fd5b9050565b813d8311613766575b61375781836132a9565b8101031261216d57388061372a565b503d61374d565b813d831161378f575b61378081836132a9565b8101031261216d5781386136f0565b503d613776565b919291806138b1575060409081516301ffc9a760e01b80825280858301526020918281602481875afa6000918161387a575b506137dd57845163137f48d760e31b81528690fd5b1561386a578190602485518095819382526380ac58cd60e01b898301525afa918291600093613831575b505061381b57505163137f48d760e31b8152fd5b15613824575050565b5163137f48d760e31b8152fd5b8181949293943d8311613863575b61384981836132a9565b810103126101fc575061385b906132ca565b903880613807565b503d61383f565b5050505163137f48d760e31b8152fd5b90918482813d83116138aa575b61389181836132a9565b810103126101fc57506138a3906132ca565b90386137c8565b503d613887565b60010361396a5760409081516301ffc9a760e01b80825280858301526020918281602481875afa60009181613933575b506138f657845163137f48d760e31b81528690fd5b1561386a57819060248551809581938252636cdb3d1360e11b898301525afa91829160009361383157505061381b57505163137f48d760e31b8152fd5b90918482813d8311613963575b61394a81836132a9565b810103126101fc575061395c906132ca565b90386138e1565b503d613940565b5060405163137f48d760e31b8152fd5b602184634e487b7160e01b6000525260246000fd5b60405163137f48d760e31b8152600490fdfea264697066735822122090a186bd21b9e1f2517d3ac9b10887e6ffe6c7d42ecb0c95810af196029c6d6e64736f6c63430008130033",
  "linkReferences": {},
  "deployedLinkReferences": {}
}