{
  "_format": "hh-sol-artifact-1",
  "contractName": "RevenueManager",
  "sourceName": "contracts/RevenueManager.sol",
  "abi": [
    {
      "inputs": [
        {
          "internalType": "address",
          "name": "initialOwner",
          "type": "address"
        }
      ],
      "stateMutability": "nonpayable",
      "type": "constructor"
    },
    {
      "inputs": [],
      "name": "AmountTooLarge",
      "type": "error"
    },
    {
      "inputs": [],
      "name": "CannotRescueProtocolToken",
      "type": "error"
    },
    {
      "inputs": [],
      "name": "DeadlineExpired",
      "type": "error"
    },
    {
      "inputs": [],
      "name": "IncorrectETHAmount",
      "type": "error"
    },
    {
      "inputs": [],
      "name": "InvalidLockDuration",
      "type": "error"
    },
    {
      "inputs": [],
      "name": "InvalidLockIndex",
      "type": "error"
    },
    {
      "inputs": [],
      "name": "InvalidPercentage",
      "type": "error"
    },
    {
      "inputs": [],
      "name": "LockAlreadyWithdrawn",
      "type": "error"
    },
    {
      "inputs": [],
      "name": "LockNotMatured",
      "type": "error"
    },
    {
      "inputs": [],
      "name": "NoRevenueAvailable",
      "type": "error"
    },
    {
      "inputs": [],
      "name": "NoTokensReceived",
      "type": "error"
    },
    {
      "inputs": [],
      "name": "WithdrawalFailed",
      "type": "error"
    },
    {
      "inputs": [],
      "name": "ZeroAddress",
      "type": "error"
    },
    {
      "inputs": [],
      "name": "ZeroAmount",
      "type": "error"
    },
    {
      "anonymous": false,
      "inputs": [
        {
          "indexed": true,
          "internalType": "address",
          "name": "from",
          "type": "address"
        },
        {
          "indexed": false,
          "internalType": "uint256",
          "name": "amount",
          "type": "uint256"
        }
      ],
      "name": "AdminDepositSuccessful",
      "type": "event"
    },
    {
      "anonymous": false,
      "inputs": [
        {
          "indexed": false,
          "internalType": "address",
          "name": "protocolToken",
          "type": "address"
        },
        {
          "indexed": false,
          "internalType": "address",
          "name": "dexRouter",
          "type": "address"
        },
        {
          "indexed": false,
          "internalType": "uint256",
          "name": "buybackPercentage",
          "type": "uint256"
        },
        {
          "indexed": false,
          "internalType": "uint256",
          "name": "minBuybackAmount",
          "type": "uint256"
        },
        {
          "indexed": false,
          "internalType": "uint256",
          "name": "lockDuration",
          "type": "uint256"
        }
      ],
      "name": "BuybackConfigured",
      "type": "event"
    },
    {
      "anonymous": false,
      "inputs": [
        {
          "indexed": false,
          "internalType": "uint256",
          "name": "ethSpent",
          "type": "uint256"
        },
        {
          "indexed": false,
          "internalType": "uint256",
          "name": "tokensReceived",
          "type": "uint256"
        },
        {
          "indexed": false,
          "internalType": "uint256",
          "name": "tokensBurned",
          "type": "uint256"
        },
        {
          "indexed": false,
          "internalType": "uint256",
          "name": "tokensLocked",
          "type": "uint256"
        }
      ],
      "name": "BuybackExecuted",
      "type": "event"
    },
    {
      "anonymous": false,
      "inputs": [
        {
          "indexed": false,
          "internalType": "uint256",
          "name": "oldPercentage",
          "type": "uint256"
        },
        {
          "indexed": false,
          "internalType": "uint256",
          "name": "newPercentage",
          "type": "uint256"
        }
      ],
      "name": "BuybackPercentageUpdated",
      "type": "event"
    },
    {
      "anonymous": false,
      "inputs": [
        {
          "indexed": false,
          "internalType": "uint256",
          "name": "oldDuration",
          "type": "uint256"
        },
        {
          "indexed": false,
          "internalType": "uint256",
          "name": "newDuration",
          "type": "uint256"
        }
      ],
      "name": "LockDurationUpdated",
      "type": "event"
    },
    {
      "anonymous": false,
      "inputs": [
        {
          "indexed": true,
          "internalType": "uint256",
          "name": "lockIndex",
          "type": "uint256"
        },
        {
          "indexed": false,
          "internalType": "uint256",
          "name": "amount",
          "type": "uint256"
        }
      ],
      "name": "LockedTokensWithdrawn",
      "type": "event"
    },
    {
      "anonymous": false,
      "inputs": [
        {
          "indexed": false,
          "internalType": "uint256",
          "name": "oldAmount",
          "type": "uint256"
        },
        {
          "indexed": false,
          "internalType": "uint256",
          "name": "newAmount",
          "type": "uint256"
        }
      ],
      "name": "MinBuybackAmountUpdated",
      "type": "event"
    },
    {
      "anonymous": false,
      "inputs": [
        {
          "indexed": true,
          "internalType": "address",
          "name": "previousOwner",
          "type": "address"
        },
        {
          "indexed": true,
          "internalType": "address",
          "name": "newOwner",
          "type": "address"
        }
      ],
      "name": "OwnershipTransferStarted",
      "type": "event"
    },
    {
      "anonymous": false,
      "inputs": [
        {
          "indexed": true,
          "internalType": "address",
          "name": "previousOwner",
          "type": "address"
        },
        {
          "indexed": true,
          "internalType": "address",
          "name": "newOwner",
          "type": "address"
        }
      ],
      "name": "OwnershipTransferred",
      "type": "event"
    },
    {
      "anonymous": false,
      "inputs": [
        {
          "indexed": true,
          "internalType": "address",
          "name": "admin",
          "type": "address"
        },
        {
          "indexed": false,
          "internalType": "uint256",
          "name": "adminAmount",
          "type": "uint256"
        },
        {
          "indexed": false,
          "internalType": "uint256",
          "name": "buybackAmount",
          "type": "uint256"
        }
      ],
      "name": "RevenueWithdrawn",
      "type": "event"
    },
    {
      "anonymous": false,
      "inputs": [
        {
          "indexed": true,
          "internalType": "uint256",
          "name": "lockIndex",
          "type": "uint256"
        },
        {
          "indexed": false,
          "internalType": "uint256",
          "name": "amount",
          "type": "uint256"
        },
        {
          "indexed": false,
          "internalType": "uint256",
          "name": "unlockTime",
          "type": "uint256"
        }
      ],
      "name": "TokensLocked",
      "type": "event"
    },
    {
      "inputs": [],
      "name": "BASIS_POINTS",
      "outputs": [
        {
          "internalType": "uint256",
          "name": "",
          "type": "uint256"
        }
      ],
      "stateMutability": "view",
      "type": "function"
    },
    {
      "inputs": [],
      "name": "BURN_ADDRESS",
      "outputs": [
        {
          "internalType": "address",
          "name": "",
          "type": "address"
        }
      ],
      "stateMutability": "view",
      "type": "function"
    },
    {
      "inputs": [],
      "name": "MAX_BUYBACK_PERCENTAGE",
      "outputs": [
        {
          "internalType": "uint256",
          "name": "",
          "type": "uint256"
        }
      ],
      "stateMutability": "view",
      "type": "function"
    },
    {
      "inputs": [],
      "name": "acceptOwnership",
      "outputs": [],
      "stateMutability": "nonpayable",
      "type": "function"
    },
    {
      "inputs": [],
      "name": "adminRevenue",
      "outputs": [
        {
          "internalType": "uint256",
          "name": "",
          "type": "uint256"
        }
      ],
      "stateMutability": "view",
      "type": "function"
    },
    {
      "inputs": [],
      "name": "buybackEnabled",
      "outputs": [
        {
          "internalType": "bool",
          "name": "",
          "type": "bool"
        }
      ],
      "stateMutability": "view",
      "type": "function"
    },
    {
      "inputs": [],
      "name": "buybackPercentage",
      "outputs": [
        {
          "internalType": "uint256",
          "name": "",
          "type": "uint256"
        }
      ],
      "stateMutability": "view",
      "type": "function"
    },
    {
      "inputs": [
        {
          "internalType": "address",
          "name": "_protocolToken",
          "type": "address"
        },
        {
          "internalType": "address",
          "name": "_dexRouter",
          "type": "address"
        },
        {
          "internalType": "uint256",
          "name": "_buybackPercentage",
          "type": "uint256"
        },
        {
          "internalType": "uint256",
          "name": "_minBuybackAmount",
          "type": "uint256"
        },
        {
          "internalType": "uint256",
          "name": "_lockDuration",
          "type": "uint256"
        }
      ],
      "name": "configureBuyback",
      "outputs": [],
      "stateMutability": "nonpayable",
      "type": "function"
    },
    {
      "inputs": [
        {
          "internalType": "uint256",
          "name": "amount",
          "type": "uint256"
        }
      ],
      "name": "depositAdmin",
      "outputs": [],
      "stateMutability": "payable",
      "type": "function"
    },
    {
      "inputs": [],
      "name": "dexRouter",
      "outputs": [
        {
          "internalType": "address",
          "name": "",
          "type": "address"
        }
      ],
      "stateMutability": "view",
      "type": "function"
    },
    {
      "inputs": [
        {
          "internalType": "uint256",
          "name": "offset",
          "type": "uint256"
        },
        {
          "internalType": "uint256",
          "name": "limit",
          "type": "uint256"
        }
      ],
      "name": "getActiveLocks",
      "outputs": [
        {
          "internalType": "uint256[]",
          "name": "indices",
          "type": "uint256[]"
        },
        {
          "internalType": "uint256[]",
          "name": "amounts",
          "type": "uint256[]"
        },
        {
          "internalType": "uint256[]",
          "name": "unlockTimes",
          "type": "uint256[]"
        },
        {
          "internalType": "bool[]",
          "name": "matured",
          "type": "bool[]"
        }
      ],
      "stateMutability": "view",
      "type": "function"
    },
    {
      "inputs": [
        {
          "internalType": "uint256",
          "name": "lockIndex",
          "type": "uint256"
        }
      ],
      "name": "getTokenLock",
      "outputs": [
        {
          "internalType": "uint256",
          "name": "amount",
          "type": "uint256"
        },
        {
          "internalType": "uint256",
          "name": "unlockTime",
          "type": "uint256"
        },
        {
          "internalType": "bool",
          "name": "withdrawn",
          "type": "bool"
        },
        {
          "internalType": "bool",
          "name": "matured",
          "type": "bool"
        }
      ],
      "stateMutability": "view",
      "type": "function"
    },
    {
      "inputs": [],
      "name": "getTokenLockCount",
      "outputs": [
        {
          "internalType": "uint256",
          "name": "",
          "type": "uint256"
        }
      ],
      "stateMutability": "view",
      "type": "function"
    },
    {
      "inputs": [
        {
          "internalType": "uint256",
          "name": "offset",
          "type": "uint256"
        },
        {
          "internalType": "uint256",
          "name": "limit",
          "type": "uint256"
        }
      ],
      "name": "getWithdrawableLocks",
      "outputs": [
        {
          "internalType": "uint256",
          "name": "totalWithdrawable",
          "type": "uint256"
        },
        {
          "internalType": "uint256[]",
          "name": "withdrawableIndices",
          "type": "uint256[]"
        }
      ],
      "stateMutability": "view",
      "type": "function"
    },
    {
      "inputs": [],
      "name": "lockDuration",
      "outputs": [
        {
          "internalType": "uint256",
          "name": "",
          "type": "uint256"
        }
      ],
      "stateMutability": "view",
      "type": "function"
    },
    {
      "inputs": [],
      "name": "minBuybackAmount",
      "outputs": [
        {
          "internalType": "uint256",
          "name": "",
          "type": "uint256"
        }
      ],
      "stateMutability": "view",
      "type": "function"
    },
    {
      "inputs": [],
      "name": "owner",
      "outputs": [
        {
          "internalType": "address",
          "name": "",
          "type": "address"
        }
      ],
      "stateMutability": "view",
      "type": "function"
    },
    {
      "inputs": [],
      "name": "pendingOwner",
      "outputs": [
        {
          "internalType": "address",
          "name": "",
          "type": "address"
        }
      ],
      "stateMutability": "view",
      "type": "function"
    },
    {
      "inputs": [],
      "name": "protocolToken",
      "outputs": [
        {
          "internalType": "address",
          "name": "",
          "type": "address"
        }
      ],
      "stateMutability": "view",
      "type": "function"
    },
    {
      "inputs": [],
      "name": "renounceOwnership",
      "outputs": [],
      "stateMutability": "nonpayable",
      "type": "function"
    },
    {
      "inputs": [
        {
          "internalType": "address",
          "name": "token",
          "type": "address"
        },
        {
          "internalType": "uint256",
          "name": "amount",
          "type": "uint256"
        }
      ],
      "name": "rescueToken",
      "outputs": [],
      "stateMutability": "nonpayable",
      "type": "function"
    },
    {
      "inputs": [
        {
          "internalType": "uint256",
          "name": "_percentage",
          "type": "uint256"
        }
      ],
      "name": "setBuybackPercentage",
      "outputs": [],
      "stateMutability": "nonpayable",
      "type": "function"
    },
    {
      "inputs": [
        {
          "internalType": "uint256",
          "name": "_duration",
          "type": "uint256"
        }
      ],
      "name": "setLockDuration",
      "outputs": [],
      "stateMutability": "nonpayable",
      "type": "function"
    },
    {
      "inputs": [
        {
          "internalType": "uint256",
          "name": "_amount",
          "type": "uint256"
        }
      ],
      "name": "setMinBuybackAmount",
      "outputs": [],
      "stateMutability": "nonpayable",
      "type": "function"
    },
    {
      "inputs": [
        {
          "internalType": "uint256",
          "name": "",
          "type": "uint256"
        }
      ],
      "name": "tokenLocks",
      "outputs": [
        {
          "internalType": "uint128",
          "name": "amount",
          "type": "uint128"
        },
        {
          "internalType": "uint64",
          "name": "unlockTime",
          "type": "uint64"
        },
        {
          "internalType": "bool",
          "name": "withdrawn",
          "type": "bool"
        }
      ],
      "stateMutability": "view",
      "type": "function"
    },
    {
      "inputs": [],
      "name": "totalLockedTokens",
      "outputs": [
        {
          "internalType": "uint256",
          "name": "",
          "type": "uint256"
        }
      ],
      "stateMutability": "view",
      "type": "function"
    },
    {
      "inputs": [
        {
          "internalType": "address",
          "name": "newOwner",
          "type": "address"
        }
      ],
      "name": "transferOwnership",
      "outputs": [],
      "stateMutability": "nonpayable",
      "type": "function"
    },
    {
      "inputs": [
        {
          "internalType": "uint256",
          "name": "minTokensOut",
          "type": "uint256"
        },
        {
          "internalType": "uint256",
          "name": "deadline",
          "type": "uint256"
        }
      ],
      "name": "withdraw",
      "outputs": [],
      "stateMutability": "nonpayable",
      "type": "function"
    },
    {
      "inputs": [
        {
          "internalType": "uint256",
          "name": "lockIndex",
          "type": "uint256"
        }
      ],
      "name": "withdrawLockedTokens",
      "outputs": [],
      "stateMutability": "nonpayable",
      "type": "function"
    },
    {
      "inputs": [
        {
          "internalType": "uint256[]",
          "name": "lockIndices",
          "type": "uint256[]"
        }
      ],
      "name": "withdrawMultipleLockedTokens",
      "outputs": [],
      "stateMutability": "nonpayable",
      "type": "function"
    },
    {
      "stateMutability": "payable",
      "type": "receive"
    }
  ],
  "bytecode": "0x608034620000a057601f62001c2938819003918201601f19168301916001600160401b03831184841017620000a557808492602094604052833981010312620000a057516001600160a01b038116808203620000a0576200006033620000bb565b6001600255156200008e576200007690620000bb565b6301e13380600855604051611b1f90816200010a8239f35b60405163d92e233d60e01b8152600490fd5b600080fd5b634e487b7160e01b600052604160045260246000fd5b60018060a01b031990816001541660015560005460018060a01b038092168093821617600055167f8be0079c531659141344cd1fd0a4f28419497f9722a3daafe3b4186f6b6457e0600080a356fe608080604052600436101561005f575b50361561001b57600080fd5b3461002257005b61002e34600354611489565b6003556040513481527f245fe1eb32e123af60bb060411afebbc8f8ca19942357808a10775a1496c667e60203392a2005b600090813560e01c9081630455444314611368575080630758d9241461133f578063118e633214611321578063160d0da5146112ca5780631a465fe1146112a157806333f3d6281461124157806342057c9914611224578063441a3e7014610ada5780634eb665af14610a7d57806353a4df2a14610a4457806354941a35146109ee578063637823d4146108a4578063715018a61461083e57806379ba5097146107755780637bfdd589146107155780638da5cb5b146106ee578063946ca94914610690578063b0b5babe1461062b578063b53a077f1461060d578063bcb7838a1461058e578063cd96dd3f146104f9578063e1f1c4a7146104dc578063e30c3978146104b3578063e7e62bee146103a6578063f19000aa14610388578063f2bd88d31461027a578063f2fde38b1461020d578063f59eb2dc146101ef578063f5c476f9146101d15763fccc28130361000f57346101ce57806003193601126101ce57602060405161dead8152f35b80fd5b50346101ce57806003193601126101ce576020600a54604051908152f35b50346101ce57806003193601126101ce576020600654604051908152f35b50346101ce5760203660031901126101ce57610227611384565b61022f611431565b600180546001600160a01b0319166001600160a01b0392831690811790915582549091167f38d16b8cac22d99fc7c124b9cd0de2d3fa1faef420bfe791d8c362d765e227008380a380f35b50346101ce5760203660031901126101ce5760043561029761156a565b61029f611431565b600954811015610376576102b2816113e4565b5080549060ff8260c01c16610364576001600160401b038260801c1642106103525760ff60c01b198216600160c01b179055600a547f320f9da4dc1b587f05c45c8ad228af491ffce91e8fb6803eb926b78970013f71916020916001600160801b03909116906103239082906114ac565b600a5560045485546103439183916001600160a01b0390811691166115e9565b604051908152a2600160025580f35b604051630f0f585760e01b8152600490fd5b604051637907082d60e11b8152600490fd5b6040516303f6666760e51b8152600490fd5b50346101ce57806003193601126101ce576020600754604051908152f35b50346101ce5760a03660031901126101ce576103c0611384565b6024356001600160a01b03818116918290036104ae576044359260643591608435916103ea611431565b1691821561049c57831561049c57611388851161048a578115610478577f3742003bdf7b132da7b959b57ac9beb74ed2968f6d595ac3118f0f2ed7787e93948460a0956bffffffffffffffffffffffff871b8681600454161760045560055416176005558160065582600755836008556040519485526020850152604084015260608301526080820152a180f35b604051630f962f3d60e31b8152600490fd5b604051631f3b85d360e01b8152600490fd5b60405163d92e233d60e01b8152600490fd5b600080fd5b50346101ce57806003193601126101ce576001546040516001600160a01b039091168152602090f35b50346101ce57806003193601126101ce5760206040516127108152f35b50346101ce57610550610533916105186105123661139a565b90611963565b939294906105426040519788976080895260808901906113b0565b602094888203868a01526113b0565b9086820360408801526113b0565b9084820360608601528080855193848152019401925b82811061057557505050500390f35b8351151585528695509381019392810192600101610566565b5060203660031901126101ce5760043580156105fb578034036105e9576105b781600354611489565b6003556040519081527f245fe1eb32e123af60bb060411afebbc8f8ca19942357808a10775a1496c667e60203392a280f35b60405163201c04ab60e01b8152600490fd5b604051631f2a200560e01b8152600490fd5b50346101ce57806003193601126101ce576020600354604051908152f35b50346101ce5760203660031901126101ce57600435600954811015610376576106556080916113e4565b50546001600160401b0381831c1660ff604051926001600160801b038116845282602085015260c01c16151560408301524210156060820152f35b50346101ce5760203660031901126101ce57600435906009548210156101ce5760606106bb836113e4565b505460ff604051916001600160801b03811683526001600160401b038160801c16602084015260c01c1615156040820152f35b50346101ce57806003193601126101ce57546040516001600160a01b039091168152602090f35b50346101ce5760203660031901126101ce57600435610732611431565b611388811161048a5760407f898c72475b2d4ddc41a99571abcfd89e97f3c66e1034a17fa7a8837add93a87891600654908060065582519182526020820152a180f35b50346101ce57806003193601126101ce576001546001600160a01b0333818316036107e7576bffffffffffffffffffffffff60a01b8092166001556000549133908316176000553391167f8be0079c531659141344cd1fd0a4f28419497f9722a3daafe3b4186f6b6457e0600080a380f35b60405162461bcd60e51b815260206004820152602960248201527f4f776e61626c6532537465703a2063616c6c6572206973206e6f7420746865206044820152683732bb9037bbb732b960b91b6064820152608490fd5b50346101ce57806003193601126101ce57610857611431565b600180546001600160a01b0319908116909155600080549182168155906001600160a01b03167f8be0079c531659141344cd1fd0a4f28419497f9722a3daafe3b4186f6b6457e08280a380f35b50346101ce576020806003193601126109ea57600435906001600160401b03908183116109e657366023840112156109e6578260040135908282116109e2576024600594368285881b830101116109de576108fd61156a565b610905611431565b8695875b85811061095157888880610921575b50600160025580f35b8061093161094b92600a546114ac565b600a5560045483546001600160a01b0390811691166115e9565b81610918565b8381831b84010135906009548210156103765761096d826113e4565b5091825460ff8160c01c1661036457898160801c16421061035257876109d06001600160801b037f320f9da4dc1b587f05c45c8ad228af491ffce91e8fb6803eb926b78970013f71936001978860c01b60ff60c01b19831617905516809d611489565b9b604051908152a201610909565b8680fd5b8480fd5b8380fd5b5080fd5b50346101ce5760203660031901126101ce577f26e1a7263b9e45e83672290931e36ba6b6909bfb08be34ffc4af2765fb7616286040600435610a2e611431565b600754908060075582519182526020820152a180f35b50346101ce57610a5c610a563661139a565b9061181b565b90610a7960405192839283526040602084015260408301906113b0565b0390f35b50346101ce5760203660031901126101ce57600435610a9a611431565b80156104785760407f960da93dd9b69d9002b820a04d4dba66c8e69ce03fc13fcf89429fadd93607c891600854908060085582519182526020820152a180f35b50346101ce57610ae93661139a565b90610af261156a565b610afa611431565b60035490811561121257836003558391600654801515806111fe575b806111ea575b6111a9575b5082610b2c916114ac565b9282610ba4575b505081610b74575b60405191825260208201527fdba3075704a6834eaaf9d3215b423ea08bcf5b4e065493b54cdfba8c9203192d60403392a2600160025580f35b828080808560018060a01b038254165af1610b8d61152b565b50610b3b576040516327fcd9d160e01b8152600490fd5b80421161119757600480546040516370a0823160e01b815230928101929092526001600160a01b0316929091602083602481875afa92831561118c578793611158575b50604051606081018181106001600160401b03821117611144576040526002815260403660208301376005546040516315ab88c960e31b81526001600160a01b039091169290602081600481875afa908115611139578a916110f3575b508251156110df576001600160a01b031660208301528151600110156110cb57856040830152823b156110c75760405163b6f9de9560e01b8152600481019490945260806024850152815160848501819052899385939092899260a486019260200190875b81811061109f575050508492918391306044840152606483015203925af1801561106557611070575b506040516370a0823160e01b815230600482015290602082602481865afa8015611065578690611031575b610d0792506114ac565b90811561101f57610d1b8260011c836114ac565b908260011c610f08575b5080610d73575b7f42659a4aa613c1e350c764f0ff2be36a175ac2a1e4b77b8e1467d1fed32becc8916080916040519185835280602084015260011c60408301526060820152a13880610b33565b6001600160801b038111610ef657610d8d60085442611489565b600954906040518060608101106001600160401b03606083011117610ee057606081016040526001600160801b0384168152602081016001600160401b03831681526040820189815268010000000000000000851015610ecc5760018501600955610df7856113e4565b939093610eb857518354925191516001600160c81b03199093166001600160801b039190911617608091821b67ffffffffffffffff60801b161791151560c01b60ff60c01b1691909117909155600a547f42659a4aa613c1e350c764f0ff2be36a175ac2a1e4b77b8e1467d1fed32becc8959194919391927ff346961af4c52f314df1b45964746280fe409abb959d4a2458d58f79408b1fe89160409190610ea0908690611489565b600a558151908582526020820152a291509150610d2c565b634e487b7160e01b8b5260048b905260248bfd5b634e487b7160e01b8a52604160045260248afd5b634e487b7160e01b600052604160045260246000fd5b604051630625040160e01b8152600490fd5b610f8a90604051906000806020840163a9059cbb60e01b815261dead60248601528760011c604486015260448552610f3f856114b9565b60405194610f4c866114d4565b602086527f5361666545524332303a206c6f772d6c6576656c2063616c6c206661696c65646020870152519082855af1610f8461152b565b91611706565b8051908115918215610ffc575b505015610fa45738610d25565b60405162461bcd60e51b815260206004820152602a60248201527f5361666545524332303a204552433230206f7065726174696f6e20646964206e6044820152691bdd081cdd58d8d9595960b21b6064820152608490fd5b81925090602091810103126104ae576020015180151581036104ae573880610f97565b604051639671a89f60e01b8152600490fd5b506020823d60201161105d575b8161104b6020938361150a565b810103126104ae57610d079151610cfd565b3d915061103e565b6040513d88823e3d90fd5b6001600160401b03819692961161108b576040529338610cd2565b634e487b7160e01b82526041600452602482fd5b82516001600160a01b031685528e98508997508c955060209485019490920191600101610ca9565b8880fd5b634e487b7160e01b89526032600452602489fd5b634e487b7160e01b8a52603260045260248afd5b90506020813d602011611131575b8161110e6020938361150a565b8101031261112d57516001600160a01b038116810361112d5738610c44565b8980fd5b3d9150611101565b6040513d8c823e3d90fd5b634e487b7160e01b89526041600452602489fd5b9092506020813d602011611184575b816111746020938361150a565b810103126109de57519138610be7565b3d9150611167565b6040513d89823e3d90fd5b604051631ab7da6b60e01b8152600490fd5b81819294500290838204036111d65761271090049160075483106111ce575b38610b21565b8492506111c8565b634e487b7160e01b85526011600452602485fd5b506005546001600160a01b03161515610b1c565b506004546001600160a01b03161515610b16565b604051630879b51160e31b8152600490fd5b50346101ce57806003193601126101ce5760206040516113888152f35b50346101ce5760403660031901126101ce5761125b611384565b611263611431565b6004546001600160a01b0391821691908116821461128f5761128c9160243591845416906115e9565b80f35b6040516305d5c99f60e41b8152600490fd5b50346101ce57806003193601126101ce576004546040516001600160a01b039091168152602090f35b50346101ce57806003193601126101ce5760065415158061130d575b806112f9575b6020906040519015158152f35b506005546001600160a01b031615156112ec565b506004546001600160a01b031615156112e6565b50346101ce57806003193601126101ce576020600954604051908152f35b50346101ce57806003193601126101ce576005546040516001600160a01b039091168152602090f35b9050346109ea57816003193601126109ea576020906008548152f35b600435906001600160a01b03821682036104ae57565b60409060031901126104ae576004359060243590565b90815180825260208080930193019160005b8281106113d0575050505090565b8351855293810193928101926001016113c2565b60095481101561141b5760096000527f6e1540171b6c0c960b71a7020d9f60077f6af931a8bbf590da0223dacf75c7af0190600090565b634e487b7160e01b600052603260045260246000fd5b6000546001600160a01b0316330361144557565b606460405162461bcd60e51b815260206004820152602060248201527f4f776e61626c653a2063616c6c6572206973206e6f7420746865206f776e65726044820152fd5b9190820180921161149657565b634e487b7160e01b600052601160045260246000fd5b9190820391821161149657565b608081019081106001600160401b03821117610ee057604052565b604081019081106001600160401b03821117610ee057604052565b602081019081106001600160401b03821117610ee057604052565b90601f801991011681019081106001600160401b03821117610ee057604052565b3d15611565573d906001600160401b038211610ee05760405191611559601f8201601f19166020018461150a565b82523d6000602084013e565b606090565b60028054146115795760028055565b60405162461bcd60e51b815260206004820152601f60248201527f5265656e7472616e637947756172643a207265656e7472616e742063616c6c006044820152606490fd5b6001600160401b038111610ee05760051b60200190565b805182101561141b5760209160051b010190565b60405163a9059cbb60e01b60208083019182526001600160a01b0394851660248401526044808401969096529482529261167092611626836114b9565b1660405191611634836114d4565b8583527f5361666545524332303a206c6f772d6c6576656c2063616c6c206661696c656486840152600080958192519082855af1610f8461152b565b8051918215918483156116e2575b50505090501561168b5750565b6084906040519062461bcd60e51b82526004820152602a60248201527f5361666545524332303a204552433230206f7065726174696f6e20646964206e6044820152691bdd081cdd58d8d9595960b21b6064820152fd5b9193818094500103126109ea578201519081151582036101ce57508038808461167e565b91929015611768575081511561171a575090565b3b156117235790565b60405162461bcd60e51b815260206004820152601d60248201527f416464726573733a2063616c6c20746f206e6f6e2d636f6e74726163740000006044820152606490fd5b82519091501561177b5750805190602001fd5b6040519062461bcd60e51b82528160208060048301528251908160248401526000935b8285106117c1575050604492506000838284010152601f80199101168101030190fd5b848101820151868601604401529381019385935061179e565b906117e4826115be565b6117f1604051918261150a565b8281528092611802601f19916115be565b0190602036910137565b60001981146114965760010190565b90916000926000926009549182821015611945576118399082611489565b9180831161193d575b5083815b8381106118e45750611857906117da565b93905b82811061186657505050565b60ff611871826113e4565b505460c01c1615806118c4575b61188b575b60010161185a565b909460016118ba81928461189f8a8a6115d5565b526001600160801b036118b1866113e4565b50541690611489565b9601919050611883565b506001600160401b036118d6826113e4565b505460801c1642101561187e565b60ff6118ef826113e4565b505460c01c16158061191d575b611909575b600101611846565b9061191560019161180c565b919050611901565b506001600160401b0361192f826113e4565b505460801c164210156118fc565b915038611842565b50505090915060405191611958836114ef565b808352803681379190565b6009549182821015611a9c576119799082611489565b91808311611a94575b50600090805b838110611a615750611999826117da565b936119a3836117da565b936119b66119b0856117da565b946117da565b926000905b8281106119c757505050565b60ff6119d2826113e4565b505460c01c16156119e6575b6001016119bb565b90600181836119f683948c6115d5565b526001600160801b03611a08856113e4565b505416611a15828b6115d5565b52611a1f846113e4565b506001600160401b03905481608091821c16611a3b848c6115d5565b52611a45866113e4565b5054901c16421015611a5782896115d5565b52019190506119de565b60ff611a6c826113e4565b505460c01c1615611a80575b600101611988565b91611a8c60019161180c565b929050611a78565b915038611982565b505050604051611aab816114ef565b600080825260405192611abd846114ef565b81845260405192611acd846114ef565b82845260405192611add846114ef565b8084523681379392919056fea2646970667358221220e84b3b5e07f45121511bd416bafd7d842f5358867e0d4440f9d0575a88385d5f64736f6c63430008130033",
  "linkReferences": {},
  "deployedLinkReferences": {}
}