{
  "_format": "hh-sol-artifact-1",
  "contractName": "RewardsFlywheel",
  "sourceName": "contracts/RewardsFlywheel.sol",
  "abi": [
    {
      "inputs": [
        {
          "internalType": "address",
          "name": "_protocolManager",
          "type": "address"
        }
      ],
      "stateMutability": "nonpayable",
      "type": "constructor"
    },
    {
      "anonymous": false,
      "inputs": [
        {
          "indexed": true,
          "internalType": "address",
          "name": "token",
          "type": "address"
        },
        {
          "indexed": false,
          "internalType": "uint128",
          "name": "oldAmount",
          "type": "uint128"
        },
        {
          "indexed": false,
          "internalType": "uint128",
          "name": "newAmount",
          "type": "uint128"
        }
      ],
      "name": "CreatorRewardAmountUpdated",
      "type": "event"
    },
    {
      "anonymous": false,
      "inputs": [
        {
          "indexed": true,
          "internalType": "address",
          "name": "pool",
          "type": "address"
        },
        {
          "indexed": true,
          "internalType": "address",
          "name": "creator",
          "type": "address"
        },
        {
          "indexed": true,
          "internalType": "address",
          "name": "token",
          "type": "address"
        },
        {
          "indexed": false,
          "internalType": "uint256",
          "name": "amount",
          "type": "uint256"
        },
        {
          "indexed": false,
          "internalType": "uint256",
          "name": "fillPercentage",
          "type": "uint256"
        }
      ],
      "name": "CreatorRewardsClaimed",
      "type": "event"
    },
    {
      "anonymous": false,
      "inputs": [
        {
          "indexed": true,
          "internalType": "address",
          "name": "token",
          "type": "address"
        },
        {
          "indexed": false,
          "internalType": "uint256",
          "name": "amount",
          "type": "uint256"
        },
        {
          "indexed": false,
          "internalType": "uint128",
          "name": "rewardAmount",
          "type": "uint128"
        },
        {
          "indexed": false,
          "internalType": "uint256",
          "name": "eligiblePoolCount",
          "type": "uint256"
        }
      ],
      "name": "CreatorRewardsDeposited",
      "type": "event"
    },
    {
      "anonymous": false,
      "inputs": [
        {
          "indexed": true,
          "internalType": "address",
          "name": "token",
          "type": "address"
        },
        {
          "indexed": false,
          "internalType": "uint256",
          "name": "amount",
          "type": "uint256"
        }
      ],
      "name": "CreatorRewardsWithdrawn",
      "type": "event"
    },
    {
      "anonymous": false,
      "inputs": [],
      "name": "PointsClaimsActivated",
      "type": "event"
    },
    {
      "anonymous": false,
      "inputs": [
        {
          "indexed": true,
          "internalType": "address",
          "name": "user",
          "type": "address"
        },
        {
          "indexed": false,
          "internalType": "uint256",
          "name": "pointsClaimed",
          "type": "uint256"
        },
        {
          "indexed": false,
          "internalType": "uint256",
          "name": "tokenAmount",
          "type": "uint256"
        }
      ],
      "name": "PointsRewardClaimed",
      "type": "event"
    },
    {
      "anonymous": false,
      "inputs": [
        {
          "indexed": true,
          "internalType": "address",
          "name": "token",
          "type": "address"
        },
        {
          "indexed": false,
          "internalType": "uint256",
          "name": "amount",
          "type": "uint256"
        }
      ],
      "name": "PointsRewardTokenDeposited",
      "type": "event"
    },
    {
      "anonymous": false,
      "inputs": [
        {
          "indexed": false,
          "internalType": "bool",
          "name": "active",
          "type": "bool"
        }
      ],
      "name": "PointsSystemActivated",
      "type": "event"
    },
    {
      "anonymous": false,
      "inputs": [
        {
          "indexed": true,
          "internalType": "address",
          "name": "token",
          "type": "address"
        },
        {
          "indexed": false,
          "internalType": "uint256",
          "name": "minMultiplierBalance",
          "type": "uint256"
        }
      ],
      "name": "ProtocolTokenUpdated",
      "type": "event"
    },
    {
      "anonymous": false,
      "inputs": [
        {
          "indexed": true,
          "internalType": "address",
          "name": "pool",
          "type": "address"
        },
        {
          "indexed": false,
          "internalType": "uint256",
          "name": "rewardPerSlot",
          "type": "uint256"
        },
        {
          "indexed": false,
          "internalType": "uint256",
          "name": "totalEligibleSlots",
          "type": "uint256"
        }
      ],
      "name": "RewardPerSlotCalculated",
      "type": "event"
    },
    {
      "anonymous": false,
      "inputs": [
        {
          "indexed": true,
          "internalType": "address",
          "name": "pool",
          "type": "address"
        },
        {
          "indexed": true,
          "internalType": "address",
          "name": "user",
          "type": "address"
        },
        {
          "indexed": true,
          "internalType": "address",
          "name": "token",
          "type": "address"
        },
        {
          "indexed": false,
          "internalType": "uint256",
          "name": "amount",
          "type": "uint256"
        }
      ],
      "name": "RewardsClaimed",
      "type": "event"
    },
    {
      "anonymous": false,
      "inputs": [
        {
          "indexed": true,
          "internalType": "address",
          "name": "pool",
          "type": "address"
        },
        {
          "indexed": true,
          "internalType": "address",
          "name": "token",
          "type": "address"
        },
        {
          "indexed": false,
          "internalType": "uint256",
          "name": "amount",
          "type": "uint256"
        },
        {
          "indexed": true,
          "internalType": "address",
          "name": "depositor",
          "type": "address"
        }
      ],
      "name": "RewardsDeposited",
      "type": "event"
    },
    {
      "anonymous": false,
      "inputs": [
        {
          "indexed": true,
          "internalType": "address",
          "name": "pool",
          "type": "address"
        },
        {
          "indexed": true,
          "internalType": "address",
          "name": "token",
          "type": "address"
        },
        {
          "indexed": false,
          "internalType": "uint256",
          "name": "amount",
          "type": "uint256"
        },
        {
          "indexed": true,
          "internalType": "address",
          "name": "depositor",
          "type": "address"
        }
      ],
      "name": "RewardsWithdrawn",
      "type": "event"
    },
    {
      "inputs": [],
      "name": "activatePointsClaims",
      "outputs": [],
      "stateMutability": "nonpayable",
      "type": "function"
    },
    {
      "inputs": [
        {
          "internalType": "address",
          "name": "pool",
          "type": "address"
        }
      ],
      "name": "allocateCreatorPoints",
      "outputs": [],
      "stateMutability": "nonpayable",
      "type": "function"
    },
    {
      "inputs": [
        {
          "internalType": "address",
          "name": "pool",
          "type": "address"
        },
        {
          "internalType": "address",
          "name": "user",
          "type": "address"
        },
        {
          "internalType": "uint256",
          "name": "slots",
          "type": "uint256"
        }
      ],
      "name": "allocateParticipantPoints",
      "outputs": [],
      "stateMutability": "nonpayable",
      "type": "function"
    },
    {
      "inputs": [
        {
          "internalType": "address",
          "name": "pool",
          "type": "address"
        },
        {
          "internalType": "address",
          "name": "token",
          "type": "address"
        }
      ],
      "name": "claimCreatorRewards",
      "outputs": [],
      "stateMutability": "nonpayable",
      "type": "function"
    },
    {
      "inputs": [],
      "name": "claimPointsRewards",
      "outputs": [],
      "stateMutability": "nonpayable",
      "type": "function"
    },
    {
      "inputs": [
        {
          "internalType": "address",
          "name": "pool",
          "type": "address"
        }
      ],
      "name": "claimRewards",
      "outputs": [],
      "stateMutability": "nonpayable",
      "type": "function"
    },
    {
      "inputs": [
        {
          "internalType": "address",
          "name": "",
          "type": "address"
        },
        {
          "internalType": "address",
          "name": "",
          "type": "address"
        },
        {
          "internalType": "address",
          "name": "",
          "type": "address"
        }
      ],
      "name": "creatorHasClaimed",
      "outputs": [
        {
          "internalType": "bool",
          "name": "",
          "type": "bool"
        }
      ],
      "stateMutability": "view",
      "type": "function"
    },
    {
      "inputs": [
        {
          "internalType": "address",
          "name": "",
          "type": "address"
        }
      ],
      "name": "creatorPointsAllocated",
      "outputs": [
        {
          "internalType": "bool",
          "name": "",
          "type": "bool"
        }
      ],
      "stateMutability": "view",
      "type": "function"
    },
    {
      "inputs": [
        {
          "internalType": "address",
          "name": "",
          "type": "address"
        },
        {
          "internalType": "uint256",
          "name": "",
          "type": "uint256"
        }
      ],
      "name": "creatorRewardBatches",
      "outputs": [
        {
          "internalType": "uint128",
          "name": "rewardAmountPerPool",
          "type": "uint128"
        },
        {
          "internalType": "uint256",
          "name": "depositTimestamp",
          "type": "uint256"
        },
        {
          "internalType": "uint256",
          "name": "eligiblePoolCount",
          "type": "uint256"
        },
        {
          "internalType": "uint256",
          "name": "claimedCount",
          "type": "uint256"
        },
        {
          "internalType": "uint256",
          "name": "totalDeposited",
          "type": "uint256"
        }
      ],
      "stateMutability": "view",
      "type": "function"
    },
    {
      "inputs": [
        {
          "internalType": "address",
          "name": "",
          "type": "address"
        }
      ],
      "name": "creatorRewardReservedTotal",
      "outputs": [
        {
          "internalType": "uint256",
          "name": "",
          "type": "uint256"
        }
      ],
      "stateMutability": "view",
      "type": "function"
    },
    {
      "inputs": [
        {
          "internalType": "address",
          "name": "",
          "type": "address"
        }
      ],
      "name": "creatorRewardTokenBalance",
      "outputs": [
        {
          "internalType": "uint256",
          "name": "",
          "type": "uint256"
        }
      ],
      "stateMutability": "view",
      "type": "function"
    },
    {
      "inputs": [
        {
          "internalType": "uint256",
          "name": "",
          "type": "uint256"
        }
      ],
      "name": "creatorRewardTokens",
      "outputs": [
        {
          "internalType": "address",
          "name": "",
          "type": "address"
        }
      ],
      "stateMutability": "view",
      "type": "function"
    },
    {
      "inputs": [
        {
          "internalType": "address",
          "name": "token",
          "type": "address"
        },
        {
          "internalType": "uint256",
          "name": "amount",
          "type": "uint256"
        },
        {
          "internalType": "uint128",
          "name": "rewardAmountPerPool",
          "type": "uint128"
        },
        {
          "internalType": "uint256",
          "name": "eligiblePoolCount",
          "type": "uint256"
        }
      ],
      "name": "depositCreatorRewards",
      "outputs": [],
      "stateMutability": "nonpayable",
      "type": "function"
    },
    {
      "inputs": [
        {
          "internalType": "address",
          "name": "pool",
          "type": "address"
        },
        {
          "internalType": "address",
          "name": "token",
          "type": "address"
        },
        {
          "internalType": "uint256",
          "name": "amount",
          "type": "uint256"
        }
      ],
      "name": "depositERC20Rewards",
      "outputs": [],
      "stateMutability": "nonpayable",
      "type": "function"
    },
    {
      "inputs": [
        {
          "internalType": "address",
          "name": "pool",
          "type": "address"
        }
      ],
      "name": "depositNativeRewards",
      "outputs": [],
      "stateMutability": "payable",
      "type": "function"
    },
    {
      "inputs": [
        {
          "internalType": "address",
          "name": "token",
          "type": "address"
        },
        {
          "internalType": "uint256",
          "name": "amount",
          "type": "uint256"
        }
      ],
      "name": "depositPointsRewardToken",
      "outputs": [],
      "stateMutability": "nonpayable",
      "type": "function"
    },
    {
      "inputs": [
        {
          "internalType": "address",
          "name": "token",
          "type": "address"
        },
        {
          "internalType": "uint256",
          "name": "amount",
          "type": "uint256"
        }
      ],
      "name": "emergencyWithdrawCreatorRewards",
      "outputs": [],
      "stateMutability": "nonpayable",
      "type": "function"
    },
    {
      "inputs": [
        {
          "internalType": "address",
          "name": "user",
          "type": "address"
        }
      ],
      "name": "getClaimablePointsReward",
      "outputs": [
        {
          "internalType": "uint256",
          "name": "claimablePoints",
          "type": "uint256"
        },
        {
          "internalType": "uint256",
          "name": "tokenAmount",
          "type": "uint256"
        }
      ],
      "stateMutability": "view",
      "type": "function"
    },
    {
      "inputs": [
        {
          "internalType": "address",
          "name": "pool",
          "type": "address"
        },
        {
          "internalType": "address",
          "name": "user",
          "type": "address"
        }
      ],
      "name": "getClaimableReward",
      "outputs": [
        {
          "internalType": "uint256",
          "name": "",
          "type": "uint256"
        }
      ],
      "stateMutability": "view",
      "type": "function"
    },
    {
      "inputs": [
        {
          "internalType": "address",
          "name": "pool",
          "type": "address"
        },
        {
          "internalType": "address",
          "name": "token",
          "type": "address"
        }
      ],
      "name": "getCreatorClaimableAmount",
      "outputs": [
        {
          "internalType": "uint256",
          "name": "",
          "type": "uint256"
        }
      ],
      "stateMutability": "view",
      "type": "function"
    },
    {
      "inputs": [
        {
          "internalType": "address",
          "name": "token",
          "type": "address"
        },
        {
          "internalType": "uint256",
          "name": "batchIndex",
          "type": "uint256"
        }
      ],
      "name": "getCreatorRewardBatch",
      "outputs": [
        {
          "internalType": "uint128",
          "name": "rewardAmountPerPool",
          "type": "uint128"
        },
        {
          "internalType": "uint256",
          "name": "depositTimestamp",
          "type": "uint256"
        },
        {
          "internalType": "uint256",
          "name": "eligiblePoolCount",
          "type": "uint256"
        },
        {
          "internalType": "uint256",
          "name": "claimedCount",
          "type": "uint256"
        },
        {
          "internalType": "uint256",
          "name": "totalDeposited",
          "type": "uint256"
        }
      ],
      "stateMutability": "view",
      "type": "function"
    },
    {
      "inputs": [
        {
          "internalType": "address",
          "name": "token",
          "type": "address"
        }
      ],
      "name": "getCreatorRewardBatchCount",
      "outputs": [
        {
          "internalType": "uint256",
          "name": "",
          "type": "uint256"
        }
      ],
      "stateMutability": "view",
      "type": "function"
    },
    {
      "inputs": [
        {
          "internalType": "address",
          "name": "token",
          "type": "address"
        }
      ],
      "name": "getCreatorRewardConfig",
      "outputs": [
        {
          "internalType": "uint128",
          "name": "latestRewardAmount",
          "type": "uint128"
        },
        {
          "internalType": "uint256",
          "name": "totalBalance",
          "type": "uint256"
        },
        {
          "internalType": "uint256",
          "name": "batchCount",
          "type": "uint256"
        }
      ],
      "stateMutability": "view",
      "type": "function"
    },
    {
      "inputs": [],
      "name": "getCreatorRewardTokens",
      "outputs": [
        {
          "internalType": "address[]",
          "name": "",
          "type": "address[]"
        }
      ],
      "stateMutability": "view",
      "type": "function"
    },
    {
      "inputs": [
        {
          "internalType": "address",
          "name": "token",
          "type": "address"
        }
      ],
      "name": "getCreatorRewardWithdrawableAmount",
      "outputs": [
        {
          "internalType": "uint256",
          "name": "available",
          "type": "uint256"
        },
        {
          "internalType": "uint256",
          "name": "reserved",
          "type": "uint256"
        },
        {
          "internalType": "uint256",
          "name": "total",
          "type": "uint256"
        }
      ],
      "stateMutability": "view",
      "type": "function"
    },
    {
      "inputs": [],
      "name": "getGlobalCooldownInfo",
      "outputs": [
        {
          "internalType": "uint256",
          "name": "currentPeriodStart",
          "type": "uint256"
        },
        {
          "internalType": "uint256",
          "name": "nextPeriodStart",
          "type": "uint256"
        }
      ],
      "stateMutability": "view",
      "type": "function"
    },
    {
      "inputs": [],
      "name": "getPointsSystemInfo",
      "outputs": [
        {
          "internalType": "bool",
          "name": "active",
          "type": "bool"
        },
        {
          "internalType": "bool",
          "name": "claimsActive",
          "type": "bool"
        },
        {
          "internalType": "address",
          "name": "token",
          "type": "address"
        },
        {
          "internalType": "uint256",
          "name": "rate",
          "type": "uint256"
        },
        {
          "internalType": "uint256",
          "name": "totalDeposited",
          "type": "uint256"
        }
      ],
      "stateMutability": "view",
      "type": "function"
    },
    {
      "inputs": [
        {
          "internalType": "address",
          "name": "pool",
          "type": "address"
        }
      ],
      "name": "getRewardInfo",
      "outputs": [
        {
          "internalType": "uint256",
          "name": "totalDeposited",
          "type": "uint256"
        },
        {
          "internalType": "uint256",
          "name": "rewardPerSlot",
          "type": "uint256"
        },
        {
          "internalType": "uint256",
          "name": "totalEligibleSlots",
          "type": "uint256"
        },
        {
          "internalType": "uint256",
          "name": "claimedSlots",
          "type": "uint256"
        }
      ],
      "stateMutability": "view",
      "type": "function"
    },
    {
      "inputs": [
        {
          "internalType": "address",
          "name": "user",
          "type": "address"
        }
      ],
      "name": "getTimeUntilNextClaim",
      "outputs": [
        {
          "internalType": "uint256",
          "name": "secondsRemaining",
          "type": "uint256"
        }
      ],
      "stateMutability": "view",
      "type": "function"
    },
    {
      "inputs": [
        {
          "internalType": "address",
          "name": "user",
          "type": "address"
        }
      ],
      "name": "getUserPoints",
      "outputs": [
        {
          "internalType": "uint256",
          "name": "totalPoints",
          "type": "uint256"
        },
        {
          "internalType": "uint256",
          "name": "claimedPoints",
          "type": "uint256"
        },
        {
          "internalType": "uint256",
          "name": "lastClaimTime",
          "type": "uint256"
        }
      ],
      "stateMutability": "view",
      "type": "function"
    },
    {
      "inputs": [
        {
          "internalType": "address",
          "name": "pool",
          "type": "address"
        },
        {
          "internalType": "address",
          "name": "user",
          "type": "address"
        }
      ],
      "name": "hasClaimed",
      "outputs": [
        {
          "internalType": "bool",
          "name": "",
          "type": "bool"
        }
      ],
      "stateMutability": "view",
      "type": "function"
    },
    {
      "inputs": [
        {
          "internalType": "address",
          "name": "pool",
          "type": "address"
        }
      ],
      "name": "isCreatorPointsAllocated",
      "outputs": [
        {
          "internalType": "bool",
          "name": "",
          "type": "bool"
        }
      ],
      "stateMutability": "view",
      "type": "function"
    },
    {
      "inputs": [
        {
          "internalType": "address",
          "name": "pool",
          "type": "address"
        },
        {
          "internalType": "address",
          "name": "user",
          "type": "address"
        }
      ],
      "name": "isParticipantPointsAllocated",
      "outputs": [
        {
          "internalType": "bool",
          "name": "",
          "type": "bool"
        }
      ],
      "stateMutability": "view",
      "type": "function"
    },
    {
      "inputs": [],
      "name": "lastGlobalClaimReset",
      "outputs": [
        {
          "internalType": "uint256",
          "name": "",
          "type": "uint256"
        }
      ],
      "stateMutability": "view",
      "type": "function"
    },
    {
      "inputs": [],
      "name": "minMultiplierBalance",
      "outputs": [
        {
          "internalType": "uint256",
          "name": "",
          "type": "uint256"
        }
      ],
      "stateMutability": "view",
      "type": "function"
    },
    {
      "inputs": [
        {
          "internalType": "address",
          "name": "",
          "type": "address"
        },
        {
          "internalType": "address",
          "name": "",
          "type": "address"
        }
      ],
      "name": "participantPointsAllocated",
      "outputs": [
        {
          "internalType": "bool",
          "name": "",
          "type": "bool"
        }
      ],
      "stateMutability": "view",
      "type": "function"
    },
    {
      "inputs": [],
      "name": "pointsClaimsActive",
      "outputs": [
        {
          "internalType": "bool",
          "name": "",
          "type": "bool"
        }
      ],
      "stateMutability": "view",
      "type": "function"
    },
    {
      "inputs": [],
      "name": "pointsPerToken",
      "outputs": [
        {
          "internalType": "uint256",
          "name": "",
          "type": "uint256"
        }
      ],
      "stateMutability": "view",
      "type": "function"
    },
    {
      "inputs": [],
      "name": "pointsRewardBalance",
      "outputs": [
        {
          "internalType": "uint256",
          "name": "",
          "type": "uint256"
        }
      ],
      "stateMutability": "view",
      "type": "function"
    },
    {
      "inputs": [],
      "name": "pointsRewardToken",
      "outputs": [
        {
          "internalType": "address",
          "name": "",
          "type": "address"
        }
      ],
      "stateMutability": "view",
      "type": "function"
    },
    {
      "inputs": [],
      "name": "pointsSystemActive",
      "outputs": [
        {
          "internalType": "bool",
          "name": "",
          "type": "bool"
        }
      ],
      "stateMutability": "view",
      "type": "function"
    },
    {
      "inputs": [
        {
          "internalType": "address",
          "name": "",
          "type": "address"
        },
        {
          "internalType": "address",
          "name": "",
          "type": "address"
        }
      ],
      "name": "poolClaimedBatchId",
      "outputs": [
        {
          "internalType": "uint256",
          "name": "",
          "type": "uint256"
        }
      ],
      "stateMutability": "view",
      "type": "function"
    },
    {
      "inputs": [
        {
          "internalType": "address",
          "name": "",
          "type": "address"
        }
      ],
      "name": "poolRewards",
      "outputs": [
        {
          "internalType": "uint128",
          "name": "totalDeposited",
          "type": "uint128"
        },
        {
          "internalType": "uint128",
          "name": "rewardPerSlot",
          "type": "uint128"
        },
        {
          "internalType": "uint32",
          "name": "totalEligibleSlots",
          "type": "uint32"
        },
        {
          "internalType": "uint32",
          "name": "claimedSlots",
          "type": "uint32"
        },
        {
          "internalType": "uint128",
          "name": "totalClaimedAmount",
          "type": "uint128"
        },
        {
          "internalType": "address",
          "name": "token",
          "type": "address"
        },
        {
          "internalType": "address",
          "name": "depositor",
          "type": "address"
        },
        {
          "internalType": "bool",
          "name": "rewardPerSlotCalculated",
          "type": "bool"
        }
      ],
      "stateMutability": "view",
      "type": "function"
    },
    {
      "inputs": [],
      "name": "protocolManager",
      "outputs": [
        {
          "internalType": "contract IProtocolManager",
          "name": "",
          "type": "address"
        }
      ],
      "stateMutability": "view",
      "type": "function"
    },
    {
      "inputs": [],
      "name": "protocolToken",
      "outputs": [
        {
          "internalType": "address",
          "name": "",
          "type": "address"
        }
      ],
      "stateMutability": "view",
      "type": "function"
    },
    {
      "inputs": [
        {
          "internalType": "uint256",
          "name": "rate",
          "type": "uint256"
        }
      ],
      "name": "setPointsPerToken",
      "outputs": [],
      "stateMutability": "nonpayable",
      "type": "function"
    },
    {
      "inputs": [
        {
          "internalType": "bool",
          "name": "active",
          "type": "bool"
        }
      ],
      "name": "setPointsSystemActive",
      "outputs": [],
      "stateMutability": "nonpayable",
      "type": "function"
    },
    {
      "inputs": [
        {
          "internalType": "address",
          "name": "token",
          "type": "address"
        },
        {
          "internalType": "uint256",
          "name": "minBalance",
          "type": "uint256"
        }
      ],
      "name": "setProtocolToken",
      "outputs": [],
      "stateMutability": "nonpayable",
      "type": "function"
    },
    {
      "inputs": [],
      "name": "totalPointsAllocated",
      "outputs": [
        {
          "internalType": "uint256",
          "name": "",
          "type": "uint256"
        }
      ],
      "stateMutability": "view",
      "type": "function"
    },
    {
      "inputs": [],
      "name": "totalPointsClaimed",
      "outputs": [
        {
          "internalType": "uint256",
          "name": "",
          "type": "uint256"
        }
      ],
      "stateMutability": "view",
      "type": "function"
    },
    {
      "inputs": [
        {
          "internalType": "address",
          "name": "token",
          "type": "address"
        },
        {
          "internalType": "uint128",
          "name": "newAmount",
          "type": "uint128"
        }
      ],
      "name": "updateCreatorRewardAmount",
      "outputs": [],
      "stateMutability": "nonpayable",
      "type": "function"
    },
    {
      "inputs": [
        {
          "internalType": "address",
          "name": "",
          "type": "address"
        }
      ],
      "name": "userClaimedPoints",
      "outputs": [
        {
          "internalType": "uint256",
          "name": "",
          "type": "uint256"
        }
      ],
      "stateMutability": "view",
      "type": "function"
    },
    {
      "inputs": [
        {
          "internalType": "address",
          "name": "",
          "type": "address"
        },
        {
          "internalType": "address",
          "name": "",
          "type": "address"
        }
      ],
      "name": "userHasClaimed",
      "outputs": [
        {
          "internalType": "bool",
          "name": "",
          "type": "bool"
        }
      ],
      "stateMutability": "view",
      "type": "function"
    },
    {
      "inputs": [
        {
          "internalType": "address",
          "name": "",
          "type": "address"
        }
      ],
      "name": "userLastClaimTime",
      "outputs": [
        {
          "internalType": "uint256",
          "name": "",
          "type": "uint256"
        }
      ],
      "stateMutability": "view",
      "type": "function"
    },
    {
      "inputs": [
        {
          "internalType": "address",
          "name": "",
          "type": "address"
        }
      ],
      "name": "userTotalPoints",
      "outputs": [
        {
          "internalType": "uint256",
          "name": "",
          "type": "uint256"
        }
      ],
      "stateMutability": "view",
      "type": "function"
    },
    {
      "inputs": [
        {
          "internalType": "address",
          "name": "token",
          "type": "address"
        },
        {
          "internalType": "uint256",
          "name": "amount",
          "type": "uint256"
        }
      ],
      "name": "withdrawCreatorRewardsToken",
      "outputs": [],
      "stateMutability": "nonpayable",
      "type": "function"
    },
    {
      "inputs": [
        {
          "internalType": "address",
          "name": "pool",
          "type": "address"
        }
      ],
      "name": "withdrawDepositedRewards",
      "outputs": [],
      "stateMutability": "nonpayable",
      "type": "function"
    },
    {
      "inputs": [
        {
          "internalType": "uint256",
          "name": "amount",
          "type": "uint256"
        }
      ],
      "name": "withdrawPointsRewardToken",
      "outputs": [],
      "stateMutability": "nonpayable",
      "type": "function"
    },
    {
      "stateMutability": "payable",
      "type": "receive"
    }
  ],
  "bytecode": "0x60a0346200012c57601f62004e9838819003918201601f19168301916001600160401b0383118484101762000131578084926020946040528339810103126200012c57516001600160a01b038116908190036200012c5760016000558015620000e757608052604051614d509081620001488239608051818181610a6e01528181610b6d01528181610fcd015281816112370152818161140b015281816115a2015281816116d801528181611ada0152818161249c0152818161286901528181613164015281816132a7015281816133a201528181613646015281816144180152614cbd0152f35b60405162461bcd60e51b815260206004820152601860248201527f496e76616c69642070726f746f636f6c206d616e6167657200000000000000006044820152606490fd5b600080fd5b634e487b7160e01b600052604160045260246000fdfe60806040818152600480361015610021575b505050361561001f57600080fd5b005b600092833560e01c90816306032d7414613aca57508063069770ba14613aab57806306ab471014613a6257806306ef78121461360a57806312be62c3146135eb578063168ecc46146135c757806319677505146135875780631a465fe11461355e5780631d581d211461349857806321e91dea1461346a5780632363783a146134355780632812ebce146133665780632922a0ef1461327b5780632cddef46146123825780632ea8ed7f1461312657806331294fde146131075780633786ca91146130cf5780633e5d604a146123df57806346ad5edd14612dbd5780634fcb6f3a14612d9e578063521381fd14612d4a578063556cb5d7146123345780635bbd564614612cd657806363a568e114612b60578063643ea5de14612a5d5780636d07b7e514612a375780636e15a1f9146129ee5780636e43ade2146128195780636e4e881c1461276e5780637505fc8914612465578063766b00721461242d5780637aa2a336146123df5780637abf5f99146123c05780637e2276da1461238257806389266f60146123345780638a096a5d1461230d5780638a19fa57146122a057806390eeb4b61461227957806394a59d8f146121a257806397b55ffd14611a895780639a60de7d14611a515780639c1e1dd9146117f9578063a5866809146117cc578063a6ecbaf914611707578063ab4b6692146116c3578063aeefe31f14611667578063b2e5167e14611632578063b536ae5e14611570578063be8d8aee14611551578063c8011f7514611519578063cfeb45ba146113cd578063d7ccae2714611203578063dc192c5614610f90578063dcefcfff14610f58578063dd5aba4b14610ebb578063dd674d8314610b11578063ef16263814610a325763ef5cfb8c0361001157346108a557602080600319360112610a2e576102c2613b2f565b906102cb614097565b6001600160a01b039182168086526001825284862080549193916001600160801b0390811680156109f45785895260028552878920338a52855261031560ff898b20541615614214565b875163c19d93fb60e01b8152858189818a5afa908115610689578a916109c7575b506008811015806109a7576005821415806109ba575b8181610996575b501561095a57610947578088610372921490811561093c575b5061426a565b600383019081549160ff8360a01c1615610693575b505050865195630214865d60e21b87523381880152602491858884818a5afa978815610689578a98610656575b50871561062057885163d17d135960e01b808252338483015290878186818c5afa908115610616578c916105e5575b50156105d05789519081523383820152868185818b5afa9081156105c6578b91610595575b50808911156105535761041e610429918a613fca565b855460801c90613d15565b60021c975b610439891515614332565b878b5260028752898b20338c528752898b20600160ff19825416179055600185019384549363ffffffff80931683868b1c1601928311610542575050918877ffffffffffffffffffffffffffffffff00000000000000006104e38c856002989667ffffffff000000008d9c9b997f5637d7f962248a7f05a7ab69eec6446e31f3d0a299d997f135a65c62806e78919e1b169516918567ffffffff0000000019881617901c1661488c565b8c1b16640100000000600160c01b03199290921617179055018054821686816105325761052191508980808093335af161051b613eb6565b506148a7565b541694519384523393a46001815580f35b61053d9133906140ed565b610521565b634e487b7160e01b8d52601190528bfd5b895162461bcd60e51b81528084018890526018818601527f596f752068617665206e6f206c6f73696e6720736c6f747300000000000000006044820152606490fd5b90508681813d83116105bf575b6105ac8183613bfe565b810103126105bb575138610408565b8a80fd5b503d6105a2565b8a513d8d823e3d90fd5b506105df845460801c89613d15565b9761042e565b90508781813d831161060f575b6105fc8183613bfe565b8101031261060b5751386103e3565b8b80fd5b503d6105f2565b8b513d8e823e3d90fd5b506012606492868a519362461bcd60e51b855284015282015271139bc81cdb1bdd1cc81c1d5c98da185cd95960721b6044820152fd5b9097508581813d8311610682575b61066e8183613bfe565b8101031261067e575196386103b4565b8980fd5b503d610664565b89513d8c823e3d90fd5b8951631957f54360e31b81528b88828c818d5afa8c8115610931578b8b918e9585946108f8575b5051638bc5328560e01b815294859182905afa80156108ee578c9383916108b9575b508d8b8d825196878092634971381160e01b82525afa9081156108b0578d8f96918e928794610876575b50516321de360b60e21b815296879182905afa93841561086b578b6107589563ffffffff978f849261083e575b50501615159081610834575b501561082c5750905b6107538282116142cb565b613fca565b1691600186018363ffffffff198254161790558215610819576001600160801b031983820460801b161780865560801c9283156107d65760ff60a01b1916600160a01b17905588519182528582015285907fc05844e085396ac5e7a1769a8c2e08b9e8ccee17624f17ca7a08689f41359c70908990a2388080610387565b8a5162461bcd60e51b8152808b01899052601760248201527f5265776172642070657220736c6f74206973207a65726f0000000000000000006044820152606490fd5b634e487b7160e01b8c5260128a5260248cfd5b905090610748565b828410915061073f565b61085d9250803d10610864575b6108558183613bfe565b810190613c36565b388f610733565b503d61084b565b8f51903d90823e3d90fd5b97505050905084813d83116108a9575b6108908183613bfe565b810103126108a5578d8b8d8f96519238610706565b8280fd5b503d610886565b513d85823e3d90fd5b8094508b8092503d83116108e7575b6108d28183613bfe565b810103126108e3578b9251386106dc565b5080fd5b503d6108c8565b8d513d84823e3d90fd5b95505050905082813d831161092a575b6109128183613bfe565b81010312610927578b898b8d945192386106ba565b80fd5b503d610908565b51913d9150823e3d90fd5b60069150143861036c565b634e487b7160e01b8a526021885260248afd5b895162461bcd60e51b8152808a018890526016602482015275506f6f6c20696e207465726d696e616c20737461746560501b6044820152606490fd5b90506109a757600282141581610353565b634e487b7160e01b8b526021895260248bfd5b505089600782141561034c565b6109e79150863d88116109ed575b6109df8183613bfe565b810190614252565b38610336565b503d6109d5565b875162461bcd60e51b81528088018690526014602482015273139bc81c995dd85c991cc819195c1bdcda5d195960621b6044820152606490fd5b8380fd5b50346108a55760203660031901126108a557803590811515809203610a2e578251638da5cb5b60e01b81526001600160a01b03916020908290817f000000000000000000000000000000000000000000000000000000000000000086165afa908115610b0757602093927f89f8e36471904614b0d19f9cbecb037d8cc2adf494123741b26a0e43c883aaac9592610ad3928891610aea575b50163314613c55565b60ff19600a541660ff831617600a5551908152a180f35b610b019150863d8111610864576108558183613bfe565b38610aca565b84513d87823e3d90fd5b50346108a55760803660031901126108a557610b2b613b2f565b90602492833592604435906001600160801b0395868316809303610eb7578351638da5cb5b60e01b81526001600160a01b0397606435966020949092858185817f00000000000000000000000000000000000000000000000000000000000000008f165afa908c8215610eac578c9392610baf92859291610e955750163314613c55565b1698610bbc8a1515613c8d565b610bc7891515613cc9565b8515610e48578715610df357610bdd8887613d15565b8910610da557610bef8930338d613d4b565b898b526008855260ff878c20541615610d46575b50818452858a209086519060a0820182811067ffffffffffffffff821117610d3457908c9291895287825286820190428252898301928b84526060810194855260808101958d8752805490600160401b821015610d205790610c6a91600182018155613be2565b989098610d1057509160609b99979593917fa71d7acad05294eb6740b95a015ced5139c0ed6792a11c0b85f452182eafc9ac9d9b9997959351166001600160801b03198754161786555160018601555160028501555160038401555191015587895260058152828920610cde868254613d3e565b9055610cea8483613d15565b888a5260068252610cff848b20918254613d3e565b90558251948552840152820152a280f35b8f8089634e487b7160e01b825252fd5b5050634e487b7160e01b8f5260418752878ffd5b634e487b7160e01b8d5260418552858dfd5b600754600160401b811015610d9357806001610d659201600755613b60565b819291549060031b918c831b921b1916179055888a5260088452858a20600160ff1982541617905538610c03565b634e487b7160e01b8c5260418452848cfd5b865162461bcd60e51b81528084018690526023818601527f496e73756666696369656e74206465706f73697420666f7220706f6f6c20636f6044820152621d5b9d60ea1b6064820152608490fd5b865162461bcd60e51b8152808401869052602a818601527f456c696769626c6520706f6f6c20636f756e74206d75737420626520677265616044820152690746572207468616e20360b41b6064820152608490fd5b60848385878a519262461bcd60e51b8452830152808201527f52657761726420616d6f756e74206d75737420626520677265617465722074686044820152630616e20360e41b6064820152fd5b610b019150893d8b11610864576108558183613bfe565b8951903d90823e3d90fd5b8780fd5b5050346108e35760203660031901126108e3576101009160ff906001600160a01b0390839082610ee9613b2f565b16815260016020522090815491600181015492600383600284015416920154938651966001600160801b0392838116895260801c602089015263ffffffff808316828a01528260201c1660608901521c16608086015260a0850152811660c084015260a01c16151560e0820152f35b5050346108e35760203660031901126108e35760209181906001600160a01b03610f80613b2f565b1681526010845220549051908152f35b508290346108e357826003193601126108e357610fab613b2f565b8351638da5cb5b60e01b8152602435926020916001600160a01b0390838184817f000000000000000000000000000000000000000000000000000000000000000086165afa9081156111f95761100c91839189916111dc5750163314613c55565b831692831561117e578386526008835260ff87872054161561113c57611033851515613cc9565b838652600583528686205485116110fa5761104d9061414c565b838652600583528686205490808211156110f25761106a91613fca565b84116110965750936005849583611093965252842061108a838254613fca565b905533906140ed565b80f35b60849186519162461bcd60e51b8352820152603260248201527f416d6f756e74206578636565647320617661696c61626c652061667465722072604482015271195cd95c9d9a5b99c81d5b98db185a5b595960721b6064820152fd5b50508461106a565b5060649186519162461bcd60e51b8352820152601e60248201527f457863656564732063726561746f72207265776172642062616c616e636500006044820152fd5b5060649186519162461bcd60e51b8352820152601a60248201527f4e6f7420612063726561746f722072657761726420746f6b656e0000000000006044820152fd5b5060849186519162461bcd60e51b8352820152603360248201527f55736520776974686472617743726561746f7252657761726473546f6b656e20604482015272666f7220737065636966696320746f6b656e7360681b6064820152fd5b6111f39150863d8811610864576108558183613bfe565b8a610aca565b88513d89823e3d90fd5b509190346108e35760203660031901126108e3578051638da5cb5b60e01b8152833591906001600160a01b039060208187817f000000000000000000000000000000000000000000000000000000000000000086165afa9081156113c35761127691839187916113ab5750163314613c55565b600a549160ff83166113535750600c5461129281851115613fd7565b6112a160115460125490613fca565b9585968015801580611348575b6112f9575b505050836112e191869761109397508082116000146112ef576112d96107539183613fca565b83111561401a565b600c55339160101c166140ed565b50610753886112d9565b90919750670de0b6b3a7640000808302928304141715611335576110939596506112e19161132b8692600b54906142ab565b97968193506112b3565b634e487b7160e01b865260118752602486fd5b50600b5415156112ae565b5162461bcd60e51b8152602081870152602d60248201527f43616e6e6f74207769746864726177207768696c6520706f696e74732073797360448201526c74656d2069732061637469766560981b6064820152608490fd5b610b01915060203d8111610864576108558183613bfe565b83513d87823e3d90fd5b50346108a557816003193601126108a5576113e6613b2f565b8251638da5cb5b60e01b815290926024359290916001600160a01b03916020908290817f000000000000000000000000000000000000000000000000000000000000000086165afa90811561150f579161147081602095937f62b0b930e3d87ad3821b5ed18dc2e107e89940c4222217956d9fb3aff238b77497958a916114f85750163314613c55565b8086169561147f871515613c8d565b61148a841515613cc9565b86600a54928360101c1680156000146114e657505062010000600160b01b031990911660109190911b62010000600160b01b031617600a555b6114cf82303388613d4b565b6114db82600c54613d3e565b600c5551908152a280f35b6114f3935014905061484f565b6114c3565b610b019150873d8111610864576108558183613bfe565b83513d88823e3d90fd5b5050346108e35760203660031901126108e35760209181906001600160a01b03611541613b2f565b1681526006845220549051908152f35b5050346108e357816003193601126108e3576020906016549051908152f35b50346108a55760203660031901126108a5578151638da5cb5b60e01b8152813592906001600160a01b039060208185817f000000000000000000000000000000000000000000000000000000000000000086165afa90811561150f57906115e1929187916113ab5750163314613c55565b82156115ef575050600b5580f35b906020606492519162461bcd60e51b8352820152601b60248201527f52617465206d7573742062652067726561746572207468616e203000000000006044820152fd5b5050346108e357806003193601126108e357602090611660611652613b2f565b61165a613b4a565b906143f5565b9051908152f35b5050346108e35760203660031901126108e3576001600160a01b0361168a613b2f565b168252600e602090815281832054600f8252828420546010835293839020549251908152908101929092526040820152606090f35b0390f35b5050346108e357816003193601126108e357517f00000000000000000000000000000000000000000000000000000000000000006001600160a01b03168152602090f35b8284346109275780600319360112610927579080519182906007549182855260208095018093600784527fa66cc928b5edb82af9bd49922954155ab7b0942694bea4ce44661d9a8736c68890845b8181106117af575050508161176b910382613bfe565b83519485948186019282875251809352850193925b82811061178f57505050500390f35b83516001600160a01b031685528695509381019392810192600101611780565b82546001600160a01b031684529288019260019283019201611755565b5050346108e357816003193601126108e357600a54905160109190911c6001600160a01b03168152602090f35b50346108a55760209182600319360112610a2e57611815613b2f565b9261181e614097565b60018060a01b03809416908186526001948582528387209460038601548281163303611a1e57855163c19d93fb60e01b815284818481895afa908115611a14578a916119f7575b5060088110156119e457600581149081156119d9575b501561193e575b506001600160801b0390818754168289890154881c1690039082821161192b57507fd715fae03bf6c4bf278c7b9f28932008df13c1fff57f3c4136ea069353a3904c9392916002911696018181541687811560001461191b576118f091508a80808093335af161051b613eb6565b848952878352886003878220828155828b8201558260028201550155541693519485523394a4815580f35b6119269133906140ed565b6118f0565b634e487b7160e01b8a5260119052602489fd5b60a01c60ff161561199f578686015463ffffffff80821691851c16106119645738611882565b845162461bcd60e51b81529081018390526015602482015274139bdd08185b1b081cdb1bdd1cc818db185a5b5959605a1b6044820152606490fd5b845162461bcd60e51b8152908101839052601460248201527310db185a5b5a5b99c81b9bdd081cdd185c9d195960621b6044820152606490fd5b60079150143861187b565b634e487b7160e01b8a526021835260248afd5b611a0e9150853d87116109ed576109df8183613bfe565b38611865565b87513d8c823e3d90fd5b855162461bcd60e51b8152808301859052600d60248201526c2737ba103232b837b9b4ba37b960991b6044820152606490fd5b5050346108e35760203660031901126108e35760209181906001600160a01b03611a79613b2f565b168152600e845220549051908152f35b509190346108e357806003193601126108e357611aa4613b2f565b611aac613b4a565b91611ab5614097565b8051633247c33f60e21b81526001600160a01b039283168682018190526024939092917f00000000000000000000000000000000000000000000000000000000000000008216919060209081818881875afa90811561217b5790611b20918a91612185575b506141d9565b83516302d05d3f60e01b815298818a8281895afa998a1561217b57899a61215c575b50828a169687330361212957868a5260038352858a20888b528352858a2098848116998a8c528452611b7a60ff888d20541615614214565b865163c19d93fb60e01b8152848185818c5afa908115611f17578c9161210c575b5087516358ac12d760e11b8152858186818d5afa908115611f3e578d916120df575b50156120b45760088110156120355760068103612067575b600881101590816120555760058114159182612047575b82612023575b505015611fea57865163898b36db60e01b8152848185818c5afa908115611f17578c91611fbd575b508751631957f54360e31b8152858186818d5afa908115611f3e578d91611f8c575b508015611f5a5760648102908104606403611f485790611c5b916142ab565b948385603288101598611c6d8a6142cb565b8a5163188c824d60e11b815292839182905afa908115611f3e579086918e91611f21575b50848b8b519485938492630218dd2360e51b84528a840152165afa908115611f17578c91611ee8575b50611cc491614375565b6001600160801b03939193968782168015611ea6578d9180611e9c575b15611e4e57505060011c60016001607f1b0316955b611d01871515614332565b8a8c5260058552878c20548711611e0d57611d8084898e8e8e8e835260038b528383209083528a528282208183528a52828220600160ff19825416179055868a526003611d5085858520613be2565b5001611d5c815461413d565b905580825260058a52828220611d738d8254613fca565b9055815285895220613be2565b5054168a8c5260068552611d98888d20918254613fca565b905560018301809311611dfc57505083899a611dec92887fba55e0b7c0eec6a9457d75ceff108c5e6d141dbaf5f124e414386b64194ebfa9999a9b9c52600985528c8c89822091528552878d20558a6140ed565b8351928352820152a46001815580f35b634e487b7160e01b8b526011905289fd5b50601a6064928589519362461bcd60e51b85528401528201527f496e73756666696369656e7420746f6b656e2062616c616e63650000000000006044820152fd5b604b88101580611e92575b15611e76575050606487611e6d8193614317565b16041695611cf6565b90979150605f871015611e8a575b50611cf6565b965038611e84565b50605f8810611e59565b50604b8810611ce1565b895162461bcd60e51b81528085018890526018818701527f4e6f20656c696769626c652072657761726420626174636800000000000000006044820152606490fd5b90508481813d8311611f10575b611eff8183613bfe565b8101031261060b5751611cc4611cba565b503d611ef5565b88513d8e823e3d90fd5b611f389150823d8411610864576108558183613bfe565b38611c91565b89513d8f823e3d90fd5b634e487b7160e01b8d5260118552838dfd5b885162461bcd60e51b8152808601879052600d818601526c139bc81cdb1bdd1cc81cdbdb19609a1b6044820152606490fd5b90508581813d8311611fb6575b611fa38183613bfe565b81010312611fb2575138611c3c565b8c80fd5b503d611f99565b90508481813d8311611fe3575b611fd48183613bfe565b8101031261060b575138611c1a565b503d611fca565b5060159060649387519362461bcd60e51b855284015282015274506f6f6c20696e20696e76616c696420737461746560581b6044820152fd5b90915061203557600714153880611bf2565b634e487b7160e01b8c5260218452828cfd5b50600281141591508c611bec565b634e487b7160e01b8d5260218552838dfd5b875162461bcd60e51b81528085018690526022818501527f506f6f6c206e6f7420696e20416c6c5072697a6573436c61696d656420737461604482015261746560f01b6064820152608490fd5b60088110156120355783811480156120d5575b6120d09061426a565b611bd5565b50600681146120c7565b6120ff9150863d8811612105575b6120f78183613bfe565b810190613da6565b38611bbd565b503d6120ed565b6121239150853d87116109ed576109df8183613bfe565b38611b9b565b60109060649387519362461bcd60e51b85528401528201526f2737ba103837b7b61031b932b0ba37b960811b6044820152fd5b612174919a50823d8411610864576108558183613bfe565b9838611b42565b85513d8b823e3d90fd5b61219c9150833d8511612105576120f78183613bfe565b38611b1a565b5091346109275781600319360112610927576121bc613b2f565b6001600160a01b0316808252602084905282822054602435929190831015612240579183826116bf946121f494528660205220613be2565b508054600182015460028301546003840154969093015494516001600160801b0390921682526020820152604081019190915260608101939093526080830191909152819060a0820190565b835162461bcd60e51b81526020818701526013602482015272092dcecc2d8d2c840c4c2e8c6d040d2dcc8caf606b1b6044820152606490fd5b5050346108e357816003193601126108e35760209060ff600a5460081c1690519015158152f35b5050346108e35760603660031901126108e3576122bb613b2f565b6122c3613b4a565b6001600160a01b03604435818116939084900361230957928492826020979360ff9616845260038852848420911683528652828220908252855220541690519015158152f35b8580fd5b82843461092757806003193601126109275750612328614c53565b82519182526020820152f35b5050346108e357806003193601126108e35760ff81602093612354613b2f565b61235c613b4a565b6001600160a01b0391821683526002875283832091168252855220549151911615158152f35b5050346108e35760203660031901126108e35760209160ff9082906001600160a01b036123ad613b2f565b1681526014855220541690519015158152f35b5050346108e357816003193601126108e357602090600d549051908152f35b5050346108e357806003193601126108e35760ff816020936123ff613b2f565b612407613b4a565b6001600160a01b0391821683526013875283832091168252855220549151911615158152f35b5050346108e35760203660031901126108e35760209181906001600160a01b03612455613b2f565b1681526005845220549051908152f35b5090346108a55761247536613bad565b8351633247c33f60e21b815233868201526001600160a01b039493602093929184816024817f00000000000000000000000000000000000000000000000000000000000000008b165afa908115612747578792916124da918b91612751575b50614ab9565b6124e860ff600a5416614b05565b1690845163c19d93fb60e01b815284818981865afa90811561274757899161272a575b506008811015612717578088612529921490811561093c575061426a565b8188526013845285858920931692838952845261254c60ff868a20541615614b4a565b818852601384528488208389528452848820600160ff19825416179055600a8102818104600a148215171561270457958551916321de360b60e21b835285838a81875afa928315611a14578a936126e5575b508160155416928380151593849283956126d9575b5050506126ce575b5084929190806126c3575b612644575b50845163341e8c9b60e11b815296879182905afa801561150f57612615958791612627575b501561261b575b90600e91865252832061260b828254613d3e565b9055601154613d3e565b60115580f35b60019390931b926125f7565b61263e9150833d8511612105576120f78183613bfe565b386125f0565b91602491928651928380926370a0823160e01b8252878c8301525afa9081156126b957889161268c575b506016541115612681575b8290386125cb565b600590940293612679565b90508381813d83116126b2575b6126a38183613bfe565b81010312610eb757513861266e565b503d612699565b85513d8a823e3d90fd5b5060165415156125c6565b601e029650846125bb565b161490508338806125b3565b6126fd919350863d8811610864576108558183613bfe565b913861259e565b634e487b7160e01b895260118852602489fd5b634e487b7160e01b895260218852602489fd5b6127419150853d87116109ed576109df8183613bfe565b3861250b565b86513d8b823e3d90fd5b6127689150873d8911612105576120f78183613bfe565b386124d4565b50913461092757602036600319011261092757612789613b2f565b6001600160a01b031681526020838152828220546005909152828220549192909183836127ce575b50606094506001600160801b038251941684526020840152820152f35b909350846020528181206000198401918483116128065750606095506001600160801b03916127fc91613be2565b50541692386127b1565b634e487b7160e01b815260118752602490fd5b509190346108e357806003193601126108e357612834613b2f565b906024356001600160801b03908181168091036129ea578251638da5cb5b60e01b81526020946001600160a01b039186818a817f000000000000000000000000000000000000000000000000000000000000000087165afa9081156129e0576128a89184918a91610e955750163314613c55565b16936128b5851515613c8d565b84865286815283862054156129a75784865286815283862054600019810190811161299457612912612937918899887f855a15ff4d8c529cec3c0519246d95132462d14297706f75d079d8fc755edee9999a528452868a20613be2565b50838154958616956001600160801b0319161781556003600282015491015490613fca565b828161294c575b50508351928352820152a280f35b8161295a8661297694613d15565b898b526006855261296f888c20918254613fca565b9055613d15565b8688526006825261298b858920918254613d3e565b9055388261293e565b634e487b7160e01b875260118852602487fd5b8660649185519162461bcd60e51b835282015260146024820152732737903130ba31b432b9903337b9103a37b5b2b760611b6044820152fd5b86513d8a823e3d90fd5b8480fd5b509134610927578160031936011261092757612a08613b2f565b6001600160a01b0316815260208390528181208054602435929083101561092757506116bf916121f491613be2565b5050346108e35760203660031901126108e357602090611660612a58613b2f565b614bce565b505060203660031901126108e35781612a74613b2f565b91612a7d614097565b612a8683614c93565b6001600160a01b03928316808352600160205281832060028101805492959192918216158015612b4e575b612aba9061484f565b612adf8354926001600160801b0392838516918215612b20575b50508234169061488c565b16906001600160801b03191617905551913483527ff9496ae049978b5594df600f32f9487312cc8eb4e61ae005bf4c36768161c04160203394a46001815580f35b6001600160a01b03191690556003850180546001600160a81b0319163360ff60a01b19161790553880612ad4565b5082546001600160801b031615612ab1565b50346108a557612b6f36613bad565b93909192612b7b614097565b6001600160a01b03928316938390612b94861515613c8d565b612b9f871515613cc9565b612ba881614c93565b1692838752600160205282872091600383019060ff825460a01c16612c935750856002840192835416148015612c81575b612be29061484f565b612bee87303389613d4b565b612c138354926001600160801b0392838516918215612c53575b50508289169061488c565b16906001600160801b031916179055519283527ff9496ae049978b5594df600f32f9487312cc8eb4e61ae005bf4c36768161c04160203394a46001815580f35b80546001600160a01b0319168a17905580546001600160a81b0319163360ff60a01b19161790553880612c08565b5082546001600160801b031615612bd9565b606490602086519162461bcd60e51b8352820152601860248201527f436c61696d696e6720616c7265616479207374617274656400000000000000006044820152fd5b5050346108e35760203660031901126108e3576116bf612cf4613b2f565b6001600160a01b038116845260056020528284205490612d139061414c565b9384821115612d445750612d278482613fca565b925b51938493846040919493926060820195825260208201520152565b92612d29565b5050346108e357816003193601126108e35760a090600a5490600b54600c549180519360ff81161515855260ff8160081c1615156020860152600180871b039060101c169084015260608301526080820152f35b5050346108e357816003193601126108e357602090600b549051908152f35b508290346108e357816003193601126108e357612dd8614097565b600a549260ff8460081c1615613098576001600160a01b039360101c84161561305e57600b5491821561301c573384526020600e815282852054600f8252612e238487205482613fca565b948515612fe5573387526010835284872054612e3d614b96565b9080612f8b575b5050670de0b6b3a76400008602670de0b6b3a763ffff1987820401612f785790612e6d916142ab565b928315612f3c57600c548411612ef95750827f5260f9fc34cca96c4a0659d67cdc5cd13ecc75159bee5b6ad0d7ce3e1c081f5f959697612ee792338a52600f8552868a20556010845242868a2055612ec788601254613d3e565b601255612ed682600c54613fca565b600c553390600a5460101c166140ed565b82519485528401523392a26001815580f35b845162461bcd60e51b8152908101839052601b60248201527f496e73756666696369656e74207265776172642062616c616e636500000000006044820152606490fd5b845162461bcd60e51b81529081018390526016602482015275151bdad95b88185b5bdd5b9d081d1bdbc81cdb585b1b60521b6044820152606490fd5b634e487b7160e01b885260118552602488fd5b1015612f98578880612e44565b5050608492519162461bcd60e51b8352820152602260248201527f4d757374207761697420666f72206e65787420636f6f6c646f776e20706572696044820152611bd960f21b6064820152fd5b5050606492519162461bcd60e51b835282015260126024820152714e6f20706f696e747320746f20636c61696d60701b6044820152fd5b6020606492519162461bcd60e51b8352820152601760248201527f436f6e76657273696f6e2072617465206e6f74207365740000000000000000006044820152fd5b906020606492519162461bcd60e51b8352820152601460248201527314995dd85c99081d1bdad95b881b9bdd081cd95d60621b6044820152fd5b906020606492519162461bcd60e51b83528201526011602482015270436c61696d73206e6f742061637469766560781b6044820152fd5b5050346108e35760203660031901126108e35760209181906001600160a01b036130f7613b2f565b168152600f845220549051908152f35b5050346108e357816003193601126108e3576020906011549051908152f35b50346108a557816003193601126108a55761313f613b2f565b8251638da5cb5b60e01b815291602091602435916001600160a01b03919084908690817f000000000000000000000000000000000000000000000000000000000000000086165afa801561327157826131c3917f47019f29e196958fc72e493f0a3c7974aa750d68481a13c3b3592dc91a61a727978a9161325a5750163314613c55565b6131cb614097565b16936131d8851515613c8d565b6131e3821515613cc9565b848652600583526131f982828820541015613fd7565b848652600683528086205460058452818720548181111561324f57613221916112d991613fca565b84865260058352808620613236838254613fca565b90556132438233876140ed565b51908152a26001815580f35b5050613221866112d9565b610b019150873d8911610864576108558183613bfe565b86513d89823e3d90fd5b50346108a557826003193601126108a5578151638da5cb5b60e01b81526001600160a01b0360208284817f000000000000000000000000000000000000000000000000000000000000000085165afa8015610b07576132e39286916113ab5750163314613c55565b600a549160ff8360081c1661332b5761ff0019831661010017600a5542600d55837fc28330c7e4a96d93611e91e2be5c02356b3881b39c76d8f5e0b6c9c3377f60788180a180f35b906020606492519162461bcd60e51b83528201526015602482015274436c61696d7320616c72656164792061637469766560581b6044820152fd5b50346108a557816003193601126108a55761337f613b2f565b8251638da5cb5b60e01b81529091602435906001600160a01b03906020908490817f000000000000000000000000000000000000000000000000000000000000000085165afa93841561342b57613404827f849678e815e5b0cbd0ac3bab0f2b7d1d40dbfb9409d17eeebfc1253e9ef228da966020968a916114f85750163314613c55565b1693846bffffffffffffffffffffffff60a01b60155416176015558160165551908152a280f35b85513d88823e3d90fd5b50346108a55760203660031901126108a55760209282916001600160a01b0361345c613b2f565b168252845220549051908152f35b5050346108e357806003193601126108e35760209061166061348a613b2f565b613492613b4a565b906148e9565b508290346108e35760203660031901126108e3576134b4613b2f565b90829160018060a01b03168352600e6020526134dc84842054600f6020528585205490613fca565b92831591821580613553575b6134fc575b50505082519182526020820152f35b90919250670de0b6b3a76400009283850293858504141715613540575050600b54613526916142ab565b600c54808211613538575b80806134ed565b905083613531565b634e487b7160e01b825260119052602490fd5b50600b5415156134e8565b5050346108e357816003193601126108e35760155490516001600160a01b039091168152602090f35b50346108a55760203660031901126108a557359160075483101561092757506135b1602092613b60565b905491519160018060a01b039160031b1c168152f35b5050346108e357816003193601126108e35760209060ff600a541690519015158152f35b5050346108e357816003193601126108e3576020906012549051908152f35b50346108a557602080600319360112610a2e57613625613b2f565b8351633247c33f60e21b815233848201526001600160a01b039183826024817f000000000000000000000000000000000000000000000000000000000000000087165afa918215613271578392613682918991613a4b5750614ab9565b61369060ff600a5416614b05565b16845163c19d93fb60e01b815283818681855afa908115613271578791613a2e575b506008811015613a1b5780856136d0921490811561093c575061426a565b808652601483526136e760ff868820541615614b4a565b80865260148352848620805460ff19166001179055845163898b36db60e01b815283818681855afa9081156132715787916139ea575b508551631957f54360e31b815284818781865afa9081156139895788916139bd575b506064810290808204606414901517156139aa579061375d916142ab565b6064810361399357506064935b85516302d05d3f60e01b81529184838381845afa92831561398957889361396a575b5086516321de360b60e21b815285818481855afa9081156138a957899161394d575b5084806015541691828015159283928394613941575b505050613936575b86908061392b575b6138b3575b50508651633eda1f7d60e21b815285818481855afa80156138a95785918a9161388c575b5016613820575b505091600e91612615959316865252832061260b828254613d3e565b84908796939651928380926334b48bdd60e11b82525afa9081156132715791600e9391612615979593899161386f575b501561386657600502945b919395819350613804565b6014029461385b565b6138869150843d8611612105576120f78183613bfe565b38613850565b6138a39150873d8911610864576108558183613bfe565b386137fd565b88513d8b823e3d90fd5b88516370a0823160e01b81528587168582015291829060249082905afa9081156138a95789916138fa575b5060165411156138f0575b38856137d9565b94600502946138e9565b90508581813d8311613924575b6139118183613bfe565b810103126139205751386138de565b8880fd5b503d613907565b5060165415156137d4565b6005909702966137cc565b161490508287386137c4565b6139649150863d8811610864576108558183613bfe565b386137ae565b613982919350853d8711610864576108558183613bfe565b913861378c565b87513d8a823e3d90fd5b604b116139a257604b9361376a565b60329361376a565b634e487b7160e01b885260118652602488fd5b90508481813d83116139e3575b6139d48183613bfe565b81010312610eb757513861373f565b503d6139ca565b90508381813d8311613a14575b613a018183613bfe565b81010312613a1057513861371d565b8680fd5b503d6139f7565b634e487b7160e01b875260218552602487fd5b613a459150843d86116109ed576109df8183613bfe565b386136b2565b6127689150863d8811612105576120f78183613bfe565b5050346108e357806003193601126108e35780602092613a80613b2f565b613a88613b4a565b6001600160a01b0391821683526009865283832091168252845220549051908152f35b5050346108e357816003193601126108e357602090600c549051908152f35b849084346108a55760203660031901126108a55760809281906001600160a01b03613af3613b2f565b16815260016020522060018154910154906001600160801b0381168452841c602084015263ffffffff918282169084015260201c166060820152f35b600435906001600160a01b0382168203613b4557565b600080fd5b602435906001600160a01b0382168203613b4557565b600754811015613b975760076000527fa66cc928b5edb82af9bd49922954155ab7b0942694bea4ce44661d9a8736c6880190600090565b634e487b7160e01b600052603260045260246000fd5b6060906003190112613b45576001600160a01b03906004358281168103613b4557916024359081168103613b45579060443590565b8054821015613b97576000526005602060002091020190600090565b90601f8019910116810190811067ffffffffffffffff821117613c2057604052565b634e487b7160e01b600052604160045260246000fd5b90816020910312613b4557516001600160a01b0381168103613b455790565b15613c5c57565b60405162461bcd60e51b81526020600482015260096024820152682737ba1037bbb732b960b91b6044820152606490fd5b15613c9457565b60405162461bcd60e51b815260206004820152600d60248201526c24b73b30b634b2103a37b5b2b760991b6044820152606490fd5b15613cd057565b60405162461bcd60e51b815260206004820152601d60248201527f416d6f756e74206d7573742062652067726561746572207468616e20300000006044820152606490fd5b81810292918115918404141715613d2857565b634e487b7160e01b600052601160045260246000fd5b91908201809211613d2857565b6040516323b872dd60e01b60208201526001600160a01b03928316602482015292909116604483015260648083019390935291815260a081019181831067ffffffffffffffff841117613c2057613da492604052613dbe565b565b90816020910312613b4557518015158103613b455790565b60408051908101916001600160a01b031667ffffffffffffffff831182841017613c2057613e2e926040526000806020958685527f5361666545524332303a206c6f772d6c6576656c2063616c6c206661696c656487860152868151910182855af1613e28613eb6565b91613ef6565b805190828215928315613e9e575b50505015613e475750565b6084906040519062461bcd60e51b82526004820152602a60248201527f5361666545524332303a204552433230206f7065726174696f6e20646964206e6044820152691bdd081cdd58d8d9595960b21b6064820152fd5b613eae9350820181019101613da6565b388281613e3c565b3d15613ef1573d9067ffffffffffffffff8211613c205760405191613ee5601f8201601f191660200184613bfe565b82523d6000602084013e565b606090565b91929015613f585750815115613f0a575090565b3b15613f135790565b60405162461bcd60e51b815260206004820152601d60248201527f416464726573733a2063616c6c20746f206e6f6e2d636f6e74726163740000006044820152606490fd5b825190915015613f6b5750805190602001fd5b6040519062461bcd60e51b82528160208060048301528251908160248401526000935b828510613fb1575050604492506000838284010152601f80199101168101030190fd5b8481018201518686016044015293810193859350613f8e565b91908203918211613d2857565b15613fde57565b60405162461bcd60e51b8152602060048201526014602482015273496e73756666696369656e742062616c616e636560601b6044820152606490fd5b1561402157565b60405162461bcd60e51b815260206004820152604260248201527f416d6f756e74206578636565647320617661696c61626c652062616c616e636560448201527f20616674657220726573657276696e6720756e636c61696d6564207265776172606482015261647360f01b608482015260a490fd5b6002600054146140a8576002600055565b60405162461bcd60e51b815260206004820152601f60248201527f5265656e7472616e637947756172643a207265656e7472616e742063616c6c006044820152606490fd5b60405163a9059cbb60e01b60208201526001600160a01b039092166024830152604480830193909352918152608081019167ffffffffffffffff831182841017613c2057613da492604052613dbe565b6000198114613d285760010190565b6001600160a01b03166000908152600460205260408120805490929190815b818110614179575090925050565b6141838186613be2565b506141976002820154600383015490613fca565b90816141ae575b50506141a99061413d565b61416b565b936141cb6141d1926001600160801b036141a99597541690613d15565b90613d3e565b92903861419e565b156141e057565b60405162461bcd60e51b815260206004820152600c60248201526b125b9d985b1a59081c1bdbdb60a21b6044820152606490fd5b1561421b57565b60405162461bcd60e51b815260206004820152600f60248201526e105b1c9958591e4818db185a5b5959608a1b6044820152606490fd5b90816020910312613b4557516008811015613b455790565b1561427157565b60405162461bcd60e51b8152602060048201526012602482015271141bdbdb081b9bdd0818dbdb5c1b195d195960721b6044820152606490fd5b81156142b5570490565b634e487b7160e01b600052601260045260246000fd5b156142d257565b60405162461bcd60e51b815260206004820152601760248201527f496e73756666696369656e7420736c6f742073616c65730000000000000000006044820152606490fd5b90604b6001600160801b0380931602918216918203613d2857565b1561433957565b60405162461bcd60e51b81526020600482015260146024820152734e6f207265776172647320617661696c61626c6560601b6044820152606490fd5b6001600160a01b0316600090815260046020526040812080549392915b8481106143a6575050509050600090600090565b6143b08183613be2565b5060018101548411806143e4575b6143d157506143cc9061413d565b614392565b915093506001600160801b039150541690565b5060038101546002820154116143be565b60408051633247c33f60e21b81526001600160a01b0392831660048083018290527f000000000000000000000000000000000000000000000000000000000000000085169594929091602091602490838183818c5afa9081156146a357600091614832575b50156147445785516302d05d3f60e01b815283818681865afa9081156146a357600091614815575b50826000526003845285876000209116600052835285600020858816600052835260ff86600020541661474457855163c19d93fb60e01b815283818681865afa9081156146a3576000916147f8575b5086516358ac12d760e11b815260009085818881885afa9081156147ee5782916147d1575b50156147a35750600881101561476557600681145b1590811561478e575b8115614779575b8115614751575b5061474457855163898b36db60e01b815283818681865afa9081156146a357600091614717575b508651631957f54360e31b815284818781875afa90811561470c576000916146df575b5080156146d057606481029081046064036146bc579061458b916142ab565b97603289106146ae5783859188519687809263188c824d60e11b82525afa9485156146a357600095614684575b5083949587519687948593630218dd2360e51b8552840152165afa92831561467a5750600092614649575b50506145ee91614375565b90506001600160801b039182821690811561464057604b81101561461f57505060016001607f1b03915060011c1690565b605f111561463a575081614634606492614317565b16041690565b91505090565b50505050600090565b81819392933d8311614673575b6146608183613bfe565b810103126109275750516145ee386145e3565b503d614656565b513d6000823e3d90fd5b84955061469d90853d8711610864576108558183613bfe565b946145b8565b87513d6000823e3d90fd5b505050505050505050600090565b82601187634e487b7160e01b600052526000fd5b50505050505050505050600090565b908582813d8311614705575b6146f58183613bfe565b810103126109275750513861456c565b503d6146eb565b88513d6000823e3d90fd5b908482813d831161473d575b61472d8183613bfe565b8101031261092757505138614549565b503d614723565b5050505050505050600090565b905060088110156147655760071438614522565b50634e487b7160e01b600090815260218552fd5b9050600881101561476557600281149061451b565b90506008811015614765576005811490614514565b60088210156147bf57508481148061450b57506006811461450b565b634e487b7160e01b8152602186529050fd5b6147e89150863d8811612105576120f78183613bfe565b386144f6565b89513d84823e3d90fd5b61480f9150843d86116109ed576109df8183613bfe565b386144d1565b61482c9150843d8611610864576108558183613bfe565b38614482565b6148499150843d8611612105576120f78183613bfe565b3861445a565b1561485657565b60405162461bcd60e51b815260206004820152600e60248201526d0a8ded6cadc40dad2e6dac2e8c6d60931b6044820152606490fd5b9190916001600160801b0380809416911601918211613d2857565b156148ae57565b60405162461bcd60e51b8152602060048201526013602482015272115512081d1c985b9cd9995c8819985a5b1959606a1b6044820152606490fd5b60018060a01b038091169160008381526020936001855260409485832054946001600160801b038616158015614a9e575b614a5b578651630214865d60e21b81529416600485018190528185602481865afa948515614a94578495614a65575b508415614a5b57865163d17d135960e01b80825260048201839052908381602481885afa908115614a51578691614a24575b5015614a0d57906024839289519586938492835260048301525afa958615614a04575082956149d4575b5050838211156149cd57506149c7926149bd91613fca565b9060801c90613d15565b60021c90565b9250505090565b9080929550813d83116149fd575b6149ec8183613bfe565b81010312610a2e57519238806149a5565b503d6149e2565b513d84823e3d90fd5b505050505090614a21925060801c90613d15565b90565b90508381813d8311614a4a575b614a3b8183613bfe565b8101031261230957513861497b565b503d614a31565b89513d88823e3d90fd5b5050509250505090565b9094508181813d8311614a8d575b614a7d8183613bfe565b81010312610a2e57519338614949565b503d614a73565b87513d86823e3d90fd5b50600282528684208186168552825260ff878520541661491a565b15614ac057565b60405162461bcd60e51b815260206004820152601a60248201527f43616c6c6572206e6f74206120706f6f6c20636f6e74726163740000000000006044820152606490fd5b15614b0c57565b60405162461bcd60e51b8152602060048201526016602482015275506f696e74732073797374656d20696e61637469766560501b6044820152606490fd5b15614b5157565b60405162461bcd60e51b815260206004820152601860248201527f506f696e747320616c726561647920616c6c6f636174656400000000000000006044820152606490fd5b600d548015614bc85762093a8080614bae8342613fca565b04818102918183041490151715613d2857614a2191613d3e565b50600090565b60ff600a5460081c16158015614c49575b614bc8576001600160a01b03166000908152601060205260408120548015614c3157614c09614b96565b809110614c315762093a808101809111614c355780421015614c3157614a2191504290613fca565b5090565b634e487b7160e01b82526011600452602482fd5b50600d5415614bdf565b60ff600a5460081c16158015614c89575b614c8157614c70614b96565b9062093a808201808311613d285790565b600090600090565b50600d5415614c64565b604051633247c33f60e21b81526001600160a01b03918216600482015290602090829060249082907f0000000000000000000000000000000000000000000000000000000000000000165afa8015614d0e57613da491600091614cf657506141d9565b61219c915060203d8111612105576120f78183613bfe565b6040513d6000823e3d90fdfea264697066735822122093866312775c6e07da442742431f9ca025d62af6c4310a8d381dd94ea9273b9d64736f6c63430008130033",
  "linkReferences": {},
  "deployedLinkReferences": {}
}