{
  "_format": "hh-sol-artifact-1",
  "contractName": "SocialEngagementManager",
  "sourceName": "contracts/SocialEngagementManager.sol",
  "abi": [
    {
      "inputs": [
        {
          "internalType": "address",
          "name": "_signer",
          "type": "address"
        },
        {
          "internalType": "address",
          "name": "_protocolManager",
          "type": "address"
        }
      ],
      "stateMutability": "nonpayable",
      "type": "constructor"
    },
    {
      "inputs": [],
      "name": "InvalidShortString",
      "type": "error"
    },
    {
      "inputs": [
        {
          "internalType": "string",
          "name": "str",
          "type": "string"
        }
      ],
      "name": "StringTooLong",
      "type": "error"
    },
    {
      "anonymous": false,
      "inputs": [],
      "name": "EIP712DomainChanged",
      "type": "event"
    },
    {
      "anonymous": false,
      "inputs": [
        {
          "indexed": true,
          "internalType": "address",
          "name": "previousOwner",
          "type": "address"
        },
        {
          "indexed": true,
          "internalType": "address",
          "name": "newOwner",
          "type": "address"
        }
      ],
      "name": "OwnershipTransferred",
      "type": "event"
    },
    {
      "anonymous": false,
      "inputs": [
        {
          "indexed": true,
          "internalType": "address",
          "name": "newSigner",
          "type": "address"
        }
      ],
      "name": "SignerUpdated",
      "type": "event"
    },
    {
      "anonymous": false,
      "inputs": [
        {
          "indexed": true,
          "internalType": "address",
          "name": "user",
          "type": "address"
        },
        {
          "indexed": true,
          "internalType": "address",
          "name": "pool",
          "type": "address"
        },
        {
          "indexed": false,
          "internalType": "uint256",
          "name": "nonce",
          "type": "uint256"
        }
      ],
      "name": "SocialEngagementVerified",
      "type": "event"
    },
    {
      "anonymous": false,
      "inputs": [
        {
          "indexed": true,
          "internalType": "address",
          "name": "pool",
          "type": "address"
        },
        {
          "indexed": false,
          "internalType": "string",
          "name": "taskDescription",
          "type": "string"
        }
      ],
      "name": "SocialTasksEnabled",
      "type": "event"
    },
    {
      "inputs": [],
      "name": "VERIFICATION_TYPEHASH",
      "outputs": [
        {
          "internalType": "bytes32",
          "name": "",
          "type": "bytes32"
        }
      ],
      "stateMutability": "view",
      "type": "function"
    },
    {
      "inputs": [],
      "name": "eip712Domain",
      "outputs": [
        {
          "internalType": "bytes1",
          "name": "fields",
          "type": "bytes1"
        },
        {
          "internalType": "string",
          "name": "name",
          "type": "string"
        },
        {
          "internalType": "string",
          "name": "version",
          "type": "string"
        },
        {
          "internalType": "uint256",
          "name": "chainId",
          "type": "uint256"
        },
        {
          "internalType": "address",
          "name": "verifyingContract",
          "type": "address"
        },
        {
          "internalType": "bytes32",
          "name": "salt",
          "type": "bytes32"
        },
        {
          "internalType": "uint256[]",
          "name": "extensions",
          "type": "uint256[]"
        }
      ],
      "stateMutability": "view",
      "type": "function"
    },
    {
      "inputs": [
        {
          "internalType": "address",
          "name": "_pool",
          "type": "address"
        },
        {
          "internalType": "string",
          "name": "_taskDescription",
          "type": "string"
        }
      ],
      "name": "enableSocialTasks",
      "outputs": [],
      "stateMutability": "nonpayable",
      "type": "function"
    },
    {
      "inputs": [
        {
          "internalType": "address",
          "name": "_pool",
          "type": "address"
        }
      ],
      "name": "hasSocialTasks",
      "outputs": [
        {
          "internalType": "bool",
          "name": "",
          "type": "bool"
        }
      ],
      "stateMutability": "view",
      "type": "function"
    },
    {
      "inputs": [],
      "name": "isTaskAssignmentPaused",
      "outputs": [
        {
          "internalType": "bool",
          "name": "",
          "type": "bool"
        }
      ],
      "stateMutability": "view",
      "type": "function"
    },
    {
      "inputs": [],
      "name": "owner",
      "outputs": [
        {
          "internalType": "address",
          "name": "",
          "type": "address"
        }
      ],
      "stateMutability": "view",
      "type": "function"
    },
    {
      "inputs": [],
      "name": "protocolManager",
      "outputs": [
        {
          "internalType": "contract IProtocolManager",
          "name": "",
          "type": "address"
        }
      ],
      "stateMutability": "view",
      "type": "function"
    },
    {
      "inputs": [],
      "name": "renounceOwnership",
      "outputs": [],
      "stateMutability": "nonpayable",
      "type": "function"
    },
    {
      "inputs": [
        {
          "internalType": "address",
          "name": "_newSigner",
          "type": "address"
        }
      ],
      "name": "setSigner",
      "outputs": [],
      "stateMutability": "nonpayable",
      "type": "function"
    },
    {
      "inputs": [],
      "name": "signer",
      "outputs": [
        {
          "internalType": "address",
          "name": "",
          "type": "address"
        }
      ],
      "stateMutability": "view",
      "type": "function"
    },
    {
      "inputs": [
        {
          "internalType": "address",
          "name": "",
          "type": "address"
        }
      ],
      "name": "socialTasksEnabled",
      "outputs": [
        {
          "internalType": "bool",
          "name": "",
          "type": "bool"
        }
      ],
      "stateMutability": "view",
      "type": "function"
    },
    {
      "inputs": [],
      "name": "toggleTaskAssignments",
      "outputs": [],
      "stateMutability": "nonpayable",
      "type": "function"
    },
    {
      "inputs": [
        {
          "internalType": "address",
          "name": "newOwner",
          "type": "address"
        }
      ],
      "name": "transferOwnership",
      "outputs": [],
      "stateMutability": "nonpayable",
      "type": "function"
    },
    {
      "inputs": [
        {
          "internalType": "address",
          "name": "_user",
          "type": "address"
        },
        {
          "internalType": "address",
          "name": "_pool",
          "type": "address"
        },
        {
          "internalType": "uint256",
          "name": "_deadline",
          "type": "uint256"
        },
        {
          "internalType": "bytes",
          "name": "_signature",
          "type": "bytes"
        }
      ],
      "name": "verify",
      "outputs": [],
      "stateMutability": "nonpayable",
      "type": "function"
    }
  ],
  "bytecode": "0x61016034620002ae576001600160401b0390620016c290601f38839003908101601f191682019084821183831017620002b35780839160409586948552833981010312620002ae576200005281620002e5565b91620000626020809301620002e5565b918151926200007184620002c9565b60198452818401947f44726f707220536f6369616c20566572696669636174696f6e000000000000008652835190620000aa82620002c9565b60018252603160f81b848301908152600080546001600160a01b0319808216339081178455929b90966001600160a01b039590949193909286167f8be0079c531659141344cd1fd0a4f28419497f9722a3daafe3b4186f6b6457e08e80a3620001138a620002fa565b9a6101209b8c526200012587620004d1565b9a6101409b8c52519020958660e052519020946101009b868d524660a052895196898801927f8b73c3c69bb8fe3d512ecc4cf759cc79239f7b179b0ffacaa9a75d522b39400f84528b89015260608801524660808801523060a088015260a0875260c0870193878510908511176200029a5750828952855190206080523060c052831693841562000258575050169283156200021557508160035416176003556004541617600455519161103893846200068a853960805184610f10015260a05184610fdc015260c05184610eda015260e05184610f5f01525183610f85015251826106ed015251816107170152f35b60649085519062461bcd60e51b82526004820152601860248201527f496e76616c69642070726f746f636f6c206d616e6167657200000000000000006044820152fd5b907f496e76616c6964207369676e65722061646472657373000000000000000000006101046064938962461bcd60e51b855260c4820152601660e48201520152fd5b634e487b7160e01b81526041600452602490fd5b600080fd5b634e487b7160e01b600052604160045260246000fd5b604081019081106001600160401b03821117620002b357604052565b51906001600160a01b0382168203620002ae57565b805160209081811015620003975750601f8251116200033657808251920151908083106200032757501790565b82600019910360031b1b161790565b90604051809263305a27a960e01b82528060048301528251908160248401526000935b8285106200037d575050604492506000838284010152601f80199101168101030190fd5b848101820151868601604401529381019385935062000359565b9192916001600160401b038111620002b35760019182548381811c91168015620004c6575b82821014620004b057601f811162000477575b5080601f83116001146200040f57508192939460009262000403575b5050600019600383901b1c191690821b17905560ff90565b015190503880620003eb565b90601f198316958460005282600020926000905b8882106200045f575050838596971062000445575b505050811b01905560ff90565b015160001960f88460031b161c1916905538808062000438565b80878596829496860151815501950193019062000423565b8360005283601f83600020920160051c820191601f850160051c015b828110620004a3575050620003cf565b6000815501849062000493565b634e487b7160e01b600052602260045260246000fd5b90607f1690620003bc565b8051602090818110156200055f5750601f825111620004fe57808251920151908083106200032757501790565b90604051809263305a27a960e01b82528060048301528251908160248401526000935b82851062000545575050604492506000838284010152601f80199101168101030190fd5b848101820151868601604401529381019385935062000521565b906001600160401b038211620002b357600254926001938481811c911680156200067e575b83821014620004b057601f811162000644575b5081601f8411600114620005d85750928293918392600094620005cc575b50501b916000199060031b1c19161760025560ff90565b015192503880620005b5565b919083601f198116600260005284600020946000905b888383106200062957505050106200060f575b505050811b0160025560ff90565b015160001960f88460031b161c1916905538808062000601565b858701518855909601959485019487935090810190620005ee565b600260005284601f84600020920160051c820191601f860160051c015b8281106200067157505062000597565b6000815501859062000661565b90607f16906200058456fe6080604081815260048036101561001557600080fd5b600092833560e01c908163216c2ddf1461098957508063238ac9331461096057806340c06aa9146109255780636c19e7831461087c578063715018a61461082257806373107a29146107f357806384b0196e146106d657806386aec1791461046f5780638da5cb5b1461044757806393e9f8fc1461020f578063ab4b6692146101e8578063b63d1e87146101aa578063e15b6bda146101825763f2fde38b146100bd57600080fd5b3461017e57602036600319011261017e576100d66109c4565b906100df610a4d565b6001600160a01b0391821692831561012c57505082546001600160a01b0319811683178455167f8be0079c531659141344cd1fd0a4f28419497f9722a3daafe3b4186f6b6457e08380a380f35b906020608492519162461bcd60e51b8352820152602660248201527f4f776e61626c653a206e6577206f776e657220697320746865207a65726f206160448201526564647265737360d01b6064820152fd5b8280fd5b5050346101a657816003193601126101a65760209060ff6006541690519015158152f35b5080fd5b5050346101a65760203660031901126101a65760209160ff9082906001600160a01b036101d56109c4565b1681526005855220541690519015158152f35b503461017e578260031936011261017e575490516001600160a01b03909116815260209150f35b50903461017e57608036600319011261017e5761022a6109c4565b6001600160a01b036024803582811695929492919086900361044357604435936064359567ffffffffffffffff9687811161043f5761026c9036908601610a1f565b9092874211610409578216978833036103d057865197602098898101917f60e9a4547c30238071874c2aa0e7b964d213dc48bf1dc05b3c7c244d8dfcbd8a83528b8a8301528c606083015260808201526080815260a08101818110848211176103be5789525190206042906102df610ed7565b9089519161190160f01b835260028301526022820152209082116103ac57865190610313601f8401601f19168a0183610ad7565b8282528b36848701116103a95789846103379561033f988387013784010152610e10565b929092610cf6565b8060035416911603610378575050907fd4b9ddbabe64792c5c270f25dad09661bb50061d879c09830ef291f3fbe2b5249151858152a380f35b606493600e9293519362461bcd60e51b85528401528201526d24b73b30b634b21039b4b3b732b960911b6044820152fd5b80fd5b634e487b7160e01b8b5260418652848bfd5b634e487b7160e01b8e5260418952878efd5b865162461bcd60e51b8152602081880152601481870152734f6e6c7920757365722063616e2076657269667960601b6044820152606490fd5b865162461bcd60e51b81526020818801526011818701527014da59db985d1d5c9948195e1c1a5c9959607a1b6044820152606490fd5b8980fd5b8680fd5b5050346101a657816003193601126101a657905490516001600160a01b039091168152602090f35b50903461017e578060031936011261017e576104896109c4565b9060243567ffffffffffffffff81116106d2576104a99036908501610a1f565b8454835163188c824d60e11b81529194602093926001600160a01b0392859082908a90829087165afa9081156106c8579083918a9161068a575b5016330361063c5760ff600654166105f95716948587526005835260ff84882054166105b657841561057357509083807f86d3d91767f607589d632ac7bd8a5f04cf3e9cd324598861d2954302ac3d144995949387895260058452848920600160ff198254161790558451958487958652850152848401378181018301879052601f01601f19168101030190a280f35b835162461bcd60e51b8152908101839052601b60248201527f4465736372697074696f6e2063616e6e6f7420626520656d70747900000000006044820152606490fd5b835162461bcd60e51b8152908101839052601c60248201527f536f6369616c207461736b7320616c726561647920656e61626c6564000000006044820152606490fd5b845162461bcd60e51b8152808801859052601960248201527f5461736b2061737369676e6d656e7420697320706175736564000000000000006044820152606490fd5b845162461bcd60e51b8152808801859052602260248201527f4f6e6c7920506f6f6c4465706c6f7965722063616e20656e61626c65207461736044820152616b7360f01b6064820152608490fd5b809250868092503d83116106c1575b6106a38183610ad7565b810103126106bd575182811681036106bd578290386104e3565b8880fd5b503d610699565b86513d8b823e3d90fd5b8480fd5b50903461017e578260031936011261017e576107117f0000000000000000000000000000000000000000000000000000000000000000610af9565b9261073b7f0000000000000000000000000000000000000000000000000000000000000000610c20565b908251926020928385019585871067ffffffffffffffff8811176107e057509280610796838896610789998b9996528686528151998a99600f60f81b8b5260e0868c015260e08b01906109df565b91898303908a01526109df565b924660608801523060808801528460a088015286840360c088015251928381520193925b8281106107c957505050500390f35b8351855286955093810193928101926001016107ba565b634e487b7160e01b845260419052602483fd5b83346103a957806003193601126103a95761080c610a4d565b60065460ff80821615169060ff19161760065580f35b83346103a957806003193601126103a95761083b610a4d565b80546001600160a01b03198116825581906001600160a01b03167f8be0079c531659141344cd1fd0a4f28419497f9722a3daafe3b4186f6b6457e08280a380f35b503461017e57602036600319011261017e576108966109c4565b61089e610a4d565b6001600160a01b03169182156108e9575050600380546001600160a01b031916821790557f5553331329228fbd4123164423717a4a7539f6dfa1c3279a923b98fd681a6c738280a280f35b906020606492519162461bcd60e51b83528201526016602482015275496e76616c6964207369676e6572206164647265737360501b6044820152fd5b5050346101a657816003193601126101a657602090517f60e9a4547c30238071874c2aa0e7b964d213dc48bf1dc05b3c7c244d8dfcbd8a8152f35b5050346101a657816003193601126101a65760035490516001600160a01b039091168152602090f35b8490843461017e57602036600319011261017e5760209260ff91906001600160a01b036109b46109c4565b1681526005855220541615158152f35b600435906001600160a01b03821682036109da57565b600080fd5b919082519283825260005b848110610a0b575050826000602080949584010152601f8019910116010190565b6020818301810151848301820152016109ea565b9181601f840112156109da5782359167ffffffffffffffff83116109da57602083818601950101116109da57565b6000546001600160a01b03163303610a6157565b606460405162461bcd60e51b815260206004820152602060248201527f4f776e61626c653a2063616c6c6572206973206e6f7420746865206f776e65726044820152fd5b6040810190811067ffffffffffffffff821117610ac157604052565b634e487b7160e01b600052604160045260246000fd5b90601f8019910116810190811067ffffffffffffffff821117610ac157604052565b60ff8114610b375760ff811690601f8211610b255760405191610b1b83610aa5565b8252602082015290565b604051632cd44ac360e21b8152600490fd5b50604051600060019081549182811c90808416938415610c16575b6020948584108114610c025783875286949392918115610be25750600114610b86575b5050610b8392500382610ad7565b90565b60008181527fb10e2d527612073b26eecdfd717e6a320cf44b4afac2b0732d9fcbe2b7fa0cf695935091905b818310610bca575050610b8393508201013880610b75565b85548784018501529485019486945091830191610bb2565b915050610b8394925060ff191682840152151560051b8201013880610b75565b634e487b7160e01b85526022600452602485fd5b91607f1691610b52565b60ff8114610c425760ff811690601f8211610b255760405191610b1b83610aa5565b50604051600060025490600182811c90808416938415610cec575b6020948584108114610c025783875286949392918115610be25750600114610c8d575050610b8392500382610ad7565b9093915060026000527f405787fa12a823e0f2b7631cc41b3ba8828b3321ca811111fa75cd3aa3bb5ace936000915b818310610cd4575050610b8393508201013880610b75565b85548784018501529485019486945091830191610cbc565b91607f1691610c5d565b6005811015610dfa5780610d075750565b60018103610d545760405162461bcd60e51b815260206004820152601860248201527f45434453413a20696e76616c6964207369676e617475726500000000000000006044820152606490fd5b60028103610da15760405162461bcd60e51b815260206004820152601f60248201527f45434453413a20696e76616c6964207369676e6174757265206c656e677468006044820152606490fd5b600314610daa57565b60405162461bcd60e51b815260206004820152602260248201527f45434453413a20696e76616c6964207369676e6174757265202773272076616c604482015261756560f01b6064820152608490fd5b634e487b7160e01b600052602160045260246000fd5b906041815114600014610e3e57610e3a916020820151906060604084015193015160001a90610e48565b9091565b5050600090600290565b9291907f7fffffffffffffffffffffffffffffff5d576e7357a4501ddfe92f46681b20a08311610ecb5791608094939160ff602094604051948552168484015260408301526060820152600093849182805260015afa15610ebe5781516001600160a01b03811615610eb8579190565b50600190565b50604051903d90823e3d90fd5b50505050600090600390565b307f00000000000000000000000000000000000000000000000000000000000000006001600160a01b03161480610fd9575b15610f32577f000000000000000000000000000000000000000000000000000000000000000090565b60405160208101907f8b73c3c69bb8fe3d512ecc4cf759cc79239f7b179b0ffacaa9a75d522b39400f82527f000000000000000000000000000000000000000000000000000000000000000060408201527f000000000000000000000000000000000000000000000000000000000000000060608201524660808201523060a082015260a0815260c0810181811067ffffffffffffffff821117610ac15760405251902090565b507f00000000000000000000000000000000000000000000000000000000000000004614610f0956fea2646970667358221220b72819074c2ff493495c514344583c12ae79b9de716ac7a90c410487c08aa46a64736f6c63430008130033",
  "linkReferences": {},
  "deployedLinkReferences": {}
}